{
	"AnyERC20Splitter.sol": {
		"NativePaymentSplitter": {
			"abi": [
				{
					"inputs": [
						{
							"internalType": "address[]",
							"name": "_payees",
							"type": "address[]"
						},
						{
							"internalType": "uint256[]",
							"name": "_payeePercentages",
							"type": "uint256[]"
						},
						{
							"internalType": "address",
							"name": "_tokenAddress",
							"type": "address"
						}
					],
					"stateMutability": "nonpayable",
					"type": "constructor"
				},
				{
					"inputs": [
						{
							"internalType": "address",
							"name": "newTokenAddress",
							"type": "address"
						}
					],
					"name": "changeTokenAddress",
					"outputs": [],
					"stateMutability": "nonpayable",
					"type": "function"
				},
				{
					"inputs": [],
					"name": "distribute",
					"outputs": [],
					"stateMutability": "nonpayable",
					"type": "function"
				},
				{
					"inputs": [],
					"name": "getTokenBalance",
					"outputs": [
						{
							"internalType": "uint256",
							"name": "",
							"type": "uint256"
						}
					],
					"stateMutability": "view",
					"type": "function"
				},
				{
					"inputs": [],
					"name": "owner",
					"outputs": [
						{
							"internalType": "address",
							"name": "",
							"type": "address"
						}
					],
					"stateMutability": "view",
					"type": "function"
				},
				{
					"inputs": [
						{
							"internalType": "uint256",
							"name": "",
							"type": "uint256"
						}
					],
					"name": "payeePercentages",
					"outputs": [
						{
							"internalType": "uint256",
							"name": "",
							"type": "uint256"
						}
					],
					"stateMutability": "view",
					"type": "function"
				},
				{
					"inputs": [
						{
							"internalType": "uint256",
							"name": "",
							"type": "uint256"
						}
					],
					"name": "payees",
					"outputs": [
						{
							"internalType": "address",
							"name": "",
							"type": "address"
						}
					],
					"stateMutability": "view",
					"type": "function"
				},
				{
					"inputs": [
						{
							"internalType": "address",
							"name": "tokenToRecover",
							"type": "address"
						},
						{
							"internalType": "uint256",
							"name": "amount",
							"type": "uint256"
						}
					],
					"name": "recoverLostFunds",
					"outputs": [],
					"stateMutability": "nonpayable",
					"type": "function"
				},
				{
					"inputs": [],
					"name": "tokenAddress",
					"outputs": [
						{
							"internalType": "address",
							"name": "",
							"type": "address"
						}
					],
					"stateMutability": "view",
					"type": "function"
				},
				{
					"inputs": [
						{
							"internalType": "address",
							"name": "newOwner",
							"type": "address"
						}
					],
					"name": "transferOwnership",
					"outputs": [],
					"stateMutability": "nonpayable",
					"type": "function"
				},
				{
					"inputs": [
						{
							"internalType": "address[]",
							"name": "_payees",
							"type": "address[]"
						},
						{
							"internalType": "uint256[]",
							"name": "_payeePercentages",
							"type": "uint256[]"
						}
					],
					"name": "updatePayees",
					"outputs": [],
					"stateMutability": "nonpayable",
					"type": "function"
				},
				{
					"inputs": [],
					"name": "withdrawTokens",
					"outputs": [],
					"stateMutability": "nonpayable",
					"type": "function"
				},
				{
					"stateMutability": "payable",
					"type": "receive"
				}
			],
			"devdoc": {
				"kind": "dev",
				"methods": {},
				"version": 1
			},
			"evm": {
				"assembly": "    /* \"AnyERC20Splitter.sol\":1105:4279  contract NativePaymentSplitter {... */\n  mstore(0x40, 0x80)\n    /* \"AnyERC20Splitter.sol\":1270:1733  constructor(address[] memory _payees, uint256[] memory _payeePercentages, address _tokenAddress) {... */\n  callvalue\n  dup1\n  iszero\n  tag_1\n  jumpi\n  0x00\n  dup1\n  revert\ntag_1:\n  pop\n  mload(0x40)\n  sub(codesize, bytecodeSize)\n  dup1\n  bytecodeSize\n  dup4\n  codecopy\n  dup2\n  dup2\n  add\n  0x40\n  mstore\n  dup2\n  add\n  swap1\n  tag_2\n  swap2\n  swap1\n  tag_3\n  jump\t// in\ntag_2:\n    /* \"AnyERC20Splitter.sol\":1402:1403  0 */\n  0x00\n    /* \"AnyERC20Splitter.sol\":1385:1392  _payees */\n  dup4\n    /* \"AnyERC20Splitter.sol\":1385:1399  _payees.length */\n  mload\n    /* \"AnyERC20Splitter.sol\":1385:1403  _payees.length > 0 */\n  gt\n    /* \"AnyERC20Splitter.sol\":1377:1426  require(_payees.length > 0, \"No payees provided\") */\n  tag_6\n  jumpi\n  mload(0x40)\n  0x08c379a000000000000000000000000000000000000000000000000000000000\n  dup2\n  mstore\n  0x04\n  add\n  tag_7\n  swap1\n  tag_8\n  jump\t// in\ntag_7:\n  mload(0x40)\n  dup1\n  swap2\n  sub\n  swap1\n  revert\ntag_6:\n    /* \"AnyERC20Splitter.sol\":1462:1479  _payeePercentages */\n  dup2\n    /* \"AnyERC20Splitter.sol\":1462:1486  _payeePercentages.length */\n  mload\n    /* \"AnyERC20Splitter.sol\":1444:1451  _payees */\n  dup4\n    /* \"AnyERC20Splitter.sol\":1444:1458  _payees.length */\n  mload\n    /* \"AnyERC20Splitter.sol\":1444:1486  _payees.length == _payeePercentages.length */\n  eq\n    /* \"AnyERC20Splitter.sol\":1436:1516  require(_payees.length == _payeePercentages.length, \"Invalid payee percentages\") */\n  tag_9\n  jumpi\n  mload(0x40)\n  0x08c379a000000000000000000000000000000000000000000000000000000000\n  dup2\n  mstore\n  0x04\n  add\n  tag_10\n  swap1\n  tag_11\n  jump\t// in\ntag_10:\n  mload(0x40)\n  dup1\n  swap2\n  sub\n  swap1\n  revert\ntag_9:\n    /* \"AnyERC20Splitter.sol\":1559:1560  0 */\n  0x00\n    /* \"AnyERC20Splitter.sol\":1534:1561  _tokenAddress != address(0) */\n  0xffffffffffffffffffffffffffffffffffffffff\n  and\n    /* \"AnyERC20Splitter.sol\":1534:1547  _tokenAddress */\n  dup2\n    /* \"AnyERC20Splitter.sol\":1534:1561  _tokenAddress != address(0) */\n  0xffffffffffffffffffffffffffffffffffffffff\n  and\n  sub\n    /* \"AnyERC20Splitter.sol\":1526:1587  require(_tokenAddress != address(0), \"Invalid token address\") */\n  tag_12\n  jumpi\n  mload(0x40)\n  0x08c379a000000000000000000000000000000000000000000000000000000000\n  dup2\n  mstore\n  0x04\n  add\n  tag_13\n  swap1\n  tag_14\n  jump\t// in\ntag_13:\n  mload(0x40)\n  dup1\n  swap2\n  sub\n  swap1\n  revert\ntag_12:\n    /* \"AnyERC20Splitter.sol\":1606:1616  msg.sender */\n  caller\n    /* \"AnyERC20Splitter.sol\":1598:1603  owner */\n  0x02\n  0x00\n    /* \"AnyERC20Splitter.sol\":1598:1616  owner = msg.sender */\n  0x0100\n  exp\n  dup2\n  sload\n  dup2\n  0xffffffffffffffffffffffffffffffffffffffff\n  mul\n  not\n  and\n  swap1\n  dup4\n  0xffffffffffffffffffffffffffffffffffffffff\n  and\n  mul\n  or\n  swap1\n  sstore\n  pop\n    /* \"AnyERC20Splitter.sol\":1635:1642  _payees */\n  dup3\n    /* \"AnyERC20Splitter.sol\":1626:1632  payees */\n  0x00\n    /* \"AnyERC20Splitter.sol\":1626:1642  payees = _payees */\n  swap1\n  dup1\n  mload\n  swap1\n  0x20\n  add\n  swap1\n  tag_15\n  swap3\n  swap2\n  swap1\n  tag_16\n  jump\t// in\ntag_15:\n  pop\n    /* \"AnyERC20Splitter.sol\":1671:1688  _payeePercentages */\n  dup2\n    /* \"AnyERC20Splitter.sol\":1652:1668  payeePercentages */\n  0x01\n    /* \"AnyERC20Splitter.sol\":1652:1688  payeePercentages = _payeePercentages */\n  swap1\n  dup1\n  mload\n  swap1\n  0x20\n  add\n  swap1\n  tag_17\n  swap3\n  swap2\n  swap1\n  tag_18\n  jump\t// in\ntag_17:\n  pop\n    /* \"AnyERC20Splitter.sol\":1713:1726  _tokenAddress */\n  dup1\n    /* \"AnyERC20Splitter.sol\":1698:1710  tokenAddress */\n  0x03\n  0x00\n    /* \"AnyERC20Splitter.sol\":1698:1726  tokenAddress = _tokenAddress */\n  0x0100\n  exp\n  dup2\n  sload\n  dup2\n  0xffffffffffffffffffffffffffffffffffffffff\n  mul\n  not\n  and\n  swap1\n  dup4\n  0xffffffffffffffffffffffffffffffffffffffff\n  and\n  mul\n  or\n  swap1\n  sstore\n  pop\n    /* \"AnyERC20Splitter.sol\":1270:1733  constructor(address[] memory _payees, uint256[] memory _payeePercentages, address _tokenAddress) {... */\n  pop\n  pop\n  pop\n    /* \"AnyERC20Splitter.sol\":1105:4279  contract NativePaymentSplitter {... */\n  jump(tag_19)\ntag_16:\n  dup3\n  dup1\n  sload\n  dup3\n  dup3\n  sstore\n  swap1\n  0x00\n  mstore\n  keccak256(0x00, 0x20)\n  swap1\n  dup2\n  add\n  swap3\n  dup3\n  iszero\n  tag_20\n  jumpi\n  swap2\n  0x20\n  mul\n  dup3\n  add\ntag_21:\n  dup3\n  dup2\n  gt\n  iszero\n  tag_22\n  jumpi\n  dup3\n  mload\n  dup3\n  exp(0x0100, 0x00)\n  dup2\n  sload\n  dup2\n  0xffffffffffffffffffffffffffffffffffffffff\n  mul\n  not\n  and\n  swap1\n  dup4\n  0xffffffffffffffffffffffffffffffffffffffff\n  and\n  mul\n  or\n  swap1\n  sstore\n  pop\n  swap2\n  0x20\n  add\n  swap2\n  swap1\n  0x01\n  add\n  swap1\n  jump(tag_21)\ntag_22:\ntag_20:\n  pop\n  swap1\n  pop\n  tag_23\n  swap2\n  swap1\n  tag_24\n  jump\t// in\ntag_23:\n  pop\n  swap1\n  jump\t// out\ntag_18:\n  dup3\n  dup1\n  sload\n  dup3\n  dup3\n  sstore\n  swap1\n  0x00\n  mstore\n  keccak256(0x00, 0x20)\n  swap1\n  dup2\n  add\n  swap3\n  dup3\n  iszero\n  tag_25\n  jumpi\n  swap2\n  0x20\n  mul\n  dup3\n  add\ntag_26:\n  dup3\n  dup2\n  gt\n  iszero\n  tag_27\n  jumpi\n  dup3\n  mload\n  dup3\n  sstore\n  swap2\n  0x20\n  add\n  swap2\n  swap1\n  0x01\n  add\n  swap1\n  jump(tag_26)\ntag_27:\ntag_25:\n  pop\n  swap1\n  pop\n  tag_28\n  swap2\n  swap1\n  tag_24\n  jump\t// in\ntag_28:\n  pop\n  swap1\n  jump\t// out\ntag_24:\ntag_29:\n  dup1\n  dup3\n  gt\n  iszero\n  tag_30\n  jumpi\n  0x00\n  dup2\n  0x00\n  swap1\n  sstore\n  pop\n  0x01\n  add\n  jump(tag_29)\ntag_30:\n  pop\n  swap1\n  jump\t// out\n    /* \"#utility.yul\":7:82   */\ntag_31:\n    /* \"#utility.yul\":40:46   */\n  0x00\n    /* \"#utility.yul\":73:75   */\n  0x40\n    /* \"#utility.yul\":67:76   */\n  mload\n    /* \"#utility.yul\":57:76   */\n  swap1\n  pop\n    /* \"#utility.yul\":7:82   */\n  swap1\n  jump\t// out\n    /* \"#utility.yul\":88:205   */\ntag_32:\n    /* \"#utility.yul\":197:198   */\n  0x00\n    /* \"#utility.yul\":194:195   */\n  dup1\n    /* \"#utility.yul\":187:199   */\n  revert\n    /* \"#utility.yul\":211:328   */\ntag_33:\n    /* \"#utility.yul\":320:321   */\n  0x00\n    /* \"#utility.yul\":317:318   */\n  dup1\n    /* \"#utility.yul\":310:322   */\n  revert\n    /* \"#utility.yul\":334:451   */\ntag_34:\n    /* \"#utility.yul\":443:444   */\n  0x00\n    /* \"#utility.yul\":440:441   */\n  dup1\n    /* \"#utility.yul\":433:445   */\n  revert\n    /* \"#utility.yul\":457:559   */\ntag_35:\n    /* \"#utility.yul\":498:504   */\n  0x00\n    /* \"#utility.yul\":549:551   */\n  0x1f\n    /* \"#utility.yul\":545:552   */\n  not\n    /* \"#utility.yul\":540:542   */\n  0x1f\n    /* \"#utility.yul\":533:538   */\n  dup4\n    /* \"#utility.yul\":529:543   */\n  add\n    /* \"#utility.yul\":525:553   */\n  and\n    /* \"#utility.yul\":515:553   */\n  swap1\n  pop\n    /* \"#utility.yul\":457:559   */\n  swap2\n  swap1\n  pop\n  jump\t// out\n    /* \"#utility.yul\":565:745   */\ntag_36:\n    /* \"#utility.yul\":613:690   */\n  0x4e487b7100000000000000000000000000000000000000000000000000000000\n    /* \"#utility.yul\":610:611   */\n  0x00\n    /* \"#utility.yul\":603:691   */\n  mstore\n    /* \"#utility.yul\":710:714   */\n  0x41\n    /* \"#utility.yul\":707:708   */\n  0x04\n    /* \"#utility.yul\":700:715   */\n  mstore\n    /* \"#utility.yul\":734:738   */\n  0x24\n    /* \"#utility.yul\":731:732   */\n  0x00\n    /* \"#utility.yul\":724:739   */\n  revert\n    /* \"#utility.yul\":751:1032   */\ntag_37:\n    /* \"#utility.yul\":834:861   */\n  tag_68\n    /* \"#utility.yul\":856:860   */\n  dup3\n    /* \"#utility.yul\":834:861   */\n  tag_35\n  jump\t// in\ntag_68:\n    /* \"#utility.yul\":826:832   */\n  dup2\n    /* \"#utility.yul\":822:862   */\n  add\n    /* \"#utility.yul\":964:970   */\n  dup2\n    /* \"#utility.yul\":952:962   */\n  dup2\n    /* \"#utility.yul\":949:971   */\n  lt\n    /* \"#utility.yul\":928:946   */\n  0xffffffffffffffff\n    /* \"#utility.yul\":916:926   */\n  dup3\n    /* \"#utility.yul\":913:947   */\n  gt\n    /* \"#utility.yul\":910:972   */\n  or\n    /* \"#utility.yul\":907:995   */\n  iszero\n  tag_69\n  jumpi\n    /* \"#utility.yul\":975:993   */\n  tag_70\n  tag_36\n  jump\t// in\ntag_70:\n    /* \"#utility.yul\":907:995   */\ntag_69:\n    /* \"#utility.yul\":1015:1025   */\n  dup1\n    /* \"#utility.yul\":1011:1013   */\n  0x40\n    /* \"#utility.yul\":1004:1026   */\n  mstore\n    /* \"#utility.yul\":794:1032   */\n  pop\n    /* \"#utility.yul\":751:1032   */\n  pop\n  pop\n  jump\t// out\n    /* \"#utility.yul\":1038:1167   */\ntag_38:\n    /* \"#utility.yul\":1072:1078   */\n  0x00\n    /* \"#utility.yul\":1099:1119   */\n  tag_72\n  tag_31\n  jump\t// in\ntag_72:\n    /* \"#utility.yul\":1089:1119   */\n  swap1\n  pop\n    /* \"#utility.yul\":1128:1161   */\n  tag_73\n    /* \"#utility.yul\":1156:1160   */\n  dup3\n    /* \"#utility.yul\":1148:1154   */\n  dup3\n    /* \"#utility.yul\":1128:1161   */\n  tag_37\n  jump\t// in\ntag_73:\n    /* \"#utility.yul\":1038:1167   */\n  swap2\n  swap1\n  pop\n  jump\t// out\n    /* \"#utility.yul\":1173:1484   */\ntag_39:\n    /* \"#utility.yul\":1250:1254   */\n  0x00\n    /* \"#utility.yul\":1340:1358   */\n  0xffffffffffffffff\n    /* \"#utility.yul\":1332:1338   */\n  dup3\n    /* \"#utility.yul\":1329:1359   */\n  gt\n    /* \"#utility.yul\":1326:1382   */\n  iszero\n  tag_75\n  jumpi\n    /* \"#utility.yul\":1362:1380   */\n  tag_76\n  tag_36\n  jump\t// in\ntag_76:\n    /* \"#utility.yul\":1326:1382   */\ntag_75:\n    /* \"#utility.yul\":1412:1416   */\n  0x20\n    /* \"#utility.yul\":1404:1410   */\n  dup3\n    /* \"#utility.yul\":1400:1417   */\n  mul\n    /* \"#utility.yul\":1392:1417   */\n  swap1\n  pop\n    /* \"#utility.yul\":1472:1476   */\n  0x20\n    /* \"#utility.yul\":1466:1470   */\n  dup2\n    /* \"#utility.yul\":1462:1477   */\n  add\n    /* \"#utility.yul\":1454:1477   */\n  swap1\n  pop\n    /* \"#utility.yul\":1173:1484   */\n  swap2\n  swap1\n  pop\n  jump\t// out\n    /* \"#utility.yul\":1490:1607   */\ntag_40:\n    /* \"#utility.yul\":1599:1600   */\n  0x00\n    /* \"#utility.yul\":1596:1597   */\n  dup1\n    /* \"#utility.yul\":1589:1601   */\n  revert\n    /* \"#utility.yul\":1613:1739   */\ntag_41:\n    /* \"#utility.yul\":1650:1657   */\n  0x00\n    /* \"#utility.yul\":1690:1732   */\n  0xffffffffffffffffffffffffffffffffffffffff\n    /* \"#utility.yul\":1683:1688   */\n  dup3\n    /* \"#utility.yul\":1679:1733   */\n  and\n    /* \"#utility.yul\":1668:1733   */\n  swap1\n  pop\n    /* \"#utility.yul\":1613:1739   */\n  swap2\n  swap1\n  pop\n  jump\t// out\n    /* \"#utility.yul\":1745:1841   */\ntag_42:\n    /* \"#utility.yul\":1782:1789   */\n  0x00\n    /* \"#utility.yul\":1811:1835   */\n  tag_80\n    /* \"#utility.yul\":1829:1834   */\n  dup3\n    /* \"#utility.yul\":1811:1835   */\n  tag_41\n  jump\t// in\ntag_80:\n    /* \"#utility.yul\":1800:1835   */\n  swap1\n  pop\n    /* \"#utility.yul\":1745:1841   */\n  swap2\n  swap1\n  pop\n  jump\t// out\n    /* \"#utility.yul\":1847:1969   */\ntag_43:\n    /* \"#utility.yul\":1920:1944   */\n  tag_82\n    /* \"#utility.yul\":1938:1943   */\n  dup2\n    /* \"#utility.yul\":1920:1944   */\n  tag_42\n  jump\t// in\ntag_82:\n    /* \"#utility.yul\":1913:1918   */\n  dup2\n    /* \"#utility.yul\":1910:1945   */\n  eq\n    /* \"#utility.yul\":1900:1963   */\n  tag_83\n  jumpi\n    /* \"#utility.yul\":1959:1960   */\n  0x00\n    /* \"#utility.yul\":1956:1957   */\n  dup1\n    /* \"#utility.yul\":1949:1961   */\n  revert\n    /* \"#utility.yul\":1900:1963   */\ntag_83:\n    /* \"#utility.yul\":1847:1969   */\n  pop\n  jump\t// out\n    /* \"#utility.yul\":1975:2118   */\ntag_44:\n    /* \"#utility.yul\":2032:2037   */\n  0x00\n    /* \"#utility.yul\":2063:2069   */\n  dup2\n    /* \"#utility.yul\":2057:2070   */\n  mload\n    /* \"#utility.yul\":2048:2070   */\n  swap1\n  pop\n    /* \"#utility.yul\":2079:2112   */\n  tag_85\n    /* \"#utility.yul\":2106:2111   */\n  dup2\n    /* \"#utility.yul\":2079:2112   */\n  tag_43\n  jump\t// in\ntag_85:\n    /* \"#utility.yul\":1975:2118   */\n  swap3\n  swap2\n  pop\n  pop\n  jump\t// out\n    /* \"#utility.yul\":2141:2873   */\ntag_45:\n    /* \"#utility.yul\":2248:2253   */\n  0x00\n    /* \"#utility.yul\":2273:2354   */\n  tag_87\n    /* \"#utility.yul\":2289:2353   */\n  tag_88\n    /* \"#utility.yul\":2346:2352   */\n  dup5\n    /* \"#utility.yul\":2289:2353   */\n  tag_39\n  jump\t// in\ntag_88:\n    /* \"#utility.yul\":2273:2354   */\n  tag_38\n  jump\t// in\ntag_87:\n    /* \"#utility.yul\":2264:2354   */\n  swap1\n  pop\n    /* \"#utility.yul\":2374:2379   */\n  dup1\n    /* \"#utility.yul\":2403:2409   */\n  dup4\n    /* \"#utility.yul\":2396:2401   */\n  dup3\n    /* \"#utility.yul\":2389:2410   */\n  mstore\n    /* \"#utility.yul\":2437:2441   */\n  0x20\n    /* \"#utility.yul\":2430:2435   */\n  dup3\n    /* \"#utility.yul\":2426:2442   */\n  add\n    /* \"#utility.yul\":2419:2442   */\n  swap1\n  pop\n    /* \"#utility.yul\":2490:2494   */\n  0x20\n    /* \"#utility.yul\":2482:2488   */\n  dup5\n    /* \"#utility.yul\":2478:2495   */\n  mul\n    /* \"#utility.yul\":2470:2476   */\n  dup4\n    /* \"#utility.yul\":2466:2496   */\n  add\n    /* \"#utility.yul\":2519:2522   */\n  dup6\n    /* \"#utility.yul\":2511:2517   */\n  dup2\n    /* \"#utility.yul\":2508:2523   */\n  gt\n    /* \"#utility.yul\":2505:2627   */\n  iszero\n  tag_89\n  jumpi\n    /* \"#utility.yul\":2538:2617   */\n  tag_90\n  tag_40\n  jump\t// in\ntag_90:\n    /* \"#utility.yul\":2505:2627   */\ntag_89:\n    /* \"#utility.yul\":2653:2659   */\n  dup4\n    /* \"#utility.yul\":2636:2867   */\ntag_91:\n    /* \"#utility.yul\":2670:2676   */\n  dup2\n    /* \"#utility.yul\":2665:2668   */\n  dup2\n    /* \"#utility.yul\":2662:2677   */\n  lt\n    /* \"#utility.yul\":2636:2867   */\n  iszero\n  tag_93\n  jumpi\n    /* \"#utility.yul\":2745:2748   */\n  dup1\n    /* \"#utility.yul\":2774:2822   */\n  tag_94\n    /* \"#utility.yul\":2818:2821   */\n  dup9\n    /* \"#utility.yul\":2806:2816   */\n  dup3\n    /* \"#utility.yul\":2774:2822   */\n  tag_44\n  jump\t// in\ntag_94:\n    /* \"#utility.yul\":2769:2772   */\n  dup5\n    /* \"#utility.yul\":2762:2823   */\n  mstore\n    /* \"#utility.yul\":2852:2856   */\n  0x20\n    /* \"#utility.yul\":2847:2850   */\n  dup5\n    /* \"#utility.yul\":2843:2857   */\n  add\n    /* \"#utility.yul\":2836:2857   */\n  swap4\n  pop\n    /* \"#utility.yul\":2712:2867   */\n  pop\n    /* \"#utility.yul\":2696:2700   */\n  0x20\n    /* \"#utility.yul\":2691:2694   */\n  dup2\n    /* \"#utility.yul\":2687:2701   */\n  add\n    /* \"#utility.yul\":2680:2701   */\n  swap1\n  pop\n    /* \"#utility.yul\":2636:2867   */\n  jump(tag_91)\ntag_93:\n    /* \"#utility.yul\":2640:2661   */\n  pop\n    /* \"#utility.yul\":2254:2873   */\n  pop\n  pop\n    /* \"#utility.yul\":2141:2873   */\n  swap4\n  swap3\n  pop\n  pop\n  pop\n  jump\t// out\n    /* \"#utility.yul\":2896:3281   */\ntag_46:\n    /* \"#utility.yul\":2978:2983   */\n  0x00\n    /* \"#utility.yul\":3027:3030   */\n  dup3\n    /* \"#utility.yul\":3020:3024   */\n  0x1f\n    /* \"#utility.yul\":3012:3018   */\n  dup4\n    /* \"#utility.yul\":3008:3025   */\n  add\n    /* \"#utility.yul\":3004:3031   */\n  slt\n    /* \"#utility.yul\":2994:3116   */\n  tag_96\n  jumpi\n    /* \"#utility.yul\":3035:3114   */\n  tag_97\n  tag_34\n  jump\t// in\ntag_97:\n    /* \"#utility.yul\":2994:3116   */\ntag_96:\n    /* \"#utility.yul\":3145:3151   */\n  dup2\n    /* \"#utility.yul\":3139:3152   */\n  mload\n    /* \"#utility.yul\":3170:3275   */\n  tag_98\n    /* \"#utility.yul\":3271:3274   */\n  dup5\n    /* \"#utility.yul\":3263:3269   */\n  dup3\n    /* \"#utility.yul\":3256:3260   */\n  0x20\n    /* \"#utility.yul\":3248:3254   */\n  dup7\n    /* \"#utility.yul\":3244:3261   */\n  add\n    /* \"#utility.yul\":3170:3275   */\n  tag_45\n  jump\t// in\ntag_98:\n    /* \"#utility.yul\":3161:3275   */\n  swap2\n  pop\n    /* \"#utility.yul\":2984:3281   */\n  pop\n    /* \"#utility.yul\":2896:3281   */\n  swap3\n  swap2\n  pop\n  pop\n  jump\t// out\n    /* \"#utility.yul\":3287:3598   */\ntag_47:\n    /* \"#utility.yul\":3364:3368   */\n  0x00\n    /* \"#utility.yul\":3454:3472   */\n  0xffffffffffffffff\n    /* \"#utility.yul\":3446:3452   */\n  dup3\n    /* \"#utility.yul\":3443:3473   */\n  gt\n    /* \"#utility.yul\":3440:3496   */\n  iszero\n  tag_100\n  jumpi\n    /* \"#utility.yul\":3476:3494   */\n  tag_101\n  tag_36\n  jump\t// in\ntag_101:\n    /* \"#utility.yul\":3440:3496   */\ntag_100:\n    /* \"#utility.yul\":3526:3530   */\n  0x20\n    /* \"#utility.yul\":3518:3524   */\n  dup3\n    /* \"#utility.yul\":3514:3531   */\n  mul\n    /* \"#utility.yul\":3506:3531   */\n  swap1\n  pop\n    /* \"#utility.yul\":3586:3590   */\n  0x20\n    /* \"#utility.yul\":3580:3584   */\n  dup2\n    /* \"#utility.yul\":3576:3591   */\n  add\n    /* \"#utility.yul\":3568:3591   */\n  swap1\n  pop\n    /* \"#utility.yul\":3287:3598   */\n  swap2\n  swap1\n  pop\n  jump\t// out\n    /* \"#utility.yul\":3604:3681   */\ntag_48:\n    /* \"#utility.yul\":3641:3648   */\n  0x00\n    /* \"#utility.yul\":3670:3675   */\n  dup2\n    /* \"#utility.yul\":3659:3675   */\n  swap1\n  pop\n    /* \"#utility.yul\":3604:3681   */\n  swap2\n  swap1\n  pop\n  jump\t// out\n    /* \"#utility.yul\":3687:3809   */\ntag_49:\n    /* \"#utility.yul\":3760:3784   */\n  tag_104\n    /* \"#utility.yul\":3778:3783   */\n  dup2\n    /* \"#utility.yul\":3760:3784   */\n  tag_48\n  jump\t// in\ntag_104:\n    /* \"#utility.yul\":3753:3758   */\n  dup2\n    /* \"#utility.yul\":3750:3785   */\n  eq\n    /* \"#utility.yul\":3740:3803   */\n  tag_105\n  jumpi\n    /* \"#utility.yul\":3799:3800   */\n  0x00\n    /* \"#utility.yul\":3796:3797   */\n  dup1\n    /* \"#utility.yul\":3789:3801   */\n  revert\n    /* \"#utility.yul\":3740:3803   */\ntag_105:\n    /* \"#utility.yul\":3687:3809   */\n  pop\n  jump\t// out\n    /* \"#utility.yul\":3815:3958   */\ntag_50:\n    /* \"#utility.yul\":3872:3877   */\n  0x00\n    /* \"#utility.yul\":3903:3909   */\n  dup2\n    /* \"#utility.yul\":3897:3910   */\n  mload\n    /* \"#utility.yul\":3888:3910   */\n  swap1\n  pop\n    /* \"#utility.yul\":3919:3952   */\n  tag_107\n    /* \"#utility.yul\":3946:3951   */\n  dup2\n    /* \"#utility.yul\":3919:3952   */\n  tag_49\n  jump\t// in\ntag_107:\n    /* \"#utility.yul\":3815:3958   */\n  swap3\n  swap2\n  pop\n  pop\n  jump\t// out\n    /* \"#utility.yul\":3981:4713   */\ntag_51:\n    /* \"#utility.yul\":4088:4093   */\n  0x00\n    /* \"#utility.yul\":4113:4194   */\n  tag_109\n    /* \"#utility.yul\":4129:4193   */\n  tag_110\n    /* \"#utility.yul\":4186:4192   */\n  dup5\n    /* \"#utility.yul\":4129:4193   */\n  tag_47\n  jump\t// in\ntag_110:\n    /* \"#utility.yul\":4113:4194   */\n  tag_38\n  jump\t// in\ntag_109:\n    /* \"#utility.yul\":4104:4194   */\n  swap1\n  pop\n    /* \"#utility.yul\":4214:4219   */\n  dup1\n    /* \"#utility.yul\":4243:4249   */\n  dup4\n    /* \"#utility.yul\":4236:4241   */\n  dup3\n    /* \"#utility.yul\":4229:4250   */\n  mstore\n    /* \"#utility.yul\":4277:4281   */\n  0x20\n    /* \"#utility.yul\":4270:4275   */\n  dup3\n    /* \"#utility.yul\":4266:4282   */\n  add\n    /* \"#utility.yul\":4259:4282   */\n  swap1\n  pop\n    /* \"#utility.yul\":4330:4334   */\n  0x20\n    /* \"#utility.yul\":4322:4328   */\n  dup5\n    /* \"#utility.yul\":4318:4335   */\n  mul\n    /* \"#utility.yul\":4310:4316   */\n  dup4\n    /* \"#utility.yul\":4306:4336   */\n  add\n    /* \"#utility.yul\":4359:4362   */\n  dup6\n    /* \"#utility.yul\":4351:4357   */\n  dup2\n    /* \"#utility.yul\":4348:4363   */\n  gt\n    /* \"#utility.yul\":4345:4467   */\n  iszero\n  tag_111\n  jumpi\n    /* \"#utility.yul\":4378:4457   */\n  tag_112\n  tag_40\n  jump\t// in\ntag_112:\n    /* \"#utility.yul\":4345:4467   */\ntag_111:\n    /* \"#utility.yul\":4493:4499   */\n  dup4\n    /* \"#utility.yul\":4476:4707   */\ntag_113:\n    /* \"#utility.yul\":4510:4516   */\n  dup2\n    /* \"#utility.yul\":4505:4508   */\n  dup2\n    /* \"#utility.yul\":4502:4517   */\n  lt\n    /* \"#utility.yul\":4476:4707   */\n  iszero\n  tag_115\n  jumpi\n    /* \"#utility.yul\":4585:4588   */\n  dup1\n    /* \"#utility.yul\":4614:4662   */\n  tag_116\n    /* \"#utility.yul\":4658:4661   */\n  dup9\n    /* \"#utility.yul\":4646:4656   */\n  dup3\n    /* \"#utility.yul\":4614:4662   */\n  tag_50\n  jump\t// in\ntag_116:\n    /* \"#utility.yul\":4609:4612   */\n  dup5\n    /* \"#utility.yul\":4602:4663   */\n  mstore\n    /* \"#utility.yul\":4692:4696   */\n  0x20\n    /* \"#utility.yul\":4687:4690   */\n  dup5\n    /* \"#utility.yul\":4683:4697   */\n  add\n    /* \"#utility.yul\":4676:4697   */\n  swap4\n  pop\n    /* \"#utility.yul\":4552:4707   */\n  pop\n    /* \"#utility.yul\":4536:4540   */\n  0x20\n    /* \"#utility.yul\":4531:4534   */\n  dup2\n    /* \"#utility.yul\":4527:4541   */\n  add\n    /* \"#utility.yul\":4520:4541   */\n  swap1\n  pop\n    /* \"#utility.yul\":4476:4707   */\n  jump(tag_113)\ntag_115:\n    /* \"#utility.yul\":4480:4501   */\n  pop\n    /* \"#utility.yul\":4094:4713   */\n  pop\n  pop\n    /* \"#utility.yul\":3981:4713   */\n  swap4\n  swap3\n  pop\n  pop\n  pop\n  jump\t// out\n    /* \"#utility.yul\":4736:5121   */\ntag_52:\n    /* \"#utility.yul\":4818:4823   */\n  0x00\n    /* \"#utility.yul\":4867:4870   */\n  dup3\n    /* \"#utility.yul\":4860:4864   */\n  0x1f\n    /* \"#utility.yul\":4852:4858   */\n  dup4\n    /* \"#utility.yul\":4848:4865   */\n  add\n    /* \"#utility.yul\":4844:4871   */\n  slt\n    /* \"#utility.yul\":4834:4956   */\n  tag_118\n  jumpi\n    /* \"#utility.yul\":4875:4954   */\n  tag_119\n  tag_34\n  jump\t// in\ntag_119:\n    /* \"#utility.yul\":4834:4956   */\ntag_118:\n    /* \"#utility.yul\":4985:4991   */\n  dup2\n    /* \"#utility.yul\":4979:4992   */\n  mload\n    /* \"#utility.yul\":5010:5115   */\n  tag_120\n    /* \"#utility.yul\":5111:5114   */\n  dup5\n    /* \"#utility.yul\":5103:5109   */\n  dup3\n    /* \"#utility.yul\":5096:5100   */\n  0x20\n    /* \"#utility.yul\":5088:5094   */\n  dup7\n    /* \"#utility.yul\":5084:5101   */\n  add\n    /* \"#utility.yul\":5010:5115   */\n  tag_51\n  jump\t// in\ntag_120:\n    /* \"#utility.yul\":5001:5115   */\n  swap2\n  pop\n    /* \"#utility.yul\":4824:5121   */\n  pop\n    /* \"#utility.yul\":4736:5121   */\n  swap3\n  swap2\n  pop\n  pop\n  jump\t// out\n    /* \"#utility.yul\":5127:6196   */\ntag_3:\n    /* \"#utility.yul\":5265:5271   */\n  0x00\n    /* \"#utility.yul\":5273:5279   */\n  dup1\n    /* \"#utility.yul\":5281:5287   */\n  0x00\n    /* \"#utility.yul\":5330:5332   */\n  0x60\n    /* \"#utility.yul\":5318:5327   */\n  dup5\n    /* \"#utility.yul\":5309:5316   */\n  dup7\n    /* \"#utility.yul\":5305:5328   */\n  sub\n    /* \"#utility.yul\":5301:5333   */\n  slt\n    /* \"#utility.yul\":5298:5417   */\n  iszero\n  tag_122\n  jumpi\n    /* \"#utility.yul\":5336:5415   */\n  tag_123\n  tag_32\n  jump\t// in\ntag_123:\n    /* \"#utility.yul\":5298:5417   */\ntag_122:\n    /* \"#utility.yul\":5477:5478   */\n  0x00\n    /* \"#utility.yul\":5466:5475   */\n  dup5\n    /* \"#utility.yul\":5462:5479   */\n  add\n    /* \"#utility.yul\":5456:5480   */\n  mload\n    /* \"#utility.yul\":5507:5525   */\n  0xffffffffffffffff\n    /* \"#utility.yul\":5499:5505   */\n  dup2\n    /* \"#utility.yul\":5496:5526   */\n  gt\n    /* \"#utility.yul\":5493:5610   */\n  iszero\n  tag_124\n  jumpi\n    /* \"#utility.yul\":5529:5608   */\n  tag_125\n  tag_33\n  jump\t// in\ntag_125:\n    /* \"#utility.yul\":5493:5610   */\ntag_124:\n    /* \"#utility.yul\":5634:5723   */\n  tag_126\n    /* \"#utility.yul\":5715:5722   */\n  dup7\n    /* \"#utility.yul\":5706:5712   */\n  dup3\n    /* \"#utility.yul\":5695:5704   */\n  dup8\n    /* \"#utility.yul\":5691:5713   */\n  add\n    /* \"#utility.yul\":5634:5723   */\n  tag_46\n  jump\t// in\ntag_126:\n    /* \"#utility.yul\":5624:5723   */\n  swap4\n  pop\n    /* \"#utility.yul\":5427:5733   */\n  pop\n    /* \"#utility.yul\":5793:5795   */\n  0x20\n    /* \"#utility.yul\":5782:5791   */\n  dup5\n    /* \"#utility.yul\":5778:5796   */\n  add\n    /* \"#utility.yul\":5772:5797   */\n  mload\n    /* \"#utility.yul\":5824:5842   */\n  0xffffffffffffffff\n    /* \"#utility.yul\":5816:5822   */\n  dup2\n    /* \"#utility.yul\":5813:5843   */\n  gt\n    /* \"#utility.yul\":5810:5927   */\n  iszero\n  tag_127\n  jumpi\n    /* \"#utility.yul\":5846:5925   */\n  tag_128\n  tag_33\n  jump\t// in\ntag_128:\n    /* \"#utility.yul\":5810:5927   */\ntag_127:\n    /* \"#utility.yul\":5951:6040   */\n  tag_129\n    /* \"#utility.yul\":6032:6039   */\n  dup7\n    /* \"#utility.yul\":6023:6029   */\n  dup3\n    /* \"#utility.yul\":6012:6021   */\n  dup8\n    /* \"#utility.yul\":6008:6030   */\n  add\n    /* \"#utility.yul\":5951:6040   */\n  tag_52\n  jump\t// in\ntag_129:\n    /* \"#utility.yul\":5941:6040   */\n  swap3\n  pop\n    /* \"#utility.yul\":5743:6050   */\n  pop\n    /* \"#utility.yul\":6089:6091   */\n  0x40\n    /* \"#utility.yul\":6115:6179   */\n  tag_130\n    /* \"#utility.yul\":6171:6178   */\n  dup7\n    /* \"#utility.yul\":6162:6168   */\n  dup3\n    /* \"#utility.yul\":6151:6160   */\n  dup8\n    /* \"#utility.yul\":6147:6169   */\n  add\n    /* \"#utility.yul\":6115:6179   */\n  tag_44\n  jump\t// in\ntag_130:\n    /* \"#utility.yul\":6105:6179   */\n  swap2\n  pop\n    /* \"#utility.yul\":6060:6189   */\n  pop\n    /* \"#utility.yul\":5127:6196   */\n  swap3\n  pop\n  swap3\n  pop\n  swap3\n  jump\t// out\n    /* \"#utility.yul\":6202:6371   */\ntag_53:\n    /* \"#utility.yul\":6286:6297   */\n  0x00\n    /* \"#utility.yul\":6320:6326   */\n  dup3\n    /* \"#utility.yul\":6315:6318   */\n  dup3\n    /* \"#utility.yul\":6308:6327   */\n  mstore\n    /* \"#utility.yul\":6360:6364   */\n  0x20\n    /* \"#utility.yul\":6355:6358   */\n  dup3\n    /* \"#utility.yul\":6351:6365   */\n  add\n    /* \"#utility.yul\":6336:6365   */\n  swap1\n  pop\n    /* \"#utility.yul\":6202:6371   */\n  swap3\n  swap2\n  pop\n  pop\n  jump\t// out\n    /* \"#utility.yul\":6377:6545   */\ntag_54:\n    /* \"#utility.yul\":6517:6537   */\n  0x4e6f207061796565732070726f76696465640000000000000000000000000000\n    /* \"#utility.yul\":6513:6514   */\n  0x00\n    /* \"#utility.yul\":6505:6511   */\n  dup3\n    /* \"#utility.yul\":6501:6515   */\n  add\n    /* \"#utility.yul\":6494:6538   */\n  mstore\n    /* \"#utility.yul\":6377:6545   */\n  pop\n  jump\t// out\n    /* \"#utility.yul\":6551:6917   */\ntag_55:\n    /* \"#utility.yul\":6693:6696   */\n  0x00\n    /* \"#utility.yul\":6714:6781   */\n  tag_134\n    /* \"#utility.yul\":6778:6780   */\n  0x12\n    /* \"#utility.yul\":6773:6776   */\n  dup4\n    /* \"#utility.yul\":6714:6781   */\n  tag_53\n  jump\t// in\ntag_134:\n    /* \"#utility.yul\":6707:6781   */\n  swap2\n  pop\n    /* \"#utility.yul\":6790:6883   */\n  tag_135\n    /* \"#utility.yul\":6879:6882   */\n  dup3\n    /* \"#utility.yul\":6790:6883   */\n  tag_54\n  jump\t// in\ntag_135:\n    /* \"#utility.yul\":6908:6910   */\n  0x20\n    /* \"#utility.yul\":6903:6906   */\n  dup3\n    /* \"#utility.yul\":6899:6911   */\n  add\n    /* \"#utility.yul\":6892:6911   */\n  swap1\n  pop\n    /* \"#utility.yul\":6551:6917   */\n  swap2\n  swap1\n  pop\n  jump\t// out\n    /* \"#utility.yul\":6923:7342   */\ntag_8:\n    /* \"#utility.yul\":7089:7093   */\n  0x00\n    /* \"#utility.yul\":7127:7129   */\n  0x20\n    /* \"#utility.yul\":7116:7125   */\n  dup3\n    /* \"#utility.yul\":7112:7130   */\n  add\n    /* \"#utility.yul\":7104:7130   */\n  swap1\n  pop\n    /* \"#utility.yul\":7176:7185   */\n  dup2\n    /* \"#utility.yul\":7170:7174   */\n  dup2\n    /* \"#utility.yul\":7166:7186   */\n  sub\n    /* \"#utility.yul\":7162:7163   */\n  0x00\n    /* \"#utility.yul\":7151:7160   */\n  dup4\n    /* \"#utility.yul\":7147:7164   */\n  add\n    /* \"#utility.yul\":7140:7187   */\n  mstore\n    /* \"#utility.yul\":7204:7335   */\n  tag_137\n    /* \"#utility.yul\":7330:7334   */\n  dup2\n    /* \"#utility.yul\":7204:7335   */\n  tag_55\n  jump\t// in\ntag_137:\n    /* \"#utility.yul\":7196:7335   */\n  swap1\n  pop\n    /* \"#utility.yul\":6923:7342   */\n  swap2\n  swap1\n  pop\n  jump\t// out\n    /* \"#utility.yul\":7348:7523   */\ntag_56:\n    /* \"#utility.yul\":7488:7515   */\n  0x496e76616c69642070617965652070657263656e746167657300000000000000\n    /* \"#utility.yul\":7484:7485   */\n  0x00\n    /* \"#utility.yul\":7476:7482   */\n  dup3\n    /* \"#utility.yul\":7472:7486   */\n  add\n    /* \"#utility.yul\":7465:7516   */\n  mstore\n    /* \"#utility.yul\":7348:7523   */\n  pop\n  jump\t// out\n    /* \"#utility.yul\":7529:7895   */\ntag_57:\n    /* \"#utility.yul\":7671:7674   */\n  0x00\n    /* \"#utility.yul\":7692:7759   */\n  tag_140\n    /* \"#utility.yul\":7756:7758   */\n  0x19\n    /* \"#utility.yul\":7751:7754   */\n  dup4\n    /* \"#utility.yul\":7692:7759   */\n  tag_53\n  jump\t// in\ntag_140:\n    /* \"#utility.yul\":7685:7759   */\n  swap2\n  pop\n    /* \"#utility.yul\":7768:7861   */\n  tag_141\n    /* \"#utility.yul\":7857:7860   */\n  dup3\n    /* \"#utility.yul\":7768:7861   */\n  tag_56\n  jump\t// in\ntag_141:\n    /* \"#utility.yul\":7886:7888   */\n  0x20\n    /* \"#utility.yul\":7881:7884   */\n  dup3\n    /* \"#utility.yul\":7877:7889   */\n  add\n    /* \"#utility.yul\":7870:7889   */\n  swap1\n  pop\n    /* \"#utility.yul\":7529:7895   */\n  swap2\n  swap1\n  pop\n  jump\t// out\n    /* \"#utility.yul\":7901:8320   */\ntag_11:\n    /* \"#utility.yul\":8067:8071   */\n  0x00\n    /* \"#utility.yul\":8105:8107   */\n  0x20\n    /* \"#utility.yul\":8094:8103   */\n  dup3\n    /* \"#utility.yul\":8090:8108   */\n  add\n    /* \"#utility.yul\":8082:8108   */\n  swap1\n  pop\n    /* \"#utility.yul\":8154:8163   */\n  dup2\n    /* \"#utility.yul\":8148:8152   */\n  dup2\n    /* \"#utility.yul\":8144:8164   */\n  sub\n    /* \"#utility.yul\":8140:8141   */\n  0x00\n    /* \"#utility.yul\":8129:8138   */\n  dup4\n    /* \"#utility.yul\":8125:8142   */\n  add\n    /* \"#utility.yul\":8118:8165   */\n  mstore\n    /* \"#utility.yul\":8182:8313   */\n  tag_143\n    /* \"#utility.yul\":8308:8312   */\n  dup2\n    /* \"#utility.yul\":8182:8313   */\n  tag_57\n  jump\t// in\ntag_143:\n    /* \"#utility.yul\":8174:8313   */\n  swap1\n  pop\n    /* \"#utility.yul\":7901:8320   */\n  swap2\n  swap1\n  pop\n  jump\t// out\n    /* \"#utility.yul\":8326:8497   */\ntag_58:\n    /* \"#utility.yul\":8466:8489   */\n  0x496e76616c696420746f6b656e20616464726573730000000000000000000000\n    /* \"#utility.yul\":8462:8463   */\n  0x00\n    /* \"#utility.yul\":8454:8460   */\n  dup3\n    /* \"#utility.yul\":8450:8464   */\n  add\n    /* \"#utility.yul\":8443:8490   */\n  mstore\n    /* \"#utility.yul\":8326:8497   */\n  pop\n  jump\t// out\n    /* \"#utility.yul\":8503:8869   */\ntag_59:\n    /* \"#utility.yul\":8645:8648   */\n  0x00\n    /* \"#utility.yul\":8666:8733   */\n  tag_146\n    /* \"#utility.yul\":8730:8732   */\n  0x15\n    /* \"#utility.yul\":8725:8728   */\n  dup4\n    /* \"#utility.yul\":8666:8733   */\n  tag_53\n  jump\t// in\ntag_146:\n    /* \"#utility.yul\":8659:8733   */\n  swap2\n  pop\n    /* \"#utility.yul\":8742:8835   */\n  tag_147\n    /* \"#utility.yul\":8831:8834   */\n  dup3\n    /* \"#utility.yul\":8742:8835   */\n  tag_58\n  jump\t// in\ntag_147:\n    /* \"#utility.yul\":8860:8862   */\n  0x20\n    /* \"#utility.yul\":8855:8858   */\n  dup3\n    /* \"#utility.yul\":8851:8863   */\n  add\n    /* \"#utility.yul\":8844:8863   */\n  swap1\n  pop\n    /* \"#utility.yul\":8503:8869   */\n  swap2\n  swap1\n  pop\n  jump\t// out\n    /* \"#utility.yul\":8875:9294   */\ntag_14:\n    /* \"#utility.yul\":9041:9045   */\n  0x00\n    /* \"#utility.yul\":9079:9081   */\n  0x20\n    /* \"#utility.yul\":9068:9077   */\n  dup3\n    /* \"#utility.yul\":9064:9082   */\n  add\n    /* \"#utility.yul\":9056:9082   */\n  swap1\n  pop\n    /* \"#utility.yul\":9128:9137   */\n  dup2\n    /* \"#utility.yul\":9122:9126   */\n  dup2\n    /* \"#utility.yul\":9118:9138   */\n  sub\n    /* \"#utility.yul\":9114:9115   */\n  0x00\n    /* \"#utility.yul\":9103:9112   */\n  dup4\n    /* \"#utility.yul\":9099:9116   */\n  add\n    /* \"#utility.yul\":9092:9139   */\n  mstore\n    /* \"#utility.yul\":9156:9287   */\n  tag_149\n    /* \"#utility.yul\":9282:9286   */\n  dup2\n    /* \"#utility.yul\":9156:9287   */\n  tag_59\n  jump\t// in\ntag_149:\n    /* \"#utility.yul\":9148:9287   */\n  swap1\n  pop\n    /* \"#utility.yul\":8875:9294   */\n  swap2\n  swap1\n  pop\n  jump\t// out\n    /* \"AnyERC20Splitter.sol\":1105:4279  contract NativePaymentSplitter {... */\ntag_19:\n  dataSize(sub_0)\n  dup1\n  dataOffset(sub_0)\n  0x00\n  codecopy\n  0x00\n  return\nstop\n\nsub_0: assembly {\n        /* \"AnyERC20Splitter.sol\":1105:4279  contract NativePaymentSplitter {... */\n      mstore(0x40, 0x80)\n      jumpi(tag_1, lt(calldatasize, 0x04))\n      shr(0xe0, calldataload(0x00))\n      dup1\n      0x8f63458c\n      gt\n      tag_14\n      jumpi\n      dup1\n      0x8f63458c\n      eq\n      tag_8\n      jumpi\n      dup1\n      0x9d76ea58\n      eq\n      tag_9\n      jumpi\n      dup1\n      0xc9cda91f\n      eq\n      tag_10\n      jumpi\n      dup1\n      0xd9215050\n      eq\n      tag_11\n      jumpi\n      dup1\n      0xe4fc6b6d\n      eq\n      tag_12\n      jumpi\n      dup1\n      0xf2fde38b\n      eq\n      tag_13\n      jumpi\n      jump(tag_2)\n    tag_14:\n      dup1\n      0x2b29af7f\n      eq\n      tag_3\n      jumpi\n      dup1\n      0x63037b0c\n      eq\n      tag_4\n      jumpi\n      dup1\n      0x82b2e257\n      eq\n      tag_5\n      jumpi\n      dup1\n      0x8d8f2adb\n      eq\n      tag_6\n      jumpi\n      dup1\n      0x8da5cb5b\n      eq\n      tag_7\n      jumpi\n      jump(tag_2)\n    tag_1:\n      jumpi(tag_2, calldatasize)\n        /* \"AnyERC20Splitter.sol\":1885:1897  distribute() */\n      tag_17\n        /* \"AnyERC20Splitter.sol\":1885:1895  distribute */\n      tag_18\n        /* \"AnyERC20Splitter.sol\":1885:1897  distribute() */\n      jump\t// in\n    tag_17:\n        /* \"AnyERC20Splitter.sol\":1105:4279  contract NativePaymentSplitter {... */\n      stop\n    tag_2:\n      0x00\n      dup1\n      revert\n        /* \"AnyERC20Splitter.sol\":1171:1204  uint256[] public payeePercentages */\n    tag_3:\n      callvalue\n      dup1\n      iszero\n      tag_19\n      jumpi\n      0x00\n      dup1\n      revert\n    tag_19:\n      pop\n      tag_20\n      0x04\n      dup1\n      calldatasize\n      sub\n      dup2\n      add\n      swap1\n      tag_21\n      swap2\n      swap1\n      tag_22\n      jump\t// in\n    tag_21:\n      tag_23\n      jump\t// in\n    tag_20:\n      mload(0x40)\n      tag_24\n      swap2\n      swap1\n      tag_25\n      jump\t// in\n    tag_24:\n      mload(0x40)\n      dup1\n      swap2\n      sub\n      swap1\n      return\n        /* \"AnyERC20Splitter.sol\":1142:1165  address[] public payees */\n    tag_4:\n      callvalue\n      dup1\n      iszero\n      tag_26\n      jumpi\n      0x00\n      dup1\n      revert\n    tag_26:\n      pop\n      tag_27\n      0x04\n      dup1\n      calldatasize\n      sub\n      dup2\n      add\n      swap1\n      tag_28\n      swap2\n      swap1\n      tag_22\n      jump\t// in\n    tag_28:\n      tag_29\n      jump\t// in\n    tag_27:\n      mload(0x40)\n      tag_30\n      swap2\n      swap1\n      tag_31\n      jump\t// in\n    tag_30:\n      mload(0x40)\n      dup1\n      swap2\n      sub\n      swap1\n      return\n        /* \"AnyERC20Splitter.sol\":4081:4277  function getTokenBalance() public view returns (uint256) {... */\n    tag_5:\n      callvalue\n      dup1\n      iszero\n      tag_32\n      jumpi\n      0x00\n      dup1\n      revert\n    tag_32:\n      pop\n      tag_33\n      tag_34\n      jump\t// in\n    tag_33:\n      mload(0x40)\n      tag_35\n      swap2\n      swap1\n      tag_25\n      jump\t// in\n    tag_35:\n      mload(0x40)\n      dup1\n      swap2\n      sub\n      swap1\n      return\n        /* \"AnyERC20Splitter.sol\":2995:3316  function withdrawTokens() public onlyOwner {... */\n    tag_6:\n      callvalue\n      dup1\n      iszero\n      tag_36\n      jumpi\n      0x00\n      dup1\n      revert\n    tag_36:\n      pop\n      tag_37\n      tag_38\n      jump\t// in\n    tag_37:\n      stop\n        /* \"AnyERC20Splitter.sol\":1210:1230  address public owner */\n    tag_7:\n      callvalue\n      dup1\n      iszero\n      tag_39\n      jumpi\n      0x00\n      dup1\n      revert\n    tag_39:\n      pop\n      tag_40\n      tag_41\n      jump\t// in\n    tag_40:\n      mload(0x40)\n      tag_42\n      swap2\n      swap1\n      tag_31\n      jump\t// in\n    tag_42:\n      mload(0x40)\n      dup1\n      swap2\n      sub\n      swap1\n      return\n        /* \"AnyERC20Splitter.sol\":3689:4075  function recoverLostFunds(address tokenToRecover, uint256 amount) public onlyOwner {... */\n    tag_8:\n      callvalue\n      dup1\n      iszero\n      tag_43\n      jumpi\n      0x00\n      dup1\n      revert\n    tag_43:\n      pop\n      tag_44\n      0x04\n      dup1\n      calldatasize\n      sub\n      dup2\n      add\n      swap1\n      tag_45\n      swap2\n      swap1\n      tag_46\n      jump\t// in\n    tag_45:\n      tag_47\n      jump\t// in\n    tag_44:\n      stop\n        /* \"AnyERC20Splitter.sol\":1236:1263  address public tokenAddress */\n    tag_9:\n      callvalue\n      dup1\n      iszero\n      tag_48\n      jumpi\n      0x00\n      dup1\n      revert\n    tag_48:\n      pop\n      tag_49\n      tag_50\n      jump\t// in\n    tag_49:\n      mload(0x40)\n      tag_51\n      swap2\n      swap1\n      tag_31\n      jump\t// in\n    tag_51:\n      mload(0x40)\n      dup1\n      swap2\n      sub\n      swap1\n      return\n        /* \"AnyERC20Splitter.sol\":3322:3512  function changeTokenAddress(address newTokenAddress) public onlyOwner {... */\n    tag_10:\n      callvalue\n      dup1\n      iszero\n      tag_52\n      jumpi\n      0x00\n      dup1\n      revert\n    tag_52:\n      pop\n      tag_53\n      0x04\n      dup1\n      calldatasize\n      sub\n      dup2\n      add\n      swap1\n      tag_54\n      swap2\n      swap1\n      tag_55\n      jump\t// in\n    tag_54:\n      tag_56\n      jump\t// in\n    tag_53:\n      stop\n        /* \"AnyERC20Splitter.sol\":2658:2988  function updatePayees(address[] memory _payees, uint256[] memory _payeePercentages) public onlyOwner {... */\n    tag_11:\n      callvalue\n      dup1\n      iszero\n      tag_57\n      jumpi\n      0x00\n      dup1\n      revert\n    tag_57:\n      pop\n      tag_58\n      0x04\n      dup1\n      calldatasize\n      sub\n      dup2\n      add\n      swap1\n      tag_59\n      swap2\n      swap1\n      tag_60\n      jump\t// in\n    tag_59:\n      tag_61\n      jump\t// in\n    tag_58:\n      stop\n        /* \"AnyERC20Splitter.sol\":1910:2652  function distribute() public {... */\n    tag_12:\n      callvalue\n      dup1\n      iszero\n      tag_62\n      jumpi\n      0x00\n      dup1\n      revert\n    tag_62:\n      pop\n      tag_63\n      tag_18\n      jump\t// in\n    tag_63:\n      stop\n        /* \"AnyERC20Splitter.sol\":3518:3683  function transferOwnership(address newOwner) public onlyOwner {... */\n    tag_13:\n      callvalue\n      dup1\n      iszero\n      tag_64\n      jumpi\n      0x00\n      dup1\n      revert\n    tag_64:\n      pop\n      tag_65\n      0x04\n      dup1\n      calldatasize\n      sub\n      dup2\n      add\n      swap1\n      tag_66\n      swap2\n      swap1\n      tag_55\n      jump\t// in\n    tag_66:\n      tag_67\n      jump\t// in\n    tag_65:\n      stop\n        /* \"AnyERC20Splitter.sol\":1910:2652  function distribute() public {... */\n    tag_18:\n        /* \"AnyERC20Splitter.sol\":1981:1982  0 */\n      0x00\n        /* \"AnyERC20Splitter.sol\":1957:1983  tokenAddress != address(0) */\n      0xffffffffffffffffffffffffffffffffffffffff\n      and\n        /* \"AnyERC20Splitter.sol\":1957:1969  tokenAddress */\n      0x03\n      0x00\n      swap1\n      sload\n      swap1\n      0x0100\n      exp\n      swap1\n      div\n      0xffffffffffffffffffffffffffffffffffffffff\n      and\n        /* \"AnyERC20Splitter.sol\":1957:1983  tokenAddress != address(0) */\n      0xffffffffffffffffffffffffffffffffffffffff\n      and\n      sub\n        /* \"AnyERC20Splitter.sol\":1949:2009  require(tokenAddress != address(0), \"Token address not set\") */\n      tag_69\n      jumpi\n      mload(0x40)\n      0x08c379a000000000000000000000000000000000000000000000000000000000\n      dup2\n      mstore\n      0x04\n      add\n      tag_70\n      swap1\n      tag_71\n      jump\t// in\n    tag_70:\n      mload(0x40)\n      dup1\n      swap2\n      sub\n      swap1\n      revert\n    tag_69:\n        /* \"AnyERC20Splitter.sol\":2020:2035  uint256 balance */\n      0x00\n        /* \"AnyERC20Splitter.sol\":2045:2057  tokenAddress */\n      0x03\n      0x00\n      swap1\n      sload\n      swap1\n      0x0100\n      exp\n      swap1\n      div\n      0xffffffffffffffffffffffffffffffffffffffff\n      and\n        /* \"AnyERC20Splitter.sol\":2038:2068  IERC20(tokenAddress).balanceOf */\n      0xffffffffffffffffffffffffffffffffffffffff\n      and\n      0x70a08231\n        /* \"AnyERC20Splitter.sol\":2077:2081  this */\n      address\n        /* \"AnyERC20Splitter.sol\":2038:2083  IERC20(tokenAddress).balanceOf(address(this)) */\n      mload(0x40)\n      dup3\n      0xffffffff\n      and\n      0xe0\n      shl\n      dup2\n      mstore\n      0x04\n      add\n      tag_72\n      swap2\n      swap1\n      tag_31\n      jump\t// in\n    tag_72:\n      0x20\n      mload(0x40)\n      dup1\n      dup4\n      sub\n      dup2\n      dup7\n      gas\n      staticcall\n      iszero\n      dup1\n      iszero\n      tag_74\n      jumpi\n      returndatasize\n      0x00\n      dup1\n      returndatacopy\n      revert(0x00, returndatasize)\n    tag_74:\n      pop\n      pop\n      pop\n      pop\n      mload(0x40)\n      returndatasize\n      not(0x1f)\n      0x1f\n      dup3\n      add\n      and\n      dup3\n      add\n      dup1\n      0x40\n      mstore\n      pop\n      dup2\n      add\n      swap1\n      tag_75\n      swap2\n      swap1\n      tag_76\n      jump\t// in\n    tag_75:\n        /* \"AnyERC20Splitter.sol\":2020:2083  uint256 balance = IERC20(tokenAddress).balanceOf(address(this)) */\n      swap1\n      pop\n        /* \"AnyERC20Splitter.sol\":2111:2112  0 */\n      0x00\n        /* \"AnyERC20Splitter.sol\":2101:2108  balance */\n      dup2\n        /* \"AnyERC20Splitter.sol\":2101:2112  balance > 0 */\n      gt\n        /* \"AnyERC20Splitter.sol\":2093:2140  require(balance > 0, \"No tokens to distribute\") */\n      tag_77\n      jumpi\n      mload(0x40)\n      0x08c379a000000000000000000000000000000000000000000000000000000000\n      dup2\n      mstore\n      0x04\n      add\n      tag_78\n      swap1\n      tag_79\n      jump\t// in\n    tag_78:\n      mload(0x40)\n      dup1\n      swap2\n      sub\n      swap1\n      revert\n    tag_77:\n        /* \"AnyERC20Splitter.sol\":2151:2174  uint256 totalPercentage */\n      0x00\n        /* \"AnyERC20Splitter.sol\":2189:2198  uint256 i */\n      dup1\n        /* \"AnyERC20Splitter.sol\":2201:2202  0 */\n      0x00\n        /* \"AnyERC20Splitter.sol\":2189:2202  uint256 i = 0 */\n      swap1\n      pop\n        /* \"AnyERC20Splitter.sol\":2184:2375  for (uint256 i = 0; i < payeePercentages.length; i++) {... */\n    tag_80:\n        /* \"AnyERC20Splitter.sol\":2208:2224  payeePercentages */\n      0x01\n        /* \"AnyERC20Splitter.sol\":2208:2231  payeePercentages.length */\n      dup1\n      sload\n      swap1\n      pop\n        /* \"AnyERC20Splitter.sol\":2204:2205  i */\n      dup2\n        /* \"AnyERC20Splitter.sol\":2204:2231  i < payeePercentages.length */\n      lt\n        /* \"AnyERC20Splitter.sol\":2184:2375  for (uint256 i = 0; i < payeePercentages.length; i++) {... */\n      iszero\n      tag_81\n      jumpi\n        /* \"AnyERC20Splitter.sol\":2282:2283  0 */\n      0x00\n        /* \"AnyERC20Splitter.sol\":2260:2276  payeePercentages */\n      0x01\n        /* \"AnyERC20Splitter.sol\":2277:2278  i */\n      dup3\n        /* \"AnyERC20Splitter.sol\":2260:2279  payeePercentages[i] */\n      dup2\n      sload\n      dup2\n      lt\n      tag_83\n      jumpi\n      tag_84\n      tag_85\n      jump\t// in\n    tag_84:\n    tag_83:\n      swap1\n      0x00\n      mstore\n      keccak256(0x00, 0x20)\n      add\n      sload\n        /* \"AnyERC20Splitter.sol\":2260:2283  payeePercentages[i] > 0 */\n      gt\n        /* \"AnyERC20Splitter.sol\":2252:2312  require(payeePercentages[i] > 0, \"Invalid payee percentage\") */\n      tag_87\n      jumpi\n      mload(0x40)\n      0x08c379a000000000000000000000000000000000000000000000000000000000\n      dup2\n      mstore\n      0x04\n      add\n      tag_88\n      swap1\n      tag_89\n      jump\t// in\n    tag_88:\n      mload(0x40)\n      dup1\n      swap2\n      sub\n      swap1\n      revert\n    tag_87:\n        /* \"AnyERC20Splitter.sol\":2345:2361  payeePercentages */\n      0x01\n        /* \"AnyERC20Splitter.sol\":2362:2363  i */\n      dup2\n        /* \"AnyERC20Splitter.sol\":2345:2364  payeePercentages[i] */\n      dup2\n      sload\n      dup2\n      lt\n      tag_90\n      jumpi\n      tag_91\n      tag_85\n      jump\t// in\n    tag_91:\n    tag_90:\n      swap1\n      0x00\n      mstore\n      keccak256(0x00, 0x20)\n      add\n      sload\n        /* \"AnyERC20Splitter.sol\":2326:2364  totalPercentage += payeePercentages[i] */\n      dup3\n      tag_93\n      swap2\n      swap1\n      tag_94\n      jump\t// in\n    tag_93:\n      swap2\n      pop\n        /* \"AnyERC20Splitter.sol\":2233:2236  i++ */\n      dup1\n      dup1\n      tag_95\n      swap1\n      tag_96\n      jump\t// in\n    tag_95:\n      swap2\n      pop\n      pop\n        /* \"AnyERC20Splitter.sol\":2184:2375  for (uint256 i = 0; i < payeePercentages.length; i++) {... */\n      jump(tag_80)\n    tag_81:\n      pop\n        /* \"AnyERC20Splitter.sol\":2411:2414  100 */\n      0x64\n        /* \"AnyERC20Splitter.sol\":2392:2407  totalPercentage */\n      dup2\n        /* \"AnyERC20Splitter.sol\":2392:2414  totalPercentage == 100 */\n      eq\n        /* \"AnyERC20Splitter.sol\":2384:2450  require(totalPercentage == 100, \"Total percentage must equal 100\") */\n      tag_97\n      jumpi\n      mload(0x40)\n      0x08c379a000000000000000000000000000000000000000000000000000000000\n      dup2\n      mstore\n      0x04\n      add\n      tag_98\n      swap1\n      tag_99\n      jump\t// in\n    tag_98:\n      mload(0x40)\n      dup1\n      swap2\n      sub\n      swap1\n      revert\n    tag_97:\n        /* \"AnyERC20Splitter.sol\":2466:2475  uint256 i */\n      0x00\n        /* \"AnyERC20Splitter.sol\":2461:2646  for (uint256 i = 0; i < payees.length; i++) {... */\n    tag_100:\n        /* \"AnyERC20Splitter.sol\":2485:2491  payees */\n      0x00\n        /* \"AnyERC20Splitter.sol\":2485:2498  payees.length */\n      dup1\n      sload\n      swap1\n      pop\n        /* \"AnyERC20Splitter.sol\":2481:2482  i */\n      dup2\n        /* \"AnyERC20Splitter.sol\":2481:2498  i < payees.length */\n      lt\n        /* \"AnyERC20Splitter.sol\":2461:2646  for (uint256 i = 0; i < payees.length; i++) {... */\n      iszero\n      tag_101\n      jumpi\n        /* \"AnyERC20Splitter.sol\":2519:2533  uint256 amount */\n      0x00\n        /* \"AnyERC20Splitter.sol\":2570:2573  100 */\n      0x64\n        /* \"AnyERC20Splitter.sol\":2547:2563  payeePercentages */\n      0x01\n        /* \"AnyERC20Splitter.sol\":2564:2565  i */\n      dup4\n        /* \"AnyERC20Splitter.sol\":2547:2566  payeePercentages[i] */\n      dup2\n      sload\n      dup2\n      lt\n      tag_103\n      jumpi\n      tag_104\n      tag_85\n      jump\t// in\n    tag_104:\n    tag_103:\n      swap1\n      0x00\n      mstore\n      keccak256(0x00, 0x20)\n      add\n      sload\n        /* \"AnyERC20Splitter.sol\":2537:2544  balance */\n      dup6\n        /* \"AnyERC20Splitter.sol\":2537:2566  balance * payeePercentages[i] */\n      tag_106\n      swap2\n      swap1\n      tag_107\n      jump\t// in\n    tag_106:\n        /* \"AnyERC20Splitter.sol\":2536:2573  (balance * payeePercentages[i]) / 100 */\n      tag_108\n      swap2\n      swap1\n      tag_109\n      jump\t// in\n    tag_108:\n        /* \"AnyERC20Splitter.sol\":2519:2573  uint256 amount = (balance * payeePercentages[i]) / 100 */\n      swap1\n      pop\n        /* \"AnyERC20Splitter.sol\":2594:2606  tokenAddress */\n      0x03\n      0x00\n      swap1\n      sload\n      swap1\n      0x0100\n      exp\n      swap1\n      div\n      0xffffffffffffffffffffffffffffffffffffffff\n      and\n        /* \"AnyERC20Splitter.sol\":2587:2616  IERC20(tokenAddress).transfer */\n      0xffffffffffffffffffffffffffffffffffffffff\n      and\n      0xa9059cbb\n        /* \"AnyERC20Splitter.sol\":2617:2623  payees */\n      0x00\n        /* \"AnyERC20Splitter.sol\":2624:2625  i */\n      dup5\n        /* \"AnyERC20Splitter.sol\":2617:2626  payees[i] */\n      dup2\n      sload\n      dup2\n      lt\n      tag_110\n      jumpi\n      tag_111\n      tag_85\n      jump\t// in\n    tag_111:\n    tag_110:\n      swap1\n      0x00\n      mstore\n      keccak256(0x00, 0x20)\n      add\n      0x00\n      swap1\n      sload\n      swap1\n      0x0100\n      exp\n      swap1\n      div\n      0xffffffffffffffffffffffffffffffffffffffff\n      and\n        /* \"AnyERC20Splitter.sol\":2628:2634  amount */\n      dup4\n        /* \"AnyERC20Splitter.sol\":2587:2635  IERC20(tokenAddress).transfer(payees[i], amount) */\n      mload(0x40)\n      dup4\n      0xffffffff\n      and\n      0xe0\n      shl\n      dup2\n      mstore\n      0x04\n      add\n      tag_113\n      swap3\n      swap2\n      swap1\n      tag_114\n      jump\t// in\n    tag_113:\n      0x20\n      mload(0x40)\n      dup1\n      dup4\n      sub\n      dup2\n      0x00\n      dup8\n      gas\n      call\n      iszero\n      dup1\n      iszero\n      tag_116\n      jumpi\n      returndatasize\n      0x00\n      dup1\n      returndatacopy\n      revert(0x00, returndatasize)\n    tag_116:\n      pop\n      pop\n      pop\n      pop\n      mload(0x40)\n      returndatasize\n      not(0x1f)\n      0x1f\n      dup3\n      add\n      and\n      dup3\n      add\n      dup1\n      0x40\n      mstore\n      pop\n      dup2\n      add\n      swap1\n      tag_117\n      swap2\n      swap1\n      tag_118\n      jump\t// in\n    tag_117:\n      pop\n        /* \"AnyERC20Splitter.sol\":2505:2646  {... */\n      pop\n        /* \"AnyERC20Splitter.sol\":2500:2503  i++ */\n      dup1\n      dup1\n      tag_119\n      swap1\n      tag_96\n      jump\t// in\n    tag_119:\n      swap2\n      pop\n      pop\n        /* \"AnyERC20Splitter.sol\":2461:2646  for (uint256 i = 0; i < payees.length; i++) {... */\n      jump(tag_100)\n    tag_101:\n      pop\n        /* \"AnyERC20Splitter.sol\":1939:2652  {... */\n      pop\n      pop\n        /* \"AnyERC20Splitter.sol\":1910:2652  function distribute() public {... */\n      jump\t// out\n        /* \"AnyERC20Splitter.sol\":1171:1204  uint256[] public payeePercentages */\n    tag_23:\n      0x01\n      dup2\n      dup2\n      sload\n      dup2\n      lt\n      tag_120\n      jumpi\n      0x00\n      dup1\n      revert\n    tag_120:\n      swap1\n      0x00\n      mstore\n      keccak256(0x00, 0x20)\n      add\n      0x00\n      swap2\n      pop\n      swap1\n      pop\n      sload\n      dup2\n      jump\t// out\n        /* \"AnyERC20Splitter.sol\":1142:1165  address[] public payees */\n    tag_29:\n      0x00\n      dup2\n      dup2\n      sload\n      dup2\n      lt\n      tag_122\n      jumpi\n      0x00\n      dup1\n      revert\n    tag_122:\n      swap1\n      0x00\n      mstore\n      keccak256(0x00, 0x20)\n      add\n      0x00\n      swap2\n      pop\n      sload\n      swap1\n      0x0100\n      exp\n      swap1\n      div\n      0xffffffffffffffffffffffffffffffffffffffff\n      and\n      dup2\n      jump\t// out\n        /* \"AnyERC20Splitter.sol\":4081:4277  function getTokenBalance() public view returns (uint256) {... */\n    tag_34:\n        /* \"AnyERC20Splitter.sol\":4129:4136  uint256 */\n      0x00\n        /* \"AnyERC20Splitter.sol\":4180:4181  0 */\n      dup1\n        /* \"AnyERC20Splitter.sol\":4156:4182  tokenAddress != address(0) */\n      0xffffffffffffffffffffffffffffffffffffffff\n      and\n        /* \"AnyERC20Splitter.sol\":4156:4168  tokenAddress */\n      0x03\n      0x00\n      swap1\n      sload\n      swap1\n      0x0100\n      exp\n      swap1\n      div\n      0xffffffffffffffffffffffffffffffffffffffff\n      and\n        /* \"AnyERC20Splitter.sol\":4156:4182  tokenAddress != address(0) */\n      0xffffffffffffffffffffffffffffffffffffffff\n      and\n      sub\n        /* \"AnyERC20Splitter.sol\":4148:4208  require(tokenAddress != address(0), \"Token address not set\") */\n      tag_125\n      jumpi\n      mload(0x40)\n      0x08c379a000000000000000000000000000000000000000000000000000000000\n      dup2\n      mstore\n      0x04\n      add\n      tag_126\n      swap1\n      tag_71\n      jump\t// in\n    tag_126:\n      mload(0x40)\n      dup1\n      swap2\n      sub\n      swap1\n      revert\n    tag_125:\n        /* \"AnyERC20Splitter.sol\":4232:4244  tokenAddress */\n      0x03\n      0x00\n      swap1\n      sload\n      swap1\n      0x0100\n      exp\n      swap1\n      div\n      0xffffffffffffffffffffffffffffffffffffffff\n      and\n        /* \"AnyERC20Splitter.sol\":4225:4255  IERC20(tokenAddress).balanceOf */\n      0xffffffffffffffffffffffffffffffffffffffff\n      and\n      0x70a08231\n        /* \"AnyERC20Splitter.sol\":4264:4268  this */\n      address\n        /* \"AnyERC20Splitter.sol\":4225:4270  IERC20(tokenAddress).balanceOf(address(this)) */\n      mload(0x40)\n      dup3\n      0xffffffff\n      and\n      0xe0\n      shl\n      dup2\n      mstore\n      0x04\n      add\n      tag_127\n      swap2\n      swap1\n      tag_31\n      jump\t// in\n    tag_127:\n      0x20\n      mload(0x40)\n      dup1\n      dup4\n      sub\n      dup2\n      dup7\n      gas\n      staticcall\n      iszero\n      dup1\n      iszero\n      tag_129\n      jumpi\n      returndatasize\n      0x00\n      dup1\n      returndatacopy\n      revert(0x00, returndatasize)\n    tag_129:\n      pop\n      pop\n      pop\n      pop\n      mload(0x40)\n      returndatasize\n      not(0x1f)\n      0x1f\n      dup3\n      add\n      and\n      dup3\n      add\n      dup1\n      0x40\n      mstore\n      pop\n      dup2\n      add\n      swap1\n      tag_130\n      swap2\n      swap1\n      tag_76\n      jump\t// in\n    tag_130:\n        /* \"AnyERC20Splitter.sol\":4218:4270  return IERC20(tokenAddress).balanceOf(address(this)) */\n      swap1\n      pop\n        /* \"AnyERC20Splitter.sol\":4081:4277  function getTokenBalance() public view returns (uint256) {... */\n      swap1\n      jump\t// out\n        /* \"AnyERC20Splitter.sol\":2995:3316  function withdrawTokens() public onlyOwner {... */\n    tag_38:\n        /* \"AnyERC20Splitter.sol\":1792:1797  owner */\n      0x02\n      0x00\n      swap1\n      sload\n      swap1\n      0x0100\n      exp\n      swap1\n      div\n      0xffffffffffffffffffffffffffffffffffffffff\n      and\n        /* \"AnyERC20Splitter.sol\":1778:1797  msg.sender == owner */\n      0xffffffffffffffffffffffffffffffffffffffff\n      and\n        /* \"AnyERC20Splitter.sol\":1778:1788  msg.sender */\n      caller\n        /* \"AnyERC20Splitter.sol\":1778:1797  msg.sender == owner */\n      0xffffffffffffffffffffffffffffffffffffffff\n      and\n      eq\n        /* \"AnyERC20Splitter.sol\":1770:1824  require(msg.sender == owner, \"Not the contract owner\") */\n      tag_132\n      jumpi\n      mload(0x40)\n      0x08c379a000000000000000000000000000000000000000000000000000000000\n      dup2\n      mstore\n      0x04\n      add\n      tag_133\n      swap1\n      tag_134\n      jump\t// in\n    tag_133:\n      mload(0x40)\n      dup1\n      swap2\n      sub\n      swap1\n      revert\n    tag_132:\n        /* \"AnyERC20Splitter.sol\":3080:3081  0 */\n      0x00\n        /* \"AnyERC20Splitter.sol\":3056:3082  tokenAddress != address(0) */\n      0xffffffffffffffffffffffffffffffffffffffff\n      and\n        /* \"AnyERC20Splitter.sol\":3056:3068  tokenAddress */\n      0x03\n      0x00\n      swap1\n      sload\n      swap1\n      0x0100\n      exp\n      swap1\n      div\n      0xffffffffffffffffffffffffffffffffffffffff\n      and\n        /* \"AnyERC20Splitter.sol\":3056:3082  tokenAddress != address(0) */\n      0xffffffffffffffffffffffffffffffffffffffff\n      and\n      sub\n        /* \"AnyERC20Splitter.sol\":3048:3108  require(tokenAddress != address(0), \"Token address not set\") */\n      tag_136\n      jumpi\n      mload(0x40)\n      0x08c379a000000000000000000000000000000000000000000000000000000000\n      dup2\n      mstore\n      0x04\n      add\n      tag_137\n      swap1\n      tag_71\n      jump\t// in\n    tag_137:\n      mload(0x40)\n      dup1\n      swap2\n      sub\n      swap1\n      revert\n    tag_136:\n        /* \"AnyERC20Splitter.sol\":3119:3131  IERC20 token */\n      0x00\n        /* \"AnyERC20Splitter.sol\":3141:3153  tokenAddress */\n      0x03\n      0x00\n      swap1\n      sload\n      swap1\n      0x0100\n      exp\n      swap1\n      div\n      0xffffffffffffffffffffffffffffffffffffffff\n      and\n        /* \"AnyERC20Splitter.sol\":3119:3154  IERC20 token = IERC20(tokenAddress) */\n      swap1\n      pop\n        /* \"AnyERC20Splitter.sol\":3164:3179  uint256 balance */\n      0x00\n        /* \"AnyERC20Splitter.sol\":3182:3187  token */\n      dup2\n        /* \"AnyERC20Splitter.sol\":3182:3197  token.balanceOf */\n      0xffffffffffffffffffffffffffffffffffffffff\n      and\n      0x70a08231\n        /* \"AnyERC20Splitter.sol\":3206:3210  this */\n      address\n        /* \"AnyERC20Splitter.sol\":3182:3212  token.balanceOf(address(this)) */\n      mload(0x40)\n      dup3\n      0xffffffff\n      and\n      0xe0\n      shl\n      dup2\n      mstore\n      0x04\n      add\n      tag_138\n      swap2\n      swap1\n      tag_31\n      jump\t// in\n    tag_138:\n      0x20\n      mload(0x40)\n      dup1\n      dup4\n      sub\n      dup2\n      dup7\n      gas\n      staticcall\n      iszero\n      dup1\n      iszero\n      tag_140\n      jumpi\n      returndatasize\n      0x00\n      dup1\n      returndatacopy\n      revert(0x00, returndatasize)\n    tag_140:\n      pop\n      pop\n      pop\n      pop\n      mload(0x40)\n      returndatasize\n      not(0x1f)\n      0x1f\n      dup3\n      add\n      and\n      dup3\n      add\n      dup1\n      0x40\n      mstore\n      pop\n      dup2\n      add\n      swap1\n      tag_141\n      swap2\n      swap1\n      tag_76\n      jump\t// in\n    tag_141:\n        /* \"AnyERC20Splitter.sol\":3164:3212  uint256 balance = token.balanceOf(address(this)) */\n      swap1\n      pop\n        /* \"AnyERC20Splitter.sol\":3241:3242  0 */\n      0x00\n        /* \"AnyERC20Splitter.sol\":3231:3238  balance */\n      dup2\n        /* \"AnyERC20Splitter.sol\":3231:3242  balance > 0 */\n      gt\n        /* \"AnyERC20Splitter.sol\":3223:3268  require(balance > 0, \"No tokens to withdraw\") */\n      tag_142\n      jumpi\n      mload(0x40)\n      0x08c379a000000000000000000000000000000000000000000000000000000000\n      dup2\n      mstore\n      0x04\n      add\n      tag_143\n      swap1\n      tag_144\n      jump\t// in\n    tag_143:\n      mload(0x40)\n      dup1\n      swap2\n      sub\n      swap1\n      revert\n    tag_142:\n        /* \"AnyERC20Splitter.sol\":3279:3284  token */\n      dup2\n        /* \"AnyERC20Splitter.sol\":3279:3293  token.transfer */\n      0xffffffffffffffffffffffffffffffffffffffff\n      and\n      0xa9059cbb\n        /* \"AnyERC20Splitter.sol\":3294:3299  owner */\n      0x02\n      0x00\n      swap1\n      sload\n      swap1\n      0x0100\n      exp\n      swap1\n      div\n      0xffffffffffffffffffffffffffffffffffffffff\n      and\n        /* \"AnyERC20Splitter.sol\":3301:3308  balance */\n      dup4\n        /* \"AnyERC20Splitter.sol\":3279:3309  token.transfer(owner, balance) */\n      mload(0x40)\n      dup4\n      0xffffffff\n      and\n      0xe0\n      shl\n      dup2\n      mstore\n      0x04\n      add\n      tag_145\n      swap3\n      swap2\n      swap1\n      tag_114\n      jump\t// in\n    tag_145:\n      0x20\n      mload(0x40)\n      dup1\n      dup4\n      sub\n      dup2\n      0x00\n      dup8\n      gas\n      call\n      iszero\n      dup1\n      iszero\n      tag_147\n      jumpi\n      returndatasize\n      0x00\n      dup1\n      returndatacopy\n      revert(0x00, returndatasize)\n    tag_147:\n      pop\n      pop\n      pop\n      pop\n      mload(0x40)\n      returndatasize\n      not(0x1f)\n      0x1f\n      dup3\n      add\n      and\n      dup3\n      add\n      dup1\n      0x40\n      mstore\n      pop\n      dup2\n      add\n      swap1\n      tag_148\n      swap2\n      swap1\n      tag_118\n      jump\t// in\n    tag_148:\n      pop\n        /* \"AnyERC20Splitter.sol\":3038:3316  {... */\n      pop\n      pop\n        /* \"AnyERC20Splitter.sol\":2995:3316  function withdrawTokens() public onlyOwner {... */\n      jump\t// out\n        /* \"AnyERC20Splitter.sol\":1210:1230  address public owner */\n    tag_41:\n      0x02\n      0x00\n      swap1\n      sload\n      swap1\n      0x0100\n      exp\n      swap1\n      div\n      0xffffffffffffffffffffffffffffffffffffffff\n      and\n      dup2\n      jump\t// out\n        /* \"AnyERC20Splitter.sol\":3689:4075  function recoverLostFunds(address tokenToRecover, uint256 amount) public onlyOwner {... */\n    tag_47:\n        /* \"AnyERC20Splitter.sol\":1792:1797  owner */\n      0x02\n      0x00\n      swap1\n      sload\n      swap1\n      0x0100\n      exp\n      swap1\n      div\n      0xffffffffffffffffffffffffffffffffffffffff\n      and\n        /* \"AnyERC20Splitter.sol\":1778:1797  msg.sender == owner */\n      0xffffffffffffffffffffffffffffffffffffffff\n      and\n        /* \"AnyERC20Splitter.sol\":1778:1788  msg.sender */\n      caller\n        /* \"AnyERC20Splitter.sol\":1778:1797  msg.sender == owner */\n      0xffffffffffffffffffffffffffffffffffffffff\n      and\n      eq\n        /* \"AnyERC20Splitter.sol\":1770:1824  require(msg.sender == owner, \"Not the contract owner\") */\n      tag_150\n      jumpi\n      mload(0x40)\n      0x08c379a000000000000000000000000000000000000000000000000000000000\n      dup2\n      mstore\n      0x04\n      add\n      tag_151\n      swap1\n      tag_134\n      jump\t// in\n    tag_151:\n      mload(0x40)\n      dup1\n      swap2\n      sub\n      swap1\n      revert\n    tag_150:\n        /* \"AnyERC20Splitter.sol\":3816:3817  0 */\n      0x00\n        /* \"AnyERC20Splitter.sol\":3790:3818  tokenToRecover != address(0) */\n      0xffffffffffffffffffffffffffffffffffffffff\n      and\n        /* \"AnyERC20Splitter.sol\":3790:3804  tokenToRecover */\n      dup3\n        /* \"AnyERC20Splitter.sol\":3790:3818  tokenToRecover != address(0) */\n      0xffffffffffffffffffffffffffffffffffffffff\n      and\n      sub\n        /* \"AnyERC20Splitter.sol\":3782:3844  require(tokenToRecover != address(0), \"Invalid token address\") */\n      tag_153\n      jumpi\n      mload(0x40)\n      0x08c379a000000000000000000000000000000000000000000000000000000000\n      dup2\n      mstore\n      0x04\n      add\n      tag_154\n      swap1\n      tag_155\n      jump\t// in\n    tag_154:\n      mload(0x40)\n      dup1\n      swap2\n      sub\n      swap1\n      revert\n    tag_153:\n        /* \"AnyERC20Splitter.sol\":3871:3872  0 */\n      0x00\n        /* \"AnyERC20Splitter.sol\":3862:3868  amount */\n      dup2\n        /* \"AnyERC20Splitter.sol\":3862:3872  amount > 0 */\n      gt\n        /* \"AnyERC20Splitter.sol\":3854:3891  require(amount > 0, \"Invalid amount\") */\n      tag_156\n      jumpi\n      mload(0x40)\n      0x08c379a000000000000000000000000000000000000000000000000000000000\n      dup2\n      mstore\n      0x04\n      add\n      tag_157\n      swap1\n      tag_158\n      jump\t// in\n    tag_157:\n      mload(0x40)\n      dup1\n      swap2\n      sub\n      swap1\n      revert\n    tag_156:\n        /* \"AnyERC20Splitter.sol\":3932:3933  0 */\n      0x00\n        /* \"AnyERC20Splitter.sol\":3906:3934  tokenToRecover == address(0) */\n      0xffffffffffffffffffffffffffffffffffffffff\n      and\n        /* \"AnyERC20Splitter.sol\":3906:3920  tokenToRecover */\n      dup3\n        /* \"AnyERC20Splitter.sol\":3906:3934  tokenToRecover == address(0) */\n      0xffffffffffffffffffffffffffffffffffffffff\n      and\n      sub\n        /* \"AnyERC20Splitter.sol\":3902:4069  if (tokenToRecover == address(0)) {... */\n      tag_159\n      jumpi\n        /* \"AnyERC20Splitter.sol\":3958:3963  owner */\n      0x02\n      0x00\n      swap1\n      sload\n      swap1\n      0x0100\n      exp\n      swap1\n      div\n      0xffffffffffffffffffffffffffffffffffffffff\n      and\n        /* \"AnyERC20Splitter.sol\":3950:3973  payable(owner).transfer */\n      0xffffffffffffffffffffffffffffffffffffffff\n      and\n        /* \"AnyERC20Splitter.sol\":3950:3981  payable(owner).transfer(amount) */\n      0x08fc\n        /* \"AnyERC20Splitter.sol\":3974:3980  amount */\n      dup3\n        /* \"AnyERC20Splitter.sol\":3950:3981  payable(owner).transfer(amount) */\n      swap1\n      dup2\n      iszero\n      mul\n      swap1\n      mload(0x40)\n      0x00\n      mload(0x40)\n      dup1\n      dup4\n      sub\n      dup2\n      dup6\n      dup9\n      dup9\n      call\n      swap4\n      pop\n      pop\n      pop\n      pop\n      iszero\n      dup1\n      iszero\n      tag_161\n      jumpi\n      returndatasize\n      0x00\n      dup1\n      returndatacopy\n      revert(0x00, returndatasize)\n    tag_161:\n      pop\n        /* \"AnyERC20Splitter.sol\":3902:4069  if (tokenToRecover == address(0)) {... */\n      jump(tag_162)\n    tag_159:\n        /* \"AnyERC20Splitter.sol\":4019:4033  tokenToRecover */\n      dup2\n        /* \"AnyERC20Splitter.sol\":4012:4043  IERC20(tokenToRecover).transfer */\n      0xffffffffffffffffffffffffffffffffffffffff\n      and\n      0xa9059cbb\n        /* \"AnyERC20Splitter.sol\":4044:4049  owner */\n      0x02\n      0x00\n      swap1\n      sload\n      swap1\n      0x0100\n      exp\n      swap1\n      div\n      0xffffffffffffffffffffffffffffffffffffffff\n      and\n        /* \"AnyERC20Splitter.sol\":4051:4057  amount */\n      dup4\n        /* \"AnyERC20Splitter.sol\":4012:4058  IERC20(tokenToRecover).transfer(owner, amount) */\n      mload(0x40)\n      dup4\n      0xffffffff\n      and\n      0xe0\n      shl\n      dup2\n      mstore\n      0x04\n      add\n      tag_163\n      swap3\n      swap2\n      swap1\n      tag_114\n      jump\t// in\n    tag_163:\n      0x20\n      mload(0x40)\n      dup1\n      dup4\n      sub\n      dup2\n      0x00\n      dup8\n      gas\n      call\n      iszero\n      dup1\n      iszero\n      tag_165\n      jumpi\n      returndatasize\n      0x00\n      dup1\n      returndatacopy\n      revert(0x00, returndatasize)\n    tag_165:\n      pop\n      pop\n      pop\n      pop\n      mload(0x40)\n      returndatasize\n      not(0x1f)\n      0x1f\n      dup3\n      add\n      and\n      dup3\n      add\n      dup1\n      0x40\n      mstore\n      pop\n      dup2\n      add\n      swap1\n      tag_166\n      swap2\n      swap1\n      tag_118\n      jump\t// in\n    tag_166:\n      pop\n        /* \"AnyERC20Splitter.sol\":3902:4069  if (tokenToRecover == address(0)) {... */\n    tag_162:\n        /* \"AnyERC20Splitter.sol\":3689:4075  function recoverLostFunds(address tokenToRecover, uint256 amount) public onlyOwner {... */\n      pop\n      pop\n      jump\t// out\n        /* \"AnyERC20Splitter.sol\":1236:1263  address public tokenAddress */\n    tag_50:\n      0x03\n      0x00\n      swap1\n      sload\n      swap1\n      0x0100\n      exp\n      swap1\n      div\n      0xffffffffffffffffffffffffffffffffffffffff\n      and\n      dup2\n      jump\t// out\n        /* \"AnyERC20Splitter.sol\":3322:3512  function changeTokenAddress(address newTokenAddress) public onlyOwner {... */\n    tag_56:\n        /* \"AnyERC20Splitter.sol\":1792:1797  owner */\n      0x02\n      0x00\n      swap1\n      sload\n      swap1\n      0x0100\n      exp\n      swap1\n      div\n      0xffffffffffffffffffffffffffffffffffffffff\n      and\n        /* \"AnyERC20Splitter.sol\":1778:1797  msg.sender == owner */\n      0xffffffffffffffffffffffffffffffffffffffff\n      and\n        /* \"AnyERC20Splitter.sol\":1778:1788  msg.sender */\n      caller\n        /* \"AnyERC20Splitter.sol\":1778:1797  msg.sender == owner */\n      0xffffffffffffffffffffffffffffffffffffffff\n      and\n      eq\n        /* \"AnyERC20Splitter.sol\":1770:1824  require(msg.sender == owner, \"Not the contract owner\") */\n      tag_168\n      jumpi\n      mload(0x40)\n      0x08c379a000000000000000000000000000000000000000000000000000000000\n      dup2\n      mstore\n      0x04\n      add\n      tag_169\n      swap1\n      tag_134\n      jump\t// in\n    tag_169:\n      mload(0x40)\n      dup1\n      swap2\n      sub\n      swap1\n      revert\n    tag_168:\n        /* \"AnyERC20Splitter.sol\":3437:3438  0 */\n      0x00\n        /* \"AnyERC20Splitter.sol\":3410:3439  newTokenAddress != address(0) */\n      0xffffffffffffffffffffffffffffffffffffffff\n      and\n        /* \"AnyERC20Splitter.sol\":3410:3425  newTokenAddress */\n      dup2\n        /* \"AnyERC20Splitter.sol\":3410:3439  newTokenAddress != address(0) */\n      0xffffffffffffffffffffffffffffffffffffffff\n      and\n      sub\n        /* \"AnyERC20Splitter.sol\":3402:3465  require(newTokenAddress != address(0), \"Invalid token address\") */\n      tag_171\n      jumpi\n      mload(0x40)\n      0x08c379a000000000000000000000000000000000000000000000000000000000\n      dup2\n      mstore\n      0x04\n      add\n      tag_172\n      swap1\n      tag_155\n      jump\t// in\n    tag_172:\n      mload(0x40)\n      dup1\n      swap2\n      sub\n      swap1\n      revert\n    tag_171:\n        /* \"AnyERC20Splitter.sol\":3490:3505  newTokenAddress */\n      dup1\n        /* \"AnyERC20Splitter.sol\":3475:3487  tokenAddress */\n      0x03\n      0x00\n        /* \"AnyERC20Splitter.sol\":3475:3505  tokenAddress = newTokenAddress */\n      0x0100\n      exp\n      dup2\n      sload\n      dup2\n      0xffffffffffffffffffffffffffffffffffffffff\n      mul\n      not\n      and\n      swap1\n      dup4\n      0xffffffffffffffffffffffffffffffffffffffff\n      and\n      mul\n      or\n      swap1\n      sstore\n      pop\n        /* \"AnyERC20Splitter.sol\":3322:3512  function changeTokenAddress(address newTokenAddress) public onlyOwner {... */\n      pop\n      jump\t// out\n        /* \"AnyERC20Splitter.sol\":2658:2988  function updatePayees(address[] memory _payees, uint256[] memory _payeePercentages) public onlyOwner {... */\n    tag_61:\n        /* \"AnyERC20Splitter.sol\":1792:1797  owner */\n      0x02\n      0x00\n      swap1\n      sload\n      swap1\n      0x0100\n      exp\n      swap1\n      div\n      0xffffffffffffffffffffffffffffffffffffffff\n      and\n        /* \"AnyERC20Splitter.sol\":1778:1797  msg.sender == owner */\n      0xffffffffffffffffffffffffffffffffffffffff\n      and\n        /* \"AnyERC20Splitter.sol\":1778:1788  msg.sender */\n      caller\n        /* \"AnyERC20Splitter.sol\":1778:1797  msg.sender == owner */\n      0xffffffffffffffffffffffffffffffffffffffff\n      and\n      eq\n        /* \"AnyERC20Splitter.sol\":1770:1824  require(msg.sender == owner, \"Not the contract owner\") */\n      tag_174\n      jumpi\n      mload(0x40)\n      0x08c379a000000000000000000000000000000000000000000000000000000000\n      dup2\n      mstore\n      0x04\n      add\n      tag_175\n      swap1\n      tag_134\n      jump\t// in\n    tag_175:\n      mload(0x40)\n      dup1\n      swap2\n      sub\n      swap1\n      revert\n    tag_174:\n        /* \"AnyERC20Splitter.sol\":2794:2795  0 */\n      0x00\n        /* \"AnyERC20Splitter.sol\":2777:2784  _payees */\n      dup3\n        /* \"AnyERC20Splitter.sol\":2777:2791  _payees.length */\n      mload\n        /* \"AnyERC20Splitter.sol\":2777:2795  _payees.length > 0 */\n      gt\n        /* \"AnyERC20Splitter.sol\":2769:2818  require(_payees.length > 0, \"No payees provided\") */\n      tag_177\n      jumpi\n      mload(0x40)\n      0x08c379a000000000000000000000000000000000000000000000000000000000\n      dup2\n      mstore\n      0x04\n      add\n      tag_178\n      swap1\n      tag_179\n      jump\t// in\n    tag_178:\n      mload(0x40)\n      dup1\n      swap2\n      sub\n      swap1\n      revert\n    tag_177:\n        /* \"AnyERC20Splitter.sol\":2854:2871  _payeePercentages */\n      dup1\n        /* \"AnyERC20Splitter.sol\":2854:2878  _payeePercentages.length */\n      mload\n        /* \"AnyERC20Splitter.sol\":2836:2843  _payees */\n      dup3\n        /* \"AnyERC20Splitter.sol\":2836:2850  _payees.length */\n      mload\n        /* \"AnyERC20Splitter.sol\":2836:2878  _payees.length == _payeePercentages.length */\n      eq\n        /* \"AnyERC20Splitter.sol\":2828:2908  require(_payees.length == _payeePercentages.length, \"Invalid payee percentages\") */\n      tag_180\n      jumpi\n      mload(0x40)\n      0x08c379a000000000000000000000000000000000000000000000000000000000\n      dup2\n      mstore\n      0x04\n      add\n      tag_181\n      swap1\n      tag_182\n      jump\t// in\n    tag_181:\n      mload(0x40)\n      dup1\n      swap2\n      sub\n      swap1\n      revert\n    tag_180:\n        /* \"AnyERC20Splitter.sol\":2928:2935  _payees */\n      dup2\n        /* \"AnyERC20Splitter.sol\":2919:2925  payees */\n      0x00\n        /* \"AnyERC20Splitter.sol\":2919:2935  payees = _payees */\n      swap1\n      dup1\n      mload\n      swap1\n      0x20\n      add\n      swap1\n      tag_183\n      swap3\n      swap2\n      swap1\n      tag_184\n      jump\t// in\n    tag_183:\n      pop\n        /* \"AnyERC20Splitter.sol\":2964:2981  _payeePercentages */\n      dup1\n        /* \"AnyERC20Splitter.sol\":2945:2961  payeePercentages */\n      0x01\n        /* \"AnyERC20Splitter.sol\":2945:2981  payeePercentages = _payeePercentages */\n      swap1\n      dup1\n      mload\n      swap1\n      0x20\n      add\n      swap1\n      tag_185\n      swap3\n      swap2\n      swap1\n      tag_186\n      jump\t// in\n    tag_185:\n      pop\n        /* \"AnyERC20Splitter.sol\":2658:2988  function updatePayees(address[] memory _payees, uint256[] memory _payeePercentages) public onlyOwner {... */\n      pop\n      pop\n      jump\t// out\n        /* \"AnyERC20Splitter.sol\":3518:3683  function transferOwnership(address newOwner) public onlyOwner {... */\n    tag_67:\n        /* \"AnyERC20Splitter.sol\":1792:1797  owner */\n      0x02\n      0x00\n      swap1\n      sload\n      swap1\n      0x0100\n      exp\n      swap1\n      div\n      0xffffffffffffffffffffffffffffffffffffffff\n      and\n        /* \"AnyERC20Splitter.sol\":1778:1797  msg.sender == owner */\n      0xffffffffffffffffffffffffffffffffffffffff\n      and\n        /* \"AnyERC20Splitter.sol\":1778:1788  msg.sender */\n      caller\n        /* \"AnyERC20Splitter.sol\":1778:1797  msg.sender == owner */\n      0xffffffffffffffffffffffffffffffffffffffff\n      and\n      eq\n        /* \"AnyERC20Splitter.sol\":1770:1824  require(msg.sender == owner, \"Not the contract owner\") */\n      tag_188\n      jumpi\n      mload(0x40)\n      0x08c379a000000000000000000000000000000000000000000000000000000000\n      dup2\n      mstore\n      0x04\n      add\n      tag_189\n      swap1\n      tag_134\n      jump\t// in\n    tag_189:\n      mload(0x40)\n      dup1\n      swap2\n      sub\n      swap1\n      revert\n    tag_188:\n        /* \"AnyERC20Splitter.sol\":3618:3619  0 */\n      0x00\n        /* \"AnyERC20Splitter.sol\":3598:3620  newOwner != address(0) */\n      0xffffffffffffffffffffffffffffffffffffffff\n      and\n        /* \"AnyERC20Splitter.sol\":3598:3606  newOwner */\n      dup2\n        /* \"AnyERC20Splitter.sol\":3598:3620  newOwner != address(0) */\n      0xffffffffffffffffffffffffffffffffffffffff\n      and\n      sub\n        /* \"AnyERC20Splitter.sol\":3590:3650  require(newOwner != address(0), \"Invalid new owner address\") */\n      tag_191\n      jumpi\n      mload(0x40)\n      0x08c379a000000000000000000000000000000000000000000000000000000000\n      dup2\n      mstore\n      0x04\n      add\n      tag_192\n      swap1\n      tag_193\n      jump\t// in\n    tag_192:\n      mload(0x40)\n      dup1\n      swap2\n      sub\n      swap1\n      revert\n    tag_191:\n        /* \"AnyERC20Splitter.sol\":3668:3676  newOwner */\n      dup1\n        /* \"AnyERC20Splitter.sol\":3660:3665  owner */\n      0x02\n      0x00\n        /* \"AnyERC20Splitter.sol\":3660:3676  owner = newOwner */\n      0x0100\n      exp\n      dup2\n      sload\n      dup2\n      0xffffffffffffffffffffffffffffffffffffffff\n      mul\n      not\n      and\n      swap1\n      dup4\n      0xffffffffffffffffffffffffffffffffffffffff\n      and\n      mul\n      or\n      swap1\n      sstore\n      pop\n        /* \"AnyERC20Splitter.sol\":3518:3683  function transferOwnership(address newOwner) public onlyOwner {... */\n      pop\n      jump\t// out\n    tag_184:\n      dup3\n      dup1\n      sload\n      dup3\n      dup3\n      sstore\n      swap1\n      0x00\n      mstore\n      keccak256(0x00, 0x20)\n      swap1\n      dup2\n      add\n      swap3\n      dup3\n      iszero\n      tag_194\n      jumpi\n      swap2\n      0x20\n      mul\n      dup3\n      add\n    tag_195:\n      dup3\n      dup2\n      gt\n      iszero\n      tag_196\n      jumpi\n      dup3\n      mload\n      dup3\n      exp(0x0100, 0x00)\n      dup2\n      sload\n      dup2\n      0xffffffffffffffffffffffffffffffffffffffff\n      mul\n      not\n      and\n      swap1\n      dup4\n      0xffffffffffffffffffffffffffffffffffffffff\n      and\n      mul\n      or\n      swap1\n      sstore\n      pop\n      swap2\n      0x20\n      add\n      swap2\n      swap1\n      0x01\n      add\n      swap1\n      jump(tag_195)\n    tag_196:\n    tag_194:\n      pop\n      swap1\n      pop\n      tag_197\n      swap2\n      swap1\n      tag_198\n      jump\t// in\n    tag_197:\n      pop\n      swap1\n      jump\t// out\n    tag_186:\n      dup3\n      dup1\n      sload\n      dup3\n      dup3\n      sstore\n      swap1\n      0x00\n      mstore\n      keccak256(0x00, 0x20)\n      swap1\n      dup2\n      add\n      swap3\n      dup3\n      iszero\n      tag_199\n      jumpi\n      swap2\n      0x20\n      mul\n      dup3\n      add\n    tag_200:\n      dup3\n      dup2\n      gt\n      iszero\n      tag_201\n      jumpi\n      dup3\n      mload\n      dup3\n      sstore\n      swap2\n      0x20\n      add\n      swap2\n      swap1\n      0x01\n      add\n      swap1\n      jump(tag_200)\n    tag_201:\n    tag_199:\n      pop\n      swap1\n      pop\n      tag_202\n      swap2\n      swap1\n      tag_198\n      jump\t// in\n    tag_202:\n      pop\n      swap1\n      jump\t// out\n    tag_198:\n    tag_203:\n      dup1\n      dup3\n      gt\n      iszero\n      tag_204\n      jumpi\n      0x00\n      dup2\n      0x00\n      swap1\n      sstore\n      pop\n      0x01\n      add\n      jump(tag_203)\n    tag_204:\n      pop\n      swap1\n      jump\t// out\n        /* \"#utility.yul\":7:82   */\n    tag_205:\n        /* \"#utility.yul\":40:46   */\n      0x00\n        /* \"#utility.yul\":73:75   */\n      0x40\n        /* \"#utility.yul\":67:76   */\n      mload\n        /* \"#utility.yul\":57:76   */\n      swap1\n      pop\n        /* \"#utility.yul\":7:82   */\n      swap1\n      jump\t// out\n        /* \"#utility.yul\":88:205   */\n    tag_206:\n        /* \"#utility.yul\":197:198   */\n      0x00\n        /* \"#utility.yul\":194:195   */\n      dup1\n        /* \"#utility.yul\":187:199   */\n      revert\n        /* \"#utility.yul\":211:328   */\n    tag_207:\n        /* \"#utility.yul\":320:321   */\n      0x00\n        /* \"#utility.yul\":317:318   */\n      dup1\n        /* \"#utility.yul\":310:322   */\n      revert\n        /* \"#utility.yul\":334:411   */\n    tag_208:\n        /* \"#utility.yul\":371:378   */\n      0x00\n        /* \"#utility.yul\":400:405   */\n      dup2\n        /* \"#utility.yul\":389:405   */\n      swap1\n      pop\n        /* \"#utility.yul\":334:411   */\n      swap2\n      swap1\n      pop\n      jump\t// out\n        /* \"#utility.yul\":417:539   */\n    tag_209:\n        /* \"#utility.yul\":490:514   */\n      tag_264\n        /* \"#utility.yul\":508:513   */\n      dup2\n        /* \"#utility.yul\":490:514   */\n      tag_208\n      jump\t// in\n    tag_264:\n        /* \"#utility.yul\":483:488   */\n      dup2\n        /* \"#utility.yul\":480:515   */\n      eq\n        /* \"#utility.yul\":470:533   */\n      tag_265\n      jumpi\n        /* \"#utility.yul\":529:530   */\n      0x00\n        /* \"#utility.yul\":526:527   */\n      dup1\n        /* \"#utility.yul\":519:531   */\n      revert\n        /* \"#utility.yul\":470:533   */\n    tag_265:\n        /* \"#utility.yul\":417:539   */\n      pop\n      jump\t// out\n        /* \"#utility.yul\":545:684   */\n    tag_210:\n        /* \"#utility.yul\":591:596   */\n      0x00\n        /* \"#utility.yul\":629:635   */\n      dup2\n        /* \"#utility.yul\":616:636   */\n      calldataload\n        /* \"#utility.yul\":607:636   */\n      swap1\n      pop\n        /* \"#utility.yul\":645:678   */\n      tag_267\n        /* \"#utility.yul\":672:677   */\n      dup2\n        /* \"#utility.yul\":645:678   */\n      tag_209\n      jump\t// in\n    tag_267:\n        /* \"#utility.yul\":545:684   */\n      swap3\n      swap2\n      pop\n      pop\n      jump\t// out\n        /* \"#utility.yul\":690:1019   */\n    tag_22:\n        /* \"#utility.yul\":749:755   */\n      0x00\n        /* \"#utility.yul\":798:800   */\n      0x20\n        /* \"#utility.yul\":786:795   */\n      dup3\n        /* \"#utility.yul\":777:784   */\n      dup5\n        /* \"#utility.yul\":773:796   */\n      sub\n        /* \"#utility.yul\":769:801   */\n      slt\n        /* \"#utility.yul\":766:885   */\n      iszero\n      tag_269\n      jumpi\n        /* \"#utility.yul\":804:883   */\n      tag_270\n      tag_206\n      jump\t// in\n    tag_270:\n        /* \"#utility.yul\":766:885   */\n    tag_269:\n        /* \"#utility.yul\":924:925   */\n      0x00\n        /* \"#utility.yul\":949:1002   */\n      tag_271\n        /* \"#utility.yul\":994:1001   */\n      dup5\n        /* \"#utility.yul\":985:991   */\n      dup3\n        /* \"#utility.yul\":974:983   */\n      dup6\n        /* \"#utility.yul\":970:992   */\n      add\n        /* \"#utility.yul\":949:1002   */\n      tag_210\n      jump\t// in\n    tag_271:\n        /* \"#utility.yul\":939:1002   */\n      swap2\n      pop\n        /* \"#utility.yul\":895:1012   */\n      pop\n        /* \"#utility.yul\":690:1019   */\n      swap3\n      swap2\n      pop\n      pop\n      jump\t// out\n        /* \"#utility.yul\":1025:1143   */\n    tag_211:\n        /* \"#utility.yul\":1112:1136   */\n      tag_273\n        /* \"#utility.yul\":1130:1135   */\n      dup2\n        /* \"#utility.yul\":1112:1136   */\n      tag_208\n      jump\t// in\n    tag_273:\n        /* \"#utility.yul\":1107:1110   */\n      dup3\n        /* \"#utility.yul\":1100:1137   */\n      mstore\n        /* \"#utility.yul\":1025:1143   */\n      pop\n      pop\n      jump\t// out\n        /* \"#utility.yul\":1149:1371   */\n    tag_25:\n        /* \"#utility.yul\":1242:1246   */\n      0x00\n        /* \"#utility.yul\":1280:1282   */\n      0x20\n        /* \"#utility.yul\":1269:1278   */\n      dup3\n        /* \"#utility.yul\":1265:1283   */\n      add\n        /* \"#utility.yul\":1257:1283   */\n      swap1\n      pop\n        /* \"#utility.yul\":1293:1364   */\n      tag_275\n        /* \"#utility.yul\":1361:1362   */\n      0x00\n        /* \"#utility.yul\":1350:1359   */\n      dup4\n        /* \"#utility.yul\":1346:1363   */\n      add\n        /* \"#utility.yul\":1337:1343   */\n      dup5\n        /* \"#utility.yul\":1293:1364   */\n      tag_211\n      jump\t// in\n    tag_275:\n        /* \"#utility.yul\":1149:1371   */\n      swap3\n      swap2\n      pop\n      pop\n      jump\t// out\n        /* \"#utility.yul\":1377:1503   */\n    tag_212:\n        /* \"#utility.yul\":1414:1421   */\n      0x00\n        /* \"#utility.yul\":1454:1496   */\n      0xffffffffffffffffffffffffffffffffffffffff\n        /* \"#utility.yul\":1447:1452   */\n      dup3\n        /* \"#utility.yul\":1443:1497   */\n      and\n        /* \"#utility.yul\":1432:1497   */\n      swap1\n      pop\n        /* \"#utility.yul\":1377:1503   */\n      swap2\n      swap1\n      pop\n      jump\t// out\n        /* \"#utility.yul\":1509:1605   */\n    tag_213:\n        /* \"#utility.yul\":1546:1553   */\n      0x00\n        /* \"#utility.yul\":1575:1599   */\n      tag_278\n        /* \"#utility.yul\":1593:1598   */\n      dup3\n        /* \"#utility.yul\":1575:1599   */\n      tag_212\n      jump\t// in\n    tag_278:\n        /* \"#utility.yul\":1564:1599   */\n      swap1\n      pop\n        /* \"#utility.yul\":1509:1605   */\n      swap2\n      swap1\n      pop\n      jump\t// out\n        /* \"#utility.yul\":1611:1729   */\n    tag_214:\n        /* \"#utility.yul\":1698:1722   */\n      tag_280\n        /* \"#utility.yul\":1716:1721   */\n      dup2\n        /* \"#utility.yul\":1698:1722   */\n      tag_213\n      jump\t// in\n    tag_280:\n        /* \"#utility.yul\":1693:1696   */\n      dup3\n        /* \"#utility.yul\":1686:1723   */\n      mstore\n        /* \"#utility.yul\":1611:1729   */\n      pop\n      pop\n      jump\t// out\n        /* \"#utility.yul\":1735:1957   */\n    tag_31:\n        /* \"#utility.yul\":1828:1832   */\n      0x00\n        /* \"#utility.yul\":1866:1868   */\n      0x20\n        /* \"#utility.yul\":1855:1864   */\n      dup3\n        /* \"#utility.yul\":1851:1869   */\n      add\n        /* \"#utility.yul\":1843:1869   */\n      swap1\n      pop\n        /* \"#utility.yul\":1879:1950   */\n      tag_282\n        /* \"#utility.yul\":1947:1948   */\n      0x00\n        /* \"#utility.yul\":1936:1945   */\n      dup4\n        /* \"#utility.yul\":1932:1949   */\n      add\n        /* \"#utility.yul\":1923:1929   */\n      dup5\n        /* \"#utility.yul\":1879:1950   */\n      tag_214\n      jump\t// in\n    tag_282:\n        /* \"#utility.yul\":1735:1957   */\n      swap3\n      swap2\n      pop\n      pop\n      jump\t// out\n        /* \"#utility.yul\":1963:2085   */\n    tag_215:\n        /* \"#utility.yul\":2036:2060   */\n      tag_284\n        /* \"#utility.yul\":2054:2059   */\n      dup2\n        /* \"#utility.yul\":2036:2060   */\n      tag_213\n      jump\t// in\n    tag_284:\n        /* \"#utility.yul\":2029:2034   */\n      dup2\n        /* \"#utility.yul\":2026:2061   */\n      eq\n        /* \"#utility.yul\":2016:2079   */\n      tag_285\n      jumpi\n        /* \"#utility.yul\":2075:2076   */\n      0x00\n        /* \"#utility.yul\":2072:2073   */\n      dup1\n        /* \"#utility.yul\":2065:2077   */\n      revert\n        /* \"#utility.yul\":2016:2079   */\n    tag_285:\n        /* \"#utility.yul\":1963:2085   */\n      pop\n      jump\t// out\n        /* \"#utility.yul\":2091:2230   */\n    tag_216:\n        /* \"#utility.yul\":2137:2142   */\n      0x00\n        /* \"#utility.yul\":2175:2181   */\n      dup2\n        /* \"#utility.yul\":2162:2182   */\n      calldataload\n        /* \"#utility.yul\":2153:2182   */\n      swap1\n      pop\n        /* \"#utility.yul\":2191:2224   */\n      tag_287\n        /* \"#utility.yul\":2218:2223   */\n      dup2\n        /* \"#utility.yul\":2191:2224   */\n      tag_215\n      jump\t// in\n    tag_287:\n        /* \"#utility.yul\":2091:2230   */\n      swap3\n      swap2\n      pop\n      pop\n      jump\t// out\n        /* \"#utility.yul\":2236:2710   */\n    tag_46:\n        /* \"#utility.yul\":2304:2310   */\n      0x00\n        /* \"#utility.yul\":2312:2318   */\n      dup1\n        /* \"#utility.yul\":2361:2363   */\n      0x40\n        /* \"#utility.yul\":2349:2358   */\n      dup4\n        /* \"#utility.yul\":2340:2347   */\n      dup6\n        /* \"#utility.yul\":2336:2359   */\n      sub\n        /* \"#utility.yul\":2332:2364   */\n      slt\n        /* \"#utility.yul\":2329:2448   */\n      iszero\n      tag_289\n      jumpi\n        /* \"#utility.yul\":2367:2446   */\n      tag_290\n      tag_206\n      jump\t// in\n    tag_290:\n        /* \"#utility.yul\":2329:2448   */\n    tag_289:\n        /* \"#utility.yul\":2487:2488   */\n      0x00\n        /* \"#utility.yul\":2512:2565   */\n      tag_291\n        /* \"#utility.yul\":2557:2564   */\n      dup6\n        /* \"#utility.yul\":2548:2554   */\n      dup3\n        /* \"#utility.yul\":2537:2546   */\n      dup7\n        /* \"#utility.yul\":2533:2555   */\n      add\n        /* \"#utility.yul\":2512:2565   */\n      tag_216\n      jump\t// in\n    tag_291:\n        /* \"#utility.yul\":2502:2565   */\n      swap3\n      pop\n        /* \"#utility.yul\":2458:2575   */\n      pop\n        /* \"#utility.yul\":2614:2616   */\n      0x20\n        /* \"#utility.yul\":2640:2693   */\n      tag_292\n        /* \"#utility.yul\":2685:2692   */\n      dup6\n        /* \"#utility.yul\":2676:2682   */\n      dup3\n        /* \"#utility.yul\":2665:2674   */\n      dup7\n        /* \"#utility.yul\":2661:2683   */\n      add\n        /* \"#utility.yul\":2640:2693   */\n      tag_210\n      jump\t// in\n    tag_292:\n        /* \"#utility.yul\":2630:2693   */\n      swap2\n      pop\n        /* \"#utility.yul\":2585:2703   */\n      pop\n        /* \"#utility.yul\":2236:2710   */\n      swap3\n      pop\n      swap3\n      swap1\n      pop\n      jump\t// out\n        /* \"#utility.yul\":2716:3045   */\n    tag_55:\n        /* \"#utility.yul\":2775:2781   */\n      0x00\n        /* \"#utility.yul\":2824:2826   */\n      0x20\n        /* \"#utility.yul\":2812:2821   */\n      dup3\n        /* \"#utility.yul\":2803:2810   */\n      dup5\n        /* \"#utility.yul\":2799:2822   */\n      sub\n        /* \"#utility.yul\":2795:2827   */\n      slt\n        /* \"#utility.yul\":2792:2911   */\n      iszero\n      tag_294\n      jumpi\n        /* \"#utility.yul\":2830:2909   */\n      tag_295\n      tag_206\n      jump\t// in\n    tag_295:\n        /* \"#utility.yul\":2792:2911   */\n    tag_294:\n        /* \"#utility.yul\":2950:2951   */\n      0x00\n        /* \"#utility.yul\":2975:3028   */\n      tag_296\n        /* \"#utility.yul\":3020:3027   */\n      dup5\n        /* \"#utility.yul\":3011:3017   */\n      dup3\n        /* \"#utility.yul\":3000:3009   */\n      dup6\n        /* \"#utility.yul\":2996:3018   */\n      add\n        /* \"#utility.yul\":2975:3028   */\n      tag_216\n      jump\t// in\n    tag_296:\n        /* \"#utility.yul\":2965:3028   */\n      swap2\n      pop\n        /* \"#utility.yul\":2921:3038   */\n      pop\n        /* \"#utility.yul\":2716:3045   */\n      swap3\n      swap2\n      pop\n      pop\n      jump\t// out\n        /* \"#utility.yul\":3051:3168   */\n    tag_217:\n        /* \"#utility.yul\":3160:3161   */\n      0x00\n        /* \"#utility.yul\":3157:3158   */\n      dup1\n        /* \"#utility.yul\":3150:3162   */\n      revert\n        /* \"#utility.yul\":3174:3276   */\n    tag_218:\n        /* \"#utility.yul\":3215:3221   */\n      0x00\n        /* \"#utility.yul\":3266:3268   */\n      0x1f\n        /* \"#utility.yul\":3262:3269   */\n      not\n        /* \"#utility.yul\":3257:3259   */\n      0x1f\n        /* \"#utility.yul\":3250:3255   */\n      dup4\n        /* \"#utility.yul\":3246:3260   */\n      add\n        /* \"#utility.yul\":3242:3270   */\n      and\n        /* \"#utility.yul\":3232:3270   */\n      swap1\n      pop\n        /* \"#utility.yul\":3174:3276   */\n      swap2\n      swap1\n      pop\n      jump\t// out\n        /* \"#utility.yul\":3282:3462   */\n    tag_219:\n        /* \"#utility.yul\":3330:3407   */\n      0x4e487b7100000000000000000000000000000000000000000000000000000000\n        /* \"#utility.yul\":3327:3328   */\n      0x00\n        /* \"#utility.yul\":3320:3408   */\n      mstore\n        /* \"#utility.yul\":3427:3431   */\n      0x41\n        /* \"#utility.yul\":3424:3425   */\n      0x04\n        /* \"#utility.yul\":3417:3432   */\n      mstore\n        /* \"#utility.yul\":3451:3455   */\n      0x24\n        /* \"#utility.yul\":3448:3449   */\n      0x00\n        /* \"#utility.yul\":3441:3456   */\n      revert\n        /* \"#utility.yul\":3468:3749   */\n    tag_220:\n        /* \"#utility.yul\":3551:3578   */\n      tag_301\n        /* \"#utility.yul\":3573:3577   */\n      dup3\n        /* \"#utility.yul\":3551:3578   */\n      tag_218\n      jump\t// in\n    tag_301:\n        /* \"#utility.yul\":3543:3549   */\n      dup2\n        /* \"#utility.yul\":3539:3579   */\n      add\n        /* \"#utility.yul\":3681:3687   */\n      dup2\n        /* \"#utility.yul\":3669:3679   */\n      dup2\n        /* \"#utility.yul\":3666:3688   */\n      lt\n        /* \"#utility.yul\":3645:3663   */\n      0xffffffffffffffff\n        /* \"#utility.yul\":3633:3643   */\n      dup3\n        /* \"#utility.yul\":3630:3664   */\n      gt\n        /* \"#utility.yul\":3627:3689   */\n      or\n        /* \"#utility.yul\":3624:3712   */\n      iszero\n      tag_302\n      jumpi\n        /* \"#utility.yul\":3692:3710   */\n      tag_303\n      tag_219\n      jump\t// in\n    tag_303:\n        /* \"#utility.yul\":3624:3712   */\n    tag_302:\n        /* \"#utility.yul\":3732:3742   */\n      dup1\n        /* \"#utility.yul\":3728:3730   */\n      0x40\n        /* \"#utility.yul\":3721:3743   */\n      mstore\n        /* \"#utility.yul\":3511:3749   */\n      pop\n        /* \"#utility.yul\":3468:3749   */\n      pop\n      pop\n      jump\t// out\n        /* \"#utility.yul\":3755:3884   */\n    tag_221:\n        /* \"#utility.yul\":3789:3795   */\n      0x00\n        /* \"#utility.yul\":3816:3836   */\n      tag_305\n      tag_205\n      jump\t// in\n    tag_305:\n        /* \"#utility.yul\":3806:3836   */\n      swap1\n      pop\n        /* \"#utility.yul\":3845:3878   */\n      tag_306\n        /* \"#utility.yul\":3873:3877   */\n      dup3\n        /* \"#utility.yul\":3865:3871   */\n      dup3\n        /* \"#utility.yul\":3845:3878   */\n      tag_220\n      jump\t// in\n    tag_306:\n        /* \"#utility.yul\":3755:3884   */\n      swap2\n      swap1\n      pop\n      jump\t// out\n        /* \"#utility.yul\":3890:4201   */\n    tag_222:\n        /* \"#utility.yul\":3967:3971   */\n      0x00\n        /* \"#utility.yul\":4057:4075   */\n      0xffffffffffffffff\n        /* \"#utility.yul\":4049:4055   */\n      dup3\n        /* \"#utility.yul\":4046:4076   */\n      gt\n        /* \"#utility.yul\":4043:4099   */\n      iszero\n      tag_308\n      jumpi\n        /* \"#utility.yul\":4079:4097   */\n      tag_309\n      tag_219\n      jump\t// in\n    tag_309:\n        /* \"#utility.yul\":4043:4099   */\n    tag_308:\n        /* \"#utility.yul\":4129:4133   */\n      0x20\n        /* \"#utility.yul\":4121:4127   */\n      dup3\n        /* \"#utility.yul\":4117:4134   */\n      mul\n        /* \"#utility.yul\":4109:4134   */\n      swap1\n      pop\n        /* \"#utility.yul\":4189:4193   */\n      0x20\n        /* \"#utility.yul\":4183:4187   */\n      dup2\n        /* \"#utility.yul\":4179:4194   */\n      add\n        /* \"#utility.yul\":4171:4194   */\n      swap1\n      pop\n        /* \"#utility.yul\":3890:4201   */\n      swap2\n      swap1\n      pop\n      jump\t// out\n        /* \"#utility.yul\":4207:4324   */\n    tag_223:\n        /* \"#utility.yul\":4316:4317   */\n      0x00\n        /* \"#utility.yul\":4313:4314   */\n      dup1\n        /* \"#utility.yul\":4306:4318   */\n      revert\n        /* \"#utility.yul\":4347:5057   */\n    tag_224:\n        /* \"#utility.yul\":4443:4448   */\n      0x00\n        /* \"#utility.yul\":4468:4549   */\n      tag_312\n        /* \"#utility.yul\":4484:4548   */\n      tag_313\n        /* \"#utility.yul\":4541:4547   */\n      dup5\n        /* \"#utility.yul\":4484:4548   */\n      tag_222\n      jump\t// in\n    tag_313:\n        /* \"#utility.yul\":4468:4549   */\n      tag_221\n      jump\t// in\n    tag_312:\n        /* \"#utility.yul\":4459:4549   */\n      swap1\n      pop\n        /* \"#utility.yul\":4569:4574   */\n      dup1\n        /* \"#utility.yul\":4598:4604   */\n      dup4\n        /* \"#utility.yul\":4591:4596   */\n      dup3\n        /* \"#utility.yul\":4584:4605   */\n      mstore\n        /* \"#utility.yul\":4632:4636   */\n      0x20\n        /* \"#utility.yul\":4625:4630   */\n      dup3\n        /* \"#utility.yul\":4621:4637   */\n      add\n        /* \"#utility.yul\":4614:4637   */\n      swap1\n      pop\n        /* \"#utility.yul\":4685:4689   */\n      0x20\n        /* \"#utility.yul\":4677:4683   */\n      dup5\n        /* \"#utility.yul\":4673:4690   */\n      mul\n        /* \"#utility.yul\":4665:4671   */\n      dup4\n        /* \"#utility.yul\":4661:4691   */\n      add\n        /* \"#utility.yul\":4714:4717   */\n      dup6\n        /* \"#utility.yul\":4706:4712   */\n      dup2\n        /* \"#utility.yul\":4703:4718   */\n      gt\n        /* \"#utility.yul\":4700:4822   */\n      iszero\n      tag_314\n      jumpi\n        /* \"#utility.yul\":4733:4812   */\n      tag_315\n      tag_223\n      jump\t// in\n    tag_315:\n        /* \"#utility.yul\":4700:4822   */\n    tag_314:\n        /* \"#utility.yul\":4848:4854   */\n      dup4\n        /* \"#utility.yul\":4831:5051   */\n    tag_316:\n        /* \"#utility.yul\":4865:4871   */\n      dup2\n        /* \"#utility.yul\":4860:4863   */\n      dup2\n        /* \"#utility.yul\":4857:4872   */\n      lt\n        /* \"#utility.yul\":4831:5051   */\n      iszero\n      tag_318\n      jumpi\n        /* \"#utility.yul\":4940:4943   */\n      dup1\n        /* \"#utility.yul\":4969:5006   */\n      tag_319\n        /* \"#utility.yul\":5002:5005   */\n      dup9\n        /* \"#utility.yul\":4990:5000   */\n      dup3\n        /* \"#utility.yul\":4969:5006   */\n      tag_216\n      jump\t// in\n    tag_319:\n        /* \"#utility.yul\":4964:4967   */\n      dup5\n        /* \"#utility.yul\":4957:5007   */\n      mstore\n        /* \"#utility.yul\":5036:5040   */\n      0x20\n        /* \"#utility.yul\":5031:5034   */\n      dup5\n        /* \"#utility.yul\":5027:5041   */\n      add\n        /* \"#utility.yul\":5020:5041   */\n      swap4\n      pop\n        /* \"#utility.yul\":4907:5051   */\n      pop\n        /* \"#utility.yul\":4891:4895   */\n      0x20\n        /* \"#utility.yul\":4886:4889   */\n      dup2\n        /* \"#utility.yul\":4882:4896   */\n      add\n        /* \"#utility.yul\":4875:4896   */\n      swap1\n      pop\n        /* \"#utility.yul\":4831:5051   */\n      jump(tag_316)\n    tag_318:\n        /* \"#utility.yul\":4835:4856   */\n      pop\n        /* \"#utility.yul\":4449:5057   */\n      pop\n      pop\n        /* \"#utility.yul\":4347:5057   */\n      swap4\n      swap3\n      pop\n      pop\n      pop\n      jump\t// out\n        /* \"#utility.yul\":5080:5450   */\n    tag_225:\n        /* \"#utility.yul\":5151:5156   */\n      0x00\n        /* \"#utility.yul\":5200:5203   */\n      dup3\n        /* \"#utility.yul\":5193:5197   */\n      0x1f\n        /* \"#utility.yul\":5185:5191   */\n      dup4\n        /* \"#utility.yul\":5181:5198   */\n      add\n        /* \"#utility.yul\":5177:5204   */\n      slt\n        /* \"#utility.yul\":5167:5289   */\n      tag_321\n      jumpi\n        /* \"#utility.yul\":5208:5287   */\n      tag_322\n      tag_217\n      jump\t// in\n    tag_322:\n        /* \"#utility.yul\":5167:5289   */\n    tag_321:\n        /* \"#utility.yul\":5325:5331   */\n      dup2\n        /* \"#utility.yul\":5312:5332   */\n      calldataload\n        /* \"#utility.yul\":5350:5444   */\n      tag_323\n        /* \"#utility.yul\":5440:5443   */\n      dup5\n        /* \"#utility.yul\":5432:5438   */\n      dup3\n        /* \"#utility.yul\":5425:5429   */\n      0x20\n        /* \"#utility.yul\":5417:5423   */\n      dup7\n        /* \"#utility.yul\":5413:5430   */\n      add\n        /* \"#utility.yul\":5350:5444   */\n      tag_224\n      jump\t// in\n    tag_323:\n        /* \"#utility.yul\":5341:5444   */\n      swap2\n      pop\n        /* \"#utility.yul\":5157:5450   */\n      pop\n        /* \"#utility.yul\":5080:5450   */\n      swap3\n      swap2\n      pop\n      pop\n      jump\t// out\n        /* \"#utility.yul\":5456:5767   */\n    tag_226:\n        /* \"#utility.yul\":5533:5537   */\n      0x00\n        /* \"#utility.yul\":5623:5641   */\n      0xffffffffffffffff\n        /* \"#utility.yul\":5615:5621   */\n      dup3\n        /* \"#utility.yul\":5612:5642   */\n      gt\n        /* \"#utility.yul\":5609:5665   */\n      iszero\n      tag_325\n      jumpi\n        /* \"#utility.yul\":5645:5663   */\n      tag_326\n      tag_219\n      jump\t// in\n    tag_326:\n        /* \"#utility.yul\":5609:5665   */\n    tag_325:\n        /* \"#utility.yul\":5695:5699   */\n      0x20\n        /* \"#utility.yul\":5687:5693   */\n      dup3\n        /* \"#utility.yul\":5683:5700   */\n      mul\n        /* \"#utility.yul\":5675:5700   */\n      swap1\n      pop\n        /* \"#utility.yul\":5755:5759   */\n      0x20\n        /* \"#utility.yul\":5749:5753   */\n      dup2\n        /* \"#utility.yul\":5745:5760   */\n      add\n        /* \"#utility.yul\":5737:5760   */\n      swap1\n      pop\n        /* \"#utility.yul\":5456:5767   */\n      swap2\n      swap1\n      pop\n      jump\t// out\n        /* \"#utility.yul\":5790:6500   */\n    tag_227:\n        /* \"#utility.yul\":5886:5891   */\n      0x00\n        /* \"#utility.yul\":5911:5992   */\n      tag_328\n        /* \"#utility.yul\":5927:5991   */\n      tag_329\n        /* \"#utility.yul\":5984:5990   */\n      dup5\n        /* \"#utility.yul\":5927:5991   */\n      tag_226\n      jump\t// in\n    tag_329:\n        /* \"#utility.yul\":5911:5992   */\n      tag_221\n      jump\t// in\n    tag_328:\n        /* \"#utility.yul\":5902:5992   */\n      swap1\n      pop\n        /* \"#utility.yul\":6012:6017   */\n      dup1\n        /* \"#utility.yul\":6041:6047   */\n      dup4\n        /* \"#utility.yul\":6034:6039   */\n      dup3\n        /* \"#utility.yul\":6027:6048   */\n      mstore\n        /* \"#utility.yul\":6075:6079   */\n      0x20\n        /* \"#utility.yul\":6068:6073   */\n      dup3\n        /* \"#utility.yul\":6064:6080   */\n      add\n        /* \"#utility.yul\":6057:6080   */\n      swap1\n      pop\n        /* \"#utility.yul\":6128:6132   */\n      0x20\n        /* \"#utility.yul\":6120:6126   */\n      dup5\n        /* \"#utility.yul\":6116:6133   */\n      mul\n        /* \"#utility.yul\":6108:6114   */\n      dup4\n        /* \"#utility.yul\":6104:6134   */\n      add\n        /* \"#utility.yul\":6157:6160   */\n      dup6\n        /* \"#utility.yul\":6149:6155   */\n      dup2\n        /* \"#utility.yul\":6146:6161   */\n      gt\n        /* \"#utility.yul\":6143:6265   */\n      iszero\n      tag_330\n      jumpi\n        /* \"#utility.yul\":6176:6255   */\n      tag_331\n      tag_223\n      jump\t// in\n    tag_331:\n        /* \"#utility.yul\":6143:6265   */\n    tag_330:\n        /* \"#utility.yul\":6291:6297   */\n      dup4\n        /* \"#utility.yul\":6274:6494   */\n    tag_332:\n        /* \"#utility.yul\":6308:6314   */\n      dup2\n        /* \"#utility.yul\":6303:6306   */\n      dup2\n        /* \"#utility.yul\":6300:6315   */\n      lt\n        /* \"#utility.yul\":6274:6494   */\n      iszero\n      tag_334\n      jumpi\n        /* \"#utility.yul\":6383:6386   */\n      dup1\n        /* \"#utility.yul\":6412:6449   */\n      tag_335\n        /* \"#utility.yul\":6445:6448   */\n      dup9\n        /* \"#utility.yul\":6433:6443   */\n      dup3\n        /* \"#utility.yul\":6412:6449   */\n      tag_210\n      jump\t// in\n    tag_335:\n        /* \"#utility.yul\":6407:6410   */\n      dup5\n        /* \"#utility.yul\":6400:6450   */\n      mstore\n        /* \"#utility.yul\":6479:6483   */\n      0x20\n        /* \"#utility.yul\":6474:6477   */\n      dup5\n        /* \"#utility.yul\":6470:6484   */\n      add\n        /* \"#utility.yul\":6463:6484   */\n      swap4\n      pop\n        /* \"#utility.yul\":6350:6494   */\n      pop\n        /* \"#utility.yul\":6334:6338   */\n      0x20\n        /* \"#utility.yul\":6329:6332   */\n      dup2\n        /* \"#utility.yul\":6325:6339   */\n      add\n        /* \"#utility.yul\":6318:6339   */\n      swap1\n      pop\n        /* \"#utility.yul\":6274:6494   */\n      jump(tag_332)\n    tag_334:\n        /* \"#utility.yul\":6278:6299   */\n      pop\n        /* \"#utility.yul\":5892:6500   */\n      pop\n      pop\n        /* \"#utility.yul\":5790:6500   */\n      swap4\n      swap3\n      pop\n      pop\n      pop\n      jump\t// out\n        /* \"#utility.yul\":6523:6893   */\n    tag_228:\n        /* \"#utility.yul\":6594:6599   */\n      0x00\n        /* \"#utility.yul\":6643:6646   */\n      dup3\n        /* \"#utility.yul\":6636:6640   */\n      0x1f\n        /* \"#utility.yul\":6628:6634   */\n      dup4\n        /* \"#utility.yul\":6624:6641   */\n      add\n        /* \"#utility.yul\":6620:6647   */\n      slt\n        /* \"#utility.yul\":6610:6732   */\n      tag_337\n      jumpi\n        /* \"#utility.yul\":6651:6730   */\n      tag_338\n      tag_217\n      jump\t// in\n    tag_338:\n        /* \"#utility.yul\":6610:6732   */\n    tag_337:\n        /* \"#utility.yul\":6768:6774   */\n      dup2\n        /* \"#utility.yul\":6755:6775   */\n      calldataload\n        /* \"#utility.yul\":6793:6887   */\n      tag_339\n        /* \"#utility.yul\":6883:6886   */\n      dup5\n        /* \"#utility.yul\":6875:6881   */\n      dup3\n        /* \"#utility.yul\":6868:6872   */\n      0x20\n        /* \"#utility.yul\":6860:6866   */\n      dup7\n        /* \"#utility.yul\":6856:6873   */\n      add\n        /* \"#utility.yul\":6793:6887   */\n      tag_227\n      jump\t// in\n    tag_339:\n        /* \"#utility.yul\":6784:6887   */\n      swap2\n      pop\n        /* \"#utility.yul\":6600:6893   */\n      pop\n        /* \"#utility.yul\":6523:6893   */\n      swap3\n      swap2\n      pop\n      pop\n      jump\t// out\n        /* \"#utility.yul\":6899:7793   */\n    tag_60:\n        /* \"#utility.yul\":7017:7023   */\n      0x00\n        /* \"#utility.yul\":7025:7031   */\n      dup1\n        /* \"#utility.yul\":7074:7076   */\n      0x40\n        /* \"#utility.yul\":7062:7071   */\n      dup4\n        /* \"#utility.yul\":7053:7060   */\n      dup6\n        /* \"#utility.yul\":7049:7072   */\n      sub\n        /* \"#utility.yul\":7045:7077   */\n      slt\n        /* \"#utility.yul\":7042:7161   */\n      iszero\n      tag_341\n      jumpi\n        /* \"#utility.yul\":7080:7159   */\n      tag_342\n      tag_206\n      jump\t// in\n    tag_342:\n        /* \"#utility.yul\":7042:7161   */\n    tag_341:\n        /* \"#utility.yul\":7228:7229   */\n      0x00\n        /* \"#utility.yul\":7217:7226   */\n      dup4\n        /* \"#utility.yul\":7213:7230   */\n      add\n        /* \"#utility.yul\":7200:7231   */\n      calldataload\n        /* \"#utility.yul\":7258:7276   */\n      0xffffffffffffffff\n        /* \"#utility.yul\":7250:7256   */\n      dup2\n        /* \"#utility.yul\":7247:7277   */\n      gt\n        /* \"#utility.yul\":7244:7361   */\n      iszero\n      tag_343\n      jumpi\n        /* \"#utility.yul\":7280:7359   */\n      tag_344\n      tag_207\n      jump\t// in\n    tag_344:\n        /* \"#utility.yul\":7244:7361   */\n    tag_343:\n        /* \"#utility.yul\":7385:7463   */\n      tag_345\n        /* \"#utility.yul\":7455:7462   */\n      dup6\n        /* \"#utility.yul\":7446:7452   */\n      dup3\n        /* \"#utility.yul\":7435:7444   */\n      dup7\n        /* \"#utility.yul\":7431:7453   */\n      add\n        /* \"#utility.yul\":7385:7463   */\n      tag_225\n      jump\t// in\n    tag_345:\n        /* \"#utility.yul\":7375:7463   */\n      swap3\n      pop\n        /* \"#utility.yul\":7171:7473   */\n      pop\n        /* \"#utility.yul\":7540:7542   */\n      0x20\n        /* \"#utility.yul\":7529:7538   */\n      dup4\n        /* \"#utility.yul\":7525:7543   */\n      add\n        /* \"#utility.yul\":7512:7544   */\n      calldataload\n        /* \"#utility.yul\":7571:7589   */\n      0xffffffffffffffff\n        /* \"#utility.yul\":7563:7569   */\n      dup2\n        /* \"#utility.yul\":7560:7590   */\n      gt\n        /* \"#utility.yul\":7557:7674   */\n      iszero\n      tag_346\n      jumpi\n        /* \"#utility.yul\":7593:7672   */\n      tag_347\n      tag_207\n      jump\t// in\n    tag_347:\n        /* \"#utility.yul\":7557:7674   */\n    tag_346:\n        /* \"#utility.yul\":7698:7776   */\n      tag_348\n        /* \"#utility.yul\":7768:7775   */\n      dup6\n        /* \"#utility.yul\":7759:7765   */\n      dup3\n        /* \"#utility.yul\":7748:7757   */\n      dup7\n        /* \"#utility.yul\":7744:7766   */\n      add\n        /* \"#utility.yul\":7698:7776   */\n      tag_228\n      jump\t// in\n    tag_348:\n        /* \"#utility.yul\":7688:7776   */\n      swap2\n      pop\n        /* \"#utility.yul\":7483:7786   */\n      pop\n        /* \"#utility.yul\":6899:7793   */\n      swap3\n      pop\n      swap3\n      swap1\n      pop\n      jump\t// out\n        /* \"#utility.yul\":7799:7968   */\n    tag_229:\n        /* \"#utility.yul\":7883:7894   */\n      0x00\n        /* \"#utility.yul\":7917:7923   */\n      dup3\n        /* \"#utility.yul\":7912:7915   */\n      dup3\n        /* \"#utility.yul\":7905:7924   */\n      mstore\n        /* \"#utility.yul\":7957:7961   */\n      0x20\n        /* \"#utility.yul\":7952:7955   */\n      dup3\n        /* \"#utility.yul\":7948:7962   */\n      add\n        /* \"#utility.yul\":7933:7962   */\n      swap1\n      pop\n        /* \"#utility.yul\":7799:7968   */\n      swap3\n      swap2\n      pop\n      pop\n      jump\t// out\n        /* \"#utility.yul\":7974:8145   */\n    tag_230:\n        /* \"#utility.yul\":8114:8137   */\n      0x546f6b656e2061646472657373206e6f74207365740000000000000000000000\n        /* \"#utility.yul\":8110:8111   */\n      0x00\n        /* \"#utility.yul\":8102:8108   */\n      dup3\n        /* \"#utility.yul\":8098:8112   */\n      add\n        /* \"#utility.yul\":8091:8138   */\n      mstore\n        /* \"#utility.yul\":7974:8145   */\n      pop\n      jump\t// out\n        /* \"#utility.yul\":8151:8517   */\n    tag_231:\n        /* \"#utility.yul\":8293:8296   */\n      0x00\n        /* \"#utility.yul\":8314:8381   */\n      tag_352\n        /* \"#utility.yul\":8378:8380   */\n      0x15\n        /* \"#utility.yul\":8373:8376   */\n      dup4\n        /* \"#utility.yul\":8314:8381   */\n      tag_229\n      jump\t// in\n    tag_352:\n        /* \"#utility.yul\":8307:8381   */\n      swap2\n      pop\n        /* \"#utility.yul\":8390:8483   */\n      tag_353\n        /* \"#utility.yul\":8479:8482   */\n      dup3\n        /* \"#utility.yul\":8390:8483   */\n      tag_230\n      jump\t// in\n    tag_353:\n        /* \"#utility.yul\":8508:8510   */\n      0x20\n        /* \"#utility.yul\":8503:8506   */\n      dup3\n        /* \"#utility.yul\":8499:8511   */\n      add\n        /* \"#utility.yul\":8492:8511   */\n      swap1\n      pop\n        /* \"#utility.yul\":8151:8517   */\n      swap2\n      swap1\n      pop\n      jump\t// out\n        /* \"#utility.yul\":8523:8942   */\n    tag_71:\n        /* \"#utility.yul\":8689:8693   */\n      0x00\n        /* \"#utility.yul\":8727:8729   */\n      0x20\n        /* \"#utility.yul\":8716:8725   */\n      dup3\n        /* \"#utility.yul\":8712:8730   */\n      add\n        /* \"#utility.yul\":8704:8730   */\n      swap1\n      pop\n        /* \"#utility.yul\":8776:8785   */\n      dup2\n        /* \"#utility.yul\":8770:8774   */\n      dup2\n        /* \"#utility.yul\":8766:8786   */\n      sub\n        /* \"#utility.yul\":8762:8763   */\n      0x00\n        /* \"#utility.yul\":8751:8760   */\n      dup4\n        /* \"#utility.yul\":8747:8764   */\n      add\n        /* \"#utility.yul\":8740:8787   */\n      mstore\n        /* \"#utility.yul\":8804:8935   */\n      tag_355\n        /* \"#utility.yul\":8930:8934   */\n      dup2\n        /* \"#utility.yul\":8804:8935   */\n      tag_231\n      jump\t// in\n    tag_355:\n        /* \"#utility.yul\":8796:8935   */\n      swap1\n      pop\n        /* \"#utility.yul\":8523:8942   */\n      swap2\n      swap1\n      pop\n      jump\t// out\n        /* \"#utility.yul\":8948:9091   */\n    tag_232:\n        /* \"#utility.yul\":9005:9010   */\n      0x00\n        /* \"#utility.yul\":9036:9042   */\n      dup2\n        /* \"#utility.yul\":9030:9043   */\n      mload\n        /* \"#utility.yul\":9021:9043   */\n      swap1\n      pop\n        /* \"#utility.yul\":9052:9085   */\n      tag_357\n        /* \"#utility.yul\":9079:9084   */\n      dup2\n        /* \"#utility.yul\":9052:9085   */\n      tag_209\n      jump\t// in\n    tag_357:\n        /* \"#utility.yul\":8948:9091   */\n      swap3\n      swap2\n      pop\n      pop\n      jump\t// out\n        /* \"#utility.yul\":9097:9448   */\n    tag_76:\n        /* \"#utility.yul\":9167:9173   */\n      0x00\n        /* \"#utility.yul\":9216:9218   */\n      0x20\n        /* \"#utility.yul\":9204:9213   */\n      dup3\n        /* \"#utility.yul\":9195:9202   */\n      dup5\n        /* \"#utility.yul\":9191:9214   */\n      sub\n        /* \"#utility.yul\":9187:9219   */\n      slt\n        /* \"#utility.yul\":9184:9303   */\n      iszero\n      tag_359\n      jumpi\n        /* \"#utility.yul\":9222:9301   */\n      tag_360\n      tag_206\n      jump\t// in\n    tag_360:\n        /* \"#utility.yul\":9184:9303   */\n    tag_359:\n        /* \"#utility.yul\":9342:9343   */\n      0x00\n        /* \"#utility.yul\":9367:9431   */\n      tag_361\n        /* \"#utility.yul\":9423:9430   */\n      dup5\n        /* \"#utility.yul\":9414:9420   */\n      dup3\n        /* \"#utility.yul\":9403:9412   */\n      dup6\n        /* \"#utility.yul\":9399:9421   */\n      add\n        /* \"#utility.yul\":9367:9431   */\n      tag_232\n      jump\t// in\n    tag_361:\n        /* \"#utility.yul\":9357:9431   */\n      swap2\n      pop\n        /* \"#utility.yul\":9313:9441   */\n      pop\n        /* \"#utility.yul\":9097:9448   */\n      swap3\n      swap2\n      pop\n      pop\n      jump\t// out\n        /* \"#utility.yul\":9454:9627   */\n    tag_233:\n        /* \"#utility.yul\":9594:9619   */\n      0x4e6f20746f6b656e7320746f2064697374726962757465000000000000000000\n        /* \"#utility.yul\":9590:9591   */\n      0x00\n        /* \"#utility.yul\":9582:9588   */\n      dup3\n        /* \"#utility.yul\":9578:9592   */\n      add\n        /* \"#utility.yul\":9571:9620   */\n      mstore\n        /* \"#utility.yul\":9454:9627   */\n      pop\n      jump\t// out\n        /* \"#utility.yul\":9633:9999   */\n    tag_234:\n        /* \"#utility.yul\":9775:9778   */\n      0x00\n        /* \"#utility.yul\":9796:9863   */\n      tag_364\n        /* \"#utility.yul\":9860:9862   */\n      0x17\n        /* \"#utility.yul\":9855:9858   */\n      dup4\n        /* \"#utility.yul\":9796:9863   */\n      tag_229\n      jump\t// in\n    tag_364:\n        /* \"#utility.yul\":9789:9863   */\n      swap2\n      pop\n        /* \"#utility.yul\":9872:9965   */\n      tag_365\n        /* \"#utility.yul\":9961:9964   */\n      dup3\n        /* \"#utility.yul\":9872:9965   */\n      tag_233\n      jump\t// in\n    tag_365:\n        /* \"#utility.yul\":9990:9992   */\n      0x20\n        /* \"#utility.yul\":9985:9988   */\n      dup3\n        /* \"#utility.yul\":9981:9993   */\n      add\n        /* \"#utility.yul\":9974:9993   */\n      swap1\n      pop\n        /* \"#utility.yul\":9633:9999   */\n      swap2\n      swap1\n      pop\n      jump\t// out\n        /* \"#utility.yul\":10005:10424   */\n    tag_79:\n        /* \"#utility.yul\":10171:10175   */\n      0x00\n        /* \"#utility.yul\":10209:10211   */\n      0x20\n        /* \"#utility.yul\":10198:10207   */\n      dup3\n        /* \"#utility.yul\":10194:10212   */\n      add\n        /* \"#utility.yul\":10186:10212   */\n      swap1\n      pop\n        /* \"#utility.yul\":10258:10267   */\n      dup2\n        /* \"#utility.yul\":10252:10256   */\n      dup2\n        /* \"#utility.yul\":10248:10268   */\n      sub\n        /* \"#utility.yul\":10244:10245   */\n      0x00\n        /* \"#utility.yul\":10233:10242   */\n      dup4\n        /* \"#utility.yul\":10229:10246   */\n      add\n        /* \"#utility.yul\":10222:10269   */\n      mstore\n        /* \"#utility.yul\":10286:10417   */\n      tag_367\n        /* \"#utility.yul\":10412:10416   */\n      dup2\n        /* \"#utility.yul\":10286:10417   */\n      tag_234\n      jump\t// in\n    tag_367:\n        /* \"#utility.yul\":10278:10417   */\n      swap1\n      pop\n        /* \"#utility.yul\":10005:10424   */\n      swap2\n      swap1\n      pop\n      jump\t// out\n        /* \"#utility.yul\":10430:10610   */\n    tag_85:\n        /* \"#utility.yul\":10478:10555   */\n      0x4e487b7100000000000000000000000000000000000000000000000000000000\n        /* \"#utility.yul\":10475:10476   */\n      0x00\n        /* \"#utility.yul\":10468:10556   */\n      mstore\n        /* \"#utility.yul\":10575:10579   */\n      0x32\n        /* \"#utility.yul\":10572:10573   */\n      0x04\n        /* \"#utility.yul\":10565:10580   */\n      mstore\n        /* \"#utility.yul\":10599:10603   */\n      0x24\n        /* \"#utility.yul\":10596:10597   */\n      0x00\n        /* \"#utility.yul\":10589:10604   */\n      revert\n        /* \"#utility.yul\":10616:10790   */\n    tag_235:\n        /* \"#utility.yul\":10756:10782   */\n      0x496e76616c69642070617965652070657263656e746167650000000000000000\n        /* \"#utility.yul\":10752:10753   */\n      0x00\n        /* \"#utility.yul\":10744:10750   */\n      dup3\n        /* \"#utility.yul\":10740:10754   */\n      add\n        /* \"#utility.yul\":10733:10783   */\n      mstore\n        /* \"#utility.yul\":10616:10790   */\n      pop\n      jump\t// out\n        /* \"#utility.yul\":10796:11162   */\n    tag_236:\n        /* \"#utility.yul\":10938:10941   */\n      0x00\n        /* \"#utility.yul\":10959:11026   */\n      tag_371\n        /* \"#utility.yul\":11023:11025   */\n      0x18\n        /* \"#utility.yul\":11018:11021   */\n      dup4\n        /* \"#utility.yul\":10959:11026   */\n      tag_229\n      jump\t// in\n    tag_371:\n        /* \"#utility.yul\":10952:11026   */\n      swap2\n      pop\n        /* \"#utility.yul\":11035:11128   */\n      tag_372\n        /* \"#utility.yul\":11124:11127   */\n      dup3\n        /* \"#utility.yul\":11035:11128   */\n      tag_235\n      jump\t// in\n    tag_372:\n        /* \"#utility.yul\":11153:11155   */\n      0x20\n        /* \"#utility.yul\":11148:11151   */\n      dup3\n        /* \"#utility.yul\":11144:11156   */\n      add\n        /* \"#utility.yul\":11137:11156   */\n      swap1\n      pop\n        /* \"#utility.yul\":10796:11162   */\n      swap2\n      swap1\n      pop\n      jump\t// out\n        /* \"#utility.yul\":11168:11587   */\n    tag_89:\n        /* \"#utility.yul\":11334:11338   */\n      0x00\n        /* \"#utility.yul\":11372:11374   */\n      0x20\n        /* \"#utility.yul\":11361:11370   */\n      dup3\n        /* \"#utility.yul\":11357:11375   */\n      add\n        /* \"#utility.yul\":11349:11375   */\n      swap1\n      pop\n        /* \"#utility.yul\":11421:11430   */\n      dup2\n        /* \"#utility.yul\":11415:11419   */\n      dup2\n        /* \"#utility.yul\":11411:11431   */\n      sub\n        /* \"#utility.yul\":11407:11408   */\n      0x00\n        /* \"#utility.yul\":11396:11405   */\n      dup4\n        /* \"#utility.yul\":11392:11409   */\n      add\n        /* \"#utility.yul\":11385:11432   */\n      mstore\n        /* \"#utility.yul\":11449:11580   */\n      tag_374\n        /* \"#utility.yul\":11575:11579   */\n      dup2\n        /* \"#utility.yul\":11449:11580   */\n      tag_236\n      jump\t// in\n    tag_374:\n        /* \"#utility.yul\":11441:11580   */\n      swap1\n      pop\n        /* \"#utility.yul\":11168:11587   */\n      swap2\n      swap1\n      pop\n      jump\t// out\n        /* \"#utility.yul\":11593:11773   */\n    tag_237:\n        /* \"#utility.yul\":11641:11718   */\n      0x4e487b7100000000000000000000000000000000000000000000000000000000\n        /* \"#utility.yul\":11638:11639   */\n      0x00\n        /* \"#utility.yul\":11631:11719   */\n      mstore\n        /* \"#utility.yul\":11738:11742   */\n      0x11\n        /* \"#utility.yul\":11735:11736   */\n      0x04\n        /* \"#utility.yul\":11728:11743   */\n      mstore\n        /* \"#utility.yul\":11762:11766   */\n      0x24\n        /* \"#utility.yul\":11759:11760   */\n      0x00\n        /* \"#utility.yul\":11752:11767   */\n      revert\n        /* \"#utility.yul\":11779:11970   */\n    tag_94:\n        /* \"#utility.yul\":11819:11822   */\n      0x00\n        /* \"#utility.yul\":11838:11858   */\n      tag_377\n        /* \"#utility.yul\":11856:11857   */\n      dup3\n        /* \"#utility.yul\":11838:11858   */\n      tag_208\n      jump\t// in\n    tag_377:\n        /* \"#utility.yul\":11833:11858   */\n      swap2\n      pop\n        /* \"#utility.yul\":11872:11892   */\n      tag_378\n        /* \"#utility.yul\":11890:11891   */\n      dup4\n        /* \"#utility.yul\":11872:11892   */\n      tag_208\n      jump\t// in\n    tag_378:\n        /* \"#utility.yul\":11867:11892   */\n      swap3\n      pop\n        /* \"#utility.yul\":11915:11916   */\n      dup3\n        /* \"#utility.yul\":11912:11913   */\n      dup3\n        /* \"#utility.yul\":11908:11917   */\n      add\n        /* \"#utility.yul\":11901:11917   */\n      swap1\n      pop\n        /* \"#utility.yul\":11936:11939   */\n      dup1\n        /* \"#utility.yul\":11933:11934   */\n      dup3\n        /* \"#utility.yul\":11930:11940   */\n      gt\n        /* \"#utility.yul\":11927:11963   */\n      iszero\n      tag_379\n      jumpi\n        /* \"#utility.yul\":11943:11961   */\n      tag_380\n      tag_237\n      jump\t// in\n    tag_380:\n        /* \"#utility.yul\":11927:11963   */\n    tag_379:\n        /* \"#utility.yul\":11779:11970   */\n      swap3\n      swap2\n      pop\n      pop\n      jump\t// out\n        /* \"#utility.yul\":11976:12209   */\n    tag_96:\n        /* \"#utility.yul\":12015:12018   */\n      0x00\n        /* \"#utility.yul\":12038:12062   */\n      tag_382\n        /* \"#utility.yul\":12056:12061   */\n      dup3\n        /* \"#utility.yul\":12038:12062   */\n      tag_208\n      jump\t// in\n    tag_382:\n        /* \"#utility.yul\":12029:12062   */\n      swap2\n      pop\n        /* \"#utility.yul\":12084:12150   */\n      0xffffffffffffffffffffffffffffffffffffffffffffffffffffffffffffffff\n        /* \"#utility.yul\":12077:12082   */\n      dup3\n        /* \"#utility.yul\":12074:12151   */\n      sub\n        /* \"#utility.yul\":12071:12174   */\n      tag_383\n      jumpi\n        /* \"#utility.yul\":12154:12172   */\n      tag_384\n      tag_237\n      jump\t// in\n    tag_384:\n        /* \"#utility.yul\":12071:12174   */\n    tag_383:\n        /* \"#utility.yul\":12201:12202   */\n      0x01\n        /* \"#utility.yul\":12194:12199   */\n      dup3\n        /* \"#utility.yul\":12190:12203   */\n      add\n        /* \"#utility.yul\":12183:12203   */\n      swap1\n      pop\n        /* \"#utility.yul\":11976:12209   */\n      swap2\n      swap1\n      pop\n      jump\t// out\n        /* \"#utility.yul\":12215:12396   */\n    tag_238:\n        /* \"#utility.yul\":12355:12388   */\n      0x546f74616c2070657263656e74616765206d75737420657175616c2031303000\n        /* \"#utility.yul\":12351:12352   */\n      0x00\n        /* \"#utility.yul\":12343:12349   */\n      dup3\n        /* \"#utility.yul\":12339:12353   */\n      add\n        /* \"#utility.yul\":12332:12389   */\n      mstore\n        /* \"#utility.yul\":12215:12396   */\n      pop\n      jump\t// out\n        /* \"#utility.yul\":12402:12768   */\n    tag_239:\n        /* \"#utility.yul\":12544:12547   */\n      0x00\n        /* \"#utility.yul\":12565:12632   */\n      tag_387\n        /* \"#utility.yul\":12629:12631   */\n      0x1f\n        /* \"#utility.yul\":12624:12627   */\n      dup4\n        /* \"#utility.yul\":12565:12632   */\n      tag_229\n      jump\t// in\n    tag_387:\n        /* \"#utility.yul\":12558:12632   */\n      swap2\n      pop\n        /* \"#utility.yul\":12641:12734   */\n      tag_388\n        /* \"#utility.yul\":12730:12733   */\n      dup3\n        /* \"#utility.yul\":12641:12734   */\n      tag_238\n      jump\t// in\n    tag_388:\n        /* \"#utility.yul\":12759:12761   */\n      0x20\n        /* \"#utility.yul\":12754:12757   */\n      dup3\n        /* \"#utility.yul\":12750:12762   */\n      add\n        /* \"#utility.yul\":12743:12762   */\n      swap1\n      pop\n        /* \"#utility.yul\":12402:12768   */\n      swap2\n      swap1\n      pop\n      jump\t// out\n        /* \"#utility.yul\":12774:13193   */\n    tag_99:\n        /* \"#utility.yul\":12940:12944   */\n      0x00\n        /* \"#utility.yul\":12978:12980   */\n      0x20\n        /* \"#utility.yul\":12967:12976   */\n      dup3\n        /* \"#utility.yul\":12963:12981   */\n      add\n        /* \"#utility.yul\":12955:12981   */\n      swap1\n      pop\n        /* \"#utility.yul\":13027:13036   */\n      dup2\n        /* \"#utility.yul\":13021:13025   */\n      dup2\n        /* \"#utility.yul\":13017:13037   */\n      sub\n        /* \"#utility.yul\":13013:13014   */\n      0x00\n        /* \"#utility.yul\":13002:13011   */\n      dup4\n        /* \"#utility.yul\":12998:13015   */\n      add\n        /* \"#utility.yul\":12991:13038   */\n      mstore\n        /* \"#utility.yul\":13055:13186   */\n      tag_390\n        /* \"#utility.yul\":13181:13185   */\n      dup2\n        /* \"#utility.yul\":13055:13186   */\n      tag_239\n      jump\t// in\n    tag_390:\n        /* \"#utility.yul\":13047:13186   */\n      swap1\n      pop\n        /* \"#utility.yul\":12774:13193   */\n      swap2\n      swap1\n      pop\n      jump\t// out\n        /* \"#utility.yul\":13199:13609   */\n    tag_107:\n        /* \"#utility.yul\":13239:13246   */\n      0x00\n        /* \"#utility.yul\":13262:13282   */\n      tag_392\n        /* \"#utility.yul\":13280:13281   */\n      dup3\n        /* \"#utility.yul\":13262:13282   */\n      tag_208\n      jump\t// in\n    tag_392:\n        /* \"#utility.yul\":13257:13282   */\n      swap2\n      pop\n        /* \"#utility.yul\":13296:13316   */\n      tag_393\n        /* \"#utility.yul\":13314:13315   */\n      dup4\n        /* \"#utility.yul\":13296:13316   */\n      tag_208\n      jump\t// in\n    tag_393:\n        /* \"#utility.yul\":13291:13316   */\n      swap3\n      pop\n        /* \"#utility.yul\":13351:13352   */\n      dup3\n        /* \"#utility.yul\":13348:13349   */\n      dup3\n        /* \"#utility.yul\":13344:13353   */\n      mul\n        /* \"#utility.yul\":13373:13403   */\n      tag_394\n        /* \"#utility.yul\":13391:13402   */\n      dup2\n        /* \"#utility.yul\":13373:13403   */\n      tag_208\n      jump\t// in\n    tag_394:\n        /* \"#utility.yul\":13362:13403   */\n      swap2\n      pop\n        /* \"#utility.yul\":13552:13553   */\n      dup3\n        /* \"#utility.yul\":13543:13550   */\n      dup3\n        /* \"#utility.yul\":13539:13554   */\n      div\n        /* \"#utility.yul\":13536:13537   */\n      dup5\n        /* \"#utility.yul\":13533:13555   */\n      eq\n        /* \"#utility.yul\":13513:13514   */\n      dup4\n        /* \"#utility.yul\":13506:13515   */\n      iszero\n        /* \"#utility.yul\":13486:13569   */\n      or\n        /* \"#utility.yul\":13463:13602   */\n      tag_395\n      jumpi\n        /* \"#utility.yul\":13582:13600   */\n      tag_396\n      tag_237\n      jump\t// in\n    tag_396:\n        /* \"#utility.yul\":13463:13602   */\n    tag_395:\n        /* \"#utility.yul\":13247:13609   */\n      pop\n        /* \"#utility.yul\":13199:13609   */\n      swap3\n      swap2\n      pop\n      pop\n      jump\t// out\n        /* \"#utility.yul\":13615:13795   */\n    tag_240:\n        /* \"#utility.yul\":13663:13740   */\n      0x4e487b7100000000000000000000000000000000000000000000000000000000\n        /* \"#utility.yul\":13660:13661   */\n      0x00\n        /* \"#utility.yul\":13653:13741   */\n      mstore\n        /* \"#utility.yul\":13760:13764   */\n      0x12\n        /* \"#utility.yul\":13757:13758   */\n      0x04\n        /* \"#utility.yul\":13750:13765   */\n      mstore\n        /* \"#utility.yul\":13784:13788   */\n      0x24\n        /* \"#utility.yul\":13781:13782   */\n      0x00\n        /* \"#utility.yul\":13774:13789   */\n      revert\n        /* \"#utility.yul\":13801:13986   */\n    tag_109:\n        /* \"#utility.yul\":13841:13842   */\n      0x00\n        /* \"#utility.yul\":13858:13878   */\n      tag_399\n        /* \"#utility.yul\":13876:13877   */\n      dup3\n        /* \"#utility.yul\":13858:13878   */\n      tag_208\n      jump\t// in\n    tag_399:\n        /* \"#utility.yul\":13853:13878   */\n      swap2\n      pop\n        /* \"#utility.yul\":13892:13912   */\n      tag_400\n        /* \"#utility.yul\":13910:13911   */\n      dup4\n        /* \"#utility.yul\":13892:13912   */\n      tag_208\n      jump\t// in\n    tag_400:\n        /* \"#utility.yul\":13887:13912   */\n      swap3\n      pop\n        /* \"#utility.yul\":13931:13932   */\n      dup3\n        /* \"#utility.yul\":13921:13956   */\n      tag_401\n      jumpi\n        /* \"#utility.yul\":13936:13954   */\n      tag_402\n      tag_240\n      jump\t// in\n    tag_402:\n        /* \"#utility.yul\":13921:13956   */\n    tag_401:\n        /* \"#utility.yul\":13978:13979   */\n      dup3\n        /* \"#utility.yul\":13975:13976   */\n      dup3\n        /* \"#utility.yul\":13971:13980   */\n      div\n        /* \"#utility.yul\":13966:13980   */\n      swap1\n      pop\n        /* \"#utility.yul\":13801:13986   */\n      swap3\n      swap2\n      pop\n      pop\n      jump\t// out\n        /* \"#utility.yul\":13992:14324   */\n    tag_114:\n        /* \"#utility.yul\":14113:14117   */\n      0x00\n        /* \"#utility.yul\":14151:14153   */\n      0x40\n        /* \"#utility.yul\":14140:14149   */\n      dup3\n        /* \"#utility.yul\":14136:14154   */\n      add\n        /* \"#utility.yul\":14128:14154   */\n      swap1\n      pop\n        /* \"#utility.yul\":14164:14235   */\n      tag_404\n        /* \"#utility.yul\":14232:14233   */\n      0x00\n        /* \"#utility.yul\":14221:14230   */\n      dup4\n        /* \"#utility.yul\":14217:14234   */\n      add\n        /* \"#utility.yul\":14208:14214   */\n      dup6\n        /* \"#utility.yul\":14164:14235   */\n      tag_214\n      jump\t// in\n    tag_404:\n        /* \"#utility.yul\":14245:14317   */\n      tag_405\n        /* \"#utility.yul\":14313:14315   */\n      0x20\n        /* \"#utility.yul\":14302:14311   */\n      dup4\n        /* \"#utility.yul\":14298:14316   */\n      add\n        /* \"#utility.yul\":14289:14295   */\n      dup5\n        /* \"#utility.yul\":14245:14317   */\n      tag_211\n      jump\t// in\n    tag_405:\n        /* \"#utility.yul\":13992:14324   */\n      swap4\n      swap3\n      pop\n      pop\n      pop\n      jump\t// out\n        /* \"#utility.yul\":14330:14420   */\n    tag_241:\n        /* \"#utility.yul\":14364:14371   */\n      0x00\n        /* \"#utility.yul\":14407:14412   */\n      dup2\n        /* \"#utility.yul\":14400:14413   */\n      iszero\n        /* \"#utility.yul\":14393:14414   */\n      iszero\n        /* \"#utility.yul\":14382:14414   */\n      swap1\n      pop\n        /* \"#utility.yul\":14330:14420   */\n      swap2\n      swap1\n      pop\n      jump\t// out\n        /* \"#utility.yul\":14426:14542   */\n    tag_242:\n        /* \"#utility.yul\":14496:14517   */\n      tag_408\n        /* \"#utility.yul\":14511:14516   */\n      dup2\n        /* \"#utility.yul\":14496:14517   */\n      tag_241\n      jump\t// in\n    tag_408:\n        /* \"#utility.yul\":14489:14494   */\n      dup2\n        /* \"#utility.yul\":14486:14518   */\n      eq\n        /* \"#utility.yul\":14476:14536   */\n      tag_409\n      jumpi\n        /* \"#utility.yul\":14532:14533   */\n      0x00\n        /* \"#utility.yul\":14529:14530   */\n      dup1\n        /* \"#utility.yul\":14522:14534   */\n      revert\n        /* \"#utility.yul\":14476:14536   */\n    tag_409:\n        /* \"#utility.yul\":14426:14542   */\n      pop\n      jump\t// out\n        /* \"#utility.yul\":14548:14685   */\n    tag_243:\n        /* \"#utility.yul\":14602:14607   */\n      0x00\n        /* \"#utility.yul\":14633:14639   */\n      dup2\n        /* \"#utility.yul\":14627:14640   */\n      mload\n        /* \"#utility.yul\":14618:14640   */\n      swap1\n      pop\n        /* \"#utility.yul\":14649:14679   */\n      tag_411\n        /* \"#utility.yul\":14673:14678   */\n      dup2\n        /* \"#utility.yul\":14649:14679   */\n      tag_242\n      jump\t// in\n    tag_411:\n        /* \"#utility.yul\":14548:14685   */\n      swap3\n      swap2\n      pop\n      pop\n      jump\t// out\n        /* \"#utility.yul\":14691:15036   */\n    tag_118:\n        /* \"#utility.yul\":14758:14764   */\n      0x00\n        /* \"#utility.yul\":14807:14809   */\n      0x20\n        /* \"#utility.yul\":14795:14804   */\n      dup3\n        /* \"#utility.yul\":14786:14793   */\n      dup5\n        /* \"#utility.yul\":14782:14805   */\n      sub\n        /* \"#utility.yul\":14778:14810   */\n      slt\n        /* \"#utility.yul\":14775:14894   */\n      iszero\n      tag_413\n      jumpi\n        /* \"#utility.yul\":14813:14892   */\n      tag_414\n      tag_206\n      jump\t// in\n    tag_414:\n        /* \"#utility.yul\":14775:14894   */\n    tag_413:\n        /* \"#utility.yul\":14933:14934   */\n      0x00\n        /* \"#utility.yul\":14958:15019   */\n      tag_415\n        /* \"#utility.yul\":15011:15018   */\n      dup5\n        /* \"#utility.yul\":15002:15008   */\n      dup3\n        /* \"#utility.yul\":14991:15000   */\n      dup6\n        /* \"#utility.yul\":14987:15009   */\n      add\n        /* \"#utility.yul\":14958:15019   */\n      tag_243\n      jump\t// in\n    tag_415:\n        /* \"#utility.yul\":14948:15019   */\n      swap2\n      pop\n        /* \"#utility.yul\":14904:15029   */\n      pop\n        /* \"#utility.yul\":14691:15036   */\n      swap3\n      swap2\n      pop\n      pop\n      jump\t// out\n        /* \"#utility.yul\":15042:15214   */\n    tag_244:\n        /* \"#utility.yul\":15182:15206   */\n      0x4e6f742074686520636f6e7472616374206f776e657200000000000000000000\n        /* \"#utility.yul\":15178:15179   */\n      0x00\n        /* \"#utility.yul\":15170:15176   */\n      dup3\n        /* \"#utility.yul\":15166:15180   */\n      add\n        /* \"#utility.yul\":15159:15207   */\n      mstore\n        /* \"#utility.yul\":15042:15214   */\n      pop\n      jump\t// out\n        /* \"#utility.yul\":15220:15586   */\n    tag_245:\n        /* \"#utility.yul\":15362:15365   */\n      0x00\n        /* \"#utility.yul\":15383:15450   */\n      tag_418\n        /* \"#utility.yul\":15447:15449   */\n      0x16\n        /* \"#utility.yul\":15442:15445   */\n      dup4\n        /* \"#utility.yul\":15383:15450   */\n      tag_229\n      jump\t// in\n    tag_418:\n        /* \"#utility.yul\":15376:15450   */\n      swap2\n      pop\n        /* \"#utility.yul\":15459:15552   */\n      tag_419\n        /* \"#utility.yul\":15548:15551   */\n      dup3\n        /* \"#utility.yul\":15459:15552   */\n      tag_244\n      jump\t// in\n    tag_419:\n        /* \"#utility.yul\":15577:15579   */\n      0x20\n        /* \"#utility.yul\":15572:15575   */\n      dup3\n        /* \"#utility.yul\":15568:15580   */\n      add\n        /* \"#utility.yul\":15561:15580   */\n      swap1\n      pop\n        /* \"#utility.yul\":15220:15586   */\n      swap2\n      swap1\n      pop\n      jump\t// out\n        /* \"#utility.yul\":15592:16011   */\n    tag_134:\n        /* \"#utility.yul\":15758:15762   */\n      0x00\n        /* \"#utility.yul\":15796:15798   */\n      0x20\n        /* \"#utility.yul\":15785:15794   */\n      dup3\n        /* \"#utility.yul\":15781:15799   */\n      add\n        /* \"#utility.yul\":15773:15799   */\n      swap1\n      pop\n        /* \"#utility.yul\":15845:15854   */\n      dup2\n        /* \"#utility.yul\":15839:15843   */\n      dup2\n        /* \"#utility.yul\":15835:15855   */\n      sub\n        /* \"#utility.yul\":15831:15832   */\n      0x00\n        /* \"#utility.yul\":15820:15829   */\n      dup4\n        /* \"#utility.yul\":15816:15833   */\n      add\n        /* \"#utility.yul\":15809:15856   */\n      mstore\n        /* \"#utility.yul\":15873:16004   */\n      tag_421\n        /* \"#utility.yul\":15999:16003   */\n      dup2\n        /* \"#utility.yul\":15873:16004   */\n      tag_245\n      jump\t// in\n    tag_421:\n        /* \"#utility.yul\":15865:16004   */\n      swap1\n      pop\n        /* \"#utility.yul\":15592:16011   */\n      swap2\n      swap1\n      pop\n      jump\t// out\n        /* \"#utility.yul\":16017:16188   */\n    tag_246:\n        /* \"#utility.yul\":16157:16180   */\n      0x4e6f20746f6b656e7320746f2077697468647261770000000000000000000000\n        /* \"#utility.yul\":16153:16154   */\n      0x00\n        /* \"#utility.yul\":16145:16151   */\n      dup3\n        /* \"#utility.yul\":16141:16155   */\n      add\n        /* \"#utility.yul\":16134:16181   */\n      mstore\n        /* \"#utility.yul\":16017:16188   */\n      pop\n      jump\t// out\n        /* \"#utility.yul\":16194:16560   */\n    tag_247:\n        /* \"#utility.yul\":16336:16339   */\n      0x00\n        /* \"#utility.yul\":16357:16424   */\n      tag_424\n        /* \"#utility.yul\":16421:16423   */\n      0x15\n        /* \"#utility.yul\":16416:16419   */\n      dup4\n        /* \"#utility.yul\":16357:16424   */\n      tag_229\n      jump\t// in\n    tag_424:\n        /* \"#utility.yul\":16350:16424   */\n      swap2\n      pop\n        /* \"#utility.yul\":16433:16526   */\n      tag_425\n        /* \"#utility.yul\":16522:16525   */\n      dup3\n        /* \"#utility.yul\":16433:16526   */\n      tag_246\n      jump\t// in\n    tag_425:\n        /* \"#utility.yul\":16551:16553   */\n      0x20\n        /* \"#utility.yul\":16546:16549   */\n      dup3\n        /* \"#utility.yul\":16542:16554   */\n      add\n        /* \"#utility.yul\":16535:16554   */\n      swap1\n      pop\n        /* \"#utility.yul\":16194:16560   */\n      swap2\n      swap1\n      pop\n      jump\t// out\n        /* \"#utility.yul\":16566:16985   */\n    tag_144:\n        /* \"#utility.yul\":16732:16736   */\n      0x00\n        /* \"#utility.yul\":16770:16772   */\n      0x20\n        /* \"#utility.yul\":16759:16768   */\n      dup3\n        /* \"#utility.yul\":16755:16773   */\n      add\n        /* \"#utility.yul\":16747:16773   */\n      swap1\n      pop\n        /* \"#utility.yul\":16819:16828   */\n      dup2\n        /* \"#utility.yul\":16813:16817   */\n      dup2\n        /* \"#utility.yul\":16809:16829   */\n      sub\n        /* \"#utility.yul\":16805:16806   */\n      0x00\n        /* \"#utility.yul\":16794:16803   */\n      dup4\n        /* \"#utility.yul\":16790:16807   */\n      add\n        /* \"#utility.yul\":16783:16830   */\n      mstore\n        /* \"#utility.yul\":16847:16978   */\n      tag_427\n        /* \"#utility.yul\":16973:16977   */\n      dup2\n        /* \"#utility.yul\":16847:16978   */\n      tag_247\n      jump\t// in\n    tag_427:\n        /* \"#utility.yul\":16839:16978   */\n      swap1\n      pop\n        /* \"#utility.yul\":16566:16985   */\n      swap2\n      swap1\n      pop\n      jump\t// out\n        /* \"#utility.yul\":16991:17162   */\n    tag_248:\n        /* \"#utility.yul\":17131:17154   */\n      0x496e76616c696420746f6b656e20616464726573730000000000000000000000\n        /* \"#utility.yul\":17127:17128   */\n      0x00\n        /* \"#utility.yul\":17119:17125   */\n      dup3\n        /* \"#utility.yul\":17115:17129   */\n      add\n        /* \"#utility.yul\":17108:17155   */\n      mstore\n        /* \"#utility.yul\":16991:17162   */\n      pop\n      jump\t// out\n        /* \"#utility.yul\":17168:17534   */\n    tag_249:\n        /* \"#utility.yul\":17310:17313   */\n      0x00\n        /* \"#utility.yul\":17331:17398   */\n      tag_430\n        /* \"#utility.yul\":17395:17397   */\n      0x15\n        /* \"#utility.yul\":17390:17393   */\n      dup4\n        /* \"#utility.yul\":17331:17398   */\n      tag_229\n      jump\t// in\n    tag_430:\n        /* \"#utility.yul\":17324:17398   */\n      swap2\n      pop\n        /* \"#utility.yul\":17407:17500   */\n      tag_431\n        /* \"#utility.yul\":17496:17499   */\n      dup3\n        /* \"#utility.yul\":17407:17500   */\n      tag_248\n      jump\t// in\n    tag_431:\n        /* \"#utility.yul\":17525:17527   */\n      0x20\n        /* \"#utility.yul\":17520:17523   */\n      dup3\n        /* \"#utility.yul\":17516:17528   */\n      add\n        /* \"#utility.yul\":17509:17528   */\n      swap1\n      pop\n        /* \"#utility.yul\":17168:17534   */\n      swap2\n      swap1\n      pop\n      jump\t// out\n        /* \"#utility.yul\":17540:17959   */\n    tag_155:\n        /* \"#utility.yul\":17706:17710   */\n      0x00\n        /* \"#utility.yul\":17744:17746   */\n      0x20\n        /* \"#utility.yul\":17733:17742   */\n      dup3\n        /* \"#utility.yul\":17729:17747   */\n      add\n        /* \"#utility.yul\":17721:17747   */\n      swap1\n      pop\n        /* \"#utility.yul\":17793:17802   */\n      dup2\n        /* \"#utility.yul\":17787:17791   */\n      dup2\n        /* \"#utility.yul\":17783:17803   */\n      sub\n        /* \"#utility.yul\":17779:17780   */\n      0x00\n        /* \"#utility.yul\":17768:17777   */\n      dup4\n        /* \"#utility.yul\":17764:17781   */\n      add\n        /* \"#utility.yul\":17757:17804   */\n      mstore\n        /* \"#utility.yul\":17821:17952   */\n      tag_433\n        /* \"#utility.yul\":17947:17951   */\n      dup2\n        /* \"#utility.yul\":17821:17952   */\n      tag_249\n      jump\t// in\n    tag_433:\n        /* \"#utility.yul\":17813:17952   */\n      swap1\n      pop\n        /* \"#utility.yul\":17540:17959   */\n      swap2\n      swap1\n      pop\n      jump\t// out\n        /* \"#utility.yul\":17965:18129   */\n    tag_250:\n        /* \"#utility.yul\":18105:18121   */\n      0x496e76616c696420616d6f756e74000000000000000000000000000000000000\n        /* \"#utility.yul\":18101:18102   */\n      0x00\n        /* \"#utility.yul\":18093:18099   */\n      dup3\n        /* \"#utility.yul\":18089:18103   */\n      add\n        /* \"#utility.yul\":18082:18122   */\n      mstore\n        /* \"#utility.yul\":17965:18129   */\n      pop\n      jump\t// out\n        /* \"#utility.yul\":18135:18501   */\n    tag_251:\n        /* \"#utility.yul\":18277:18280   */\n      0x00\n        /* \"#utility.yul\":18298:18365   */\n      tag_436\n        /* \"#utility.yul\":18362:18364   */\n      0x0e\n        /* \"#utility.yul\":18357:18360   */\n      dup4\n        /* \"#utility.yul\":18298:18365   */\n      tag_229\n      jump\t// in\n    tag_436:\n        /* \"#utility.yul\":18291:18365   */\n      swap2\n      pop\n        /* \"#utility.yul\":18374:18467   */\n      tag_437\n        /* \"#utility.yul\":18463:18466   */\n      dup3\n        /* \"#utility.yul\":18374:18467   */\n      tag_250\n      jump\t// in\n    tag_437:\n        /* \"#utility.yul\":18492:18494   */\n      0x20\n        /* \"#utility.yul\":18487:18490   */\n      dup3\n        /* \"#utility.yul\":18483:18495   */\n      add\n        /* \"#utility.yul\":18476:18495   */\n      swap1\n      pop\n        /* \"#utility.yul\":18135:18501   */\n      swap2\n      swap1\n      pop\n      jump\t// out\n        /* \"#utility.yul\":18507:18926   */\n    tag_158:\n        /* \"#utility.yul\":18673:18677   */\n      0x00\n        /* \"#utility.yul\":18711:18713   */\n      0x20\n        /* \"#utility.yul\":18700:18709   */\n      dup3\n        /* \"#utility.yul\":18696:18714   */\n      add\n        /* \"#utility.yul\":18688:18714   */\n      swap1\n      pop\n        /* \"#utility.yul\":18760:18769   */\n      dup2\n        /* \"#utility.yul\":18754:18758   */\n      dup2\n        /* \"#utility.yul\":18750:18770   */\n      sub\n        /* \"#utility.yul\":18746:18747   */\n      0x00\n        /* \"#utility.yul\":18735:18744   */\n      dup4\n        /* \"#utility.yul\":18731:18748   */\n      add\n        /* \"#utility.yul\":18724:18771   */\n      mstore\n        /* \"#utility.yul\":18788:18919   */\n      tag_439\n        /* \"#utility.yul\":18914:18918   */\n      dup2\n        /* \"#utility.yul\":18788:18919   */\n      tag_251\n      jump\t// in\n    tag_439:\n        /* \"#utility.yul\":18780:18919   */\n      swap1\n      pop\n        /* \"#utility.yul\":18507:18926   */\n      swap2\n      swap1\n      pop\n      jump\t// out\n        /* \"#utility.yul\":18932:19100   */\n    tag_252:\n        /* \"#utility.yul\":19072:19092   */\n      0x4e6f207061796565732070726f76696465640000000000000000000000000000\n        /* \"#utility.yul\":19068:19069   */\n      0x00\n        /* \"#utility.yul\":19060:19066   */\n      dup3\n        /* \"#utility.yul\":19056:19070   */\n      add\n        /* \"#utility.yul\":19049:19093   */\n      mstore\n        /* \"#utility.yul\":18932:19100   */\n      pop\n      jump\t// out\n        /* \"#utility.yul\":19106:19472   */\n    tag_253:\n        /* \"#utility.yul\":19248:19251   */\n      0x00\n        /* \"#utility.yul\":19269:19336   */\n      tag_442\n        /* \"#utility.yul\":19333:19335   */\n      0x12\n        /* \"#utility.yul\":19328:19331   */\n      dup4\n        /* \"#utility.yul\":19269:19336   */\n      tag_229\n      jump\t// in\n    tag_442:\n        /* \"#utility.yul\":19262:19336   */\n      swap2\n      pop\n        /* \"#utility.yul\":19345:19438   */\n      tag_443\n        /* \"#utility.yul\":19434:19437   */\n      dup3\n        /* \"#utility.yul\":19345:19438   */\n      tag_252\n      jump\t// in\n    tag_443:\n        /* \"#utility.yul\":19463:19465   */\n      0x20\n        /* \"#utility.yul\":19458:19461   */\n      dup3\n        /* \"#utility.yul\":19454:19466   */\n      add\n        /* \"#utility.yul\":19447:19466   */\n      swap1\n      pop\n        /* \"#utility.yul\":19106:19472   */\n      swap2\n      swap1\n      pop\n      jump\t// out\n        /* \"#utility.yul\":19478:19897   */\n    tag_179:\n        /* \"#utility.yul\":19644:19648   */\n      0x00\n        /* \"#utility.yul\":19682:19684   */\n      0x20\n        /* \"#utility.yul\":19671:19680   */\n      dup3\n        /* \"#utility.yul\":19667:19685   */\n      add\n        /* \"#utility.yul\":19659:19685   */\n      swap1\n      pop\n        /* \"#utility.yul\":19731:19740   */\n      dup2\n        /* \"#utility.yul\":19725:19729   */\n      dup2\n        /* \"#utility.yul\":19721:19741   */\n      sub\n        /* \"#utility.yul\":19717:19718   */\n      0x00\n        /* \"#utility.yul\":19706:19715   */\n      dup4\n        /* \"#utility.yul\":19702:19719   */\n      add\n        /* \"#utility.yul\":19695:19742   */\n      mstore\n        /* \"#utility.yul\":19759:19890   */\n      tag_445\n        /* \"#utility.yul\":19885:19889   */\n      dup2\n        /* \"#utility.yul\":19759:19890   */\n      tag_253\n      jump\t// in\n    tag_445:\n        /* \"#utility.yul\":19751:19890   */\n      swap1\n      pop\n        /* \"#utility.yul\":19478:19897   */\n      swap2\n      swap1\n      pop\n      jump\t// out\n        /* \"#utility.yul\":19903:20078   */\n    tag_254:\n        /* \"#utility.yul\":20043:20070   */\n      0x496e76616c69642070617965652070657263656e746167657300000000000000\n        /* \"#utility.yul\":20039:20040   */\n      0x00\n        /* \"#utility.yul\":20031:20037   */\n      dup3\n        /* \"#utility.yul\":20027:20041   */\n      add\n        /* \"#utility.yul\":20020:20071   */\n      mstore\n        /* \"#utility.yul\":19903:20078   */\n      pop\n      jump\t// out\n        /* \"#utility.yul\":20084:20450   */\n    tag_255:\n        /* \"#utility.yul\":20226:20229   */\n      0x00\n        /* \"#utility.yul\":20247:20314   */\n      tag_448\n        /* \"#utility.yul\":20311:20313   */\n      0x19\n        /* \"#utility.yul\":20306:20309   */\n      dup4\n        /* \"#utility.yul\":20247:20314   */\n      tag_229\n      jump\t// in\n    tag_448:\n        /* \"#utility.yul\":20240:20314   */\n      swap2\n      pop\n        /* \"#utility.yul\":20323:20416   */\n      tag_449\n        /* \"#utility.yul\":20412:20415   */\n      dup3\n        /* \"#utility.yul\":20323:20416   */\n      tag_254\n      jump\t// in\n    tag_449:\n        /* \"#utility.yul\":20441:20443   */\n      0x20\n        /* \"#utility.yul\":20436:20439   */\n      dup3\n        /* \"#utility.yul\":20432:20444   */\n      add\n        /* \"#utility.yul\":20425:20444   */\n      swap1\n      pop\n        /* \"#utility.yul\":20084:20450   */\n      swap2\n      swap1\n      pop\n      jump\t// out\n        /* \"#utility.yul\":20456:20875   */\n    tag_182:\n        /* \"#utility.yul\":20622:20626   */\n      0x00\n        /* \"#utility.yul\":20660:20662   */\n      0x20\n        /* \"#utility.yul\":20649:20658   */\n      dup3\n        /* \"#utility.yul\":20645:20663   */\n      add\n        /* \"#utility.yul\":20637:20663   */\n      swap1\n      pop\n        /* \"#utility.yul\":20709:20718   */\n      dup2\n        /* \"#utility.yul\":20703:20707   */\n      dup2\n        /* \"#utility.yul\":20699:20719   */\n      sub\n        /* \"#utility.yul\":20695:20696   */\n      0x00\n        /* \"#utility.yul\":20684:20693   */\n      dup4\n        /* \"#utility.yul\":20680:20697   */\n      add\n        /* \"#utility.yul\":20673:20720   */\n      mstore\n        /* \"#utility.yul\":20737:20868   */\n      tag_451\n        /* \"#utility.yul\":20863:20867   */\n      dup2\n        /* \"#utility.yul\":20737:20868   */\n      tag_255\n      jump\t// in\n    tag_451:\n        /* \"#utility.yul\":20729:20868   */\n      swap1\n      pop\n        /* \"#utility.yul\":20456:20875   */\n      swap2\n      swap1\n      pop\n      jump\t// out\n        /* \"#utility.yul\":20881:21056   */\n    tag_256:\n        /* \"#utility.yul\":21021:21048   */\n      0x496e76616c6964206e6577206f776e6572206164647265737300000000000000\n        /* \"#utility.yul\":21017:21018   */\n      0x00\n        /* \"#utility.yul\":21009:21015   */\n      dup3\n        /* \"#utility.yul\":21005:21019   */\n      add\n        /* \"#utility.yul\":20998:21049   */\n      mstore\n        /* \"#utility.yul\":20881:21056   */\n      pop\n      jump\t// out\n        /* \"#utility.yul\":21062:21428   */\n    tag_257:\n        /* \"#utility.yul\":21204:21207   */\n      0x00\n        /* \"#utility.yul\":21225:21292   */\n      tag_454\n        /* \"#utility.yul\":21289:21291   */\n      0x19\n        /* \"#utility.yul\":21284:21287   */\n      dup4\n        /* \"#utility.yul\":21225:21292   */\n      tag_229\n      jump\t// in\n    tag_454:\n        /* \"#utility.yul\":21218:21292   */\n      swap2\n      pop\n        /* \"#utility.yul\":21301:21394   */\n      tag_455\n        /* \"#utility.yul\":21390:21393   */\n      dup3\n        /* \"#utility.yul\":21301:21394   */\n      tag_256\n      jump\t// in\n    tag_455:\n        /* \"#utility.yul\":21419:21421   */\n      0x20\n        /* \"#utility.yul\":21414:21417   */\n      dup3\n        /* \"#utility.yul\":21410:21422   */\n      add\n        /* \"#utility.yul\":21403:21422   */\n      swap1\n      pop\n        /* \"#utility.yul\":21062:21428   */\n      swap2\n      swap1\n      pop\n      jump\t// out\n        /* \"#utility.yul\":21434:21853   */\n    tag_193:\n        /* \"#utility.yul\":21600:21604   */\n      0x00\n        /* \"#utility.yul\":21638:21640   */\n      0x20\n        /* \"#utility.yul\":21627:21636   */\n      dup3\n        /* \"#utility.yul\":21623:21641   */\n      add\n        /* \"#utility.yul\":21615:21641   */\n      swap1\n      pop\n        /* \"#utility.yul\":21687:21696   */\n      dup2\n        /* \"#utility.yul\":21681:21685   */\n      dup2\n        /* \"#utility.yul\":21677:21697   */\n      sub\n        /* \"#utility.yul\":21673:21674   */\n      0x00\n        /* \"#utility.yul\":21662:21671   */\n      dup4\n        /* \"#utility.yul\":21658:21675   */\n      add\n        /* \"#utility.yul\":21651:21698   */\n      mstore\n        /* \"#utility.yul\":21715:21846   */\n      tag_457\n        /* \"#utility.yul\":21841:21845   */\n      dup2\n        /* \"#utility.yul\":21715:21846   */\n      tag_257\n      jump\t// in\n    tag_457:\n        /* \"#utility.yul\":21707:21846   */\n      swap1\n      pop\n        /* \"#utility.yul\":21434:21853   */\n      swap2\n      swap1\n      pop\n      jump\t// out\n\n    auxdata: 0xa26469706673582212208ad4aded5555387ad26b97dc025cecda11aa9a302867b4783e22b247b708742664736f6c63430008130033\n}\n",
				"bytecode": {
					"linkReferences": {},
					"object": "60806040523480156200001157600080fd5b5060405162002573380380620025738339818101604052810190620000379190620005f3565b60008351116200007e576040517f08c379a00000000000000000000000000000000000000000000000000000000081526004016200007590620006ee565b60405180910390fd5b8151835114620000c5576040517f08c379a0000000000000000000000000000000000000000000000000000000008152600401620000bc9062000760565b60405180910390fd5b600073ffffffffffffffffffffffffffffffffffffffff168173ffffffffffffffffffffffffffffffffffffffff160362000137576040517f08c379a00000000000000000000000000000000000000000000000000000000081526004016200012e90620007d2565b60405180910390fd5b33600260006101000a81548173ffffffffffffffffffffffffffffffffffffffff021916908373ffffffffffffffffffffffffffffffffffffffff160217905550826000908051906020019062000190929190620001f4565b508160019080519060200190620001a992919062000283565b5080600360006101000a81548173ffffffffffffffffffffffffffffffffffffffff021916908373ffffffffffffffffffffffffffffffffffffffff160217905550505050620007f4565b82805482825590600052602060002090810192821562000270579160200282015b828111156200026f5782518260006101000a81548173ffffffffffffffffffffffffffffffffffffffff021916908373ffffffffffffffffffffffffffffffffffffffff1602179055509160200191906001019062000215565b5b5090506200027f9190620002d5565b5090565b828054828255906000526020600020908101928215620002c2579160200282015b82811115620002c1578251825591602001919060010190620002a4565b5b509050620002d19190620002d5565b5090565b5b80821115620002f0576000816000905550600101620002d6565b5090565b6000604051905090565b600080fd5b600080fd5b600080fd5b6000601f19601f8301169050919050565b7f4e487b7100000000000000000000000000000000000000000000000000000000600052604160045260246000fd5b62000358826200030d565b810181811067ffffffffffffffff821117156200037a57620003796200031e565b5b80604052505050565b60006200038f620002f4565b90506200039d82826200034d565b919050565b600067ffffffffffffffff821115620003c057620003bf6200031e565b5b602082029050602081019050919050565b600080fd5b600073ffffffffffffffffffffffffffffffffffffffff82169050919050565b60006200040382620003d6565b9050919050565b6200041581620003f6565b81146200042157600080fd5b50565b60008151905062000435816200040a565b92915050565b6000620004526200044c84620003a2565b62000383565b90508083825260208201905060208402830185811115620004785762000477620003d1565b5b835b81811015620004a5578062000490888262000424565b8452602084019350506020810190506200047a565b5050509392505050565b600082601f830112620004c757620004c662000308565b5b8151620004d98482602086016200043b565b91505092915050565b600067ffffffffffffffff8211156200050057620004ff6200031e565b5b602082029050602081019050919050565b6000819050919050565b620005268162000511565b81146200053257600080fd5b50565b60008151905062000546816200051b565b92915050565b6000620005636200055d84620004e2565b62000383565b90508083825260208201905060208402830185811115620005895762000588620003d1565b5b835b81811015620005b65780620005a1888262000535565b8452602084019350506020810190506200058b565b5050509392505050565b600082601f830112620005d857620005d762000308565b5b8151620005ea8482602086016200054c565b91505092915050565b6000806000606084860312156200060f576200060e620002fe565b5b600084015167ffffffffffffffff81111562000630576200062f62000303565b5b6200063e86828701620004af565b935050602084015167ffffffffffffffff81111562000662576200066162000303565b5b6200067086828701620005c0565b9250506040620006838682870162000424565b9150509250925092565b600082825260208201905092915050565b7f4e6f207061796565732070726f76696465640000000000000000000000000000600082015250565b6000620006d66012836200068d565b9150620006e3826200069e565b602082019050919050565b600060208201905081810360008301526200070981620006c7565b9050919050565b7f496e76616c69642070617965652070657263656e746167657300000000000000600082015250565b6000620007486019836200068d565b9150620007558262000710565b602082019050919050565b600060208201905081810360008301526200077b8162000739565b9050919050565b7f496e76616c696420746f6b656e20616464726573730000000000000000000000600082015250565b6000620007ba6015836200068d565b9150620007c78262000782565b602082019050919050565b60006020820190508181036000830152620007ed81620007ab565b9050919050565b611d6f80620008046000396000f3fe6080604052600436106100a05760003560e01c80638f63458c116100645780638f63458c1461019b5780639d76ea58146101c4578063c9cda91f146101ef578063d921505014610218578063e4fc6b6d14610241578063f2fde38b14610258576100af565b80632b29af7f146100b457806363037b0c146100f157806382b2e2571461012e5780638d8f2adb146101595780638da5cb5b14610170576100af565b366100af576100ad610281565b005b600080fd5b3480156100c057600080fd5b506100db60048036038101906100d69190611258565b610630565b6040516100e89190611294565b60405180910390f35b3480156100fd57600080fd5b5061011860048036038101906101139190611258565b610654565b60405161012591906112f0565b60405180910390f35b34801561013a57600080fd5b50610143610693565b6040516101509190611294565b60405180910390f35b34801561016557600080fd5b5061016e6107c6565b005b34801561017c57600080fd5b50610185610a74565b60405161019291906112f0565b60405180910390f35b3480156101a757600080fd5b506101c260048036038101906101bd9190611337565b610a9a565b005b3480156101d057600080fd5b506101d9610d24565b6040516101e691906112f0565b60405180910390f35b3480156101fb57600080fd5b5061021660048036038101906102119190611377565b610d4a565b005b34801561022457600080fd5b5061023f600480360381019061023a91906115c0565b610e8d565b005b34801561024d57600080fd5b50610256610281565b005b34801561026457600080fd5b5061027f600480360381019061027a9190611377565b610fd7565b005b600073ffffffffffffffffffffffffffffffffffffffff16600360009054906101000a900473ffffffffffffffffffffffffffffffffffffffff1673ffffffffffffffffffffffffffffffffffffffff1603610312576040517f08c379a000000000000000000000000000000000000000000000000000000000815260040161030990611695565b60405180910390fd5b6000600360009054906101000a900473ffffffffffffffffffffffffffffffffffffffff1673ffffffffffffffffffffffffffffffffffffffff166370a08231306040518263ffffffff1660e01b815260040161036f91906112f0565b602060405180830381865afa15801561038c573d6000803e3d6000fd5b505050506040513d601f19601f820116820180604052508101906103b091906116ca565b9050600081116103f5576040517f08c379a00000000000000000000000000000000000000000000000000000000081526004016103ec90611743565b60405180910390fd5b600080600090505b6001805490508110156104aa576000600182815481106104205761041f611763565b5b90600052602060002001541161046b576040517f08c379a0000000000000000000000000000000000000000000000000000000008152600401610462906117de565b60405180910390fd5b6001818154811061047f5761047e611763565b5b906000526020600020015482610495919061182d565b915080806104a290611861565b9150506103fd565b50606481146104ee576040517f08c379a00000000000000000000000000000000000000000000000000000000081526004016104e5906118f5565b60405180910390fd5b60005b60008054905081101561062b57600060646001838154811061051657610515611763565b5b90600052602060002001548561052c9190611915565b6105369190611986565b9050600360009054906101000a900473ffffffffffffffffffffffffffffffffffffffff1673ffffffffffffffffffffffffffffffffffffffff1663a9059cbb6000848154811061058a57610589611763565b5b9060005260206000200160009054906101000a900473ffffffffffffffffffffffffffffffffffffffff16836040518363ffffffff1660e01b81526004016105d39291906119b7565b6020604051808303816000875af11580156105f2573d6000803e3d6000fd5b505050506040513d601f19601f820116820180604052508101906106169190611a18565b5050808061062390611861565b9150506104f1565b505050565b6001818154811061064057600080fd5b906000526020600020016000915090505481565b6000818154811061066457600080fd5b906000526020600020016000915054906101000a900473ffffffffffffffffffffffffffffffffffffffff1681565b60008073ffffffffffffffffffffffffffffffffffffffff16600360009054906101000a900473ffffffffffffffffffffffffffffffffffffffff1673ffffffffffffffffffffffffffffffffffffffff1603610725576040517f08c379a000000000000000000000000000000000000000000000000000000000815260040161071c90611695565b60405180910390fd5b600360009054906101000a900473ffffffffffffffffffffffffffffffffffffffff1673ffffffffffffffffffffffffffffffffffffffff166370a08231306040518263ffffffff1660e01b815260040161078091906112f0565b602060405180830381865afa15801561079d573d6000803e3d6000fd5b505050506040513d601f19601f820116820180604052508101906107c191906116ca565b905090565b600260009054906101000a900473ffffffffffffffffffffffffffffffffffffffff1673ffffffffffffffffffffffffffffffffffffffff163373ffffffffffffffffffffffffffffffffffffffff1614610856576040517f08c379a000000000000000000000000000000000000000000000000000000000815260040161084d90611a91565b60405180910390fd5b600073ffffffffffffffffffffffffffffffffffffffff16600360009054906101000a900473ffffffffffffffffffffffffffffffffffffffff1673ffffffffffffffffffffffffffffffffffffffff16036108e7576040517f08c379a00000000000000000000000000000000000000000000000000000000081526004016108de90611695565b60405180910390fd5b6000600360009054906101000a900473ffffffffffffffffffffffffffffffffffffffff16905060008173ffffffffffffffffffffffffffffffffffffffff166370a08231306040518263ffffffff1660e01b815260040161094991906112f0565b602060405180830381865afa158015610966573d6000803e3d6000fd5b505050506040513d601f19601f8201168201806040525081019061098a91906116ca565b9050600081116109cf576040517f08c379a00000000000000000000000000000000000000000000000000000000081526004016109c690611afd565b60405180910390fd5b8173ffffffffffffffffffffffffffffffffffffffff1663a9059cbb600260009054906101000a900473ffffffffffffffffffffffffffffffffffffffff16836040518363ffffffff1660e01b8152600401610a2c9291906119b7565b6020604051808303816000875af1158015610a4b573d6000803e3d6000fd5b505050506040513d601f19601f82011682018060405250810190610a6f9190611a18565b505050565b600260009054906101000a900473ffffffffffffffffffffffffffffffffffffffff1681565b600260009054906101000a900473ffffffffffffffffffffffffffffffffffffffff1673ffffffffffffffffffffffffffffffffffffffff163373ffffffffffffffffffffffffffffffffffffffff1614610b2a576040517f08c379a0000000000000000000000000000000000000000000000000000000008152600401610b2190611a91565b60405180910390fd5b600073ffffffffffffffffffffffffffffffffffffffff168273ffffffffffffffffffffffffffffffffffffffff1603610b99576040517f08c379a0000000000000000000000000000000000000000000000000000000008152600401610b9090611b69565b60405180910390fd5b60008111610bdc576040517f08c379a0000000000000000000000000000000000000000000000000000000008152600401610bd390611bd5565b60405180910390fd5b600073ffffffffffffffffffffffffffffffffffffffff168273ffffffffffffffffffffffffffffffffffffffff1603610c7e57600260009054906101000a900473ffffffffffffffffffffffffffffffffffffffff1673ffffffffffffffffffffffffffffffffffffffff166108fc829081150290604051600060405180830381858888f19350505050158015610c78573d6000803e3d6000fd5b50610d20565b8173ffffffffffffffffffffffffffffffffffffffff1663a9059cbb600260009054906101000a900473ffffffffffffffffffffffffffffffffffffffff16836040518363ffffffff1660e01b8152600401610cdb9291906119b7565b6020604051808303816000875af1158015610cfa573d6000803e3d6000fd5b505050506040513d601f19601f82011682018060405250810190610d1e9190611a18565b505b5050565b600360009054906101000a900473ffffffffffffffffffffffffffffffffffffffff1681565b600260009054906101000a900473ffffffffffffffffffffffffffffffffffffffff1673ffffffffffffffffffffffffffffffffffffffff163373ffffffffffffffffffffffffffffffffffffffff1614610dda576040517f08c379a0000000000000000000000000000000000000000000000000000000008152600401610dd190611a91565b60405180910390fd5b600073ffffffffffffffffffffffffffffffffffffffff168173ffffffffffffffffffffffffffffffffffffffff1603610e49576040517f08c379a0000000000000000000000000000000000000000000000000000000008152600401610e4090611b69565b60405180910390fd5b80600360006101000a81548173ffffffffffffffffffffffffffffffffffffffff021916908373ffffffffffffffffffffffffffffffffffffffff16021790555050565b600260009054906101000a900473ffffffffffffffffffffffffffffffffffffffff1673ffffffffffffffffffffffffffffffffffffffff163373ffffffffffffffffffffffffffffffffffffffff1614610f1d576040517f08c379a0000000000000000000000000000000000000000000000000000000008152600401610f1490611a91565b60405180910390fd5b6000825111610f61576040517f08c379a0000000000000000000000000000000000000000000000000000000008152600401610f5890611c41565b60405180910390fd5b8051825114610fa5576040517f08c379a0000000000000000000000000000000000000000000000000000000008152600401610f9c90611cad565b60405180910390fd5b8160009080519060200190610fbb92919061111a565b508060019080519060200190610fd29291906111a4565b505050565b600260009054906101000a900473ffffffffffffffffffffffffffffffffffffffff1673ffffffffffffffffffffffffffffffffffffffff163373ffffffffffffffffffffffffffffffffffffffff1614611067576040517f08c379a000000000000000000000000000000000000000000000000000000000815260040161105e90611a91565b60405180910390fd5b600073ffffffffffffffffffffffffffffffffffffffff168173ffffffffffffffffffffffffffffffffffffffff16036110d6576040517f08c379a00000000000000000000000000000000000000000000000000000000081526004016110cd90611d19565b60405180910390fd5b80600260006101000a81548173ffffffffffffffffffffffffffffffffffffffff021916908373ffffffffffffffffffffffffffffffffffffffff16021790555050565b828054828255906000526020600020908101928215611193579160200282015b828111156111925782518260006101000a81548173ffffffffffffffffffffffffffffffffffffffff021916908373ffffffffffffffffffffffffffffffffffffffff1602179055509160200191906001019061113a565b5b5090506111a091906111f1565b5090565b8280548282559060005260206000209081019282156111e0579160200282015b828111156111df5782518255916020019190600101906111c4565b5b5090506111ed91906111f1565b5090565b5b8082111561120a5760008160009055506001016111f2565b5090565b6000604051905090565b600080fd5b600080fd5b6000819050919050565b61123581611222565b811461124057600080fd5b50565b6000813590506112528161122c565b92915050565b60006020828403121561126e5761126d611218565b5b600061127c84828501611243565b91505092915050565b61128e81611222565b82525050565b60006020820190506112a96000830184611285565b92915050565b600073ffffffffffffffffffffffffffffffffffffffff82169050919050565b60006112da826112af565b9050919050565b6112ea816112cf565b82525050565b600060208201905061130560008301846112e1565b92915050565b611314816112cf565b811461131f57600080fd5b50565b6000813590506113318161130b565b92915050565b6000806040838503121561134e5761134d611218565b5b600061135c85828601611322565b925050602061136d85828601611243565b9150509250929050565b60006020828403121561138d5761138c611218565b5b600061139b84828501611322565b91505092915050565b600080fd5b6000601f19601f8301169050919050565b7f4e487b7100000000000000000000000000000000000000000000000000000000600052604160045260246000fd5b6113f2826113a9565b810181811067ffffffffffffffff82111715611411576114106113ba565b5b80604052505050565b600061142461120e565b905061143082826113e9565b919050565b600067ffffffffffffffff8211156114505761144f6113ba565b5b602082029050602081019050919050565b600080fd5b600061147961147484611435565b61141a565b9050808382526020820190506020840283018581111561149c5761149b611461565b5b835b818110156114c557806114b18882611322565b84526020840193505060208101905061149e565b5050509392505050565b600082601f8301126114e4576114e36113a4565b5b81356114f4848260208601611466565b91505092915050565b600067ffffffffffffffff821115611518576115176113ba565b5b602082029050602081019050919050565b600061153c611537846114fd565b61141a565b9050808382526020820190506020840283018581111561155f5761155e611461565b5b835b8181101561158857806115748882611243565b845260208401935050602081019050611561565b5050509392505050565b600082601f8301126115a7576115a66113a4565b5b81356115b7848260208601611529565b91505092915050565b600080604083850312156115d7576115d6611218565b5b600083013567ffffffffffffffff8111156115f5576115f461121d565b5b611601858286016114cf565b925050602083013567ffffffffffffffff8111156116225761162161121d565b5b61162e85828601611592565b9150509250929050565b600082825260208201905092915050565b7f546f6b656e2061646472657373206e6f74207365740000000000000000000000600082015250565b600061167f601583611638565b915061168a82611649565b602082019050919050565b600060208201905081810360008301526116ae81611672565b9050919050565b6000815190506116c48161122c565b92915050565b6000602082840312156116e0576116df611218565b5b60006116ee848285016116b5565b91505092915050565b7f4e6f20746f6b656e7320746f2064697374726962757465000000000000000000600082015250565b600061172d601783611638565b9150611738826116f7565b602082019050919050565b6000602082019050818103600083015261175c81611720565b9050919050565b7f4e487b7100000000000000000000000000000000000000000000000000000000600052603260045260246000fd5b7f496e76616c69642070617965652070657263656e746167650000000000000000600082015250565b60006117c8601883611638565b91506117d382611792565b602082019050919050565b600060208201905081810360008301526117f7816117bb565b9050919050565b7f4e487b7100000000000000000000000000000000000000000000000000000000600052601160045260246000fd5b600061183882611222565b915061184383611222565b925082820190508082111561185b5761185a6117fe565b5b92915050565b600061186c82611222565b91507fffffffffffffffffffffffffffffffffffffffffffffffffffffffffffffffff820361189e5761189d6117fe565b5b600182019050919050565b7f546f74616c2070657263656e74616765206d75737420657175616c2031303000600082015250565b60006118df601f83611638565b91506118ea826118a9565b602082019050919050565b6000602082019050818103600083015261190e816118d2565b9050919050565b600061192082611222565b915061192b83611222565b925082820261193981611222565b915082820484148315176119505761194f6117fe565b5b5092915050565b7f4e487b7100000000000000000000000000000000000000000000000000000000600052601260045260246000fd5b600061199182611222565b915061199c83611222565b9250826119ac576119ab611957565b5b828204905092915050565b60006040820190506119cc60008301856112e1565b6119d96020830184611285565b9392505050565b60008115159050919050565b6119f5816119e0565b8114611a0057600080fd5b50565b600081519050611a12816119ec565b92915050565b600060208284031215611a2e57611a2d611218565b5b6000611a3c84828501611a03565b91505092915050565b7f4e6f742074686520636f6e7472616374206f776e657200000000000000000000600082015250565b6000611a7b601683611638565b9150611a8682611a45565b602082019050919050565b60006020820190508181036000830152611aaa81611a6e565b9050919050565b7f4e6f20746f6b656e7320746f2077697468647261770000000000000000000000600082015250565b6000611ae7601583611638565b9150611af282611ab1565b602082019050919050565b60006020820190508181036000830152611b1681611ada565b9050919050565b7f496e76616c696420746f6b656e20616464726573730000000000000000000000600082015250565b6000611b53601583611638565b9150611b5e82611b1d565b602082019050919050565b60006020820190508181036000830152611b8281611b46565b9050919050565b7f496e76616c696420616d6f756e74000000000000000000000000000000000000600082015250565b6000611bbf600e83611638565b9150611bca82611b89565b602082019050919050565b60006020820190508181036000830152611bee81611bb2565b9050919050565b7f4e6f207061796565732070726f76696465640000000000000000000000000000600082015250565b6000611c2b601283611638565b9150611c3682611bf5565b602082019050919050565b60006020820190508181036000830152611c5a81611c1e565b9050919050565b7f496e76616c69642070617965652070657263656e746167657300000000000000600082015250565b6000611c97601983611638565b9150611ca282611c61565b602082019050919050565b60006020820190508181036000830152611cc681611c8a565b9050919050565b7f496e76616c6964206e6577206f776e6572206164647265737300000000000000600082015250565b6000611d03601983611638565b9150611d0e82611ccd565b602082019050919050565b60006020820190508181036000830152611d3281611cf6565b905091905056fea26469706673582212208ad4aded5555387ad26b97dc025cecda11aa9a302867b4783e22b247b708742664736f6c63430008130033",
					"opcodes": "PUSH1 0x80 PUSH1 0x40 MSTORE CALLVALUE DUP1 ISZERO PUSH3 0x11 JUMPI PUSH1 0x0 DUP1 REVERT JUMPDEST POP PUSH1 0x40 MLOAD PUSH3 0x2573 CODESIZE SUB DUP1 PUSH3 0x2573 DUP4 CODECOPY DUP2 DUP2 ADD PUSH1 0x40 MSTORE DUP2 ADD SWAP1 PUSH3 0x37 SWAP2 SWAP1 PUSH3 0x5F3 JUMP JUMPDEST PUSH1 0x0 DUP4 MLOAD GT PUSH3 0x7E JUMPI PUSH1 0x40 MLOAD PUSH32 0x8C379A000000000000000000000000000000000000000000000000000000000 DUP2 MSTORE PUSH1 0x4 ADD PUSH3 0x75 SWAP1 PUSH3 0x6EE JUMP JUMPDEST PUSH1 0x40 MLOAD DUP1 SWAP2 SUB SWAP1 REVERT JUMPDEST DUP2 MLOAD DUP4 MLOAD EQ PUSH3 0xC5 JUMPI PUSH1 0x40 MLOAD PUSH32 0x8C379A000000000000000000000000000000000000000000000000000000000 DUP2 MSTORE PUSH1 0x4 ADD PUSH3 0xBC SWAP1 PUSH3 0x760 JUMP JUMPDEST PUSH1 0x40 MLOAD DUP1 SWAP2 SUB SWAP1 REVERT JUMPDEST PUSH1 0x0 PUSH20 0xFFFFFFFFFFFFFFFFFFFFFFFFFFFFFFFFFFFFFFFF AND DUP2 PUSH20 0xFFFFFFFFFFFFFFFFFFFFFFFFFFFFFFFFFFFFFFFF AND SUB PUSH3 0x137 JUMPI PUSH1 0x40 MLOAD PUSH32 0x8C379A000000000000000000000000000000000000000000000000000000000 DUP2 MSTORE PUSH1 0x4 ADD PUSH3 0x12E SWAP1 PUSH3 0x7D2 JUMP JUMPDEST PUSH1 0x40 MLOAD DUP1 SWAP2 SUB SWAP1 REVERT JUMPDEST CALLER PUSH1 0x2 PUSH1 0x0 PUSH2 0x100 EXP DUP2 SLOAD DUP2 PUSH20 0xFFFFFFFFFFFFFFFFFFFFFFFFFFFFFFFFFFFFFFFF MUL NOT AND SWAP1 DUP4 PUSH20 0xFFFFFFFFFFFFFFFFFFFFFFFFFFFFFFFFFFFFFFFF AND MUL OR SWAP1 SSTORE POP DUP3 PUSH1 0x0 SWAP1 DUP1 MLOAD SWAP1 PUSH1 0x20 ADD SWAP1 PUSH3 0x190 SWAP3 SWAP2 SWAP1 PUSH3 0x1F4 JUMP JUMPDEST POP DUP2 PUSH1 0x1 SWAP1 DUP1 MLOAD SWAP1 PUSH1 0x20 ADD SWAP1 PUSH3 0x1A9 SWAP3 SWAP2 SWAP1 PUSH3 0x283 JUMP JUMPDEST POP DUP1 PUSH1 0x3 PUSH1 0x0 PUSH2 0x100 EXP DUP2 SLOAD DUP2 PUSH20 0xFFFFFFFFFFFFFFFFFFFFFFFFFFFFFFFFFFFFFFFF MUL NOT AND SWAP1 DUP4 PUSH20 0xFFFFFFFFFFFFFFFFFFFFFFFFFFFFFFFFFFFFFFFF AND MUL OR SWAP1 SSTORE POP POP POP POP PUSH3 0x7F4 JUMP JUMPDEST DUP3 DUP1 SLOAD DUP3 DUP3 SSTORE SWAP1 PUSH1 0x0 MSTORE PUSH1 0x20 PUSH1 0x0 KECCAK256 SWAP1 DUP2 ADD SWAP3 DUP3 ISZERO PUSH3 0x270 JUMPI SWAP2 PUSH1 0x20 MUL DUP3 ADD JUMPDEST DUP3 DUP2 GT ISZERO PUSH3 0x26F JUMPI DUP3 MLOAD DUP3 PUSH1 0x0 PUSH2 0x100 EXP DUP2 SLOAD DUP2 PUSH20 0xFFFFFFFFFFFFFFFFFFFFFFFFFFFFFFFFFFFFFFFF MUL NOT AND SWAP1 DUP4 PUSH20 0xFFFFFFFFFFFFFFFFFFFFFFFFFFFFFFFFFFFFFFFF AND MUL OR SWAP1 SSTORE POP SWAP2 PUSH1 0x20 ADD SWAP2 SWAP1 PUSH1 0x1 ADD SWAP1 PUSH3 0x215 JUMP JUMPDEST JUMPDEST POP SWAP1 POP PUSH3 0x27F SWAP2 SWAP1 PUSH3 0x2D5 JUMP JUMPDEST POP SWAP1 JUMP JUMPDEST DUP3 DUP1 SLOAD DUP3 DUP3 SSTORE SWAP1 PUSH1 0x0 MSTORE PUSH1 0x20 PUSH1 0x0 KECCAK256 SWAP1 DUP2 ADD SWAP3 DUP3 ISZERO PUSH3 0x2C2 JUMPI SWAP2 PUSH1 0x20 MUL DUP3 ADD JUMPDEST DUP3 DUP2 GT ISZERO PUSH3 0x2C1 JUMPI DUP3 MLOAD DUP3 SSTORE SWAP2 PUSH1 0x20 ADD SWAP2 SWAP1 PUSH1 0x1 ADD SWAP1 PUSH3 0x2A4 JUMP JUMPDEST JUMPDEST POP SWAP1 POP PUSH3 0x2D1 SWAP2 SWAP1 PUSH3 0x2D5 JUMP JUMPDEST POP SWAP1 JUMP JUMPDEST JUMPDEST DUP1 DUP3 GT ISZERO PUSH3 0x2F0 JUMPI PUSH1 0x0 DUP2 PUSH1 0x0 SWAP1 SSTORE POP PUSH1 0x1 ADD PUSH3 0x2D6 JUMP JUMPDEST POP SWAP1 JUMP JUMPDEST PUSH1 0x0 PUSH1 0x40 MLOAD SWAP1 POP SWAP1 JUMP JUMPDEST PUSH1 0x0 DUP1 REVERT JUMPDEST PUSH1 0x0 DUP1 REVERT JUMPDEST PUSH1 0x0 DUP1 REVERT JUMPDEST PUSH1 0x0 PUSH1 0x1F NOT PUSH1 0x1F DUP4 ADD AND SWAP1 POP SWAP2 SWAP1 POP JUMP JUMPDEST PUSH32 0x4E487B7100000000000000000000000000000000000000000000000000000000 PUSH1 0x0 MSTORE PUSH1 0x41 PUSH1 0x4 MSTORE PUSH1 0x24 PUSH1 0x0 REVERT JUMPDEST PUSH3 0x358 DUP3 PUSH3 0x30D JUMP JUMPDEST DUP2 ADD DUP2 DUP2 LT PUSH8 0xFFFFFFFFFFFFFFFF DUP3 GT OR ISZERO PUSH3 0x37A JUMPI PUSH3 0x379 PUSH3 0x31E JUMP JUMPDEST JUMPDEST DUP1 PUSH1 0x40 MSTORE POP POP POP JUMP JUMPDEST PUSH1 0x0 PUSH3 0x38F PUSH3 0x2F4 JUMP JUMPDEST SWAP1 POP PUSH3 0x39D DUP3 DUP3 PUSH3 0x34D JUMP JUMPDEST SWAP2 SWAP1 POP JUMP JUMPDEST PUSH1 0x0 PUSH8 0xFFFFFFFFFFFFFFFF DUP3 GT ISZERO PUSH3 0x3C0 JUMPI PUSH3 0x3BF PUSH3 0x31E JUMP JUMPDEST JUMPDEST PUSH1 0x20 DUP3 MUL SWAP1 POP PUSH1 0x20 DUP2 ADD SWAP1 POP SWAP2 SWAP1 POP JUMP JUMPDEST PUSH1 0x0 DUP1 REVERT JUMPDEST PUSH1 0x0 PUSH20 0xFFFFFFFFFFFFFFFFFFFFFFFFFFFFFFFFFFFFFFFF DUP3 AND SWAP1 POP SWAP2 SWAP1 POP JUMP JUMPDEST PUSH1 0x0 PUSH3 0x403 DUP3 PUSH3 0x3D6 JUMP JUMPDEST SWAP1 POP SWAP2 SWAP1 POP JUMP JUMPDEST PUSH3 0x415 DUP2 PUSH3 0x3F6 JUMP JUMPDEST DUP2 EQ PUSH3 0x421 JUMPI PUSH1 0x0 DUP1 REVERT JUMPDEST POP JUMP JUMPDEST PUSH1 0x0 DUP2 MLOAD SWAP1 POP PUSH3 0x435 DUP2 PUSH3 0x40A JUMP JUMPDEST SWAP3 SWAP2 POP POP JUMP JUMPDEST PUSH1 0x0 PUSH3 0x452 PUSH3 0x44C DUP5 PUSH3 0x3A2 JUMP JUMPDEST PUSH3 0x383 JUMP JUMPDEST SWAP1 POP DUP1 DUP4 DUP3 MSTORE PUSH1 0x20 DUP3 ADD SWAP1 POP PUSH1 0x20 DUP5 MUL DUP4 ADD DUP6 DUP2 GT ISZERO PUSH3 0x478 JUMPI PUSH3 0x477 PUSH3 0x3D1 JUMP JUMPDEST JUMPDEST DUP4 JUMPDEST DUP2 DUP2 LT ISZERO PUSH3 0x4A5 JUMPI DUP1 PUSH3 0x490 DUP9 DUP3 PUSH3 0x424 JUMP JUMPDEST DUP5 MSTORE PUSH1 0x20 DUP5 ADD SWAP4 POP POP PUSH1 0x20 DUP2 ADD SWAP1 POP PUSH3 0x47A JUMP JUMPDEST POP POP POP SWAP4 SWAP3 POP POP POP JUMP JUMPDEST PUSH1 0x0 DUP3 PUSH1 0x1F DUP4 ADD SLT PUSH3 0x4C7 JUMPI PUSH3 0x4C6 PUSH3 0x308 JUMP JUMPDEST JUMPDEST DUP2 MLOAD PUSH3 0x4D9 DUP5 DUP3 PUSH1 0x20 DUP7 ADD PUSH3 0x43B JUMP JUMPDEST SWAP2 POP POP SWAP3 SWAP2 POP POP JUMP JUMPDEST PUSH1 0x0 PUSH8 0xFFFFFFFFFFFFFFFF DUP3 GT ISZERO PUSH3 0x500 JUMPI PUSH3 0x4FF PUSH3 0x31E JUMP JUMPDEST JUMPDEST PUSH1 0x20 DUP3 MUL SWAP1 POP PUSH1 0x20 DUP2 ADD SWAP1 POP SWAP2 SWAP1 POP JUMP JUMPDEST PUSH1 0x0 DUP2 SWAP1 POP SWAP2 SWAP1 POP JUMP JUMPDEST PUSH3 0x526 DUP2 PUSH3 0x511 JUMP JUMPDEST DUP2 EQ PUSH3 0x532 JUMPI PUSH1 0x0 DUP1 REVERT JUMPDEST POP JUMP JUMPDEST PUSH1 0x0 DUP2 MLOAD SWAP1 POP PUSH3 0x546 DUP2 PUSH3 0x51B JUMP JUMPDEST SWAP3 SWAP2 POP POP JUMP JUMPDEST PUSH1 0x0 PUSH3 0x563 PUSH3 0x55D DUP5 PUSH3 0x4E2 JUMP JUMPDEST PUSH3 0x383 JUMP JUMPDEST SWAP1 POP DUP1 DUP4 DUP3 MSTORE PUSH1 0x20 DUP3 ADD SWAP1 POP PUSH1 0x20 DUP5 MUL DUP4 ADD DUP6 DUP2 GT ISZERO PUSH3 0x589 JUMPI PUSH3 0x588 PUSH3 0x3D1 JUMP JUMPDEST JUMPDEST DUP4 JUMPDEST DUP2 DUP2 LT ISZERO PUSH3 0x5B6 JUMPI DUP1 PUSH3 0x5A1 DUP9 DUP3 PUSH3 0x535 JUMP JUMPDEST DUP5 MSTORE PUSH1 0x20 DUP5 ADD SWAP4 POP POP PUSH1 0x20 DUP2 ADD SWAP1 POP PUSH3 0x58B JUMP JUMPDEST POP POP POP SWAP4 SWAP3 POP POP POP JUMP JUMPDEST PUSH1 0x0 DUP3 PUSH1 0x1F DUP4 ADD SLT PUSH3 0x5D8 JUMPI PUSH3 0x5D7 PUSH3 0x308 JUMP JUMPDEST JUMPDEST DUP2 MLOAD PUSH3 0x5EA DUP5 DUP3 PUSH1 0x20 DUP7 ADD PUSH3 0x54C JUMP JUMPDEST SWAP2 POP POP SWAP3 SWAP2 POP POP JUMP JUMPDEST PUSH1 0x0 DUP1 PUSH1 0x0 PUSH1 0x60 DUP5 DUP7 SUB SLT ISZERO PUSH3 0x60F JUMPI PUSH3 0x60E PUSH3 0x2FE JUMP JUMPDEST JUMPDEST PUSH1 0x0 DUP5 ADD MLOAD PUSH8 0xFFFFFFFFFFFFFFFF DUP2 GT ISZERO PUSH3 0x630 JUMPI PUSH3 0x62F PUSH3 0x303 JUMP JUMPDEST JUMPDEST PUSH3 0x63E DUP7 DUP3 DUP8 ADD PUSH3 0x4AF JUMP JUMPDEST SWAP4 POP POP PUSH1 0x20 DUP5 ADD MLOAD PUSH8 0xFFFFFFFFFFFFFFFF DUP2 GT ISZERO PUSH3 0x662 JUMPI PUSH3 0x661 PUSH3 0x303 JUMP JUMPDEST JUMPDEST PUSH3 0x670 DUP7 DUP3 DUP8 ADD PUSH3 0x5C0 JUMP JUMPDEST SWAP3 POP POP PUSH1 0x40 PUSH3 0x683 DUP7 DUP3 DUP8 ADD PUSH3 0x424 JUMP JUMPDEST SWAP2 POP POP SWAP3 POP SWAP3 POP SWAP3 JUMP JUMPDEST PUSH1 0x0 DUP3 DUP3 MSTORE PUSH1 0x20 DUP3 ADD SWAP1 POP SWAP3 SWAP2 POP POP JUMP JUMPDEST PUSH32 0x4E6F207061796565732070726F76696465640000000000000000000000000000 PUSH1 0x0 DUP3 ADD MSTORE POP JUMP JUMPDEST PUSH1 0x0 PUSH3 0x6D6 PUSH1 0x12 DUP4 PUSH3 0x68D JUMP JUMPDEST SWAP2 POP PUSH3 0x6E3 DUP3 PUSH3 0x69E JUMP JUMPDEST PUSH1 0x20 DUP3 ADD SWAP1 POP SWAP2 SWAP1 POP JUMP JUMPDEST PUSH1 0x0 PUSH1 0x20 DUP3 ADD SWAP1 POP DUP2 DUP2 SUB PUSH1 0x0 DUP4 ADD MSTORE PUSH3 0x709 DUP2 PUSH3 0x6C7 JUMP JUMPDEST SWAP1 POP SWAP2 SWAP1 POP JUMP JUMPDEST PUSH32 0x496E76616C69642070617965652070657263656E746167657300000000000000 PUSH1 0x0 DUP3 ADD MSTORE POP JUMP JUMPDEST PUSH1 0x0 PUSH3 0x748 PUSH1 0x19 DUP4 PUSH3 0x68D JUMP JUMPDEST SWAP2 POP PUSH3 0x755 DUP3 PUSH3 0x710 JUMP JUMPDEST PUSH1 0x20 DUP3 ADD SWAP1 POP SWAP2 SWAP1 POP JUMP JUMPDEST PUSH1 0x0 PUSH1 0x20 DUP3 ADD SWAP1 POP DUP2 DUP2 SUB PUSH1 0x0 DUP4 ADD MSTORE PUSH3 0x77B DUP2 PUSH3 0x739 JUMP JUMPDEST SWAP1 POP SWAP2 SWAP1 POP JUMP JUMPDEST PUSH32 0x496E76616C696420746F6B656E20616464726573730000000000000000000000 PUSH1 0x0 DUP3 ADD MSTORE POP JUMP JUMPDEST PUSH1 0x0 PUSH3 0x7BA PUSH1 0x15 DUP4 PUSH3 0x68D JUMP JUMPDEST SWAP2 POP PUSH3 0x7C7 DUP3 PUSH3 0x782 JUMP JUMPDEST PUSH1 0x20 DUP3 ADD SWAP1 POP SWAP2 SWAP1 POP JUMP JUMPDEST PUSH1 0x0 PUSH1 0x20 DUP3 ADD SWAP1 POP DUP2 DUP2 SUB PUSH1 0x0 DUP4 ADD MSTORE PUSH3 0x7ED DUP2 PUSH3 0x7AB JUMP JUMPDEST SWAP1 POP SWAP2 SWAP1 POP JUMP JUMPDEST PUSH2 0x1D6F DUP1 PUSH3 0x804 PUSH1 0x0 CODECOPY PUSH1 0x0 RETURN INVALID PUSH1 0x80 PUSH1 0x40 MSTORE PUSH1 0x4 CALLDATASIZE LT PUSH2 0xA0 JUMPI PUSH1 0x0 CALLDATALOAD PUSH1 0xE0 SHR DUP1 PUSH4 0x8F63458C GT PUSH2 0x64 JUMPI DUP1 PUSH4 0x8F63458C EQ PUSH2 0x19B JUMPI DUP1 PUSH4 0x9D76EA58 EQ PUSH2 0x1C4 JUMPI DUP1 PUSH4 0xC9CDA91F EQ PUSH2 0x1EF JUMPI DUP1 PUSH4 0xD9215050 EQ PUSH2 0x218 JUMPI DUP1 PUSH4 0xE4FC6B6D EQ PUSH2 0x241 JUMPI DUP1 PUSH4 0xF2FDE38B EQ PUSH2 0x258 JUMPI PUSH2 0xAF JUMP JUMPDEST DUP1 PUSH4 0x2B29AF7F EQ PUSH2 0xB4 JUMPI DUP1 PUSH4 0x63037B0C EQ PUSH2 0xF1 JUMPI DUP1 PUSH4 0x82B2E257 EQ PUSH2 0x12E JUMPI DUP1 PUSH4 0x8D8F2ADB EQ PUSH2 0x159 JUMPI DUP1 PUSH4 0x8DA5CB5B EQ PUSH2 0x170 JUMPI PUSH2 0xAF JUMP JUMPDEST CALLDATASIZE PUSH2 0xAF JUMPI PUSH2 0xAD PUSH2 0x281 JUMP JUMPDEST STOP JUMPDEST PUSH1 0x0 DUP1 REVERT JUMPDEST CALLVALUE DUP1 ISZERO PUSH2 0xC0 JUMPI PUSH1 0x0 DUP1 REVERT JUMPDEST POP PUSH2 0xDB PUSH1 0x4 DUP1 CALLDATASIZE SUB DUP2 ADD SWAP1 PUSH2 0xD6 SWAP2 SWAP1 PUSH2 0x1258 JUMP JUMPDEST PUSH2 0x630 JUMP JUMPDEST PUSH1 0x40 MLOAD PUSH2 0xE8 SWAP2 SWAP1 PUSH2 0x1294 JUMP JUMPDEST PUSH1 0x40 MLOAD DUP1 SWAP2 SUB SWAP1 RETURN JUMPDEST CALLVALUE DUP1 ISZERO PUSH2 0xFD JUMPI PUSH1 0x0 DUP1 REVERT JUMPDEST POP PUSH2 0x118 PUSH1 0x4 DUP1 CALLDATASIZE SUB DUP2 ADD SWAP1 PUSH2 0x113 SWAP2 SWAP1 PUSH2 0x1258 JUMP JUMPDEST PUSH2 0x654 JUMP JUMPDEST PUSH1 0x40 MLOAD PUSH2 0x125 SWAP2 SWAP1 PUSH2 0x12F0 JUMP JUMPDEST PUSH1 0x40 MLOAD DUP1 SWAP2 SUB SWAP1 RETURN JUMPDEST CALLVALUE DUP1 ISZERO PUSH2 0x13A JUMPI PUSH1 0x0 DUP1 REVERT JUMPDEST POP PUSH2 0x143 PUSH2 0x693 JUMP JUMPDEST PUSH1 0x40 MLOAD PUSH2 0x150 SWAP2 SWAP1 PUSH2 0x1294 JUMP JUMPDEST PUSH1 0x40 MLOAD DUP1 SWAP2 SUB SWAP1 RETURN JUMPDEST CALLVALUE DUP1 ISZERO PUSH2 0x165 JUMPI PUSH1 0x0 DUP1 REVERT JUMPDEST POP PUSH2 0x16E PUSH2 0x7C6 JUMP JUMPDEST STOP JUMPDEST CALLVALUE DUP1 ISZERO PUSH2 0x17C JUMPI PUSH1 0x0 DUP1 REVERT JUMPDEST POP PUSH2 0x185 PUSH2 0xA74 JUMP JUMPDEST PUSH1 0x40 MLOAD PUSH2 0x192 SWAP2 SWAP1 PUSH2 0x12F0 JUMP JUMPDEST PUSH1 0x40 MLOAD DUP1 SWAP2 SUB SWAP1 RETURN JUMPDEST CALLVALUE DUP1 ISZERO PUSH2 0x1A7 JUMPI PUSH1 0x0 DUP1 REVERT JUMPDEST POP PUSH2 0x1C2 PUSH1 0x4 DUP1 CALLDATASIZE SUB DUP2 ADD SWAP1 PUSH2 0x1BD SWAP2 SWAP1 PUSH2 0x1337 JUMP JUMPDEST PUSH2 0xA9A JUMP JUMPDEST STOP JUMPDEST CALLVALUE DUP1 ISZERO PUSH2 0x1D0 JUMPI PUSH1 0x0 DUP1 REVERT JUMPDEST POP PUSH2 0x1D9 PUSH2 0xD24 JUMP JUMPDEST PUSH1 0x40 MLOAD PUSH2 0x1E6 SWAP2 SWAP1 PUSH2 0x12F0 JUMP JUMPDEST PUSH1 0x40 MLOAD DUP1 SWAP2 SUB SWAP1 RETURN JUMPDEST CALLVALUE DUP1 ISZERO PUSH2 0x1FB JUMPI PUSH1 0x0 DUP1 REVERT JUMPDEST POP PUSH2 0x216 PUSH1 0x4 DUP1 CALLDATASIZE SUB DUP2 ADD SWAP1 PUSH2 0x211 SWAP2 SWAP1 PUSH2 0x1377 JUMP JUMPDEST PUSH2 0xD4A JUMP JUMPDEST STOP JUMPDEST CALLVALUE DUP1 ISZERO PUSH2 0x224 JUMPI PUSH1 0x0 DUP1 REVERT JUMPDEST POP PUSH2 0x23F PUSH1 0x4 DUP1 CALLDATASIZE SUB DUP2 ADD SWAP1 PUSH2 0x23A SWAP2 SWAP1 PUSH2 0x15C0 JUMP JUMPDEST PUSH2 0xE8D JUMP JUMPDEST STOP JUMPDEST CALLVALUE DUP1 ISZERO PUSH2 0x24D JUMPI PUSH1 0x0 DUP1 REVERT JUMPDEST POP PUSH2 0x256 PUSH2 0x281 JUMP JUMPDEST STOP JUMPDEST CALLVALUE DUP1 ISZERO PUSH2 0x264 JUMPI PUSH1 0x0 DUP1 REVERT JUMPDEST POP PUSH2 0x27F PUSH1 0x4 DUP1 CALLDATASIZE SUB DUP2 ADD SWAP1 PUSH2 0x27A SWAP2 SWAP1 PUSH2 0x1377 JUMP JUMPDEST PUSH2 0xFD7 JUMP JUMPDEST STOP JUMPDEST PUSH1 0x0 PUSH20 0xFFFFFFFFFFFFFFFFFFFFFFFFFFFFFFFFFFFFFFFF AND PUSH1 0x3 PUSH1 0x0 SWAP1 SLOAD SWAP1 PUSH2 0x100 EXP SWAP1 DIV PUSH20 0xFFFFFFFFFFFFFFFFFFFFFFFFFFFFFFFFFFFFFFFF AND PUSH20 0xFFFFFFFFFFFFFFFFFFFFFFFFFFFFFFFFFFFFFFFF AND SUB PUSH2 0x312 JUMPI PUSH1 0x40 MLOAD PUSH32 0x8C379A000000000000000000000000000000000000000000000000000000000 DUP2 MSTORE PUSH1 0x4 ADD PUSH2 0x309 SWAP1 PUSH2 0x1695 JUMP JUMPDEST PUSH1 0x40 MLOAD DUP1 SWAP2 SUB SWAP1 REVERT JUMPDEST PUSH1 0x0 PUSH1 0x3 PUSH1 0x0 SWAP1 SLOAD SWAP1 PUSH2 0x100 EXP SWAP1 DIV PUSH20 0xFFFFFFFFFFFFFFFFFFFFFFFFFFFFFFFFFFFFFFFF AND PUSH20 0xFFFFFFFFFFFFFFFFFFFFFFFFFFFFFFFFFFFFFFFF AND PUSH4 0x70A08231 ADDRESS PUSH1 0x40 MLOAD DUP3 PUSH4 0xFFFFFFFF AND PUSH1 0xE0 SHL DUP2 MSTORE PUSH1 0x4 ADD PUSH2 0x36F SWAP2 SWAP1 PUSH2 0x12F0 JUMP JUMPDEST PUSH1 0x20 PUSH1 0x40 MLOAD DUP1 DUP4 SUB DUP2 DUP7 GAS STATICCALL ISZERO DUP1 ISZERO PUSH2 0x38C JUMPI RETURNDATASIZE PUSH1 0x0 DUP1 RETURNDATACOPY RETURNDATASIZE PUSH1 0x0 REVERT JUMPDEST POP POP POP POP PUSH1 0x40 MLOAD RETURNDATASIZE PUSH1 0x1F NOT PUSH1 0x1F DUP3 ADD AND DUP3 ADD DUP1 PUSH1 0x40 MSTORE POP DUP2 ADD SWAP1 PUSH2 0x3B0 SWAP2 SWAP1 PUSH2 0x16CA JUMP JUMPDEST SWAP1 POP PUSH1 0x0 DUP2 GT PUSH2 0x3F5 JUMPI PUSH1 0x40 MLOAD PUSH32 0x8C379A000000000000000000000000000000000000000000000000000000000 DUP2 MSTORE PUSH1 0x4 ADD PUSH2 0x3EC SWAP1 PUSH2 0x1743 JUMP JUMPDEST PUSH1 0x40 MLOAD DUP1 SWAP2 SUB SWAP1 REVERT JUMPDEST PUSH1 0x0 DUP1 PUSH1 0x0 SWAP1 POP JUMPDEST PUSH1 0x1 DUP1 SLOAD SWAP1 POP DUP2 LT ISZERO PUSH2 0x4AA JUMPI PUSH1 0x0 PUSH1 0x1 DUP3 DUP2 SLOAD DUP2 LT PUSH2 0x420 JUMPI PUSH2 0x41F PUSH2 0x1763 JUMP JUMPDEST JUMPDEST SWAP1 PUSH1 0x0 MSTORE PUSH1 0x20 PUSH1 0x0 KECCAK256 ADD SLOAD GT PUSH2 0x46B JUMPI PUSH1 0x40 MLOAD PUSH32 0x8C379A000000000000000000000000000000000000000000000000000000000 DUP2 MSTORE PUSH1 0x4 ADD PUSH2 0x462 SWAP1 PUSH2 0x17DE JUMP JUMPDEST PUSH1 0x40 MLOAD DUP1 SWAP2 SUB SWAP1 REVERT JUMPDEST PUSH1 0x1 DUP2 DUP2 SLOAD DUP2 LT PUSH2 0x47F JUMPI PUSH2 0x47E PUSH2 0x1763 JUMP JUMPDEST JUMPDEST SWAP1 PUSH1 0x0 MSTORE PUSH1 0x20 PUSH1 0x0 KECCAK256 ADD SLOAD DUP3 PUSH2 0x495 SWAP2 SWAP1 PUSH2 0x182D JUMP JUMPDEST SWAP2 POP DUP1 DUP1 PUSH2 0x4A2 SWAP1 PUSH2 0x1861 JUMP JUMPDEST SWAP2 POP POP PUSH2 0x3FD JUMP JUMPDEST POP PUSH1 0x64 DUP2 EQ PUSH2 0x4EE JUMPI PUSH1 0x40 MLOAD PUSH32 0x8C379A000000000000000000000000000000000000000000000000000000000 DUP2 MSTORE PUSH1 0x4 ADD PUSH2 0x4E5 SWAP1 PUSH2 0x18F5 JUMP JUMPDEST PUSH1 0x40 MLOAD DUP1 SWAP2 SUB SWAP1 REVERT JUMPDEST PUSH1 0x0 JUMPDEST PUSH1 0x0 DUP1 SLOAD SWAP1 POP DUP2 LT ISZERO PUSH2 0x62B JUMPI PUSH1 0x0 PUSH1 0x64 PUSH1 0x1 DUP4 DUP2 SLOAD DUP2 LT PUSH2 0x516 JUMPI PUSH2 0x515 PUSH2 0x1763 JUMP JUMPDEST JUMPDEST SWAP1 PUSH1 0x0 MSTORE PUSH1 0x20 PUSH1 0x0 KECCAK256 ADD SLOAD DUP6 PUSH2 0x52C SWAP2 SWAP1 PUSH2 0x1915 JUMP JUMPDEST PUSH2 0x536 SWAP2 SWAP1 PUSH2 0x1986 JUMP JUMPDEST SWAP1 POP PUSH1 0x3 PUSH1 0x0 SWAP1 SLOAD SWAP1 PUSH2 0x100 EXP SWAP1 DIV PUSH20 0xFFFFFFFFFFFFFFFFFFFFFFFFFFFFFFFFFFFFFFFF AND PUSH20 0xFFFFFFFFFFFFFFFFFFFFFFFFFFFFFFFFFFFFFFFF AND PUSH4 0xA9059CBB PUSH1 0x0 DUP5 DUP2 SLOAD DUP2 LT PUSH2 0x58A JUMPI PUSH2 0x589 PUSH2 0x1763 JUMP JUMPDEST JUMPDEST SWAP1 PUSH1 0x0 MSTORE PUSH1 0x20 PUSH1 0x0 KECCAK256 ADD PUSH1 0x0 SWAP1 SLOAD SWAP1 PUSH2 0x100 EXP SWAP1 DIV PUSH20 0xFFFFFFFFFFFFFFFFFFFFFFFFFFFFFFFFFFFFFFFF AND DUP4 PUSH1 0x40 MLOAD DUP4 PUSH4 0xFFFFFFFF AND PUSH1 0xE0 SHL DUP2 MSTORE PUSH1 0x4 ADD PUSH2 0x5D3 SWAP3 SWAP2 SWAP1 PUSH2 0x19B7 JUMP JUMPDEST PUSH1 0x20 PUSH1 0x40 MLOAD DUP1 DUP4 SUB DUP2 PUSH1 0x0 DUP8 GAS CALL ISZERO DUP1 ISZERO PUSH2 0x5F2 JUMPI RETURNDATASIZE PUSH1 0x0 DUP1 RETURNDATACOPY RETURNDATASIZE PUSH1 0x0 REVERT JUMPDEST POP POP POP POP PUSH1 0x40 MLOAD RETURNDATASIZE PUSH1 0x1F NOT PUSH1 0x1F DUP3 ADD AND DUP3 ADD DUP1 PUSH1 0x40 MSTORE POP DUP2 ADD SWAP1 PUSH2 0x616 SWAP2 SWAP1 PUSH2 0x1A18 JUMP JUMPDEST POP POP DUP1 DUP1 PUSH2 0x623 SWAP1 PUSH2 0x1861 JUMP JUMPDEST SWAP2 POP POP PUSH2 0x4F1 JUMP JUMPDEST POP POP POP JUMP JUMPDEST PUSH1 0x1 DUP2 DUP2 SLOAD DUP2 LT PUSH2 0x640 JUMPI PUSH1 0x0 DUP1 REVERT JUMPDEST SWAP1 PUSH1 0x0 MSTORE PUSH1 0x20 PUSH1 0x0 KECCAK256 ADD PUSH1 0x0 SWAP2 POP SWAP1 POP SLOAD DUP2 JUMP JUMPDEST PUSH1 0x0 DUP2 DUP2 SLOAD DUP2 LT PUSH2 0x664 JUMPI PUSH1 0x0 DUP1 REVERT JUMPDEST SWAP1 PUSH1 0x0 MSTORE PUSH1 0x20 PUSH1 0x0 KECCAK256 ADD PUSH1 0x0 SWAP2 POP SLOAD SWAP1 PUSH2 0x100 EXP SWAP1 DIV PUSH20 0xFFFFFFFFFFFFFFFFFFFFFFFFFFFFFFFFFFFFFFFF AND DUP2 JUMP JUMPDEST PUSH1 0x0 DUP1 PUSH20 0xFFFFFFFFFFFFFFFFFFFFFFFFFFFFFFFFFFFFFFFF AND PUSH1 0x3 PUSH1 0x0 SWAP1 SLOAD SWAP1 PUSH2 0x100 EXP SWAP1 DIV PUSH20 0xFFFFFFFFFFFFFFFFFFFFFFFFFFFFFFFFFFFFFFFF AND PUSH20 0xFFFFFFFFFFFFFFFFFFFFFFFFFFFFFFFFFFFFFFFF AND SUB PUSH2 0x725 JUMPI PUSH1 0x40 MLOAD PUSH32 0x8C379A000000000000000000000000000000000000000000000000000000000 DUP2 MSTORE PUSH1 0x4 ADD PUSH2 0x71C SWAP1 PUSH2 0x1695 JUMP JUMPDEST PUSH1 0x40 MLOAD DUP1 SWAP2 SUB SWAP1 REVERT JUMPDEST PUSH1 0x3 PUSH1 0x0 SWAP1 SLOAD SWAP1 PUSH2 0x100 EXP SWAP1 DIV PUSH20 0xFFFFFFFFFFFFFFFFFFFFFFFFFFFFFFFFFFFFFFFF AND PUSH20 0xFFFFFFFFFFFFFFFFFFFFFFFFFFFFFFFFFFFFFFFF AND PUSH4 0x70A08231 ADDRESS PUSH1 0x40 MLOAD DUP3 PUSH4 0xFFFFFFFF AND PUSH1 0xE0 SHL DUP2 MSTORE PUSH1 0x4 ADD PUSH2 0x780 SWAP2 SWAP1 PUSH2 0x12F0 JUMP JUMPDEST PUSH1 0x20 PUSH1 0x40 MLOAD DUP1 DUP4 SUB DUP2 DUP7 GAS STATICCALL ISZERO DUP1 ISZERO PUSH2 0x79D JUMPI RETURNDATASIZE PUSH1 0x0 DUP1 RETURNDATACOPY RETURNDATASIZE PUSH1 0x0 REVERT JUMPDEST POP POP POP POP PUSH1 0x40 MLOAD RETURNDATASIZE PUSH1 0x1F NOT PUSH1 0x1F DUP3 ADD AND DUP3 ADD DUP1 PUSH1 0x40 MSTORE POP DUP2 ADD SWAP1 PUSH2 0x7C1 SWAP2 SWAP1 PUSH2 0x16CA JUMP JUMPDEST SWAP1 POP SWAP1 JUMP JUMPDEST PUSH1 0x2 PUSH1 0x0 SWAP1 SLOAD SWAP1 PUSH2 0x100 EXP SWAP1 DIV PUSH20 0xFFFFFFFFFFFFFFFFFFFFFFFFFFFFFFFFFFFFFFFF AND PUSH20 0xFFFFFFFFFFFFFFFFFFFFFFFFFFFFFFFFFFFFFFFF AND CALLER PUSH20 0xFFFFFFFFFFFFFFFFFFFFFFFFFFFFFFFFFFFFFFFF AND EQ PUSH2 0x856 JUMPI PUSH1 0x40 MLOAD PUSH32 0x8C379A000000000000000000000000000000000000000000000000000000000 DUP2 MSTORE PUSH1 0x4 ADD PUSH2 0x84D SWAP1 PUSH2 0x1A91 JUMP JUMPDEST PUSH1 0x40 MLOAD DUP1 SWAP2 SUB SWAP1 REVERT JUMPDEST PUSH1 0x0 PUSH20 0xFFFFFFFFFFFFFFFFFFFFFFFFFFFFFFFFFFFFFFFF AND PUSH1 0x3 PUSH1 0x0 SWAP1 SLOAD SWAP1 PUSH2 0x100 EXP SWAP1 DIV PUSH20 0xFFFFFFFFFFFFFFFFFFFFFFFFFFFFFFFFFFFFFFFF AND PUSH20 0xFFFFFFFFFFFFFFFFFFFFFFFFFFFFFFFFFFFFFFFF AND SUB PUSH2 0x8E7 JUMPI PUSH1 0x40 MLOAD PUSH32 0x8C379A000000000000000000000000000000000000000000000000000000000 DUP2 MSTORE PUSH1 0x4 ADD PUSH2 0x8DE SWAP1 PUSH2 0x1695 JUMP JUMPDEST PUSH1 0x40 MLOAD DUP1 SWAP2 SUB SWAP1 REVERT JUMPDEST PUSH1 0x0 PUSH1 0x3 PUSH1 0x0 SWAP1 SLOAD SWAP1 PUSH2 0x100 EXP SWAP1 DIV PUSH20 0xFFFFFFFFFFFFFFFFFFFFFFFFFFFFFFFFFFFFFFFF AND SWAP1 POP PUSH1 0x0 DUP2 PUSH20 0xFFFFFFFFFFFFFFFFFFFFFFFFFFFFFFFFFFFFFFFF AND PUSH4 0x70A08231 ADDRESS PUSH1 0x40 MLOAD DUP3 PUSH4 0xFFFFFFFF AND PUSH1 0xE0 SHL DUP2 MSTORE PUSH1 0x4 ADD PUSH2 0x949 SWAP2 SWAP1 PUSH2 0x12F0 JUMP JUMPDEST PUSH1 0x20 PUSH1 0x40 MLOAD DUP1 DUP4 SUB DUP2 DUP7 GAS STATICCALL ISZERO DUP1 ISZERO PUSH2 0x966 JUMPI RETURNDATASIZE PUSH1 0x0 DUP1 RETURNDATACOPY RETURNDATASIZE PUSH1 0x0 REVERT JUMPDEST POP POP POP POP PUSH1 0x40 MLOAD RETURNDATASIZE PUSH1 0x1F NOT PUSH1 0x1F DUP3 ADD AND DUP3 ADD DUP1 PUSH1 0x40 MSTORE POP DUP2 ADD SWAP1 PUSH2 0x98A SWAP2 SWAP1 PUSH2 0x16CA JUMP JUMPDEST SWAP1 POP PUSH1 0x0 DUP2 GT PUSH2 0x9CF JUMPI PUSH1 0x40 MLOAD PUSH32 0x8C379A000000000000000000000000000000000000000000000000000000000 DUP2 MSTORE PUSH1 0x4 ADD PUSH2 0x9C6 SWAP1 PUSH2 0x1AFD JUMP JUMPDEST PUSH1 0x40 MLOAD DUP1 SWAP2 SUB SWAP1 REVERT JUMPDEST DUP2 PUSH20 0xFFFFFFFFFFFFFFFFFFFFFFFFFFFFFFFFFFFFFFFF AND PUSH4 0xA9059CBB PUSH1 0x2 PUSH1 0x0 SWAP1 SLOAD SWAP1 PUSH2 0x100 EXP SWAP1 DIV PUSH20 0xFFFFFFFFFFFFFFFFFFFFFFFFFFFFFFFFFFFFFFFF AND DUP4 PUSH1 0x40 MLOAD DUP4 PUSH4 0xFFFFFFFF AND PUSH1 0xE0 SHL DUP2 MSTORE PUSH1 0x4 ADD PUSH2 0xA2C SWAP3 SWAP2 SWAP1 PUSH2 0x19B7 JUMP JUMPDEST PUSH1 0x20 PUSH1 0x40 MLOAD DUP1 DUP4 SUB DUP2 PUSH1 0x0 DUP8 GAS CALL ISZERO DUP1 ISZERO PUSH2 0xA4B JUMPI RETURNDATASIZE PUSH1 0x0 DUP1 RETURNDATACOPY RETURNDATASIZE PUSH1 0x0 REVERT JUMPDEST POP POP POP POP PUSH1 0x40 MLOAD RETURNDATASIZE PUSH1 0x1F NOT PUSH1 0x1F DUP3 ADD AND DUP3 ADD DUP1 PUSH1 0x40 MSTORE POP DUP2 ADD SWAP1 PUSH2 0xA6F SWAP2 SWAP1 PUSH2 0x1A18 JUMP JUMPDEST POP POP POP JUMP JUMPDEST PUSH1 0x2 PUSH1 0x0 SWAP1 SLOAD SWAP1 PUSH2 0x100 EXP SWAP1 DIV PUSH20 0xFFFFFFFFFFFFFFFFFFFFFFFFFFFFFFFFFFFFFFFF AND DUP2 JUMP JUMPDEST PUSH1 0x2 PUSH1 0x0 SWAP1 SLOAD SWAP1 PUSH2 0x100 EXP SWAP1 DIV PUSH20 0xFFFFFFFFFFFFFFFFFFFFFFFFFFFFFFFFFFFFFFFF AND PUSH20 0xFFFFFFFFFFFFFFFFFFFFFFFFFFFFFFFFFFFFFFFF AND CALLER PUSH20 0xFFFFFFFFFFFFFFFFFFFFFFFFFFFFFFFFFFFFFFFF AND EQ PUSH2 0xB2A JUMPI PUSH1 0x40 MLOAD PUSH32 0x8C379A000000000000000000000000000000000000000000000000000000000 DUP2 MSTORE PUSH1 0x4 ADD PUSH2 0xB21 SWAP1 PUSH2 0x1A91 JUMP JUMPDEST PUSH1 0x40 MLOAD DUP1 SWAP2 SUB SWAP1 REVERT JUMPDEST PUSH1 0x0 PUSH20 0xFFFFFFFFFFFFFFFFFFFFFFFFFFFFFFFFFFFFFFFF AND DUP3 PUSH20 0xFFFFFFFFFFFFFFFFFFFFFFFFFFFFFFFFFFFFFFFF AND SUB PUSH2 0xB99 JUMPI PUSH1 0x40 MLOAD PUSH32 0x8C379A000000000000000000000000000000000000000000000000000000000 DUP2 MSTORE PUSH1 0x4 ADD PUSH2 0xB90 SWAP1 PUSH2 0x1B69 JUMP JUMPDEST PUSH1 0x40 MLOAD DUP1 SWAP2 SUB SWAP1 REVERT JUMPDEST PUSH1 0x0 DUP2 GT PUSH2 0xBDC JUMPI PUSH1 0x40 MLOAD PUSH32 0x8C379A000000000000000000000000000000000000000000000000000000000 DUP2 MSTORE PUSH1 0x4 ADD PUSH2 0xBD3 SWAP1 PUSH2 0x1BD5 JUMP JUMPDEST PUSH1 0x40 MLOAD DUP1 SWAP2 SUB SWAP1 REVERT JUMPDEST PUSH1 0x0 PUSH20 0xFFFFFFFFFFFFFFFFFFFFFFFFFFFFFFFFFFFFFFFF AND DUP3 PUSH20 0xFFFFFFFFFFFFFFFFFFFFFFFFFFFFFFFFFFFFFFFF AND SUB PUSH2 0xC7E JUMPI PUSH1 0x2 PUSH1 0x0 SWAP1 SLOAD SWAP1 PUSH2 0x100 EXP SWAP1 DIV PUSH20 0xFFFFFFFFFFFFFFFFFFFFFFFFFFFFFFFFFFFFFFFF AND PUSH20 0xFFFFFFFFFFFFFFFFFFFFFFFFFFFFFFFFFFFFFFFF AND PUSH2 0x8FC DUP3 SWAP1 DUP2 ISZERO MUL SWAP1 PUSH1 0x40 MLOAD PUSH1 0x0 PUSH1 0x40 MLOAD DUP1 DUP4 SUB DUP2 DUP6 DUP9 DUP9 CALL SWAP4 POP POP POP POP ISZERO DUP1 ISZERO PUSH2 0xC78 JUMPI RETURNDATASIZE PUSH1 0x0 DUP1 RETURNDATACOPY RETURNDATASIZE PUSH1 0x0 REVERT JUMPDEST POP PUSH2 0xD20 JUMP JUMPDEST DUP2 PUSH20 0xFFFFFFFFFFFFFFFFFFFFFFFFFFFFFFFFFFFFFFFF AND PUSH4 0xA9059CBB PUSH1 0x2 PUSH1 0x0 SWAP1 SLOAD SWAP1 PUSH2 0x100 EXP SWAP1 DIV PUSH20 0xFFFFFFFFFFFFFFFFFFFFFFFFFFFFFFFFFFFFFFFF AND DUP4 PUSH1 0x40 MLOAD DUP4 PUSH4 0xFFFFFFFF AND PUSH1 0xE0 SHL DUP2 MSTORE PUSH1 0x4 ADD PUSH2 0xCDB SWAP3 SWAP2 SWAP1 PUSH2 0x19B7 JUMP JUMPDEST PUSH1 0x20 PUSH1 0x40 MLOAD DUP1 DUP4 SUB DUP2 PUSH1 0x0 DUP8 GAS CALL ISZERO DUP1 ISZERO PUSH2 0xCFA JUMPI RETURNDATASIZE PUSH1 0x0 DUP1 RETURNDATACOPY RETURNDATASIZE PUSH1 0x0 REVERT JUMPDEST POP POP POP POP PUSH1 0x40 MLOAD RETURNDATASIZE PUSH1 0x1F NOT PUSH1 0x1F DUP3 ADD AND DUP3 ADD DUP1 PUSH1 0x40 MSTORE POP DUP2 ADD SWAP1 PUSH2 0xD1E SWAP2 SWAP1 PUSH2 0x1A18 JUMP JUMPDEST POP JUMPDEST POP POP JUMP JUMPDEST PUSH1 0x3 PUSH1 0x0 SWAP1 SLOAD SWAP1 PUSH2 0x100 EXP SWAP1 DIV PUSH20 0xFFFFFFFFFFFFFFFFFFFFFFFFFFFFFFFFFFFFFFFF AND DUP2 JUMP JUMPDEST PUSH1 0x2 PUSH1 0x0 SWAP1 SLOAD SWAP1 PUSH2 0x100 EXP SWAP1 DIV PUSH20 0xFFFFFFFFFFFFFFFFFFFFFFFFFFFFFFFFFFFFFFFF AND PUSH20 0xFFFFFFFFFFFFFFFFFFFFFFFFFFFFFFFFFFFFFFFF AND CALLER PUSH20 0xFFFFFFFFFFFFFFFFFFFFFFFFFFFFFFFFFFFFFFFF AND EQ PUSH2 0xDDA JUMPI PUSH1 0x40 MLOAD PUSH32 0x8C379A000000000000000000000000000000000000000000000000000000000 DUP2 MSTORE PUSH1 0x4 ADD PUSH2 0xDD1 SWAP1 PUSH2 0x1A91 JUMP JUMPDEST PUSH1 0x40 MLOAD DUP1 SWAP2 SUB SWAP1 REVERT JUMPDEST PUSH1 0x0 PUSH20 0xFFFFFFFFFFFFFFFFFFFFFFFFFFFFFFFFFFFFFFFF AND DUP2 PUSH20 0xFFFFFFFFFFFFFFFFFFFFFFFFFFFFFFFFFFFFFFFF AND SUB PUSH2 0xE49 JUMPI PUSH1 0x40 MLOAD PUSH32 0x8C379A000000000000000000000000000000000000000000000000000000000 DUP2 MSTORE PUSH1 0x4 ADD PUSH2 0xE40 SWAP1 PUSH2 0x1B69 JUMP JUMPDEST PUSH1 0x40 MLOAD DUP1 SWAP2 SUB SWAP1 REVERT JUMPDEST DUP1 PUSH1 0x3 PUSH1 0x0 PUSH2 0x100 EXP DUP2 SLOAD DUP2 PUSH20 0xFFFFFFFFFFFFFFFFFFFFFFFFFFFFFFFFFFFFFFFF MUL NOT AND SWAP1 DUP4 PUSH20 0xFFFFFFFFFFFFFFFFFFFFFFFFFFFFFFFFFFFFFFFF AND MUL OR SWAP1 SSTORE POP POP JUMP JUMPDEST PUSH1 0x2 PUSH1 0x0 SWAP1 SLOAD SWAP1 PUSH2 0x100 EXP SWAP1 DIV PUSH20 0xFFFFFFFFFFFFFFFFFFFFFFFFFFFFFFFFFFFFFFFF AND PUSH20 0xFFFFFFFFFFFFFFFFFFFFFFFFFFFFFFFFFFFFFFFF AND CALLER PUSH20 0xFFFFFFFFFFFFFFFFFFFFFFFFFFFFFFFFFFFFFFFF AND EQ PUSH2 0xF1D JUMPI PUSH1 0x40 MLOAD PUSH32 0x8C379A000000000000000000000000000000000000000000000000000000000 DUP2 MSTORE PUSH1 0x4 ADD PUSH2 0xF14 SWAP1 PUSH2 0x1A91 JUMP JUMPDEST PUSH1 0x40 MLOAD DUP1 SWAP2 SUB SWAP1 REVERT JUMPDEST PUSH1 0x0 DUP3 MLOAD GT PUSH2 0xF61 JUMPI PUSH1 0x40 MLOAD PUSH32 0x8C379A000000000000000000000000000000000000000000000000000000000 DUP2 MSTORE PUSH1 0x4 ADD PUSH2 0xF58 SWAP1 PUSH2 0x1C41 JUMP JUMPDEST PUSH1 0x40 MLOAD DUP1 SWAP2 SUB SWAP1 REVERT JUMPDEST DUP1 MLOAD DUP3 MLOAD EQ PUSH2 0xFA5 JUMPI PUSH1 0x40 MLOAD PUSH32 0x8C379A000000000000000000000000000000000000000000000000000000000 DUP2 MSTORE PUSH1 0x4 ADD PUSH2 0xF9C SWAP1 PUSH2 0x1CAD JUMP JUMPDEST PUSH1 0x40 MLOAD DUP1 SWAP2 SUB SWAP1 REVERT JUMPDEST DUP2 PUSH1 0x0 SWAP1 DUP1 MLOAD SWAP1 PUSH1 0x20 ADD SWAP1 PUSH2 0xFBB SWAP3 SWAP2 SWAP1 PUSH2 0x111A JUMP JUMPDEST POP DUP1 PUSH1 0x1 SWAP1 DUP1 MLOAD SWAP1 PUSH1 0x20 ADD SWAP1 PUSH2 0xFD2 SWAP3 SWAP2 SWAP1 PUSH2 0x11A4 JUMP JUMPDEST POP POP POP JUMP JUMPDEST PUSH1 0x2 PUSH1 0x0 SWAP1 SLOAD SWAP1 PUSH2 0x100 EXP SWAP1 DIV PUSH20 0xFFFFFFFFFFFFFFFFFFFFFFFFFFFFFFFFFFFFFFFF AND PUSH20 0xFFFFFFFFFFFFFFFFFFFFFFFFFFFFFFFFFFFFFFFF AND CALLER PUSH20 0xFFFFFFFFFFFFFFFFFFFFFFFFFFFFFFFFFFFFFFFF AND EQ PUSH2 0x1067 JUMPI PUSH1 0x40 MLOAD PUSH32 0x8C379A000000000000000000000000000000000000000000000000000000000 DUP2 MSTORE PUSH1 0x4 ADD PUSH2 0x105E SWAP1 PUSH2 0x1A91 JUMP JUMPDEST PUSH1 0x40 MLOAD DUP1 SWAP2 SUB SWAP1 REVERT JUMPDEST PUSH1 0x0 PUSH20 0xFFFFFFFFFFFFFFFFFFFFFFFFFFFFFFFFFFFFFFFF AND DUP2 PUSH20 0xFFFFFFFFFFFFFFFFFFFFFFFFFFFFFFFFFFFFFFFF AND SUB PUSH2 0x10D6 JUMPI PUSH1 0x40 MLOAD PUSH32 0x8C379A000000000000000000000000000000000000000000000000000000000 DUP2 MSTORE PUSH1 0x4 ADD PUSH2 0x10CD SWAP1 PUSH2 0x1D19 JUMP JUMPDEST PUSH1 0x40 MLOAD DUP1 SWAP2 SUB SWAP1 REVERT JUMPDEST DUP1 PUSH1 0x2 PUSH1 0x0 PUSH2 0x100 EXP DUP2 SLOAD DUP2 PUSH20 0xFFFFFFFFFFFFFFFFFFFFFFFFFFFFFFFFFFFFFFFF MUL NOT AND SWAP1 DUP4 PUSH20 0xFFFFFFFFFFFFFFFFFFFFFFFFFFFFFFFFFFFFFFFF AND MUL OR SWAP1 SSTORE POP POP JUMP JUMPDEST DUP3 DUP1 SLOAD DUP3 DUP3 SSTORE SWAP1 PUSH1 0x0 MSTORE PUSH1 0x20 PUSH1 0x0 KECCAK256 SWAP1 DUP2 ADD SWAP3 DUP3 ISZERO PUSH2 0x1193 JUMPI SWAP2 PUSH1 0x20 MUL DUP3 ADD JUMPDEST DUP3 DUP2 GT ISZERO PUSH2 0x1192 JUMPI DUP3 MLOAD DUP3 PUSH1 0x0 PUSH2 0x100 EXP DUP2 SLOAD DUP2 PUSH20 0xFFFFFFFFFFFFFFFFFFFFFFFFFFFFFFFFFFFFFFFF MUL NOT AND SWAP1 DUP4 PUSH20 0xFFFFFFFFFFFFFFFFFFFFFFFFFFFFFFFFFFFFFFFF AND MUL OR SWAP1 SSTORE POP SWAP2 PUSH1 0x20 ADD SWAP2 SWAP1 PUSH1 0x1 ADD SWAP1 PUSH2 0x113A JUMP JUMPDEST JUMPDEST POP SWAP1 POP PUSH2 0x11A0 SWAP2 SWAP1 PUSH2 0x11F1 JUMP JUMPDEST POP SWAP1 JUMP JUMPDEST DUP3 DUP1 SLOAD DUP3 DUP3 SSTORE SWAP1 PUSH1 0x0 MSTORE PUSH1 0x20 PUSH1 0x0 KECCAK256 SWAP1 DUP2 ADD SWAP3 DUP3 ISZERO PUSH2 0x11E0 JUMPI SWAP2 PUSH1 0x20 MUL DUP3 ADD JUMPDEST DUP3 DUP2 GT ISZERO PUSH2 0x11DF JUMPI DUP3 MLOAD DUP3 SSTORE SWAP2 PUSH1 0x20 ADD SWAP2 SWAP1 PUSH1 0x1 ADD SWAP1 PUSH2 0x11C4 JUMP JUMPDEST JUMPDEST POP SWAP1 POP PUSH2 0x11ED SWAP2 SWAP1 PUSH2 0x11F1 JUMP JUMPDEST POP SWAP1 JUMP JUMPDEST JUMPDEST DUP1 DUP3 GT ISZERO PUSH2 0x120A JUMPI PUSH1 0x0 DUP2 PUSH1 0x0 SWAP1 SSTORE POP PUSH1 0x1 ADD PUSH2 0x11F2 JUMP JUMPDEST POP SWAP1 JUMP JUMPDEST PUSH1 0x0 PUSH1 0x40 MLOAD SWAP1 POP SWAP1 JUMP JUMPDEST PUSH1 0x0 DUP1 REVERT JUMPDEST PUSH1 0x0 DUP1 REVERT JUMPDEST PUSH1 0x0 DUP2 SWAP1 POP SWAP2 SWAP1 POP JUMP JUMPDEST PUSH2 0x1235 DUP2 PUSH2 0x1222 JUMP JUMPDEST DUP2 EQ PUSH2 0x1240 JUMPI PUSH1 0x0 DUP1 REVERT JUMPDEST POP JUMP JUMPDEST PUSH1 0x0 DUP2 CALLDATALOAD SWAP1 POP PUSH2 0x1252 DUP2 PUSH2 0x122C JUMP JUMPDEST SWAP3 SWAP2 POP POP JUMP JUMPDEST PUSH1 0x0 PUSH1 0x20 DUP3 DUP5 SUB SLT ISZERO PUSH2 0x126E JUMPI PUSH2 0x126D PUSH2 0x1218 JUMP JUMPDEST JUMPDEST PUSH1 0x0 PUSH2 0x127C DUP5 DUP3 DUP6 ADD PUSH2 0x1243 JUMP JUMPDEST SWAP2 POP POP SWAP3 SWAP2 POP POP JUMP JUMPDEST PUSH2 0x128E DUP2 PUSH2 0x1222 JUMP JUMPDEST DUP3 MSTORE POP POP JUMP JUMPDEST PUSH1 0x0 PUSH1 0x20 DUP3 ADD SWAP1 POP PUSH2 0x12A9 PUSH1 0x0 DUP4 ADD DUP5 PUSH2 0x1285 JUMP JUMPDEST SWAP3 SWAP2 POP POP JUMP JUMPDEST PUSH1 0x0 PUSH20 0xFFFFFFFFFFFFFFFFFFFFFFFFFFFFFFFFFFFFFFFF DUP3 AND SWAP1 POP SWAP2 SWAP1 POP JUMP JUMPDEST PUSH1 0x0 PUSH2 0x12DA DUP3 PUSH2 0x12AF JUMP JUMPDEST SWAP1 POP SWAP2 SWAP1 POP JUMP JUMPDEST PUSH2 0x12EA DUP2 PUSH2 0x12CF JUMP JUMPDEST DUP3 MSTORE POP POP JUMP JUMPDEST PUSH1 0x0 PUSH1 0x20 DUP3 ADD SWAP1 POP PUSH2 0x1305 PUSH1 0x0 DUP4 ADD DUP5 PUSH2 0x12E1 JUMP JUMPDEST SWAP3 SWAP2 POP POP JUMP JUMPDEST PUSH2 0x1314 DUP2 PUSH2 0x12CF JUMP JUMPDEST DUP2 EQ PUSH2 0x131F JUMPI PUSH1 0x0 DUP1 REVERT JUMPDEST POP JUMP JUMPDEST PUSH1 0x0 DUP2 CALLDATALOAD SWAP1 POP PUSH2 0x1331 DUP2 PUSH2 0x130B JUMP JUMPDEST SWAP3 SWAP2 POP POP JUMP JUMPDEST PUSH1 0x0 DUP1 PUSH1 0x40 DUP4 DUP6 SUB SLT ISZERO PUSH2 0x134E JUMPI PUSH2 0x134D PUSH2 0x1218 JUMP JUMPDEST JUMPDEST PUSH1 0x0 PUSH2 0x135C DUP6 DUP3 DUP7 ADD PUSH2 0x1322 JUMP JUMPDEST SWAP3 POP POP PUSH1 0x20 PUSH2 0x136D DUP6 DUP3 DUP7 ADD PUSH2 0x1243 JUMP JUMPDEST SWAP2 POP POP SWAP3 POP SWAP3 SWAP1 POP JUMP JUMPDEST PUSH1 0x0 PUSH1 0x20 DUP3 DUP5 SUB SLT ISZERO PUSH2 0x138D JUMPI PUSH2 0x138C PUSH2 0x1218 JUMP JUMPDEST JUMPDEST PUSH1 0x0 PUSH2 0x139B DUP5 DUP3 DUP6 ADD PUSH2 0x1322 JUMP JUMPDEST SWAP2 POP POP SWAP3 SWAP2 POP POP JUMP JUMPDEST PUSH1 0x0 DUP1 REVERT JUMPDEST PUSH1 0x0 PUSH1 0x1F NOT PUSH1 0x1F DUP4 ADD AND SWAP1 POP SWAP2 SWAP1 POP JUMP JUMPDEST PUSH32 0x4E487B7100000000000000000000000000000000000000000000000000000000 PUSH1 0x0 MSTORE PUSH1 0x41 PUSH1 0x4 MSTORE PUSH1 0x24 PUSH1 0x0 REVERT JUMPDEST PUSH2 0x13F2 DUP3 PUSH2 0x13A9 JUMP JUMPDEST DUP2 ADD DUP2 DUP2 LT PUSH8 0xFFFFFFFFFFFFFFFF DUP3 GT OR ISZERO PUSH2 0x1411 JUMPI PUSH2 0x1410 PUSH2 0x13BA JUMP JUMPDEST JUMPDEST DUP1 PUSH1 0x40 MSTORE POP POP POP JUMP JUMPDEST PUSH1 0x0 PUSH2 0x1424 PUSH2 0x120E JUMP JUMPDEST SWAP1 POP PUSH2 0x1430 DUP3 DUP3 PUSH2 0x13E9 JUMP JUMPDEST SWAP2 SWAP1 POP JUMP JUMPDEST PUSH1 0x0 PUSH8 0xFFFFFFFFFFFFFFFF DUP3 GT ISZERO PUSH2 0x1450 JUMPI PUSH2 0x144F PUSH2 0x13BA JUMP JUMPDEST JUMPDEST PUSH1 0x20 DUP3 MUL SWAP1 POP PUSH1 0x20 DUP2 ADD SWAP1 POP SWAP2 SWAP1 POP JUMP JUMPDEST PUSH1 0x0 DUP1 REVERT JUMPDEST PUSH1 0x0 PUSH2 0x1479 PUSH2 0x1474 DUP5 PUSH2 0x1435 JUMP JUMPDEST PUSH2 0x141A JUMP JUMPDEST SWAP1 POP DUP1 DUP4 DUP3 MSTORE PUSH1 0x20 DUP3 ADD SWAP1 POP PUSH1 0x20 DUP5 MUL DUP4 ADD DUP6 DUP2 GT ISZERO PUSH2 0x149C JUMPI PUSH2 0x149B PUSH2 0x1461 JUMP JUMPDEST JUMPDEST DUP4 JUMPDEST DUP2 DUP2 LT ISZERO PUSH2 0x14C5 JUMPI DUP1 PUSH2 0x14B1 DUP9 DUP3 PUSH2 0x1322 JUMP JUMPDEST DUP5 MSTORE PUSH1 0x20 DUP5 ADD SWAP4 POP POP PUSH1 0x20 DUP2 ADD SWAP1 POP PUSH2 0x149E JUMP JUMPDEST POP POP POP SWAP4 SWAP3 POP POP POP JUMP JUMPDEST PUSH1 0x0 DUP3 PUSH1 0x1F DUP4 ADD SLT PUSH2 0x14E4 JUMPI PUSH2 0x14E3 PUSH2 0x13A4 JUMP JUMPDEST JUMPDEST DUP2 CALLDATALOAD PUSH2 0x14F4 DUP5 DUP3 PUSH1 0x20 DUP7 ADD PUSH2 0x1466 JUMP JUMPDEST SWAP2 POP POP SWAP3 SWAP2 POP POP JUMP JUMPDEST PUSH1 0x0 PUSH8 0xFFFFFFFFFFFFFFFF DUP3 GT ISZERO PUSH2 0x1518 JUMPI PUSH2 0x1517 PUSH2 0x13BA JUMP JUMPDEST JUMPDEST PUSH1 0x20 DUP3 MUL SWAP1 POP PUSH1 0x20 DUP2 ADD SWAP1 POP SWAP2 SWAP1 POP JUMP JUMPDEST PUSH1 0x0 PUSH2 0x153C PUSH2 0x1537 DUP5 PUSH2 0x14FD JUMP JUMPDEST PUSH2 0x141A JUMP JUMPDEST SWAP1 POP DUP1 DUP4 DUP3 MSTORE PUSH1 0x20 DUP3 ADD SWAP1 POP PUSH1 0x20 DUP5 MUL DUP4 ADD DUP6 DUP2 GT ISZERO PUSH2 0x155F JUMPI PUSH2 0x155E PUSH2 0x1461 JUMP JUMPDEST JUMPDEST DUP4 JUMPDEST DUP2 DUP2 LT ISZERO PUSH2 0x1588 JUMPI DUP1 PUSH2 0x1574 DUP9 DUP3 PUSH2 0x1243 JUMP JUMPDEST DUP5 MSTORE PUSH1 0x20 DUP5 ADD SWAP4 POP POP PUSH1 0x20 DUP2 ADD SWAP1 POP PUSH2 0x1561 JUMP JUMPDEST POP POP POP SWAP4 SWAP3 POP POP POP JUMP JUMPDEST PUSH1 0x0 DUP3 PUSH1 0x1F DUP4 ADD SLT PUSH2 0x15A7 JUMPI PUSH2 0x15A6 PUSH2 0x13A4 JUMP JUMPDEST JUMPDEST DUP2 CALLDATALOAD PUSH2 0x15B7 DUP5 DUP3 PUSH1 0x20 DUP7 ADD PUSH2 0x1529 JUMP JUMPDEST SWAP2 POP POP SWAP3 SWAP2 POP POP JUMP JUMPDEST PUSH1 0x0 DUP1 PUSH1 0x40 DUP4 DUP6 SUB SLT ISZERO PUSH2 0x15D7 JUMPI PUSH2 0x15D6 PUSH2 0x1218 JUMP JUMPDEST JUMPDEST PUSH1 0x0 DUP4 ADD CALLDATALOAD PUSH8 0xFFFFFFFFFFFFFFFF DUP2 GT ISZERO PUSH2 0x15F5 JUMPI PUSH2 0x15F4 PUSH2 0x121D JUMP JUMPDEST JUMPDEST PUSH2 0x1601 DUP6 DUP3 DUP7 ADD PUSH2 0x14CF JUMP JUMPDEST SWAP3 POP POP PUSH1 0x20 DUP4 ADD CALLDATALOAD PUSH8 0xFFFFFFFFFFFFFFFF DUP2 GT ISZERO PUSH2 0x1622 JUMPI PUSH2 0x1621 PUSH2 0x121D JUMP JUMPDEST JUMPDEST PUSH2 0x162E DUP6 DUP3 DUP7 ADD PUSH2 0x1592 JUMP JUMPDEST SWAP2 POP POP SWAP3 POP SWAP3 SWAP1 POP JUMP JUMPDEST PUSH1 0x0 DUP3 DUP3 MSTORE PUSH1 0x20 DUP3 ADD SWAP1 POP SWAP3 SWAP2 POP POP JUMP JUMPDEST PUSH32 0x546F6B656E2061646472657373206E6F74207365740000000000000000000000 PUSH1 0x0 DUP3 ADD MSTORE POP JUMP JUMPDEST PUSH1 0x0 PUSH2 0x167F PUSH1 0x15 DUP4 PUSH2 0x1638 JUMP JUMPDEST SWAP2 POP PUSH2 0x168A DUP3 PUSH2 0x1649 JUMP JUMPDEST PUSH1 0x20 DUP3 ADD SWAP1 POP SWAP2 SWAP1 POP JUMP JUMPDEST PUSH1 0x0 PUSH1 0x20 DUP3 ADD SWAP1 POP DUP2 DUP2 SUB PUSH1 0x0 DUP4 ADD MSTORE PUSH2 0x16AE DUP2 PUSH2 0x1672 JUMP JUMPDEST SWAP1 POP SWAP2 SWAP1 POP JUMP JUMPDEST PUSH1 0x0 DUP2 MLOAD SWAP1 POP PUSH2 0x16C4 DUP2 PUSH2 0x122C JUMP JUMPDEST SWAP3 SWAP2 POP POP JUMP JUMPDEST PUSH1 0x0 PUSH1 0x20 DUP3 DUP5 SUB SLT ISZERO PUSH2 0x16E0 JUMPI PUSH2 0x16DF PUSH2 0x1218 JUMP JUMPDEST JUMPDEST PUSH1 0x0 PUSH2 0x16EE DUP5 DUP3 DUP6 ADD PUSH2 0x16B5 JUMP JUMPDEST SWAP2 POP POP SWAP3 SWAP2 POP POP JUMP JUMPDEST PUSH32 0x4E6F20746F6B656E7320746F2064697374726962757465000000000000000000 PUSH1 0x0 DUP3 ADD MSTORE POP JUMP JUMPDEST PUSH1 0x0 PUSH2 0x172D PUSH1 0x17 DUP4 PUSH2 0x1638 JUMP JUMPDEST SWAP2 POP PUSH2 0x1738 DUP3 PUSH2 0x16F7 JUMP JUMPDEST PUSH1 0x20 DUP3 ADD SWAP1 POP SWAP2 SWAP1 POP JUMP JUMPDEST PUSH1 0x0 PUSH1 0x20 DUP3 ADD SWAP1 POP DUP2 DUP2 SUB PUSH1 0x0 DUP4 ADD MSTORE PUSH2 0x175C DUP2 PUSH2 0x1720 JUMP JUMPDEST SWAP1 POP SWAP2 SWAP1 POP JUMP JUMPDEST PUSH32 0x4E487B7100000000000000000000000000000000000000000000000000000000 PUSH1 0x0 MSTORE PUSH1 0x32 PUSH1 0x4 MSTORE PUSH1 0x24 PUSH1 0x0 REVERT JUMPDEST PUSH32 0x496E76616C69642070617965652070657263656E746167650000000000000000 PUSH1 0x0 DUP3 ADD MSTORE POP JUMP JUMPDEST PUSH1 0x0 PUSH2 0x17C8 PUSH1 0x18 DUP4 PUSH2 0x1638 JUMP JUMPDEST SWAP2 POP PUSH2 0x17D3 DUP3 PUSH2 0x1792 JUMP JUMPDEST PUSH1 0x20 DUP3 ADD SWAP1 POP SWAP2 SWAP1 POP JUMP JUMPDEST PUSH1 0x0 PUSH1 0x20 DUP3 ADD SWAP1 POP DUP2 DUP2 SUB PUSH1 0x0 DUP4 ADD MSTORE PUSH2 0x17F7 DUP2 PUSH2 0x17BB JUMP JUMPDEST SWAP1 POP SWAP2 SWAP1 POP JUMP JUMPDEST PUSH32 0x4E487B7100000000000000000000000000000000000000000000000000000000 PUSH1 0x0 MSTORE PUSH1 0x11 PUSH1 0x4 MSTORE PUSH1 0x24 PUSH1 0x0 REVERT JUMPDEST PUSH1 0x0 PUSH2 0x1838 DUP3 PUSH2 0x1222 JUMP JUMPDEST SWAP2 POP PUSH2 0x1843 DUP4 PUSH2 0x1222 JUMP JUMPDEST SWAP3 POP DUP3 DUP3 ADD SWAP1 POP DUP1 DUP3 GT ISZERO PUSH2 0x185B JUMPI PUSH2 0x185A PUSH2 0x17FE JUMP JUMPDEST JUMPDEST SWAP3 SWAP2 POP POP JUMP JUMPDEST PUSH1 0x0 PUSH2 0x186C DUP3 PUSH2 0x1222 JUMP JUMPDEST SWAP2 POP PUSH32 0xFFFFFFFFFFFFFFFFFFFFFFFFFFFFFFFFFFFFFFFFFFFFFFFFFFFFFFFFFFFFFFFF DUP3 SUB PUSH2 0x189E JUMPI PUSH2 0x189D PUSH2 0x17FE JUMP JUMPDEST JUMPDEST PUSH1 0x1 DUP3 ADD SWAP1 POP SWAP2 SWAP1 POP JUMP JUMPDEST PUSH32 0x546F74616C2070657263656E74616765206D75737420657175616C2031303000 PUSH1 0x0 DUP3 ADD MSTORE POP JUMP JUMPDEST PUSH1 0x0 PUSH2 0x18DF PUSH1 0x1F DUP4 PUSH2 0x1638 JUMP JUMPDEST SWAP2 POP PUSH2 0x18EA DUP3 PUSH2 0x18A9 JUMP JUMPDEST PUSH1 0x20 DUP3 ADD SWAP1 POP SWAP2 SWAP1 POP JUMP JUMPDEST PUSH1 0x0 PUSH1 0x20 DUP3 ADD SWAP1 POP DUP2 DUP2 SUB PUSH1 0x0 DUP4 ADD MSTORE PUSH2 0x190E DUP2 PUSH2 0x18D2 JUMP JUMPDEST SWAP1 POP SWAP2 SWAP1 POP JUMP JUMPDEST PUSH1 0x0 PUSH2 0x1920 DUP3 PUSH2 0x1222 JUMP JUMPDEST SWAP2 POP PUSH2 0x192B DUP4 PUSH2 0x1222 JUMP JUMPDEST SWAP3 POP DUP3 DUP3 MUL PUSH2 0x1939 DUP2 PUSH2 0x1222 JUMP JUMPDEST SWAP2 POP DUP3 DUP3 DIV DUP5 EQ DUP4 ISZERO OR PUSH2 0x1950 JUMPI PUSH2 0x194F PUSH2 0x17FE JUMP JUMPDEST JUMPDEST POP SWAP3 SWAP2 POP POP JUMP JUMPDEST PUSH32 0x4E487B7100000000000000000000000000000000000000000000000000000000 PUSH1 0x0 MSTORE PUSH1 0x12 PUSH1 0x4 MSTORE PUSH1 0x24 PUSH1 0x0 REVERT JUMPDEST PUSH1 0x0 PUSH2 0x1991 DUP3 PUSH2 0x1222 JUMP JUMPDEST SWAP2 POP PUSH2 0x199C DUP4 PUSH2 0x1222 JUMP JUMPDEST SWAP3 POP DUP3 PUSH2 0x19AC JUMPI PUSH2 0x19AB PUSH2 0x1957 JUMP JUMPDEST JUMPDEST DUP3 DUP3 DIV SWAP1 POP SWAP3 SWAP2 POP POP JUMP JUMPDEST PUSH1 0x0 PUSH1 0x40 DUP3 ADD SWAP1 POP PUSH2 0x19CC PUSH1 0x0 DUP4 ADD DUP6 PUSH2 0x12E1 JUMP JUMPDEST PUSH2 0x19D9 PUSH1 0x20 DUP4 ADD DUP5 PUSH2 0x1285 JUMP JUMPDEST SWAP4 SWAP3 POP POP POP JUMP JUMPDEST PUSH1 0x0 DUP2 ISZERO ISZERO SWAP1 POP SWAP2 SWAP1 POP JUMP JUMPDEST PUSH2 0x19F5 DUP2 PUSH2 0x19E0 JUMP JUMPDEST DUP2 EQ PUSH2 0x1A00 JUMPI PUSH1 0x0 DUP1 REVERT JUMPDEST POP JUMP JUMPDEST PUSH1 0x0 DUP2 MLOAD SWAP1 POP PUSH2 0x1A12 DUP2 PUSH2 0x19EC JUMP JUMPDEST SWAP3 SWAP2 POP POP JUMP JUMPDEST PUSH1 0x0 PUSH1 0x20 DUP3 DUP5 SUB SLT ISZERO PUSH2 0x1A2E JUMPI PUSH2 0x1A2D PUSH2 0x1218 JUMP JUMPDEST JUMPDEST PUSH1 0x0 PUSH2 0x1A3C DUP5 DUP3 DUP6 ADD PUSH2 0x1A03 JUMP JUMPDEST SWAP2 POP POP SWAP3 SWAP2 POP POP JUMP JUMPDEST PUSH32 0x4E6F742074686520636F6E7472616374206F776E657200000000000000000000 PUSH1 0x0 DUP3 ADD MSTORE POP JUMP JUMPDEST PUSH1 0x0 PUSH2 0x1A7B PUSH1 0x16 DUP4 PUSH2 0x1638 JUMP JUMPDEST SWAP2 POP PUSH2 0x1A86 DUP3 PUSH2 0x1A45 JUMP JUMPDEST PUSH1 0x20 DUP3 ADD SWAP1 POP SWAP2 SWAP1 POP JUMP JUMPDEST PUSH1 0x0 PUSH1 0x20 DUP3 ADD SWAP1 POP DUP2 DUP2 SUB PUSH1 0x0 DUP4 ADD MSTORE PUSH2 0x1AAA DUP2 PUSH2 0x1A6E JUMP JUMPDEST SWAP1 POP SWAP2 SWAP1 POP JUMP JUMPDEST PUSH32 0x4E6F20746F6B656E7320746F2077697468647261770000000000000000000000 PUSH1 0x0 DUP3 ADD MSTORE POP JUMP JUMPDEST PUSH1 0x0 PUSH2 0x1AE7 PUSH1 0x15 DUP4 PUSH2 0x1638 JUMP JUMPDEST SWAP2 POP PUSH2 0x1AF2 DUP3 PUSH2 0x1AB1 JUMP JUMPDEST PUSH1 0x20 DUP3 ADD SWAP1 POP SWAP2 SWAP1 POP JUMP JUMPDEST PUSH1 0x0 PUSH1 0x20 DUP3 ADD SWAP1 POP DUP2 DUP2 SUB PUSH1 0x0 DUP4 ADD MSTORE PUSH2 0x1B16 DUP2 PUSH2 0x1ADA JUMP JUMPDEST SWAP1 POP SWAP2 SWAP1 POP JUMP JUMPDEST PUSH32 0x496E76616C696420746F6B656E20616464726573730000000000000000000000 PUSH1 0x0 DUP3 ADD MSTORE POP JUMP JUMPDEST PUSH1 0x0 PUSH2 0x1B53 PUSH1 0x15 DUP4 PUSH2 0x1638 JUMP JUMPDEST SWAP2 POP PUSH2 0x1B5E DUP3 PUSH2 0x1B1D JUMP JUMPDEST PUSH1 0x20 DUP3 ADD SWAP1 POP SWAP2 SWAP1 POP JUMP JUMPDEST PUSH1 0x0 PUSH1 0x20 DUP3 ADD SWAP1 POP DUP2 DUP2 SUB PUSH1 0x0 DUP4 ADD MSTORE PUSH2 0x1B82 DUP2 PUSH2 0x1B46 JUMP JUMPDEST SWAP1 POP SWAP2 SWAP1 POP JUMP JUMPDEST PUSH32 0x496E76616C696420616D6F756E74000000000000000000000000000000000000 PUSH1 0x0 DUP3 ADD MSTORE POP JUMP JUMPDEST PUSH1 0x0 PUSH2 0x1BBF PUSH1 0xE DUP4 PUSH2 0x1638 JUMP JUMPDEST SWAP2 POP PUSH2 0x1BCA DUP3 PUSH2 0x1B89 JUMP JUMPDEST PUSH1 0x20 DUP3 ADD SWAP1 POP SWAP2 SWAP1 POP JUMP JUMPDEST PUSH1 0x0 PUSH1 0x20 DUP3 ADD SWAP1 POP DUP2 DUP2 SUB PUSH1 0x0 DUP4 ADD MSTORE PUSH2 0x1BEE DUP2 PUSH2 0x1BB2 JUMP JUMPDEST SWAP1 POP SWAP2 SWAP1 POP JUMP JUMPDEST PUSH32 0x4E6F207061796565732070726F76696465640000000000000000000000000000 PUSH1 0x0 DUP3 ADD MSTORE POP JUMP JUMPDEST PUSH1 0x0 PUSH2 0x1C2B PUSH1 0x12 DUP4 PUSH2 0x1638 JUMP JUMPDEST SWAP2 POP PUSH2 0x1C36 DUP3 PUSH2 0x1BF5 JUMP JUMPDEST PUSH1 0x20 DUP3 ADD SWAP1 POP SWAP2 SWAP1 POP JUMP JUMPDEST PUSH1 0x0 PUSH1 0x20 DUP3 ADD SWAP1 POP DUP2 DUP2 SUB PUSH1 0x0 DUP4 ADD MSTORE PUSH2 0x1C5A DUP2 PUSH2 0x1C1E JUMP JUMPDEST SWAP1 POP SWAP2 SWAP1 POP JUMP JUMPDEST PUSH32 0x496E76616C69642070617965652070657263656E746167657300000000000000 PUSH1 0x0 DUP3 ADD MSTORE POP JUMP JUMPDEST PUSH1 0x0 PUSH2 0x1C97 PUSH1 0x19 DUP4 PUSH2 0x1638 JUMP JUMPDEST SWAP2 POP PUSH2 0x1CA2 DUP3 PUSH2 0x1C61 JUMP JUMPDEST PUSH1 0x20 DUP3 ADD SWAP1 POP SWAP2 SWAP1 POP JUMP JUMPDEST PUSH1 0x0 PUSH1 0x20 DUP3 ADD SWAP1 POP DUP2 DUP2 SUB PUSH1 0x0 DUP4 ADD MSTORE PUSH2 0x1CC6 DUP2 PUSH2 0x1C8A JUMP JUMPDEST SWAP1 POP SWAP2 SWAP1 POP JUMP JUMPDEST PUSH32 0x496E76616C6964206E6577206F776E6572206164647265737300000000000000 PUSH1 0x0 DUP3 ADD MSTORE POP JUMP JUMPDEST PUSH1 0x0 PUSH2 0x1D03 PUSH1 0x19 DUP4 PUSH2 0x1638 JUMP JUMPDEST SWAP2 POP PUSH2 0x1D0E DUP3 PUSH2 0x1CCD JUMP JUMPDEST PUSH1 0x20 DUP3 ADD SWAP1 POP SWAP2 SWAP1 POP JUMP JUMPDEST PUSH1 0x0 PUSH1 0x20 DUP3 ADD SWAP1 POP DUP2 DUP2 SUB PUSH1 0x0 DUP4 ADD MSTORE PUSH2 0x1D32 DUP2 PUSH2 0x1CF6 JUMP JUMPDEST SWAP1 POP SWAP2 SWAP1 POP JUMP INVALID LOG2 PUSH5 0x6970667358 0x22 SLT KECCAK256 DUP11 0xD4 0xAD 0xED SSTORE SSTORE CODESIZE PUSH27 0xD26B97DC025CECDA11AA9A302867B4783E22B247B708742664736F PUSH13 0x63430008130033000000000000 "
				},
				"gasEstimates": {
					"creation": {
						"codeDepositCost": "1507000",
						"executionCost": "infinite",
						"totalCost": "infinite"
					},
					"external": {
						"changeTokenAddress(address)": "26971",
						"distribute()": "infinite",
						"getTokenBalance()": "infinite",
						"owner()": "2603",
						"payeePercentages(uint256)": "infinite",
						"payees(uint256)": "4979",
						"recoverLostFunds(address,uint256)": "infinite",
						"tokenAddress()": "2536",
						"transferOwnership(address)": "27037",
						"updatePayees(address[],uint256[])": "infinite",
						"withdrawTokens()": "infinite"
					}
				},
				"methodIdentifiers": {
					"changeTokenAddress(address)": "c9cda91f",
					"distribute()": "e4fc6b6d",
					"getTokenBalance()": "82b2e257",
					"owner()": "8da5cb5b",
					"payeePercentages(uint256)": "2b29af7f",
					"payees(uint256)": "63037b0c",
					"recoverLostFunds(address,uint256)": "8f63458c",
					"tokenAddress()": "9d76ea58",
					"transferOwnership(address)": "f2fde38b",
					"updatePayees(address[],uint256[])": "d9215050",
					"withdrawTokens()": "8d8f2adb"
				}
			},
			"storageLayout": {
				"storage": [
					{
						"astId": 21,
						"contract": "AnyERC20Splitter.sol:NativePaymentSplitter",
						"label": "payees",
						"offset": 0,
						"slot": "0",
						"type": "t_array(t_address)dyn_storage"
					},
					{
						"astId": 24,
						"contract": "AnyERC20Splitter.sol:NativePaymentSplitter",
						"label": "payeePercentages",
						"offset": 0,
						"slot": "1",
						"type": "t_array(t_uint256)dyn_storage"
					},
					{
						"astId": 26,
						"contract": "AnyERC20Splitter.sol:NativePaymentSplitter",
						"label": "owner",
						"offset": 0,
						"slot": "2",
						"type": "t_address"
					},
					{
						"astId": 28,
						"contract": "AnyERC20Splitter.sol:NativePaymentSplitter",
						"label": "tokenAddress",
						"offset": 0,
						"slot": "3",
						"type": "t_address"
					}
				],
				"types": {
					"t_address": {
						"encoding": "inplace",
						"label": "address",
						"numberOfBytes": "20"
					},
					"t_array(t_address)dyn_storage": {
						"base": "t_address",
						"encoding": "dynamic_array",
						"label": "address[]",
						"numberOfBytes": "32"
					},
					"t_array(t_uint256)dyn_storage": {
						"base": "t_uint256",
						"encoding": "dynamic_array",
						"label": "uint256[]",
						"numberOfBytes": "32"
					},
					"t_uint256": {
						"encoding": "inplace",
						"label": "uint256",
						"numberOfBytes": "32"
					}
				}
			},
			"userdoc": {
				"kind": "user",
				"methods": {},
				"version": 1
			}
		}
	}
}