{
	"splitter.sol": {
		"AnyPaymentSplitter": {
			"abi": [
				{
					"inputs": [
						{
							"internalType": "address[]",
							"name": "_payees",
							"type": "address[]"
						},
						{
							"internalType": "uint256[]",
							"name": "_payeePercentages",
							"type": "uint256[]"
						},
						{
							"internalType": "address",
							"name": "_tokenAddress",
							"type": "address"
						}
					],
					"stateMutability": "nonpayable",
					"type": "constructor"
				},
				{
					"anonymous": false,
					"inputs": [
						{
							"indexed": false,
							"internalType": "address",
							"name": "token",
							"type": "address"
						},
						{
							"indexed": false,
							"internalType": "uint256",
							"name": "amount",
							"type": "uint256"
						}
					],
					"name": "FundsRecovered",
					"type": "event"
				},
				{
					"anonymous": false,
					"inputs": [
						{
							"indexed": false,
							"internalType": "address",
							"name": "newOwner",
							"type": "address"
						}
					],
					"name": "OwnershipTransferred",
					"type": "event"
				},
				{
					"anonymous": false,
					"inputs": [
						{
							"indexed": false,
							"internalType": "address[]",
							"name": "payees",
							"type": "address[]"
						},
						{
							"indexed": false,
							"internalType": "uint256[]",
							"name": "payeePercentages",
							"type": "uint256[]"
						}
					],
					"name": "PayeesUpdated",
					"type": "event"
				},
				{
					"anonymous": false,
					"inputs": [
						{
							"indexed": false,
							"internalType": "address",
							"name": "newTokenAddress",
							"type": "address"
						}
					],
					"name": "TokenAddressUpdated",
					"type": "event"
				},
				{
					"inputs": [
						{
							"internalType": "address",
							"name": "newTokenAddress",
							"type": "address"
						}
					],
					"name": "changeTokenAddress",
					"outputs": [],
					"stateMutability": "nonpayable",
					"type": "function"
				},
				{
					"inputs": [],
					"name": "distribute",
					"outputs": [],
					"stateMutability": "nonpayable",
					"type": "function"
				},
				{
					"inputs": [],
					"name": "getTokenBalance",
					"outputs": [
						{
							"internalType": "uint256",
							"name": "",
							"type": "uint256"
						}
					],
					"stateMutability": "view",
					"type": "function"
				},
				{
					"inputs": [],
					"name": "owner",
					"outputs": [
						{
							"internalType": "address",
							"name": "",
							"type": "address"
						}
					],
					"stateMutability": "view",
					"type": "function"
				},
				{
					"inputs": [
						{
							"internalType": "uint256",
							"name": "",
							"type": "uint256"
						}
					],
					"name": "payeePercentages",
					"outputs": [
						{
							"internalType": "uint256",
							"name": "",
							"type": "uint256"
						}
					],
					"stateMutability": "view",
					"type": "function"
				},
				{
					"inputs": [
						{
							"internalType": "uint256",
							"name": "",
							"type": "uint256"
						}
					],
					"name": "payees",
					"outputs": [
						{
							"internalType": "address",
							"name": "",
							"type": "address"
						}
					],
					"stateMutability": "view",
					"type": "function"
				},
				{
					"inputs": [
						{
							"internalType": "address",
							"name": "tokenToRecover",
							"type": "address"
						},
						{
							"internalType": "uint256",
							"name": "amount",
							"type": "uint256"
						}
					],
					"name": "recoverLostFunds",
					"outputs": [],
					"stateMutability": "nonpayable",
					"type": "function"
				},
				{
					"inputs": [],
					"name": "tokenAddress",
					"outputs": [
						{
							"internalType": "address",
							"name": "",
							"type": "address"
						}
					],
					"stateMutability": "view",
					"type": "function"
				},
				{
					"inputs": [
						{
							"internalType": "address",
							"name": "newOwner",
							"type": "address"
						}
					],
					"name": "transferOwnership",
					"outputs": [],
					"stateMutability": "nonpayable",
					"type": "function"
				},
				{
					"inputs": [
						{
							"internalType": "address[]",
							"name": "_payees",
							"type": "address[]"
						},
						{
							"internalType": "uint256[]",
							"name": "_payeePercentages",
							"type": "uint256[]"
						}
					],
					"name": "updatePayees",
					"outputs": [],
					"stateMutability": "nonpayable",
					"type": "function"
				},
				{
					"inputs": [],
					"name": "withdrawTokens",
					"outputs": [],
					"stateMutability": "nonpayable",
					"type": "function"
				}
			],
			"devdoc": {
				"kind": "dev",
				"methods": {},
				"version": 1
			},
			"evm": {
				"assembly": "    /* \"splitter.sol\":4504:8112  contract AnyPaymentSplitter {... */\n  mstore(0x40, 0x80)\n    /* \"splitter.sol\":5043:5506  constructor(address[] memory _payees, uint256[] memory _payeePercentages, address _tokenAddress) {... */\n  callvalue\n  dup1\n  iszero\n  tag_1\n  jumpi\n  0x00\n  dup1\n  revert\ntag_1:\n  pop\n  mload(0x40)\n  sub(codesize, bytecodeSize)\n  dup1\n  bytecodeSize\n  dup4\n  codecopy\n  dup2\n  dup2\n  add\n  0x40\n  mstore\n  dup2\n  add\n  swap1\n  tag_2\n  swap2\n  swap1\n  tag_3\n  jump\t// in\ntag_2:\n    /* \"splitter.sol\":5175:5176  0 */\n  0x00\n    /* \"splitter.sol\":5158:5165  _payees */\n  dup4\n    /* \"splitter.sol\":5158:5172  _payees.length */\n  mload\n    /* \"splitter.sol\":5158:5176  _payees.length > 0 */\n  gt\n    /* \"splitter.sol\":5150:5199  require(_payees.length > 0, \"No payees provided\") */\n  tag_6\n  jumpi\n  mload(0x40)\n  0x08c379a000000000000000000000000000000000000000000000000000000000\n  dup2\n  mstore\n  0x04\n  add\n  tag_7\n  swap1\n  tag_8\n  jump\t// in\ntag_7:\n  mload(0x40)\n  dup1\n  swap2\n  sub\n  swap1\n  revert\ntag_6:\n    /* \"splitter.sol\":5235:5252  _payeePercentages */\n  dup2\n    /* \"splitter.sol\":5235:5259  _payeePercentages.length */\n  mload\n    /* \"splitter.sol\":5217:5224  _payees */\n  dup4\n    /* \"splitter.sol\":5217:5231  _payees.length */\n  mload\n    /* \"splitter.sol\":5217:5259  _payees.length == _payeePercentages.length */\n  eq\n    /* \"splitter.sol\":5209:5289  require(_payees.length == _payeePercentages.length, \"Invalid payee percentages\") */\n  tag_9\n  jumpi\n  mload(0x40)\n  0x08c379a000000000000000000000000000000000000000000000000000000000\n  dup2\n  mstore\n  0x04\n  add\n  tag_10\n  swap1\n  tag_11\n  jump\t// in\ntag_10:\n  mload(0x40)\n  dup1\n  swap2\n  sub\n  swap1\n  revert\ntag_9:\n    /* \"splitter.sol\":5332:5333  0 */\n  0x00\n    /* \"splitter.sol\":5307:5334  _tokenAddress != address(0) */\n  0xffffffffffffffffffffffffffffffffffffffff\n  and\n    /* \"splitter.sol\":5307:5320  _tokenAddress */\n  dup2\n    /* \"splitter.sol\":5307:5334  _tokenAddress != address(0) */\n  0xffffffffffffffffffffffffffffffffffffffff\n  and\n  sub\n    /* \"splitter.sol\":5299:5360  require(_tokenAddress != address(0), \"Invalid token address\") */\n  tag_12\n  jumpi\n  mload(0x40)\n  0x08c379a000000000000000000000000000000000000000000000000000000000\n  dup2\n  mstore\n  0x04\n  add\n  tag_13\n  swap1\n  tag_14\n  jump\t// in\ntag_13:\n  mload(0x40)\n  dup1\n  swap2\n  sub\n  swap1\n  revert\ntag_12:\n    /* \"splitter.sol\":5379:5389  msg.sender */\n  caller\n    /* \"splitter.sol\":5371:5376  owner */\n  0x02\n  0x00\n    /* \"splitter.sol\":5371:5389  owner = msg.sender */\n  0x0100\n  exp\n  dup2\n  sload\n  dup2\n  0xffffffffffffffffffffffffffffffffffffffff\n  mul\n  not\n  and\n  swap1\n  dup4\n  0xffffffffffffffffffffffffffffffffffffffff\n  and\n  mul\n  or\n  swap1\n  sstore\n  pop\n    /* \"splitter.sol\":5408:5415  _payees */\n  dup3\n    /* \"splitter.sol\":5399:5405  payees */\n  0x00\n    /* \"splitter.sol\":5399:5415  payees = _payees */\n  swap1\n  dup1\n  mload\n  swap1\n  0x20\n  add\n  swap1\n  tag_15\n  swap3\n  swap2\n  swap1\n  tag_16\n  jump\t// in\ntag_15:\n  pop\n    /* \"splitter.sol\":5444:5461  _payeePercentages */\n  dup2\n    /* \"splitter.sol\":5425:5441  payeePercentages */\n  0x01\n    /* \"splitter.sol\":5425:5461  payeePercentages = _payeePercentages */\n  swap1\n  dup1\n  mload\n  swap1\n  0x20\n  add\n  swap1\n  tag_17\n  swap3\n  swap2\n  swap1\n  tag_18\n  jump\t// in\ntag_17:\n  pop\n    /* \"splitter.sol\":5486:5499  _tokenAddress */\n  dup1\n    /* \"splitter.sol\":5471:5483  tokenAddress */\n  0x03\n  0x00\n    /* \"splitter.sol\":5471:5499  tokenAddress = _tokenAddress */\n  0x0100\n  exp\n  dup2\n  sload\n  dup2\n  0xffffffffffffffffffffffffffffffffffffffff\n  mul\n  not\n  and\n  swap1\n  dup4\n  0xffffffffffffffffffffffffffffffffffffffff\n  and\n  mul\n  or\n  swap1\n  sstore\n  pop\n    /* \"splitter.sol\":5043:5506  constructor(address[] memory _payees, uint256[] memory _payeePercentages, address _tokenAddress) {... */\n  pop\n  pop\n  pop\n    /* \"splitter.sol\":4504:8112  contract AnyPaymentSplitter {... */\n  jump(tag_19)\ntag_16:\n  dup3\n  dup1\n  sload\n  dup3\n  dup3\n  sstore\n  swap1\n  0x00\n  mstore\n  keccak256(0x00, 0x20)\n  swap1\n  dup2\n  add\n  swap3\n  dup3\n  iszero\n  tag_20\n  jumpi\n  swap2\n  0x20\n  mul\n  dup3\n  add\ntag_21:\n  dup3\n  dup2\n  gt\n  iszero\n  tag_22\n  jumpi\n  dup3\n  mload\n  dup3\n  exp(0x0100, 0x00)\n  dup2\n  sload\n  dup2\n  0xffffffffffffffffffffffffffffffffffffffff\n  mul\n  not\n  and\n  swap1\n  dup4\n  0xffffffffffffffffffffffffffffffffffffffff\n  and\n  mul\n  or\n  swap1\n  sstore\n  pop\n  swap2\n  0x20\n  add\n  swap2\n  swap1\n  0x01\n  add\n  swap1\n  jump(tag_21)\ntag_22:\ntag_20:\n  pop\n  swap1\n  pop\n  tag_23\n  swap2\n  swap1\n  tag_24\n  jump\t// in\ntag_23:\n  pop\n  swap1\n  jump\t// out\ntag_18:\n  dup3\n  dup1\n  sload\n  dup3\n  dup3\n  sstore\n  swap1\n  0x00\n  mstore\n  keccak256(0x00, 0x20)\n  swap1\n  dup2\n  add\n  swap3\n  dup3\n  iszero\n  tag_25\n  jumpi\n  swap2\n  0x20\n  mul\n  dup3\n  add\ntag_26:\n  dup3\n  dup2\n  gt\n  iszero\n  tag_27\n  jumpi\n  dup3\n  mload\n  dup3\n  sstore\n  swap2\n  0x20\n  add\n  swap2\n  swap1\n  0x01\n  add\n  swap1\n  jump(tag_26)\ntag_27:\ntag_25:\n  pop\n  swap1\n  pop\n  tag_28\n  swap2\n  swap1\n  tag_24\n  jump\t// in\ntag_28:\n  pop\n  swap1\n  jump\t// out\ntag_24:\ntag_29:\n  dup1\n  dup3\n  gt\n  iszero\n  tag_30\n  jumpi\n  0x00\n  dup2\n  0x00\n  swap1\n  sstore\n  pop\n  0x01\n  add\n  jump(tag_29)\ntag_30:\n  pop\n  swap1\n  jump\t// out\n    /* \"#utility.yul\":7:82   */\ntag_31:\n    /* \"#utility.yul\":40:46   */\n  0x00\n    /* \"#utility.yul\":73:75   */\n  0x40\n    /* \"#utility.yul\":67:76   */\n  mload\n    /* \"#utility.yul\":57:76   */\n  swap1\n  pop\n    /* \"#utility.yul\":7:82   */\n  swap1\n  jump\t// out\n    /* \"#utility.yul\":88:205   */\ntag_32:\n    /* \"#utility.yul\":197:198   */\n  0x00\n    /* \"#utility.yul\":194:195   */\n  dup1\n    /* \"#utility.yul\":187:199   */\n  revert\n    /* \"#utility.yul\":211:328   */\ntag_33:\n    /* \"#utility.yul\":320:321   */\n  0x00\n    /* \"#utility.yul\":317:318   */\n  dup1\n    /* \"#utility.yul\":310:322   */\n  revert\n    /* \"#utility.yul\":334:451   */\ntag_34:\n    /* \"#utility.yul\":443:444   */\n  0x00\n    /* \"#utility.yul\":440:441   */\n  dup1\n    /* \"#utility.yul\":433:445   */\n  revert\n    /* \"#utility.yul\":457:559   */\ntag_35:\n    /* \"#utility.yul\":498:504   */\n  0x00\n    /* \"#utility.yul\":549:551   */\n  0x1f\n    /* \"#utility.yul\":545:552   */\n  not\n    /* \"#utility.yul\":540:542   */\n  0x1f\n    /* \"#utility.yul\":533:538   */\n  dup4\n    /* \"#utility.yul\":529:543   */\n  add\n    /* \"#utility.yul\":525:553   */\n  and\n    /* \"#utility.yul\":515:553   */\n  swap1\n  pop\n    /* \"#utility.yul\":457:559   */\n  swap2\n  swap1\n  pop\n  jump\t// out\n    /* \"#utility.yul\":565:745   */\ntag_36:\n    /* \"#utility.yul\":613:690   */\n  0x4e487b7100000000000000000000000000000000000000000000000000000000\n    /* \"#utility.yul\":610:611   */\n  0x00\n    /* \"#utility.yul\":603:691   */\n  mstore\n    /* \"#utility.yul\":710:714   */\n  0x41\n    /* \"#utility.yul\":707:708   */\n  0x04\n    /* \"#utility.yul\":700:715   */\n  mstore\n    /* \"#utility.yul\":734:738   */\n  0x24\n    /* \"#utility.yul\":731:732   */\n  0x00\n    /* \"#utility.yul\":724:739   */\n  revert\n    /* \"#utility.yul\":751:1032   */\ntag_37:\n    /* \"#utility.yul\":834:861   */\n  tag_68\n    /* \"#utility.yul\":856:860   */\n  dup3\n    /* \"#utility.yul\":834:861   */\n  tag_35\n  jump\t// in\ntag_68:\n    /* \"#utility.yul\":826:832   */\n  dup2\n    /* \"#utility.yul\":822:862   */\n  add\n    /* \"#utility.yul\":964:970   */\n  dup2\n    /* \"#utility.yul\":952:962   */\n  dup2\n    /* \"#utility.yul\":949:971   */\n  lt\n    /* \"#utility.yul\":928:946   */\n  0xffffffffffffffff\n    /* \"#utility.yul\":916:926   */\n  dup3\n    /* \"#utility.yul\":913:947   */\n  gt\n    /* \"#utility.yul\":910:972   */\n  or\n    /* \"#utility.yul\":907:995   */\n  iszero\n  tag_69\n  jumpi\n    /* \"#utility.yul\":975:993   */\n  tag_70\n  tag_36\n  jump\t// in\ntag_70:\n    /* \"#utility.yul\":907:995   */\ntag_69:\n    /* \"#utility.yul\":1015:1025   */\n  dup1\n    /* \"#utility.yul\":1011:1013   */\n  0x40\n    /* \"#utility.yul\":1004:1026   */\n  mstore\n    /* \"#utility.yul\":794:1032   */\n  pop\n    /* \"#utility.yul\":751:1032   */\n  pop\n  pop\n  jump\t// out\n    /* \"#utility.yul\":1038:1167   */\ntag_38:\n    /* \"#utility.yul\":1072:1078   */\n  0x00\n    /* \"#utility.yul\":1099:1119   */\n  tag_72\n  tag_31\n  jump\t// in\ntag_72:\n    /* \"#utility.yul\":1089:1119   */\n  swap1\n  pop\n    /* \"#utility.yul\":1128:1161   */\n  tag_73\n    /* \"#utility.yul\":1156:1160   */\n  dup3\n    /* \"#utility.yul\":1148:1154   */\n  dup3\n    /* \"#utility.yul\":1128:1161   */\n  tag_37\n  jump\t// in\ntag_73:\n    /* \"#utility.yul\":1038:1167   */\n  swap2\n  swap1\n  pop\n  jump\t// out\n    /* \"#utility.yul\":1173:1484   */\ntag_39:\n    /* \"#utility.yul\":1250:1254   */\n  0x00\n    /* \"#utility.yul\":1340:1358   */\n  0xffffffffffffffff\n    /* \"#utility.yul\":1332:1338   */\n  dup3\n    /* \"#utility.yul\":1329:1359   */\n  gt\n    /* \"#utility.yul\":1326:1382   */\n  iszero\n  tag_75\n  jumpi\n    /* \"#utility.yul\":1362:1380   */\n  tag_76\n  tag_36\n  jump\t// in\ntag_76:\n    /* \"#utility.yul\":1326:1382   */\ntag_75:\n    /* \"#utility.yul\":1412:1416   */\n  0x20\n    /* \"#utility.yul\":1404:1410   */\n  dup3\n    /* \"#utility.yul\":1400:1417   */\n  mul\n    /* \"#utility.yul\":1392:1417   */\n  swap1\n  pop\n    /* \"#utility.yul\":1472:1476   */\n  0x20\n    /* \"#utility.yul\":1466:1470   */\n  dup2\n    /* \"#utility.yul\":1462:1477   */\n  add\n    /* \"#utility.yul\":1454:1477   */\n  swap1\n  pop\n    /* \"#utility.yul\":1173:1484   */\n  swap2\n  swap1\n  pop\n  jump\t// out\n    /* \"#utility.yul\":1490:1607   */\ntag_40:\n    /* \"#utility.yul\":1599:1600   */\n  0x00\n    /* \"#utility.yul\":1596:1597   */\n  dup1\n    /* \"#utility.yul\":1589:1601   */\n  revert\n    /* \"#utility.yul\":1613:1739   */\ntag_41:\n    /* \"#utility.yul\":1650:1657   */\n  0x00\n    /* \"#utility.yul\":1690:1732   */\n  0xffffffffffffffffffffffffffffffffffffffff\n    /* \"#utility.yul\":1683:1688   */\n  dup3\n    /* \"#utility.yul\":1679:1733   */\n  and\n    /* \"#utility.yul\":1668:1733   */\n  swap1\n  pop\n    /* \"#utility.yul\":1613:1739   */\n  swap2\n  swap1\n  pop\n  jump\t// out\n    /* \"#utility.yul\":1745:1841   */\ntag_42:\n    /* \"#utility.yul\":1782:1789   */\n  0x00\n    /* \"#utility.yul\":1811:1835   */\n  tag_80\n    /* \"#utility.yul\":1829:1834   */\n  dup3\n    /* \"#utility.yul\":1811:1835   */\n  tag_41\n  jump\t// in\ntag_80:\n    /* \"#utility.yul\":1800:1835   */\n  swap1\n  pop\n    /* \"#utility.yul\":1745:1841   */\n  swap2\n  swap1\n  pop\n  jump\t// out\n    /* \"#utility.yul\":1847:1969   */\ntag_43:\n    /* \"#utility.yul\":1920:1944   */\n  tag_82\n    /* \"#utility.yul\":1938:1943   */\n  dup2\n    /* \"#utility.yul\":1920:1944   */\n  tag_42\n  jump\t// in\ntag_82:\n    /* \"#utility.yul\":1913:1918   */\n  dup2\n    /* \"#utility.yul\":1910:1945   */\n  eq\n    /* \"#utility.yul\":1900:1963   */\n  tag_83\n  jumpi\n    /* \"#utility.yul\":1959:1960   */\n  0x00\n    /* \"#utility.yul\":1956:1957   */\n  dup1\n    /* \"#utility.yul\":1949:1961   */\n  revert\n    /* \"#utility.yul\":1900:1963   */\ntag_83:\n    /* \"#utility.yul\":1847:1969   */\n  pop\n  jump\t// out\n    /* \"#utility.yul\":1975:2118   */\ntag_44:\n    /* \"#utility.yul\":2032:2037   */\n  0x00\n    /* \"#utility.yul\":2063:2069   */\n  dup2\n    /* \"#utility.yul\":2057:2070   */\n  mload\n    /* \"#utility.yul\":2048:2070   */\n  swap1\n  pop\n    /* \"#utility.yul\":2079:2112   */\n  tag_85\n    /* \"#utility.yul\":2106:2111   */\n  dup2\n    /* \"#utility.yul\":2079:2112   */\n  tag_43\n  jump\t// in\ntag_85:\n    /* \"#utility.yul\":1975:2118   */\n  swap3\n  swap2\n  pop\n  pop\n  jump\t// out\n    /* \"#utility.yul\":2141:2873   */\ntag_45:\n    /* \"#utility.yul\":2248:2253   */\n  0x00\n    /* \"#utility.yul\":2273:2354   */\n  tag_87\n    /* \"#utility.yul\":2289:2353   */\n  tag_88\n    /* \"#utility.yul\":2346:2352   */\n  dup5\n    /* \"#utility.yul\":2289:2353   */\n  tag_39\n  jump\t// in\ntag_88:\n    /* \"#utility.yul\":2273:2354   */\n  tag_38\n  jump\t// in\ntag_87:\n    /* \"#utility.yul\":2264:2354   */\n  swap1\n  pop\n    /* \"#utility.yul\":2374:2379   */\n  dup1\n    /* \"#utility.yul\":2403:2409   */\n  dup4\n    /* \"#utility.yul\":2396:2401   */\n  dup3\n    /* \"#utility.yul\":2389:2410   */\n  mstore\n    /* \"#utility.yul\":2437:2441   */\n  0x20\n    /* \"#utility.yul\":2430:2435   */\n  dup3\n    /* \"#utility.yul\":2426:2442   */\n  add\n    /* \"#utility.yul\":2419:2442   */\n  swap1\n  pop\n    /* \"#utility.yul\":2490:2494   */\n  0x20\n    /* \"#utility.yul\":2482:2488   */\n  dup5\n    /* \"#utility.yul\":2478:2495   */\n  mul\n    /* \"#utility.yul\":2470:2476   */\n  dup4\n    /* \"#utility.yul\":2466:2496   */\n  add\n    /* \"#utility.yul\":2519:2522   */\n  dup6\n    /* \"#utility.yul\":2511:2517   */\n  dup2\n    /* \"#utility.yul\":2508:2523   */\n  gt\n    /* \"#utility.yul\":2505:2627   */\n  iszero\n  tag_89\n  jumpi\n    /* \"#utility.yul\":2538:2617   */\n  tag_90\n  tag_40\n  jump\t// in\ntag_90:\n    /* \"#utility.yul\":2505:2627   */\ntag_89:\n    /* \"#utility.yul\":2653:2659   */\n  dup4\n    /* \"#utility.yul\":2636:2867   */\ntag_91:\n    /* \"#utility.yul\":2670:2676   */\n  dup2\n    /* \"#utility.yul\":2665:2668   */\n  dup2\n    /* \"#utility.yul\":2662:2677   */\n  lt\n    /* \"#utility.yul\":2636:2867   */\n  iszero\n  tag_93\n  jumpi\n    /* \"#utility.yul\":2745:2748   */\n  dup1\n    /* \"#utility.yul\":2774:2822   */\n  tag_94\n    /* \"#utility.yul\":2818:2821   */\n  dup9\n    /* \"#utility.yul\":2806:2816   */\n  dup3\n    /* \"#utility.yul\":2774:2822   */\n  tag_44\n  jump\t// in\ntag_94:\n    /* \"#utility.yul\":2769:2772   */\n  dup5\n    /* \"#utility.yul\":2762:2823   */\n  mstore\n    /* \"#utility.yul\":2852:2856   */\n  0x20\n    /* \"#utility.yul\":2847:2850   */\n  dup5\n    /* \"#utility.yul\":2843:2857   */\n  add\n    /* \"#utility.yul\":2836:2857   */\n  swap4\n  pop\n    /* \"#utility.yul\":2712:2867   */\n  pop\n    /* \"#utility.yul\":2696:2700   */\n  0x20\n    /* \"#utility.yul\":2691:2694   */\n  dup2\n    /* \"#utility.yul\":2687:2701   */\n  add\n    /* \"#utility.yul\":2680:2701   */\n  swap1\n  pop\n    /* \"#utility.yul\":2636:2867   */\n  jump(tag_91)\ntag_93:\n    /* \"#utility.yul\":2640:2661   */\n  pop\n    /* \"#utility.yul\":2254:2873   */\n  pop\n  pop\n    /* \"#utility.yul\":2141:2873   */\n  swap4\n  swap3\n  pop\n  pop\n  pop\n  jump\t// out\n    /* \"#utility.yul\":2896:3281   */\ntag_46:\n    /* \"#utility.yul\":2978:2983   */\n  0x00\n    /* \"#utility.yul\":3027:3030   */\n  dup3\n    /* \"#utility.yul\":3020:3024   */\n  0x1f\n    /* \"#utility.yul\":3012:3018   */\n  dup4\n    /* \"#utility.yul\":3008:3025   */\n  add\n    /* \"#utility.yul\":3004:3031   */\n  slt\n    /* \"#utility.yul\":2994:3116   */\n  tag_96\n  jumpi\n    /* \"#utility.yul\":3035:3114   */\n  tag_97\n  tag_34\n  jump\t// in\ntag_97:\n    /* \"#utility.yul\":2994:3116   */\ntag_96:\n    /* \"#utility.yul\":3145:3151   */\n  dup2\n    /* \"#utility.yul\":3139:3152   */\n  mload\n    /* \"#utility.yul\":3170:3275   */\n  tag_98\n    /* \"#utility.yul\":3271:3274   */\n  dup5\n    /* \"#utility.yul\":3263:3269   */\n  dup3\n    /* \"#utility.yul\":3256:3260   */\n  0x20\n    /* \"#utility.yul\":3248:3254   */\n  dup7\n    /* \"#utility.yul\":3244:3261   */\n  add\n    /* \"#utility.yul\":3170:3275   */\n  tag_45\n  jump\t// in\ntag_98:\n    /* \"#utility.yul\":3161:3275   */\n  swap2\n  pop\n    /* \"#utility.yul\":2984:3281   */\n  pop\n    /* \"#utility.yul\":2896:3281   */\n  swap3\n  swap2\n  pop\n  pop\n  jump\t// out\n    /* \"#utility.yul\":3287:3598   */\ntag_47:\n    /* \"#utility.yul\":3364:3368   */\n  0x00\n    /* \"#utility.yul\":3454:3472   */\n  0xffffffffffffffff\n    /* \"#utility.yul\":3446:3452   */\n  dup3\n    /* \"#utility.yul\":3443:3473   */\n  gt\n    /* \"#utility.yul\":3440:3496   */\n  iszero\n  tag_100\n  jumpi\n    /* \"#utility.yul\":3476:3494   */\n  tag_101\n  tag_36\n  jump\t// in\ntag_101:\n    /* \"#utility.yul\":3440:3496   */\ntag_100:\n    /* \"#utility.yul\":3526:3530   */\n  0x20\n    /* \"#utility.yul\":3518:3524   */\n  dup3\n    /* \"#utility.yul\":3514:3531   */\n  mul\n    /* \"#utility.yul\":3506:3531   */\n  swap1\n  pop\n    /* \"#utility.yul\":3586:3590   */\n  0x20\n    /* \"#utility.yul\":3580:3584   */\n  dup2\n    /* \"#utility.yul\":3576:3591   */\n  add\n    /* \"#utility.yul\":3568:3591   */\n  swap1\n  pop\n    /* \"#utility.yul\":3287:3598   */\n  swap2\n  swap1\n  pop\n  jump\t// out\n    /* \"#utility.yul\":3604:3681   */\ntag_48:\n    /* \"#utility.yul\":3641:3648   */\n  0x00\n    /* \"#utility.yul\":3670:3675   */\n  dup2\n    /* \"#utility.yul\":3659:3675   */\n  swap1\n  pop\n    /* \"#utility.yul\":3604:3681   */\n  swap2\n  swap1\n  pop\n  jump\t// out\n    /* \"#utility.yul\":3687:3809   */\ntag_49:\n    /* \"#utility.yul\":3760:3784   */\n  tag_104\n    /* \"#utility.yul\":3778:3783   */\n  dup2\n    /* \"#utility.yul\":3760:3784   */\n  tag_48\n  jump\t// in\ntag_104:\n    /* \"#utility.yul\":3753:3758   */\n  dup2\n    /* \"#utility.yul\":3750:3785   */\n  eq\n    /* \"#utility.yul\":3740:3803   */\n  tag_105\n  jumpi\n    /* \"#utility.yul\":3799:3800   */\n  0x00\n    /* \"#utility.yul\":3796:3797   */\n  dup1\n    /* \"#utility.yul\":3789:3801   */\n  revert\n    /* \"#utility.yul\":3740:3803   */\ntag_105:\n    /* \"#utility.yul\":3687:3809   */\n  pop\n  jump\t// out\n    /* \"#utility.yul\":3815:3958   */\ntag_50:\n    /* \"#utility.yul\":3872:3877   */\n  0x00\n    /* \"#utility.yul\":3903:3909   */\n  dup2\n    /* \"#utility.yul\":3897:3910   */\n  mload\n    /* \"#utility.yul\":3888:3910   */\n  swap1\n  pop\n    /* \"#utility.yul\":3919:3952   */\n  tag_107\n    /* \"#utility.yul\":3946:3951   */\n  dup2\n    /* \"#utility.yul\":3919:3952   */\n  tag_49\n  jump\t// in\ntag_107:\n    /* \"#utility.yul\":3815:3958   */\n  swap3\n  swap2\n  pop\n  pop\n  jump\t// out\n    /* \"#utility.yul\":3981:4713   */\ntag_51:\n    /* \"#utility.yul\":4088:4093   */\n  0x00\n    /* \"#utility.yul\":4113:4194   */\n  tag_109\n    /* \"#utility.yul\":4129:4193   */\n  tag_110\n    /* \"#utility.yul\":4186:4192   */\n  dup5\n    /* \"#utility.yul\":4129:4193   */\n  tag_47\n  jump\t// in\ntag_110:\n    /* \"#utility.yul\":4113:4194   */\n  tag_38\n  jump\t// in\ntag_109:\n    /* \"#utility.yul\":4104:4194   */\n  swap1\n  pop\n    /* \"#utility.yul\":4214:4219   */\n  dup1\n    /* \"#utility.yul\":4243:4249   */\n  dup4\n    /* \"#utility.yul\":4236:4241   */\n  dup3\n    /* \"#utility.yul\":4229:4250   */\n  mstore\n    /* \"#utility.yul\":4277:4281   */\n  0x20\n    /* \"#utility.yul\":4270:4275   */\n  dup3\n    /* \"#utility.yul\":4266:4282   */\n  add\n    /* \"#utility.yul\":4259:4282   */\n  swap1\n  pop\n    /* \"#utility.yul\":4330:4334   */\n  0x20\n    /* \"#utility.yul\":4322:4328   */\n  dup5\n    /* \"#utility.yul\":4318:4335   */\n  mul\n    /* \"#utility.yul\":4310:4316   */\n  dup4\n    /* \"#utility.yul\":4306:4336   */\n  add\n    /* \"#utility.yul\":4359:4362   */\n  dup6\n    /* \"#utility.yul\":4351:4357   */\n  dup2\n    /* \"#utility.yul\":4348:4363   */\n  gt\n    /* \"#utility.yul\":4345:4467   */\n  iszero\n  tag_111\n  jumpi\n    /* \"#utility.yul\":4378:4457   */\n  tag_112\n  tag_40\n  jump\t// in\ntag_112:\n    /* \"#utility.yul\":4345:4467   */\ntag_111:\n    /* \"#utility.yul\":4493:4499   */\n  dup4\n    /* \"#utility.yul\":4476:4707   */\ntag_113:\n    /* \"#utility.yul\":4510:4516   */\n  dup2\n    /* \"#utility.yul\":4505:4508   */\n  dup2\n    /* \"#utility.yul\":4502:4517   */\n  lt\n    /* \"#utility.yul\":4476:4707   */\n  iszero\n  tag_115\n  jumpi\n    /* \"#utility.yul\":4585:4588   */\n  dup1\n    /* \"#utility.yul\":4614:4662   */\n  tag_116\n    /* \"#utility.yul\":4658:4661   */\n  dup9\n    /* \"#utility.yul\":4646:4656   */\n  dup3\n    /* \"#utility.yul\":4614:4662   */\n  tag_50\n  jump\t// in\ntag_116:\n    /* \"#utility.yul\":4609:4612   */\n  dup5\n    /* \"#utility.yul\":4602:4663   */\n  mstore\n    /* \"#utility.yul\":4692:4696   */\n  0x20\n    /* \"#utility.yul\":4687:4690   */\n  dup5\n    /* \"#utility.yul\":4683:4697   */\n  add\n    /* \"#utility.yul\":4676:4697   */\n  swap4\n  pop\n    /* \"#utility.yul\":4552:4707   */\n  pop\n    /* \"#utility.yul\":4536:4540   */\n  0x20\n    /* \"#utility.yul\":4531:4534   */\n  dup2\n    /* \"#utility.yul\":4527:4541   */\n  add\n    /* \"#utility.yul\":4520:4541   */\n  swap1\n  pop\n    /* \"#utility.yul\":4476:4707   */\n  jump(tag_113)\ntag_115:\n    /* \"#utility.yul\":4480:4501   */\n  pop\n    /* \"#utility.yul\":4094:4713   */\n  pop\n  pop\n    /* \"#utility.yul\":3981:4713   */\n  swap4\n  swap3\n  pop\n  pop\n  pop\n  jump\t// out\n    /* \"#utility.yul\":4736:5121   */\ntag_52:\n    /* \"#utility.yul\":4818:4823   */\n  0x00\n    /* \"#utility.yul\":4867:4870   */\n  dup3\n    /* \"#utility.yul\":4860:4864   */\n  0x1f\n    /* \"#utility.yul\":4852:4858   */\n  dup4\n    /* \"#utility.yul\":4848:4865   */\n  add\n    /* \"#utility.yul\":4844:4871   */\n  slt\n    /* \"#utility.yul\":4834:4956   */\n  tag_118\n  jumpi\n    /* \"#utility.yul\":4875:4954   */\n  tag_119\n  tag_34\n  jump\t// in\ntag_119:\n    /* \"#utility.yul\":4834:4956   */\ntag_118:\n    /* \"#utility.yul\":4985:4991   */\n  dup2\n    /* \"#utility.yul\":4979:4992   */\n  mload\n    /* \"#utility.yul\":5010:5115   */\n  tag_120\n    /* \"#utility.yul\":5111:5114   */\n  dup5\n    /* \"#utility.yul\":5103:5109   */\n  dup3\n    /* \"#utility.yul\":5096:5100   */\n  0x20\n    /* \"#utility.yul\":5088:5094   */\n  dup7\n    /* \"#utility.yul\":5084:5101   */\n  add\n    /* \"#utility.yul\":5010:5115   */\n  tag_51\n  jump\t// in\ntag_120:\n    /* \"#utility.yul\":5001:5115   */\n  swap2\n  pop\n    /* \"#utility.yul\":4824:5121   */\n  pop\n    /* \"#utility.yul\":4736:5121   */\n  swap3\n  swap2\n  pop\n  pop\n  jump\t// out\n    /* \"#utility.yul\":5127:6196   */\ntag_3:\n    /* \"#utility.yul\":5265:5271   */\n  0x00\n    /* \"#utility.yul\":5273:5279   */\n  dup1\n    /* \"#utility.yul\":5281:5287   */\n  0x00\n    /* \"#utility.yul\":5330:5332   */\n  0x60\n    /* \"#utility.yul\":5318:5327   */\n  dup5\n    /* \"#utility.yul\":5309:5316   */\n  dup7\n    /* \"#utility.yul\":5305:5328   */\n  sub\n    /* \"#utility.yul\":5301:5333   */\n  slt\n    /* \"#utility.yul\":5298:5417   */\n  iszero\n  tag_122\n  jumpi\n    /* \"#utility.yul\":5336:5415   */\n  tag_123\n  tag_32\n  jump\t// in\ntag_123:\n    /* \"#utility.yul\":5298:5417   */\ntag_122:\n    /* \"#utility.yul\":5477:5478   */\n  0x00\n    /* \"#utility.yul\":5466:5475   */\n  dup5\n    /* \"#utility.yul\":5462:5479   */\n  add\n    /* \"#utility.yul\":5456:5480   */\n  mload\n    /* \"#utility.yul\":5507:5525   */\n  0xffffffffffffffff\n    /* \"#utility.yul\":5499:5505   */\n  dup2\n    /* \"#utility.yul\":5496:5526   */\n  gt\n    /* \"#utility.yul\":5493:5610   */\n  iszero\n  tag_124\n  jumpi\n    /* \"#utility.yul\":5529:5608   */\n  tag_125\n  tag_33\n  jump\t// in\ntag_125:\n    /* \"#utility.yul\":5493:5610   */\ntag_124:\n    /* \"#utility.yul\":5634:5723   */\n  tag_126\n    /* \"#utility.yul\":5715:5722   */\n  dup7\n    /* \"#utility.yul\":5706:5712   */\n  dup3\n    /* \"#utility.yul\":5695:5704   */\n  dup8\n    /* \"#utility.yul\":5691:5713   */\n  add\n    /* \"#utility.yul\":5634:5723   */\n  tag_46\n  jump\t// in\ntag_126:\n    /* \"#utility.yul\":5624:5723   */\n  swap4\n  pop\n    /* \"#utility.yul\":5427:5733   */\n  pop\n    /* \"#utility.yul\":5793:5795   */\n  0x20\n    /* \"#utility.yul\":5782:5791   */\n  dup5\n    /* \"#utility.yul\":5778:5796   */\n  add\n    /* \"#utility.yul\":5772:5797   */\n  mload\n    /* \"#utility.yul\":5824:5842   */\n  0xffffffffffffffff\n    /* \"#utility.yul\":5816:5822   */\n  dup2\n    /* \"#utility.yul\":5813:5843   */\n  gt\n    /* \"#utility.yul\":5810:5927   */\n  iszero\n  tag_127\n  jumpi\n    /* \"#utility.yul\":5846:5925   */\n  tag_128\n  tag_33\n  jump\t// in\ntag_128:\n    /* \"#utility.yul\":5810:5927   */\ntag_127:\n    /* \"#utility.yul\":5951:6040   */\n  tag_129\n    /* \"#utility.yul\":6032:6039   */\n  dup7\n    /* \"#utility.yul\":6023:6029   */\n  dup3\n    /* \"#utility.yul\":6012:6021   */\n  dup8\n    /* \"#utility.yul\":6008:6030   */\n  add\n    /* \"#utility.yul\":5951:6040   */\n  tag_52\n  jump\t// in\ntag_129:\n    /* \"#utility.yul\":5941:6040   */\n  swap3\n  pop\n    /* \"#utility.yul\":5743:6050   */\n  pop\n    /* \"#utility.yul\":6089:6091   */\n  0x40\n    /* \"#utility.yul\":6115:6179   */\n  tag_130\n    /* \"#utility.yul\":6171:6178   */\n  dup7\n    /* \"#utility.yul\":6162:6168   */\n  dup3\n    /* \"#utility.yul\":6151:6160   */\n  dup8\n    /* \"#utility.yul\":6147:6169   */\n  add\n    /* \"#utility.yul\":6115:6179   */\n  tag_44\n  jump\t// in\ntag_130:\n    /* \"#utility.yul\":6105:6179   */\n  swap2\n  pop\n    /* \"#utility.yul\":6060:6189   */\n  pop\n    /* \"#utility.yul\":5127:6196   */\n  swap3\n  pop\n  swap3\n  pop\n  swap3\n  jump\t// out\n    /* \"#utility.yul\":6202:6371   */\ntag_53:\n    /* \"#utility.yul\":6286:6297   */\n  0x00\n    /* \"#utility.yul\":6320:6326   */\n  dup3\n    /* \"#utility.yul\":6315:6318   */\n  dup3\n    /* \"#utility.yul\":6308:6327   */\n  mstore\n    /* \"#utility.yul\":6360:6364   */\n  0x20\n    /* \"#utility.yul\":6355:6358   */\n  dup3\n    /* \"#utility.yul\":6351:6365   */\n  add\n    /* \"#utility.yul\":6336:6365   */\n  swap1\n  pop\n    /* \"#utility.yul\":6202:6371   */\n  swap3\n  swap2\n  pop\n  pop\n  jump\t// out\n    /* \"#utility.yul\":6377:6545   */\ntag_54:\n    /* \"#utility.yul\":6517:6537   */\n  0x4e6f207061796565732070726f76696465640000000000000000000000000000\n    /* \"#utility.yul\":6513:6514   */\n  0x00\n    /* \"#utility.yul\":6505:6511   */\n  dup3\n    /* \"#utility.yul\":6501:6515   */\n  add\n    /* \"#utility.yul\":6494:6538   */\n  mstore\n    /* \"#utility.yul\":6377:6545   */\n  pop\n  jump\t// out\n    /* \"#utility.yul\":6551:6917   */\ntag_55:\n    /* \"#utility.yul\":6693:6696   */\n  0x00\n    /* \"#utility.yul\":6714:6781   */\n  tag_134\n    /* \"#utility.yul\":6778:6780   */\n  0x12\n    /* \"#utility.yul\":6773:6776   */\n  dup4\n    /* \"#utility.yul\":6714:6781   */\n  tag_53\n  jump\t// in\ntag_134:\n    /* \"#utility.yul\":6707:6781   */\n  swap2\n  pop\n    /* \"#utility.yul\":6790:6883   */\n  tag_135\n    /* \"#utility.yul\":6879:6882   */\n  dup3\n    /* \"#utility.yul\":6790:6883   */\n  tag_54\n  jump\t// in\ntag_135:\n    /* \"#utility.yul\":6908:6910   */\n  0x20\n    /* \"#utility.yul\":6903:6906   */\n  dup3\n    /* \"#utility.yul\":6899:6911   */\n  add\n    /* \"#utility.yul\":6892:6911   */\n  swap1\n  pop\n    /* \"#utility.yul\":6551:6917   */\n  swap2\n  swap1\n  pop\n  jump\t// out\n    /* \"#utility.yul\":6923:7342   */\ntag_8:\n    /* \"#utility.yul\":7089:7093   */\n  0x00\n    /* \"#utility.yul\":7127:7129   */\n  0x20\n    /* \"#utility.yul\":7116:7125   */\n  dup3\n    /* \"#utility.yul\":7112:7130   */\n  add\n    /* \"#utility.yul\":7104:7130   */\n  swap1\n  pop\n    /* \"#utility.yul\":7176:7185   */\n  dup2\n    /* \"#utility.yul\":7170:7174   */\n  dup2\n    /* \"#utility.yul\":7166:7186   */\n  sub\n    /* \"#utility.yul\":7162:7163   */\n  0x00\n    /* \"#utility.yul\":7151:7160   */\n  dup4\n    /* \"#utility.yul\":7147:7164   */\n  add\n    /* \"#utility.yul\":7140:7187   */\n  mstore\n    /* \"#utility.yul\":7204:7335   */\n  tag_137\n    /* \"#utility.yul\":7330:7334   */\n  dup2\n    /* \"#utility.yul\":7204:7335   */\n  tag_55\n  jump\t// in\ntag_137:\n    /* \"#utility.yul\":7196:7335   */\n  swap1\n  pop\n    /* \"#utility.yul\":6923:7342   */\n  swap2\n  swap1\n  pop\n  jump\t// out\n    /* \"#utility.yul\":7348:7523   */\ntag_56:\n    /* \"#utility.yul\":7488:7515   */\n  0x496e76616c69642070617965652070657263656e746167657300000000000000\n    /* \"#utility.yul\":7484:7485   */\n  0x00\n    /* \"#utility.yul\":7476:7482   */\n  dup3\n    /* \"#utility.yul\":7472:7486   */\n  add\n    /* \"#utility.yul\":7465:7516   */\n  mstore\n    /* \"#utility.yul\":7348:7523   */\n  pop\n  jump\t// out\n    /* \"#utility.yul\":7529:7895   */\ntag_57:\n    /* \"#utility.yul\":7671:7674   */\n  0x00\n    /* \"#utility.yul\":7692:7759   */\n  tag_140\n    /* \"#utility.yul\":7756:7758   */\n  0x19\n    /* \"#utility.yul\":7751:7754   */\n  dup4\n    /* \"#utility.yul\":7692:7759   */\n  tag_53\n  jump\t// in\ntag_140:\n    /* \"#utility.yul\":7685:7759   */\n  swap2\n  pop\n    /* \"#utility.yul\":7768:7861   */\n  tag_141\n    /* \"#utility.yul\":7857:7860   */\n  dup3\n    /* \"#utility.yul\":7768:7861   */\n  tag_56\n  jump\t// in\ntag_141:\n    /* \"#utility.yul\":7886:7888   */\n  0x20\n    /* \"#utility.yul\":7881:7884   */\n  dup3\n    /* \"#utility.yul\":7877:7889   */\n  add\n    /* \"#utility.yul\":7870:7889   */\n  swap1\n  pop\n    /* \"#utility.yul\":7529:7895   */\n  swap2\n  swap1\n  pop\n  jump\t// out\n    /* \"#utility.yul\":7901:8320   */\ntag_11:\n    /* \"#utility.yul\":8067:8071   */\n  0x00\n    /* \"#utility.yul\":8105:8107   */\n  0x20\n    /* \"#utility.yul\":8094:8103   */\n  dup3\n    /* \"#utility.yul\":8090:8108   */\n  add\n    /* \"#utility.yul\":8082:8108   */\n  swap1\n  pop\n    /* \"#utility.yul\":8154:8163   */\n  dup2\n    /* \"#utility.yul\":8148:8152   */\n  dup2\n    /* \"#utility.yul\":8144:8164   */\n  sub\n    /* \"#utility.yul\":8140:8141   */\n  0x00\n    /* \"#utility.yul\":8129:8138   */\n  dup4\n    /* \"#utility.yul\":8125:8142   */\n  add\n    /* \"#utility.yul\":8118:8165   */\n  mstore\n    /* \"#utility.yul\":8182:8313   */\n  tag_143\n    /* \"#utility.yul\":8308:8312   */\n  dup2\n    /* \"#utility.yul\":8182:8313   */\n  tag_57\n  jump\t// in\ntag_143:\n    /* \"#utility.yul\":8174:8313   */\n  swap1\n  pop\n    /* \"#utility.yul\":7901:8320   */\n  swap2\n  swap1\n  pop\n  jump\t// out\n    /* \"#utility.yul\":8326:8497   */\ntag_58:\n    /* \"#utility.yul\":8466:8489   */\n  0x496e76616c696420746f6b656e20616464726573730000000000000000000000\n    /* \"#utility.yul\":8462:8463   */\n  0x00\n    /* \"#utility.yul\":8454:8460   */\n  dup3\n    /* \"#utility.yul\":8450:8464   */\n  add\n    /* \"#utility.yul\":8443:8490   */\n  mstore\n    /* \"#utility.yul\":8326:8497   */\n  pop\n  jump\t// out\n    /* \"#utility.yul\":8503:8869   */\ntag_59:\n    /* \"#utility.yul\":8645:8648   */\n  0x00\n    /* \"#utility.yul\":8666:8733   */\n  tag_146\n    /* \"#utility.yul\":8730:8732   */\n  0x15\n    /* \"#utility.yul\":8725:8728   */\n  dup4\n    /* \"#utility.yul\":8666:8733   */\n  tag_53\n  jump\t// in\ntag_146:\n    /* \"#utility.yul\":8659:8733   */\n  swap2\n  pop\n    /* \"#utility.yul\":8742:8835   */\n  tag_147\n    /* \"#utility.yul\":8831:8834   */\n  dup3\n    /* \"#utility.yul\":8742:8835   */\n  tag_58\n  jump\t// in\ntag_147:\n    /* \"#utility.yul\":8860:8862   */\n  0x20\n    /* \"#utility.yul\":8855:8858   */\n  dup3\n    /* \"#utility.yul\":8851:8863   */\n  add\n    /* \"#utility.yul\":8844:8863   */\n  swap1\n  pop\n    /* \"#utility.yul\":8503:8869   */\n  swap2\n  swap1\n  pop\n  jump\t// out\n    /* \"#utility.yul\":8875:9294   */\ntag_14:\n    /* \"#utility.yul\":9041:9045   */\n  0x00\n    /* \"#utility.yul\":9079:9081   */\n  0x20\n    /* \"#utility.yul\":9068:9077   */\n  dup3\n    /* \"#utility.yul\":9064:9082   */\n  add\n    /* \"#utility.yul\":9056:9082   */\n  swap1\n  pop\n    /* \"#utility.yul\":9128:9137   */\n  dup2\n    /* \"#utility.yul\":9122:9126   */\n  dup2\n    /* \"#utility.yul\":9118:9138   */\n  sub\n    /* \"#utility.yul\":9114:9115   */\n  0x00\n    /* \"#utility.yul\":9103:9112   */\n  dup4\n    /* \"#utility.yul\":9099:9116   */\n  add\n    /* \"#utility.yul\":9092:9139   */\n  mstore\n    /* \"#utility.yul\":9156:9287   */\n  tag_149\n    /* \"#utility.yul\":9282:9286   */\n  dup2\n    /* \"#utility.yul\":9156:9287   */\n  tag_59\n  jump\t// in\ntag_149:\n    /* \"#utility.yul\":9148:9287   */\n  swap1\n  pop\n    /* \"#utility.yul\":8875:9294   */\n  swap2\n  swap1\n  pop\n  jump\t// out\n    /* \"splitter.sol\":4504:8112  contract AnyPaymentSplitter {... */\ntag_19:\n  dataSize(sub_0)\n  dup1\n  dataOffset(sub_0)\n  0x00\n  codecopy\n  0x00\n  return\nstop\n\nsub_0: assembly {\n        /* \"splitter.sol\":4504:8112  contract AnyPaymentSplitter {... */\n      mstore(0x40, 0x80)\n      callvalue\n      dup1\n      iszero\n      tag_1\n      jumpi\n      0x00\n      dup1\n      revert\n    tag_1:\n      pop\n      jumpi(tag_2, lt(calldatasize, 0x04))\n      shr(0xe0, calldataload(0x00))\n      dup1\n      0x8f63458c\n      gt\n      tag_14\n      jumpi\n      dup1\n      0x8f63458c\n      eq\n      tag_8\n      jumpi\n      dup1\n      0x9d76ea58\n      eq\n      tag_9\n      jumpi\n      dup1\n      0xc9cda91f\n      eq\n      tag_10\n      jumpi\n      dup1\n      0xd9215050\n      eq\n      tag_11\n      jumpi\n      dup1\n      0xe4fc6b6d\n      eq\n      tag_12\n      jumpi\n      dup1\n      0xf2fde38b\n      eq\n      tag_13\n      jumpi\n      jump(tag_2)\n    tag_14:\n      dup1\n      0x2b29af7f\n      eq\n      tag_3\n      jumpi\n      dup1\n      0x63037b0c\n      eq\n      tag_4\n      jumpi\n      dup1\n      0x82b2e257\n      eq\n      tag_5\n      jumpi\n      dup1\n      0x8d8f2adb\n      eq\n      tag_6\n      jumpi\n      dup1\n      0x8da5cb5b\n      eq\n      tag_7\n      jumpi\n    tag_2:\n      0x00\n      dup1\n      revert\n        /* \"splitter.sol\":4600:4633  uint256[] public payeePercentages */\n    tag_3:\n      tag_15\n      0x04\n      dup1\n      calldatasize\n      sub\n      dup2\n      add\n      swap1\n      tag_16\n      swap2\n      swap1\n      tag_17\n      jump\t// in\n    tag_16:\n      tag_18\n      jump\t// in\n    tag_15:\n      mload(0x40)\n      tag_19\n      swap2\n      swap1\n      tag_20\n      jump\t// in\n    tag_19:\n      mload(0x40)\n      dup1\n      swap2\n      sub\n      swap1\n      return\n        /* \"splitter.sol\":4571:4594  address[] public payees */\n    tag_4:\n      tag_21\n      0x04\n      dup1\n      calldatasize\n      sub\n      dup2\n      add\n      swap1\n      tag_22\n      swap2\n      swap1\n      tag_17\n      jump\t// in\n    tag_22:\n      tag_23\n      jump\t// in\n    tag_21:\n      mload(0x40)\n      tag_24\n      swap2\n      swap1\n      tag_25\n      jump\t// in\n    tag_24:\n      mload(0x40)\n      dup1\n      swap2\n      sub\n      swap1\n      return\n        /* \"splitter.sol\":7914:8110  function getTokenBalance() public view returns (uint256) {... */\n    tag_5:\n      tag_26\n      tag_27\n      jump\t// in\n    tag_26:\n      mload(0x40)\n      tag_28\n      swap2\n      swap1\n      tag_20\n      jump\t// in\n    tag_28:\n      mload(0x40)\n      dup1\n      swap2\n      sub\n      swap1\n      return\n        /* \"splitter.sol\":6678:6999  function withdrawTokens() public onlyOwner {... */\n    tag_6:\n      tag_29\n      tag_30\n      jump\t// in\n    tag_29:\n      stop\n        /* \"splitter.sol\":4639:4659  address public owner */\n    tag_7:\n      tag_31\n      tag_32\n      jump\t// in\n    tag_31:\n      mload(0x40)\n      tag_33\n      swap2\n      swap1\n      tag_25\n      jump\t// in\n    tag_33:\n      mload(0x40)\n      dup1\n      swap2\n      sub\n      swap1\n      return\n        /* \"splitter.sol\":7468:7908  function recoverLostFunds(address tokenToRecover, uint256 amount) public onlyOwner {... */\n    tag_8:\n      tag_34\n      0x04\n      dup1\n      calldatasize\n      sub\n      dup2\n      add\n      swap1\n      tag_35\n      swap2\n      swap1\n      tag_36\n      jump\t// in\n    tag_35:\n      tag_37\n      jump\t// in\n    tag_34:\n      stop\n        /* \"splitter.sol\":4665:4692  address public tokenAddress */\n    tag_9:\n      tag_38\n      tag_39\n      jump\t// in\n    tag_38:\n      mload(0x40)\n      tag_40\n      swap2\n      swap1\n      tag_25\n      jump\t// in\n    tag_40:\n      mload(0x40)\n      dup1\n      swap2\n      sub\n      swap1\n      return\n        /* \"splitter.sol\":7005:7246  function changeTokenAddress(address newTokenAddress) public onlyOwner {... */\n    tag_10:\n      tag_41\n      0x04\n      dup1\n      calldatasize\n      sub\n      dup2\n      add\n      swap1\n      tag_42\n      swap2\n      swap1\n      tag_43\n      jump\t// in\n    tag_42:\n      tag_44\n      jump\t// in\n    tag_41:\n      stop\n        /* \"splitter.sol\":6286:6672  function updatePayees(address[] memory _payees, uint256[] memory _payeePercentages) public onlyOwner {... */\n    tag_11:\n      tag_45\n      0x04\n      dup1\n      calldatasize\n      sub\n      dup2\n      add\n      swap1\n      tag_46\n      swap2\n      swap1\n      tag_47\n      jump\t// in\n    tag_46:\n      tag_48\n      jump\t// in\n    tag_45:\n      stop\n        /* \"splitter.sol\":5512:6280  function distribute() external {... */\n    tag_12:\n      tag_49\n      tag_50\n      jump\t// in\n    tag_49:\n      stop\n        /* \"splitter.sol\":7252:7462  function transferOwnership(address newOwner) public onlyOwner {... */\n    tag_13:\n      tag_51\n      0x04\n      dup1\n      calldatasize\n      sub\n      dup2\n      add\n      swap1\n      tag_52\n      swap2\n      swap1\n      tag_43\n      jump\t// in\n    tag_52:\n      tag_53\n      jump\t// in\n    tag_51:\n      stop\n        /* \"splitter.sol\":4600:4633  uint256[] public payeePercentages */\n    tag_18:\n      0x01\n      dup2\n      dup2\n      sload\n      dup2\n      lt\n      tag_54\n      jumpi\n      0x00\n      dup1\n      revert\n    tag_54:\n      swap1\n      0x00\n      mstore\n      keccak256(0x00, 0x20)\n      add\n      0x00\n      swap2\n      pop\n      swap1\n      pop\n      sload\n      dup2\n      jump\t// out\n        /* \"splitter.sol\":4571:4594  address[] public payees */\n    tag_23:\n      0x00\n      dup2\n      dup2\n      sload\n      dup2\n      lt\n      tag_56\n      jumpi\n      0x00\n      dup1\n      revert\n    tag_56:\n      swap1\n      0x00\n      mstore\n      keccak256(0x00, 0x20)\n      add\n      0x00\n      swap2\n      pop\n      sload\n      swap1\n      0x0100\n      exp\n      swap1\n      div\n      0xffffffffffffffffffffffffffffffffffffffff\n      and\n      dup2\n      jump\t// out\n        /* \"splitter.sol\":7914:8110  function getTokenBalance() public view returns (uint256) {... */\n    tag_27:\n        /* \"splitter.sol\":7962:7969  uint256 */\n      0x00\n        /* \"splitter.sol\":8013:8014  0 */\n      dup1\n        /* \"splitter.sol\":7989:8015  tokenAddress != address(0) */\n      0xffffffffffffffffffffffffffffffffffffffff\n      and\n        /* \"splitter.sol\":7989:8001  tokenAddress */\n      0x03\n      0x00\n      swap1\n      sload\n      swap1\n      0x0100\n      exp\n      swap1\n      div\n      0xffffffffffffffffffffffffffffffffffffffff\n      and\n        /* \"splitter.sol\":7989:8015  tokenAddress != address(0) */\n      0xffffffffffffffffffffffffffffffffffffffff\n      and\n      sub\n        /* \"splitter.sol\":7981:8041  require(tokenAddress != address(0), \"Token address not set\") */\n      tag_59\n      jumpi\n      mload(0x40)\n      0x08c379a000000000000000000000000000000000000000000000000000000000\n      dup2\n      mstore\n      0x04\n      add\n      tag_60\n      swap1\n      tag_61\n      jump\t// in\n    tag_60:\n      mload(0x40)\n      dup1\n      swap2\n      sub\n      swap1\n      revert\n    tag_59:\n        /* \"splitter.sol\":8065:8077  tokenAddress */\n      0x03\n      0x00\n      swap1\n      sload\n      swap1\n      0x0100\n      exp\n      swap1\n      div\n      0xffffffffffffffffffffffffffffffffffffffff\n      and\n        /* \"splitter.sol\":8058:8088  IERC20(tokenAddress).balanceOf */\n      0xffffffffffffffffffffffffffffffffffffffff\n      and\n      0x70a08231\n        /* \"splitter.sol\":8097:8101  this */\n      address\n        /* \"splitter.sol\":8058:8103  IERC20(tokenAddress).balanceOf(address(this)) */\n      mload(0x40)\n      dup3\n      0xffffffff\n      and\n      0xe0\n      shl\n      dup2\n      mstore\n      0x04\n      add\n      tag_62\n      swap2\n      swap1\n      tag_25\n      jump\t// in\n    tag_62:\n      0x20\n      mload(0x40)\n      dup1\n      dup4\n      sub\n      dup2\n      dup7\n      gas\n      staticcall\n      iszero\n      dup1\n      iszero\n      tag_64\n      jumpi\n      returndatasize\n      0x00\n      dup1\n      returndatacopy\n      revert(0x00, returndatasize)\n    tag_64:\n      pop\n      pop\n      pop\n      pop\n      mload(0x40)\n      returndatasize\n      not(0x1f)\n      0x1f\n      dup3\n      add\n      and\n      dup3\n      add\n      dup1\n      0x40\n      mstore\n      pop\n      dup2\n      add\n      swap1\n      tag_65\n      swap2\n      swap1\n      tag_66\n      jump\t// in\n    tag_65:\n        /* \"splitter.sol\":8051:8103  return IERC20(tokenAddress).balanceOf(address(this)) */\n      swap1\n      pop\n        /* \"splitter.sol\":7914:8110  function getTokenBalance() public view returns (uint256) {... */\n      swap1\n      jump\t// out\n        /* \"splitter.sol\":6678:6999  function withdrawTokens() public onlyOwner {... */\n    tag_30:\n        /* \"splitter.sol\":4987:4992  owner */\n      0x02\n      0x00\n      swap1\n      sload\n      swap1\n      0x0100\n      exp\n      swap1\n      div\n      0xffffffffffffffffffffffffffffffffffffffff\n      and\n        /* \"splitter.sol\":4973:4992  msg.sender == owner */\n      0xffffffffffffffffffffffffffffffffffffffff\n      and\n        /* \"splitter.sol\":4973:4983  msg.sender */\n      caller\n        /* \"splitter.sol\":4973:4992  msg.sender == owner */\n      0xffffffffffffffffffffffffffffffffffffffff\n      and\n      eq\n        /* \"splitter.sol\":4965:5019  require(msg.sender == owner, \"Not the contract owner\") */\n      tag_68\n      jumpi\n      mload(0x40)\n      0x08c379a000000000000000000000000000000000000000000000000000000000\n      dup2\n      mstore\n      0x04\n      add\n      tag_69\n      swap1\n      tag_70\n      jump\t// in\n    tag_69:\n      mload(0x40)\n      dup1\n      swap2\n      sub\n      swap1\n      revert\n    tag_68:\n        /* \"splitter.sol\":6763:6764  0 */\n      0x00\n        /* \"splitter.sol\":6739:6765  tokenAddress != address(0) */\n      0xffffffffffffffffffffffffffffffffffffffff\n      and\n        /* \"splitter.sol\":6739:6751  tokenAddress */\n      0x03\n      0x00\n      swap1\n      sload\n      swap1\n      0x0100\n      exp\n      swap1\n      div\n      0xffffffffffffffffffffffffffffffffffffffff\n      and\n        /* \"splitter.sol\":6739:6765  tokenAddress != address(0) */\n      0xffffffffffffffffffffffffffffffffffffffff\n      and\n      sub\n        /* \"splitter.sol\":6731:6791  require(tokenAddress != address(0), \"Token address not set\") */\n      tag_72\n      jumpi\n      mload(0x40)\n      0x08c379a000000000000000000000000000000000000000000000000000000000\n      dup2\n      mstore\n      0x04\n      add\n      tag_73\n      swap1\n      tag_61\n      jump\t// in\n    tag_73:\n      mload(0x40)\n      dup1\n      swap2\n      sub\n      swap1\n      revert\n    tag_72:\n        /* \"splitter.sol\":6802:6814  IERC20 token */\n      0x00\n        /* \"splitter.sol\":6824:6836  tokenAddress */\n      0x03\n      0x00\n      swap1\n      sload\n      swap1\n      0x0100\n      exp\n      swap1\n      div\n      0xffffffffffffffffffffffffffffffffffffffff\n      and\n        /* \"splitter.sol\":6802:6837  IERC20 token = IERC20(tokenAddress) */\n      swap1\n      pop\n        /* \"splitter.sol\":6847:6862  uint256 balance */\n      0x00\n        /* \"splitter.sol\":6865:6870  token */\n      dup2\n        /* \"splitter.sol\":6865:6880  token.balanceOf */\n      0xffffffffffffffffffffffffffffffffffffffff\n      and\n      0x70a08231\n        /* \"splitter.sol\":6889:6893  this */\n      address\n        /* \"splitter.sol\":6865:6895  token.balanceOf(address(this)) */\n      mload(0x40)\n      dup3\n      0xffffffff\n      and\n      0xe0\n      shl\n      dup2\n      mstore\n      0x04\n      add\n      tag_74\n      swap2\n      swap1\n      tag_25\n      jump\t// in\n    tag_74:\n      0x20\n      mload(0x40)\n      dup1\n      dup4\n      sub\n      dup2\n      dup7\n      gas\n      staticcall\n      iszero\n      dup1\n      iszero\n      tag_76\n      jumpi\n      returndatasize\n      0x00\n      dup1\n      returndatacopy\n      revert(0x00, returndatasize)\n    tag_76:\n      pop\n      pop\n      pop\n      pop\n      mload(0x40)\n      returndatasize\n      not(0x1f)\n      0x1f\n      dup3\n      add\n      and\n      dup3\n      add\n      dup1\n      0x40\n      mstore\n      pop\n      dup2\n      add\n      swap1\n      tag_77\n      swap2\n      swap1\n      tag_66\n      jump\t// in\n    tag_77:\n        /* \"splitter.sol\":6847:6895  uint256 balance = token.balanceOf(address(this)) */\n      swap1\n      pop\n        /* \"splitter.sol\":6924:6925  0 */\n      0x00\n        /* \"splitter.sol\":6914:6921  balance */\n      dup2\n        /* \"splitter.sol\":6914:6925  balance > 0 */\n      gt\n        /* \"splitter.sol\":6906:6951  require(balance > 0, \"No tokens to withdraw\") */\n      tag_78\n      jumpi\n      mload(0x40)\n      0x08c379a000000000000000000000000000000000000000000000000000000000\n      dup2\n      mstore\n      0x04\n      add\n      tag_79\n      swap1\n      tag_80\n      jump\t// in\n    tag_79:\n      mload(0x40)\n      dup1\n      swap2\n      sub\n      swap1\n      revert\n    tag_78:\n        /* \"splitter.sol\":6962:6967  token */\n      dup2\n        /* \"splitter.sol\":6962:6976  token.transfer */\n      0xffffffffffffffffffffffffffffffffffffffff\n      and\n      0xa9059cbb\n        /* \"splitter.sol\":6977:6982  owner */\n      0x02\n      0x00\n      swap1\n      sload\n      swap1\n      0x0100\n      exp\n      swap1\n      div\n      0xffffffffffffffffffffffffffffffffffffffff\n      and\n        /* \"splitter.sol\":6984:6991  balance */\n      dup4\n        /* \"splitter.sol\":6962:6992  token.transfer(owner, balance) */\n      mload(0x40)\n      dup4\n      0xffffffff\n      and\n      0xe0\n      shl\n      dup2\n      mstore\n      0x04\n      add\n      tag_81\n      swap3\n      swap2\n      swap1\n      tag_82\n      jump\t// in\n    tag_81:\n      0x20\n      mload(0x40)\n      dup1\n      dup4\n      sub\n      dup2\n      0x00\n      dup8\n      gas\n      call\n      iszero\n      dup1\n      iszero\n      tag_84\n      jumpi\n      returndatasize\n      0x00\n      dup1\n      returndatacopy\n      revert(0x00, returndatasize)\n    tag_84:\n      pop\n      pop\n      pop\n      pop\n      mload(0x40)\n      returndatasize\n      not(0x1f)\n      0x1f\n      dup3\n      add\n      and\n      dup3\n      add\n      dup1\n      0x40\n      mstore\n      pop\n      dup2\n      add\n      swap1\n      tag_85\n      swap2\n      swap1\n      tag_86\n      jump\t// in\n    tag_85:\n      pop\n        /* \"splitter.sol\":6721:6999  {... */\n      pop\n      pop\n        /* \"splitter.sol\":6678:6999  function withdrawTokens() public onlyOwner {... */\n      jump\t// out\n        /* \"splitter.sol\":4639:4659  address public owner */\n    tag_32:\n      0x02\n      0x00\n      swap1\n      sload\n      swap1\n      0x0100\n      exp\n      swap1\n      div\n      0xffffffffffffffffffffffffffffffffffffffff\n      and\n      dup2\n      jump\t// out\n        /* \"splitter.sol\":7468:7908  function recoverLostFunds(address tokenToRecover, uint256 amount) public onlyOwner {... */\n    tag_37:\n        /* \"splitter.sol\":4987:4992  owner */\n      0x02\n      0x00\n      swap1\n      sload\n      swap1\n      0x0100\n      exp\n      swap1\n      div\n      0xffffffffffffffffffffffffffffffffffffffff\n      and\n        /* \"splitter.sol\":4973:4992  msg.sender == owner */\n      0xffffffffffffffffffffffffffffffffffffffff\n      and\n        /* \"splitter.sol\":4973:4983  msg.sender */\n      caller\n        /* \"splitter.sol\":4973:4992  msg.sender == owner */\n      0xffffffffffffffffffffffffffffffffffffffff\n      and\n      eq\n        /* \"splitter.sol\":4965:5019  require(msg.sender == owner, \"Not the contract owner\") */\n      tag_88\n      jumpi\n      mload(0x40)\n      0x08c379a000000000000000000000000000000000000000000000000000000000\n      dup2\n      mstore\n      0x04\n      add\n      tag_89\n      swap1\n      tag_70\n      jump\t// in\n    tag_89:\n      mload(0x40)\n      dup1\n      swap2\n      sub\n      swap1\n      revert\n    tag_88:\n        /* \"splitter.sol\":7595:7596  0 */\n      0x00\n        /* \"splitter.sol\":7569:7597  tokenToRecover != address(0) */\n      0xffffffffffffffffffffffffffffffffffffffff\n      and\n        /* \"splitter.sol\":7569:7583  tokenToRecover */\n      dup3\n        /* \"splitter.sol\":7569:7597  tokenToRecover != address(0) */\n      0xffffffffffffffffffffffffffffffffffffffff\n      and\n      sub\n        /* \"splitter.sol\":7561:7623  require(tokenToRecover != address(0), \"Invalid token address\") */\n      tag_91\n      jumpi\n      mload(0x40)\n      0x08c379a000000000000000000000000000000000000000000000000000000000\n      dup2\n      mstore\n      0x04\n      add\n      tag_92\n      swap1\n      tag_93\n      jump\t// in\n    tag_92:\n      mload(0x40)\n      dup1\n      swap2\n      sub\n      swap1\n      revert\n    tag_91:\n        /* \"splitter.sol\":7650:7651  0 */\n      0x00\n        /* \"splitter.sol\":7641:7647  amount */\n      dup2\n        /* \"splitter.sol\":7641:7651  amount > 0 */\n      gt\n        /* \"splitter.sol\":7633:7670  require(amount > 0, \"Invalid amount\") */\n      tag_94\n      jumpi\n      mload(0x40)\n      0x08c379a000000000000000000000000000000000000000000000000000000000\n      dup2\n      mstore\n      0x04\n      add\n      tag_95\n      swap1\n      tag_96\n      jump\t// in\n    tag_95:\n      mload(0x40)\n      dup1\n      swap2\n      sub\n      swap1\n      revert\n    tag_94:\n        /* \"splitter.sol\":7711:7712  0 */\n      0x00\n        /* \"splitter.sol\":7685:7713  tokenToRecover == address(0) */\n      0xffffffffffffffffffffffffffffffffffffffff\n      and\n        /* \"splitter.sol\":7685:7699  tokenToRecover */\n      dup3\n        /* \"splitter.sol\":7685:7713  tokenToRecover == address(0) */\n      0xffffffffffffffffffffffffffffffffffffffff\n      and\n      sub\n        /* \"splitter.sol\":7681:7848  if (tokenToRecover == address(0)) {... */\n      tag_97\n      jumpi\n        /* \"splitter.sol\":7737:7742  owner */\n      0x02\n      0x00\n      swap1\n      sload\n      swap1\n      0x0100\n      exp\n      swap1\n      div\n      0xffffffffffffffffffffffffffffffffffffffff\n      and\n        /* \"splitter.sol\":7729:7752  payable(owner).transfer */\n      0xffffffffffffffffffffffffffffffffffffffff\n      and\n        /* \"splitter.sol\":7729:7760  payable(owner).transfer(amount) */\n      0x08fc\n        /* \"splitter.sol\":7753:7759  amount */\n      dup3\n        /* \"splitter.sol\":7729:7760  payable(owner).transfer(amount) */\n      swap1\n      dup2\n      iszero\n      mul\n      swap1\n      mload(0x40)\n      0x00\n      mload(0x40)\n      dup1\n      dup4\n      sub\n      dup2\n      dup6\n      dup9\n      dup9\n      call\n      swap4\n      pop\n      pop\n      pop\n      pop\n      iszero\n      dup1\n      iszero\n      tag_99\n      jumpi\n      returndatasize\n      0x00\n      dup1\n      returndatacopy\n      revert(0x00, returndatasize)\n    tag_99:\n      pop\n        /* \"splitter.sol\":7681:7848  if (tokenToRecover == address(0)) {... */\n      jump(tag_100)\n    tag_97:\n        /* \"splitter.sol\":7798:7812  tokenToRecover */\n      dup2\n        /* \"splitter.sol\":7791:7822  IERC20(tokenToRecover).transfer */\n      0xffffffffffffffffffffffffffffffffffffffff\n      and\n      0xa9059cbb\n        /* \"splitter.sol\":7823:7828  owner */\n      0x02\n      0x00\n      swap1\n      sload\n      swap1\n      0x0100\n      exp\n      swap1\n      div\n      0xffffffffffffffffffffffffffffffffffffffff\n      and\n        /* \"splitter.sol\":7830:7836  amount */\n      dup4\n        /* \"splitter.sol\":7791:7837  IERC20(tokenToRecover).transfer(owner, amount) */\n      mload(0x40)\n      dup4\n      0xffffffff\n      and\n      0xe0\n      shl\n      dup2\n      mstore\n      0x04\n      add\n      tag_101\n      swap3\n      swap2\n      swap1\n      tag_82\n      jump\t// in\n    tag_101:\n      0x20\n      mload(0x40)\n      dup1\n      dup4\n      sub\n      dup2\n      0x00\n      dup8\n      gas\n      call\n      iszero\n      dup1\n      iszero\n      tag_103\n      jumpi\n      returndatasize\n      0x00\n      dup1\n      returndatacopy\n      revert(0x00, returndatasize)\n    tag_103:\n      pop\n      pop\n      pop\n      pop\n      mload(0x40)\n      returndatasize\n      not(0x1f)\n      0x1f\n      dup3\n      add\n      and\n      dup3\n      add\n      dup1\n      0x40\n      mstore\n      pop\n      dup2\n      add\n      swap1\n      tag_104\n      swap2\n      swap1\n      tag_86\n      jump\t// in\n    tag_104:\n      pop\n        /* \"splitter.sol\":7681:7848  if (tokenToRecover == address(0)) {... */\n    tag_100:\n        /* \"splitter.sol\":7863:7901  FundsRecovered(tokenToRecover, amount) */\n      0x59bfc682b673f8cbf945f1e454df9334834abf7dfe7f92237ca29ecb9b436600\n        /* \"splitter.sol\":7878:7892  tokenToRecover */\n      dup3\n        /* \"splitter.sol\":7894:7900  amount */\n      dup3\n        /* \"splitter.sol\":7863:7901  FundsRecovered(tokenToRecover, amount) */\n      mload(0x40)\n      tag_105\n      swap3\n      swap2\n      swap1\n      tag_82\n      jump\t// in\n    tag_105:\n      mload(0x40)\n      dup1\n      swap2\n      sub\n      swap1\n      log1\n        /* \"splitter.sol\":7468:7908  function recoverLostFunds(address tokenToRecover, uint256 amount) public onlyOwner {... */\n      pop\n      pop\n      jump\t// out\n        /* \"splitter.sol\":4665:4692  address public tokenAddress */\n    tag_39:\n      0x03\n      0x00\n      swap1\n      sload\n      swap1\n      0x0100\n      exp\n      swap1\n      div\n      0xffffffffffffffffffffffffffffffffffffffff\n      and\n      dup2\n      jump\t// out\n        /* \"splitter.sol\":7005:7246  function changeTokenAddress(address newTokenAddress) public onlyOwner {... */\n    tag_44:\n        /* \"splitter.sol\":4987:4992  owner */\n      0x02\n      0x00\n      swap1\n      sload\n      swap1\n      0x0100\n      exp\n      swap1\n      div\n      0xffffffffffffffffffffffffffffffffffffffff\n      and\n        /* \"splitter.sol\":4973:4992  msg.sender == owner */\n      0xffffffffffffffffffffffffffffffffffffffff\n      and\n        /* \"splitter.sol\":4973:4983  msg.sender */\n      caller\n        /* \"splitter.sol\":4973:4992  msg.sender == owner */\n      0xffffffffffffffffffffffffffffffffffffffff\n      and\n      eq\n        /* \"splitter.sol\":4965:5019  require(msg.sender == owner, \"Not the contract owner\") */\n      tag_107\n      jumpi\n      mload(0x40)\n      0x08c379a000000000000000000000000000000000000000000000000000000000\n      dup2\n      mstore\n      0x04\n      add\n      tag_108\n      swap1\n      tag_70\n      jump\t// in\n    tag_108:\n      mload(0x40)\n      dup1\n      swap2\n      sub\n      swap1\n      revert\n    tag_107:\n        /* \"splitter.sol\":7120:7121  0 */\n      0x00\n        /* \"splitter.sol\":7093:7122  newTokenAddress != address(0) */\n      0xffffffffffffffffffffffffffffffffffffffff\n      and\n        /* \"splitter.sol\":7093:7108  newTokenAddress */\n      dup2\n        /* \"splitter.sol\":7093:7122  newTokenAddress != address(0) */\n      0xffffffffffffffffffffffffffffffffffffffff\n      and\n      sub\n        /* \"splitter.sol\":7085:7148  require(newTokenAddress != address(0), \"Invalid token address\") */\n      tag_110\n      jumpi\n      mload(0x40)\n      0x08c379a000000000000000000000000000000000000000000000000000000000\n      dup2\n      mstore\n      0x04\n      add\n      tag_111\n      swap1\n      tag_93\n      jump\t// in\n    tag_111:\n      mload(0x40)\n      dup1\n      swap2\n      sub\n      swap1\n      revert\n    tag_110:\n        /* \"splitter.sol\":7173:7188  newTokenAddress */\n      dup1\n        /* \"splitter.sol\":7158:7170  tokenAddress */\n      0x03\n      0x00\n        /* \"splitter.sol\":7158:7188  tokenAddress = newTokenAddress */\n      0x0100\n      exp\n      dup2\n      sload\n      dup2\n      0xffffffffffffffffffffffffffffffffffffffff\n      mul\n      not\n      and\n      swap1\n      dup4\n      0xffffffffffffffffffffffffffffffffffffffff\n      and\n      mul\n      or\n      swap1\n      sstore\n      pop\n        /* \"splitter.sol\":7203:7239  TokenAddressUpdated(newTokenAddress) */\n      0x2f0c7f17be551d1f4566672cd67adbe50173e96632f56ff80d80acc4ac00f328\n        /* \"splitter.sol\":7223:7238  newTokenAddress */\n      dup2\n        /* \"splitter.sol\":7203:7239  TokenAddressUpdated(newTokenAddress) */\n      mload(0x40)\n      tag_112\n      swap2\n      swap1\n      tag_25\n      jump\t// in\n    tag_112:\n      mload(0x40)\n      dup1\n      swap2\n      sub\n      swap1\n      log1\n        /* \"splitter.sol\":7005:7246  function changeTokenAddress(address newTokenAddress) public onlyOwner {... */\n      pop\n      jump\t// out\n        /* \"splitter.sol\":6286:6672  function updatePayees(address[] memory _payees, uint256[] memory _payeePercentages) public onlyOwner {... */\n    tag_48:\n        /* \"splitter.sol\":4987:4992  owner */\n      0x02\n      0x00\n      swap1\n      sload\n      swap1\n      0x0100\n      exp\n      swap1\n      div\n      0xffffffffffffffffffffffffffffffffffffffff\n      and\n        /* \"splitter.sol\":4973:4992  msg.sender == owner */\n      0xffffffffffffffffffffffffffffffffffffffff\n      and\n        /* \"splitter.sol\":4973:4983  msg.sender */\n      caller\n        /* \"splitter.sol\":4973:4992  msg.sender == owner */\n      0xffffffffffffffffffffffffffffffffffffffff\n      and\n      eq\n        /* \"splitter.sol\":4965:5019  require(msg.sender == owner, \"Not the contract owner\") */\n      tag_114\n      jumpi\n      mload(0x40)\n      0x08c379a000000000000000000000000000000000000000000000000000000000\n      dup2\n      mstore\n      0x04\n      add\n      tag_115\n      swap1\n      tag_70\n      jump\t// in\n    tag_115:\n      mload(0x40)\n      dup1\n      swap2\n      sub\n      swap1\n      revert\n    tag_114:\n        /* \"splitter.sol\":6422:6423  0 */\n      0x00\n        /* \"splitter.sol\":6405:6412  _payees */\n      dup3\n        /* \"splitter.sol\":6405:6419  _payees.length */\n      mload\n        /* \"splitter.sol\":6405:6423  _payees.length > 0 */\n      gt\n        /* \"splitter.sol\":6397:6446  require(_payees.length > 0, \"No payees provided\") */\n      tag_117\n      jumpi\n      mload(0x40)\n      0x08c379a000000000000000000000000000000000000000000000000000000000\n      dup2\n      mstore\n      0x04\n      add\n      tag_118\n      swap1\n      tag_119\n      jump\t// in\n    tag_118:\n      mload(0x40)\n      dup1\n      swap2\n      sub\n      swap1\n      revert\n    tag_117:\n        /* \"splitter.sol\":6482:6499  _payeePercentages */\n      dup1\n        /* \"splitter.sol\":6482:6506  _payeePercentages.length */\n      mload\n        /* \"splitter.sol\":6464:6471  _payees */\n      dup3\n        /* \"splitter.sol\":6464:6478  _payees.length */\n      mload\n        /* \"splitter.sol\":6464:6506  _payees.length == _payeePercentages.length */\n      eq\n        /* \"splitter.sol\":6456:6536  require(_payees.length == _payeePercentages.length, \"Invalid payee percentages\") */\n      tag_120\n      jumpi\n      mload(0x40)\n      0x08c379a000000000000000000000000000000000000000000000000000000000\n      dup2\n      mstore\n      0x04\n      add\n      tag_121\n      swap1\n      tag_122\n      jump\t// in\n    tag_121:\n      mload(0x40)\n      dup1\n      swap2\n      sub\n      swap1\n      revert\n    tag_120:\n        /* \"splitter.sol\":6556:6563  _payees */\n      dup2\n        /* \"splitter.sol\":6547:6553  payees */\n      0x00\n        /* \"splitter.sol\":6547:6563  payees = _payees */\n      swap1\n      dup1\n      mload\n      swap1\n      0x20\n      add\n      swap1\n      tag_123\n      swap3\n      swap2\n      swap1\n      tag_124\n      jump\t// in\n    tag_123:\n      pop\n        /* \"splitter.sol\":6592:6609  _payeePercentages */\n      dup1\n        /* \"splitter.sol\":6573:6589  payeePercentages */\n      0x01\n        /* \"splitter.sol\":6573:6609  payeePercentages = _payeePercentages */\n      swap1\n      dup1\n      mload\n      swap1\n      0x20\n      add\n      swap1\n      tag_125\n      swap3\n      swap2\n      swap1\n      tag_126\n      jump\t// in\n    tag_125:\n      pop\n        /* \"splitter.sol\":6624:6665  PayeesUpdated(_payees, _payeePercentages) */\n      0xe513d216117f51d2e3f1d22d007ed71d23a52c0bcc410e8258732d682fe3db93\n        /* \"splitter.sol\":6638:6645  _payees */\n      dup3\n        /* \"splitter.sol\":6647:6664  _payeePercentages */\n      dup3\n        /* \"splitter.sol\":6624:6665  PayeesUpdated(_payees, _payeePercentages) */\n      mload(0x40)\n      tag_127\n      swap3\n      swap2\n      swap1\n      tag_128\n      jump\t// in\n    tag_127:\n      mload(0x40)\n      dup1\n      swap2\n      sub\n      swap1\n      log1\n        /* \"splitter.sol\":6286:6672  function updatePayees(address[] memory _payees, uint256[] memory _payeePercentages) public onlyOwner {... */\n      pop\n      pop\n      jump\t// out\n        /* \"splitter.sol\":5512:6280  function distribute() external {... */\n    tag_50:\n        /* \"splitter.sol\":5585:5586  0 */\n      0x00\n        /* \"splitter.sol\":5561:5587  tokenAddress != address(0) */\n      0xffffffffffffffffffffffffffffffffffffffff\n      and\n        /* \"splitter.sol\":5561:5573  tokenAddress */\n      0x03\n      0x00\n      swap1\n      sload\n      swap1\n      0x0100\n      exp\n      swap1\n      div\n      0xffffffffffffffffffffffffffffffffffffffff\n      and\n        /* \"splitter.sol\":5561:5587  tokenAddress != address(0) */\n      0xffffffffffffffffffffffffffffffffffffffff\n      and\n      sub\n        /* \"splitter.sol\":5553:5613  require(tokenAddress != address(0), \"Token address not set\") */\n      tag_130\n      jumpi\n      mload(0x40)\n      0x08c379a000000000000000000000000000000000000000000000000000000000\n      dup2\n      mstore\n      0x04\n      add\n      tag_131\n      swap1\n      tag_61\n      jump\t// in\n    tag_131:\n      mload(0x40)\n      dup1\n      swap2\n      sub\n      swap1\n      revert\n    tag_130:\n        /* \"splitter.sol\":5624:5639  uint256 balance */\n      0x00\n        /* \"splitter.sol\":5649:5661  tokenAddress */\n      0x03\n      0x00\n      swap1\n      sload\n      swap1\n      0x0100\n      exp\n      swap1\n      div\n      0xffffffffffffffffffffffffffffffffffffffff\n      and\n        /* \"splitter.sol\":5642:5672  IERC20(tokenAddress).balanceOf */\n      0xffffffffffffffffffffffffffffffffffffffff\n      and\n      0x70a08231\n        /* \"splitter.sol\":5681:5685  this */\n      address\n        /* \"splitter.sol\":5642:5687  IERC20(tokenAddress).balanceOf(address(this)) */\n      mload(0x40)\n      dup3\n      0xffffffff\n      and\n      0xe0\n      shl\n      dup2\n      mstore\n      0x04\n      add\n      tag_132\n      swap2\n      swap1\n      tag_25\n      jump\t// in\n    tag_132:\n      0x20\n      mload(0x40)\n      dup1\n      dup4\n      sub\n      dup2\n      dup7\n      gas\n      staticcall\n      iszero\n      dup1\n      iszero\n      tag_134\n      jumpi\n      returndatasize\n      0x00\n      dup1\n      returndatacopy\n      revert(0x00, returndatasize)\n    tag_134:\n      pop\n      pop\n      pop\n      pop\n      mload(0x40)\n      returndatasize\n      not(0x1f)\n      0x1f\n      dup3\n      add\n      and\n      dup3\n      add\n      dup1\n      0x40\n      mstore\n      pop\n      dup2\n      add\n      swap1\n      tag_135\n      swap2\n      swap1\n      tag_66\n      jump\t// in\n    tag_135:\n        /* \"splitter.sol\":5624:5687  uint256 balance = IERC20(tokenAddress).balanceOf(address(this)) */\n      swap1\n      pop\n        /* \"splitter.sol\":5715:5716  0 */\n      0x00\n        /* \"splitter.sol\":5705:5712  balance */\n      dup2\n        /* \"splitter.sol\":5705:5716  balance > 0 */\n      gt\n        /* \"splitter.sol\":5697:5744  require(balance > 0, \"No tokens to distribute\") */\n      tag_136\n      jumpi\n      mload(0x40)\n      0x08c379a000000000000000000000000000000000000000000000000000000000\n      dup2\n      mstore\n      0x04\n      add\n      tag_137\n      swap1\n      tag_138\n      jump\t// in\n    tag_137:\n      mload(0x40)\n      dup1\n      swap2\n      sub\n      swap1\n      revert\n    tag_136:\n        /* \"splitter.sol\":5755:5778  uint256 totalPercentage */\n      0x00\n        /* \"splitter.sol\":5793:5802  uint256 i */\n      dup1\n        /* \"splitter.sol\":5805:5806  0 */\n      0x00\n        /* \"splitter.sol\":5793:5806  uint256 i = 0 */\n      swap1\n      pop\n        /* \"splitter.sol\":5788:5999  for (uint256 i = 0; i < payeePercentages.length; i++) {... */\n    tag_139:\n        /* \"splitter.sol\":5812:5828  payeePercentages */\n      0x01\n        /* \"splitter.sol\":5812:5835  payeePercentages.length */\n      dup1\n      sload\n      swap1\n      pop\n        /* \"splitter.sol\":5808:5809  i */\n      dup2\n        /* \"splitter.sol\":5808:5835  i < payeePercentages.length */\n      lt\n        /* \"splitter.sol\":5788:5999  for (uint256 i = 0; i < payeePercentages.length; i++) {... */\n      iszero\n      tag_140\n      jumpi\n        /* \"splitter.sol\":5886:5887  0 */\n      0x00\n        /* \"splitter.sol\":5864:5880  payeePercentages */\n      0x01\n        /* \"splitter.sol\":5881:5882  i */\n      dup3\n        /* \"splitter.sol\":5864:5883  payeePercentages[i] */\n      dup2\n      sload\n      dup2\n      lt\n      tag_142\n      jumpi\n      tag_143\n      tag_144\n      jump\t// in\n    tag_143:\n    tag_142:\n      swap1\n      0x00\n      mstore\n      keccak256(0x00, 0x20)\n      add\n      sload\n        /* \"splitter.sol\":5864:5887  payeePercentages[i] > 0 */\n      gt\n        /* \"splitter.sol\":5856:5916  require(payeePercentages[i] > 0, \"Invalid payee percentage\") */\n      tag_146\n      jumpi\n      mload(0x40)\n      0x08c379a000000000000000000000000000000000000000000000000000000000\n      dup2\n      mstore\n      0x04\n      add\n      tag_147\n      swap1\n      tag_148\n      jump\t// in\n    tag_147:\n      mload(0x40)\n      dup1\n      swap2\n      sub\n      swap1\n      revert\n    tag_146:\n        /* \"splitter.sol\":5948:5988  totalPercentage.add(payeePercentages[i]) */\n      tag_149\n        /* \"splitter.sol\":5968:5984  payeePercentages */\n      0x01\n        /* \"splitter.sol\":5985:5986  i */\n      dup3\n        /* \"splitter.sol\":5968:5987  payeePercentages[i] */\n      dup2\n      sload\n      dup2\n      lt\n      tag_150\n      jumpi\n      tag_151\n      tag_144\n      jump\t// in\n    tag_151:\n    tag_150:\n      swap1\n      0x00\n      mstore\n      keccak256(0x00, 0x20)\n      add\n      sload\n        /* \"splitter.sol\":5948:5963  totalPercentage */\n      dup4\n        /* \"splitter.sol\":5948:5967  totalPercentage.add */\n      tag_153\n      swap1\n        /* \"splitter.sol\":5948:5988  totalPercentage.add(payeePercentages[i]) */\n      swap2\n      swap1\n      0xffffffff\n      and\n      jump\t// in\n    tag_149:\n        /* \"splitter.sol\":5930:5988  totalPercentage = totalPercentage.add(payeePercentages[i]) */\n      swap2\n      pop\n        /* \"splitter.sol\":5837:5840  i++ */\n      dup1\n      dup1\n      tag_154\n      swap1\n      tag_155\n      jump\t// in\n    tag_154:\n      swap2\n      pop\n      pop\n        /* \"splitter.sol\":5788:5999  for (uint256 i = 0; i < payeePercentages.length; i++) {... */\n      jump(tag_139)\n    tag_140:\n      pop\n        /* \"splitter.sol\":6035:6038  100 */\n      0x64\n        /* \"splitter.sol\":6016:6031  totalPercentage */\n      dup2\n        /* \"splitter.sol\":6016:6038  totalPercentage == 100 */\n      eq\n        /* \"splitter.sol\":6008:6074  require(totalPercentage == 100, \"Total percentage must equal 100\") */\n      tag_156\n      jumpi\n      mload(0x40)\n      0x08c379a000000000000000000000000000000000000000000000000000000000\n      dup2\n      mstore\n      0x04\n      add\n      tag_157\n      swap1\n      tag_158\n      jump\t// in\n    tag_157:\n      mload(0x40)\n      dup1\n      swap2\n      sub\n      swap1\n      revert\n    tag_156:\n        /* \"splitter.sol\":6090:6099  uint256 i */\n      0x00\n        /* \"splitter.sol\":6085:6274  for (uint256 i = 0; i < payees.length; i++) {... */\n    tag_159:\n        /* \"splitter.sol\":6109:6115  payees */\n      0x00\n        /* \"splitter.sol\":6109:6122  payees.length */\n      dup1\n      sload\n      swap1\n      pop\n        /* \"splitter.sol\":6105:6106  i */\n      dup2\n        /* \"splitter.sol\":6105:6122  i < payees.length */\n      lt\n        /* \"splitter.sol\":6085:6274  for (uint256 i = 0; i < payees.length; i++) {... */\n      iszero\n      tag_160\n      jumpi\n        /* \"splitter.sol\":6143:6157  uint256 amount */\n      0x00\n        /* \"splitter.sol\":6160:6201  balance.mul(payeePercentages[i]).div(100) */\n      tag_162\n        /* \"splitter.sol\":6197:6200  100 */\n      0x64\n        /* \"splitter.sol\":6160:6192  balance.mul(payeePercentages[i]) */\n      tag_163\n        /* \"splitter.sol\":6172:6188  payeePercentages */\n      0x01\n        /* \"splitter.sol\":6189:6190  i */\n      dup6\n        /* \"splitter.sol\":6172:6191  payeePercentages[i] */\n      dup2\n      sload\n      dup2\n      lt\n      tag_164\n      jumpi\n      tag_165\n      tag_144\n      jump\t// in\n    tag_165:\n    tag_164:\n      swap1\n      0x00\n      mstore\n      keccak256(0x00, 0x20)\n      add\n      sload\n        /* \"splitter.sol\":6160:6167  balance */\n      dup8\n        /* \"splitter.sol\":6160:6171  balance.mul */\n      tag_167\n      swap1\n        /* \"splitter.sol\":6160:6192  balance.mul(payeePercentages[i]) */\n      swap2\n      swap1\n      0xffffffff\n      and\n      jump\t// in\n    tag_163:\n        /* \"splitter.sol\":6160:6196  balance.mul(payeePercentages[i]).div */\n      tag_168\n      swap1\n        /* \"splitter.sol\":6160:6201  balance.mul(payeePercentages[i]).div(100) */\n      swap2\n      swap1\n      0xffffffff\n      and\n      jump\t// in\n    tag_162:\n        /* \"splitter.sol\":6143:6201  uint256 amount = balance.mul(payeePercentages[i]).div(100) */\n      swap1\n      pop\n        /* \"splitter.sol\":6222:6234  tokenAddress */\n      0x03\n      0x00\n      swap1\n      sload\n      swap1\n      0x0100\n      exp\n      swap1\n      div\n      0xffffffffffffffffffffffffffffffffffffffff\n      and\n        /* \"splitter.sol\":6215:6244  IERC20(tokenAddress).transfer */\n      0xffffffffffffffffffffffffffffffffffffffff\n      and\n      0xa9059cbb\n        /* \"splitter.sol\":6245:6251  payees */\n      0x00\n        /* \"splitter.sol\":6252:6253  i */\n      dup5\n        /* \"splitter.sol\":6245:6254  payees[i] */\n      dup2\n      sload\n      dup2\n      lt\n      tag_169\n      jumpi\n      tag_170\n      tag_144\n      jump\t// in\n    tag_170:\n    tag_169:\n      swap1\n      0x00\n      mstore\n      keccak256(0x00, 0x20)\n      add\n      0x00\n      swap1\n      sload\n      swap1\n      0x0100\n      exp\n      swap1\n      div\n      0xffffffffffffffffffffffffffffffffffffffff\n      and\n        /* \"splitter.sol\":6256:6262  amount */\n      dup4\n        /* \"splitter.sol\":6215:6263  IERC20(tokenAddress).transfer(payees[i], amount) */\n      mload(0x40)\n      dup4\n      0xffffffff\n      and\n      0xe0\n      shl\n      dup2\n      mstore\n      0x04\n      add\n      tag_172\n      swap3\n      swap2\n      swap1\n      tag_82\n      jump\t// in\n    tag_172:\n      0x20\n      mload(0x40)\n      dup1\n      dup4\n      sub\n      dup2\n      0x00\n      dup8\n      gas\n      call\n      iszero\n      dup1\n      iszero\n      tag_174\n      jumpi\n      returndatasize\n      0x00\n      dup1\n      returndatacopy\n      revert(0x00, returndatasize)\n    tag_174:\n      pop\n      pop\n      pop\n      pop\n      mload(0x40)\n      returndatasize\n      not(0x1f)\n      0x1f\n      dup3\n      add\n      and\n      dup3\n      add\n      dup1\n      0x40\n      mstore\n      pop\n      dup2\n      add\n      swap1\n      tag_175\n      swap2\n      swap1\n      tag_86\n      jump\t// in\n    tag_175:\n      pop\n        /* \"splitter.sol\":6129:6274  {... */\n      pop\n        /* \"splitter.sol\":6124:6127  i++ */\n      dup1\n      dup1\n      tag_176\n      swap1\n      tag_155\n      jump\t// in\n    tag_176:\n      swap2\n      pop\n      pop\n        /* \"splitter.sol\":6085:6274  for (uint256 i = 0; i < payees.length; i++) {... */\n      jump(tag_159)\n    tag_160:\n      pop\n        /* \"splitter.sol\":5543:6280  {... */\n      pop\n      pop\n        /* \"splitter.sol\":5512:6280  function distribute() external {... */\n      jump\t// out\n        /* \"splitter.sol\":7252:7462  function transferOwnership(address newOwner) public onlyOwner {... */\n    tag_53:\n        /* \"splitter.sol\":4987:4992  owner */\n      0x02\n      0x00\n      swap1\n      sload\n      swap1\n      0x0100\n      exp\n      swap1\n      div\n      0xffffffffffffffffffffffffffffffffffffffff\n      and\n        /* \"splitter.sol\":4973:4992  msg.sender == owner */\n      0xffffffffffffffffffffffffffffffffffffffff\n      and\n        /* \"splitter.sol\":4973:4983  msg.sender */\n      caller\n        /* \"splitter.sol\":4973:4992  msg.sender == owner */\n      0xffffffffffffffffffffffffffffffffffffffff\n      and\n      eq\n        /* \"splitter.sol\":4965:5019  require(msg.sender == owner, \"Not the contract owner\") */\n      tag_178\n      jumpi\n      mload(0x40)\n      0x08c379a000000000000000000000000000000000000000000000000000000000\n      dup2\n      mstore\n      0x04\n      add\n      tag_179\n      swap1\n      tag_70\n      jump\t// in\n    tag_179:\n      mload(0x40)\n      dup1\n      swap2\n      sub\n      swap1\n      revert\n    tag_178:\n        /* \"splitter.sol\":7352:7353  0 */\n      0x00\n        /* \"splitter.sol\":7332:7354  newOwner != address(0) */\n      0xffffffffffffffffffffffffffffffffffffffff\n      and\n        /* \"splitter.sol\":7332:7340  newOwner */\n      dup2\n        /* \"splitter.sol\":7332:7354  newOwner != address(0) */\n      0xffffffffffffffffffffffffffffffffffffffff\n      and\n      sub\n        /* \"splitter.sol\":7324:7384  require(newOwner != address(0), \"Invalid new owner address\") */\n      tag_181\n      jumpi\n      mload(0x40)\n      0x08c379a000000000000000000000000000000000000000000000000000000000\n      dup2\n      mstore\n      0x04\n      add\n      tag_182\n      swap1\n      tag_183\n      jump\t// in\n    tag_182:\n      mload(0x40)\n      dup1\n      swap2\n      sub\n      swap1\n      revert\n    tag_181:\n        /* \"splitter.sol\":7402:7410  newOwner */\n      dup1\n        /* \"splitter.sol\":7394:7399  owner */\n      0x02\n      0x00\n        /* \"splitter.sol\":7394:7410  owner = newOwner */\n      0x0100\n      exp\n      dup2\n      sload\n      dup2\n      0xffffffffffffffffffffffffffffffffffffffff\n      mul\n      not\n      and\n      swap1\n      dup4\n      0xffffffffffffffffffffffffffffffffffffffff\n      and\n      mul\n      or\n      swap1\n      sstore\n      pop\n        /* \"splitter.sol\":7425:7455  OwnershipTransferred(newOwner) */\n      0x04dba622d284ed0014ee4b9a6a68386be1a4c08a4913ae272de89199cc686163\n        /* \"splitter.sol\":7446:7454  newOwner */\n      dup2\n        /* \"splitter.sol\":7425:7455  OwnershipTransferred(newOwner) */\n      mload(0x40)\n      tag_184\n      swap2\n      swap1\n      tag_25\n      jump\t// in\n    tag_184:\n      mload(0x40)\n      dup1\n      swap2\n      sub\n      swap1\n      log1\n        /* \"splitter.sol\":7252:7462  function transferOwnership(address newOwner) public onlyOwner {... */\n      pop\n      jump\t// out\n        /* \"https://github.com/OpenZeppelin/openzeppelin-contracts/blob/release-v4.5/contracts/utils/math/SafeMath.sol\":2741:2837  function add(uint256 a, uint256 b) internal pure returns (uint256) {... */\n    tag_153:\n        /* \"https://github.com/OpenZeppelin/openzeppelin-contracts/blob/release-v4.5/contracts/utils/math/SafeMath.sol\":2799:2806  uint256 */\n      0x00\n        /* \"https://github.com/OpenZeppelin/openzeppelin-contracts/blob/release-v4.5/contracts/utils/math/SafeMath.sol\":2829:2830  b */\n      dup2\n        /* \"https://github.com/OpenZeppelin/openzeppelin-contracts/blob/release-v4.5/contracts/utils/math/SafeMath.sol\":2825:2826  a */\n      dup4\n        /* \"https://github.com/OpenZeppelin/openzeppelin-contracts/blob/release-v4.5/contracts/utils/math/SafeMath.sol\":2825:2830  a + b */\n      tag_186\n      swap2\n      swap1\n      tag_187\n      jump\t// in\n    tag_186:\n        /* \"https://github.com/OpenZeppelin/openzeppelin-contracts/blob/release-v4.5/contracts/utils/math/SafeMath.sol\":2818:2830  return a + b */\n      swap1\n      pop\n        /* \"https://github.com/OpenZeppelin/openzeppelin-contracts/blob/release-v4.5/contracts/utils/math/SafeMath.sol\":2741:2837  function add(uint256 a, uint256 b) internal pure returns (uint256) {... */\n      swap3\n      swap2\n      pop\n      pop\n      jump\t// out\n        /* \"https://github.com/OpenZeppelin/openzeppelin-contracts/blob/release-v4.5/contracts/utils/math/SafeMath.sol\":3451:3547  function mul(uint256 a, uint256 b) internal pure returns (uint256) {... */\n    tag_167:\n        /* \"https://github.com/OpenZeppelin/openzeppelin-contracts/blob/release-v4.5/contracts/utils/math/SafeMath.sol\":3509:3516  uint256 */\n      0x00\n        /* \"https://github.com/OpenZeppelin/openzeppelin-contracts/blob/release-v4.5/contracts/utils/math/SafeMath.sol\":3539:3540  b */\n      dup2\n        /* \"https://github.com/OpenZeppelin/openzeppelin-contracts/blob/release-v4.5/contracts/utils/math/SafeMath.sol\":3535:3536  a */\n      dup4\n        /* \"https://github.com/OpenZeppelin/openzeppelin-contracts/blob/release-v4.5/contracts/utils/math/SafeMath.sol\":3535:3540  a * b */\n      tag_189\n      swap2\n      swap1\n      tag_190\n      jump\t// in\n    tag_189:\n        /* \"https://github.com/OpenZeppelin/openzeppelin-contracts/blob/release-v4.5/contracts/utils/math/SafeMath.sol\":3528:3540  return a * b */\n      swap1\n      pop\n        /* \"https://github.com/OpenZeppelin/openzeppelin-contracts/blob/release-v4.5/contracts/utils/math/SafeMath.sol\":3451:3547  function mul(uint256 a, uint256 b) internal pure returns (uint256) {... */\n      swap3\n      swap2\n      pop\n      pop\n      jump\t// out\n        /* \"https://github.com/OpenZeppelin/openzeppelin-contracts/blob/release-v4.5/contracts/utils/math/SafeMath.sol\":3836:3932  function div(uint256 a, uint256 b) internal pure returns (uint256) {... */\n    tag_168:\n        /* \"https://github.com/OpenZeppelin/openzeppelin-contracts/blob/release-v4.5/contracts/utils/math/SafeMath.sol\":3894:3901  uint256 */\n      0x00\n        /* \"https://github.com/OpenZeppelin/openzeppelin-contracts/blob/release-v4.5/contracts/utils/math/SafeMath.sol\":3924:3925  b */\n      dup2\n        /* \"https://github.com/OpenZeppelin/openzeppelin-contracts/blob/release-v4.5/contracts/utils/math/SafeMath.sol\":3920:3921  a */\n      dup4\n        /* \"https://github.com/OpenZeppelin/openzeppelin-contracts/blob/release-v4.5/contracts/utils/math/SafeMath.sol\":3920:3925  a / b */\n      tag_192\n      swap2\n      swap1\n      tag_193\n      jump\t// in\n    tag_192:\n        /* \"https://github.com/OpenZeppelin/openzeppelin-contracts/blob/release-v4.5/contracts/utils/math/SafeMath.sol\":3913:3925  return a / b */\n      swap1\n      pop\n        /* \"https://github.com/OpenZeppelin/openzeppelin-contracts/blob/release-v4.5/contracts/utils/math/SafeMath.sol\":3836:3932  function div(uint256 a, uint256 b) internal pure returns (uint256) {... */\n      swap3\n      swap2\n      pop\n      pop\n      jump\t// out\n    tag_124:\n      dup3\n      dup1\n      sload\n      dup3\n      dup3\n      sstore\n      swap1\n      0x00\n      mstore\n      keccak256(0x00, 0x20)\n      swap1\n      dup2\n      add\n      swap3\n      dup3\n      iszero\n      tag_194\n      jumpi\n      swap2\n      0x20\n      mul\n      dup3\n      add\n    tag_195:\n      dup3\n      dup2\n      gt\n      iszero\n      tag_196\n      jumpi\n      dup3\n      mload\n      dup3\n      exp(0x0100, 0x00)\n      dup2\n      sload\n      dup2\n      0xffffffffffffffffffffffffffffffffffffffff\n      mul\n      not\n      and\n      swap1\n      dup4\n      0xffffffffffffffffffffffffffffffffffffffff\n      and\n      mul\n      or\n      swap1\n      sstore\n      pop\n      swap2\n      0x20\n      add\n      swap2\n      swap1\n      0x01\n      add\n      swap1\n      jump(tag_195)\n    tag_196:\n    tag_194:\n      pop\n      swap1\n      pop\n      tag_197\n      swap2\n      swap1\n      tag_198\n      jump\t// in\n    tag_197:\n      pop\n      swap1\n      jump\t// out\n    tag_126:\n      dup3\n      dup1\n      sload\n      dup3\n      dup3\n      sstore\n      swap1\n      0x00\n      mstore\n      keccak256(0x00, 0x20)\n      swap1\n      dup2\n      add\n      swap3\n      dup3\n      iszero\n      tag_199\n      jumpi\n      swap2\n      0x20\n      mul\n      dup3\n      add\n    tag_200:\n      dup3\n      dup2\n      gt\n      iszero\n      tag_201\n      jumpi\n      dup3\n      mload\n      dup3\n      sstore\n      swap2\n      0x20\n      add\n      swap2\n      swap1\n      0x01\n      add\n      swap1\n      jump(tag_200)\n    tag_201:\n    tag_199:\n      pop\n      swap1\n      pop\n      tag_202\n      swap2\n      swap1\n      tag_198\n      jump\t// in\n    tag_202:\n      pop\n      swap1\n      jump\t// out\n    tag_198:\n    tag_203:\n      dup1\n      dup3\n      gt\n      iszero\n      tag_204\n      jumpi\n      0x00\n      dup2\n      0x00\n      swap1\n      sstore\n      pop\n      0x01\n      add\n      jump(tag_203)\n    tag_204:\n      pop\n      swap1\n      jump\t// out\n        /* \"#utility.yul\":7:82   */\n    tag_205:\n        /* \"#utility.yul\":40:46   */\n      0x00\n        /* \"#utility.yul\":73:75   */\n      0x40\n        /* \"#utility.yul\":67:76   */\n      mload\n        /* \"#utility.yul\":57:76   */\n      swap1\n      pop\n        /* \"#utility.yul\":7:82   */\n      swap1\n      jump\t// out\n        /* \"#utility.yul\":88:205   */\n    tag_206:\n        /* \"#utility.yul\":197:198   */\n      0x00\n        /* \"#utility.yul\":194:195   */\n      dup1\n        /* \"#utility.yul\":187:199   */\n      revert\n        /* \"#utility.yul\":211:328   */\n    tag_207:\n        /* \"#utility.yul\":320:321   */\n      0x00\n        /* \"#utility.yul\":317:318   */\n      dup1\n        /* \"#utility.yul\":310:322   */\n      revert\n        /* \"#utility.yul\":334:411   */\n    tag_208:\n        /* \"#utility.yul\":371:378   */\n      0x00\n        /* \"#utility.yul\":400:405   */\n      dup2\n        /* \"#utility.yul\":389:405   */\n      swap1\n      pop\n        /* \"#utility.yul\":334:411   */\n      swap2\n      swap1\n      pop\n      jump\t// out\n        /* \"#utility.yul\":417:539   */\n    tag_209:\n        /* \"#utility.yul\":490:514   */\n      tag_278\n        /* \"#utility.yul\":508:513   */\n      dup2\n        /* \"#utility.yul\":490:514   */\n      tag_208\n      jump\t// in\n    tag_278:\n        /* \"#utility.yul\":483:488   */\n      dup2\n        /* \"#utility.yul\":480:515   */\n      eq\n        /* \"#utility.yul\":470:533   */\n      tag_279\n      jumpi\n        /* \"#utility.yul\":529:530   */\n      0x00\n        /* \"#utility.yul\":526:527   */\n      dup1\n        /* \"#utility.yul\":519:531   */\n      revert\n        /* \"#utility.yul\":470:533   */\n    tag_279:\n        /* \"#utility.yul\":417:539   */\n      pop\n      jump\t// out\n        /* \"#utility.yul\":545:684   */\n    tag_210:\n        /* \"#utility.yul\":591:596   */\n      0x00\n        /* \"#utility.yul\":629:635   */\n      dup2\n        /* \"#utility.yul\":616:636   */\n      calldataload\n        /* \"#utility.yul\":607:636   */\n      swap1\n      pop\n        /* \"#utility.yul\":645:678   */\n      tag_281\n        /* \"#utility.yul\":672:677   */\n      dup2\n        /* \"#utility.yul\":645:678   */\n      tag_209\n      jump\t// in\n    tag_281:\n        /* \"#utility.yul\":545:684   */\n      swap3\n      swap2\n      pop\n      pop\n      jump\t// out\n        /* \"#utility.yul\":690:1019   */\n    tag_17:\n        /* \"#utility.yul\":749:755   */\n      0x00\n        /* \"#utility.yul\":798:800   */\n      0x20\n        /* \"#utility.yul\":786:795   */\n      dup3\n        /* \"#utility.yul\":777:784   */\n      dup5\n        /* \"#utility.yul\":773:796   */\n      sub\n        /* \"#utility.yul\":769:801   */\n      slt\n        /* \"#utility.yul\":766:885   */\n      iszero\n      tag_283\n      jumpi\n        /* \"#utility.yul\":804:883   */\n      tag_284\n      tag_206\n      jump\t// in\n    tag_284:\n        /* \"#utility.yul\":766:885   */\n    tag_283:\n        /* \"#utility.yul\":924:925   */\n      0x00\n        /* \"#utility.yul\":949:1002   */\n      tag_285\n        /* \"#utility.yul\":994:1001   */\n      dup5\n        /* \"#utility.yul\":985:991   */\n      dup3\n        /* \"#utility.yul\":974:983   */\n      dup6\n        /* \"#utility.yul\":970:992   */\n      add\n        /* \"#utility.yul\":949:1002   */\n      tag_210\n      jump\t// in\n    tag_285:\n        /* \"#utility.yul\":939:1002   */\n      swap2\n      pop\n        /* \"#utility.yul\":895:1012   */\n      pop\n        /* \"#utility.yul\":690:1019   */\n      swap3\n      swap2\n      pop\n      pop\n      jump\t// out\n        /* \"#utility.yul\":1025:1143   */\n    tag_211:\n        /* \"#utility.yul\":1112:1136   */\n      tag_287\n        /* \"#utility.yul\":1130:1135   */\n      dup2\n        /* \"#utility.yul\":1112:1136   */\n      tag_208\n      jump\t// in\n    tag_287:\n        /* \"#utility.yul\":1107:1110   */\n      dup3\n        /* \"#utility.yul\":1100:1137   */\n      mstore\n        /* \"#utility.yul\":1025:1143   */\n      pop\n      pop\n      jump\t// out\n        /* \"#utility.yul\":1149:1371   */\n    tag_20:\n        /* \"#utility.yul\":1242:1246   */\n      0x00\n        /* \"#utility.yul\":1280:1282   */\n      0x20\n        /* \"#utility.yul\":1269:1278   */\n      dup3\n        /* \"#utility.yul\":1265:1283   */\n      add\n        /* \"#utility.yul\":1257:1283   */\n      swap1\n      pop\n        /* \"#utility.yul\":1293:1364   */\n      tag_289\n        /* \"#utility.yul\":1361:1362   */\n      0x00\n        /* \"#utility.yul\":1350:1359   */\n      dup4\n        /* \"#utility.yul\":1346:1363   */\n      add\n        /* \"#utility.yul\":1337:1343   */\n      dup5\n        /* \"#utility.yul\":1293:1364   */\n      tag_211\n      jump\t// in\n    tag_289:\n        /* \"#utility.yul\":1149:1371   */\n      swap3\n      swap2\n      pop\n      pop\n      jump\t// out\n        /* \"#utility.yul\":1377:1503   */\n    tag_212:\n        /* \"#utility.yul\":1414:1421   */\n      0x00\n        /* \"#utility.yul\":1454:1496   */\n      0xffffffffffffffffffffffffffffffffffffffff\n        /* \"#utility.yul\":1447:1452   */\n      dup3\n        /* \"#utility.yul\":1443:1497   */\n      and\n        /* \"#utility.yul\":1432:1497   */\n      swap1\n      pop\n        /* \"#utility.yul\":1377:1503   */\n      swap2\n      swap1\n      pop\n      jump\t// out\n        /* \"#utility.yul\":1509:1605   */\n    tag_213:\n        /* \"#utility.yul\":1546:1553   */\n      0x00\n        /* \"#utility.yul\":1575:1599   */\n      tag_292\n        /* \"#utility.yul\":1593:1598   */\n      dup3\n        /* \"#utility.yul\":1575:1599   */\n      tag_212\n      jump\t// in\n    tag_292:\n        /* \"#utility.yul\":1564:1599   */\n      swap1\n      pop\n        /* \"#utility.yul\":1509:1605   */\n      swap2\n      swap1\n      pop\n      jump\t// out\n        /* \"#utility.yul\":1611:1729   */\n    tag_214:\n        /* \"#utility.yul\":1698:1722   */\n      tag_294\n        /* \"#utility.yul\":1716:1721   */\n      dup2\n        /* \"#utility.yul\":1698:1722   */\n      tag_213\n      jump\t// in\n    tag_294:\n        /* \"#utility.yul\":1693:1696   */\n      dup3\n        /* \"#utility.yul\":1686:1723   */\n      mstore\n        /* \"#utility.yul\":1611:1729   */\n      pop\n      pop\n      jump\t// out\n        /* \"#utility.yul\":1735:1957   */\n    tag_25:\n        /* \"#utility.yul\":1828:1832   */\n      0x00\n        /* \"#utility.yul\":1866:1868   */\n      0x20\n        /* \"#utility.yul\":1855:1864   */\n      dup3\n        /* \"#utility.yul\":1851:1869   */\n      add\n        /* \"#utility.yul\":1843:1869   */\n      swap1\n      pop\n        /* \"#utility.yul\":1879:1950   */\n      tag_296\n        /* \"#utility.yul\":1947:1948   */\n      0x00\n        /* \"#utility.yul\":1936:1945   */\n      dup4\n        /* \"#utility.yul\":1932:1949   */\n      add\n        /* \"#utility.yul\":1923:1929   */\n      dup5\n        /* \"#utility.yul\":1879:1950   */\n      tag_214\n      jump\t// in\n    tag_296:\n        /* \"#utility.yul\":1735:1957   */\n      swap3\n      swap2\n      pop\n      pop\n      jump\t// out\n        /* \"#utility.yul\":1963:2085   */\n    tag_215:\n        /* \"#utility.yul\":2036:2060   */\n      tag_298\n        /* \"#utility.yul\":2054:2059   */\n      dup2\n        /* \"#utility.yul\":2036:2060   */\n      tag_213\n      jump\t// in\n    tag_298:\n        /* \"#utility.yul\":2029:2034   */\n      dup2\n        /* \"#utility.yul\":2026:2061   */\n      eq\n        /* \"#utility.yul\":2016:2079   */\n      tag_299\n      jumpi\n        /* \"#utility.yul\":2075:2076   */\n      0x00\n        /* \"#utility.yul\":2072:2073   */\n      dup1\n        /* \"#utility.yul\":2065:2077   */\n      revert\n        /* \"#utility.yul\":2016:2079   */\n    tag_299:\n        /* \"#utility.yul\":1963:2085   */\n      pop\n      jump\t// out\n        /* \"#utility.yul\":2091:2230   */\n    tag_216:\n        /* \"#utility.yul\":2137:2142   */\n      0x00\n        /* \"#utility.yul\":2175:2181   */\n      dup2\n        /* \"#utility.yul\":2162:2182   */\n      calldataload\n        /* \"#utility.yul\":2153:2182   */\n      swap1\n      pop\n        /* \"#utility.yul\":2191:2224   */\n      tag_301\n        /* \"#utility.yul\":2218:2223   */\n      dup2\n        /* \"#utility.yul\":2191:2224   */\n      tag_215\n      jump\t// in\n    tag_301:\n        /* \"#utility.yul\":2091:2230   */\n      swap3\n      swap2\n      pop\n      pop\n      jump\t// out\n        /* \"#utility.yul\":2236:2710   */\n    tag_36:\n        /* \"#utility.yul\":2304:2310   */\n      0x00\n        /* \"#utility.yul\":2312:2318   */\n      dup1\n        /* \"#utility.yul\":2361:2363   */\n      0x40\n        /* \"#utility.yul\":2349:2358   */\n      dup4\n        /* \"#utility.yul\":2340:2347   */\n      dup6\n        /* \"#utility.yul\":2336:2359   */\n      sub\n        /* \"#utility.yul\":2332:2364   */\n      slt\n        /* \"#utility.yul\":2329:2448   */\n      iszero\n      tag_303\n      jumpi\n        /* \"#utility.yul\":2367:2446   */\n      tag_304\n      tag_206\n      jump\t// in\n    tag_304:\n        /* \"#utility.yul\":2329:2448   */\n    tag_303:\n        /* \"#utility.yul\":2487:2488   */\n      0x00\n        /* \"#utility.yul\":2512:2565   */\n      tag_305\n        /* \"#utility.yul\":2557:2564   */\n      dup6\n        /* \"#utility.yul\":2548:2554   */\n      dup3\n        /* \"#utility.yul\":2537:2546   */\n      dup7\n        /* \"#utility.yul\":2533:2555   */\n      add\n        /* \"#utility.yul\":2512:2565   */\n      tag_216\n      jump\t// in\n    tag_305:\n        /* \"#utility.yul\":2502:2565   */\n      swap3\n      pop\n        /* \"#utility.yul\":2458:2575   */\n      pop\n        /* \"#utility.yul\":2614:2616   */\n      0x20\n        /* \"#utility.yul\":2640:2693   */\n      tag_306\n        /* \"#utility.yul\":2685:2692   */\n      dup6\n        /* \"#utility.yul\":2676:2682   */\n      dup3\n        /* \"#utility.yul\":2665:2674   */\n      dup7\n        /* \"#utility.yul\":2661:2683   */\n      add\n        /* \"#utility.yul\":2640:2693   */\n      tag_210\n      jump\t// in\n    tag_306:\n        /* \"#utility.yul\":2630:2693   */\n      swap2\n      pop\n        /* \"#utility.yul\":2585:2703   */\n      pop\n        /* \"#utility.yul\":2236:2710   */\n      swap3\n      pop\n      swap3\n      swap1\n      pop\n      jump\t// out\n        /* \"#utility.yul\":2716:3045   */\n    tag_43:\n        /* \"#utility.yul\":2775:2781   */\n      0x00\n        /* \"#utility.yul\":2824:2826   */\n      0x20\n        /* \"#utility.yul\":2812:2821   */\n      dup3\n        /* \"#utility.yul\":2803:2810   */\n      dup5\n        /* \"#utility.yul\":2799:2822   */\n      sub\n        /* \"#utility.yul\":2795:2827   */\n      slt\n        /* \"#utility.yul\":2792:2911   */\n      iszero\n      tag_308\n      jumpi\n        /* \"#utility.yul\":2830:2909   */\n      tag_309\n      tag_206\n      jump\t// in\n    tag_309:\n        /* \"#utility.yul\":2792:2911   */\n    tag_308:\n        /* \"#utility.yul\":2950:2951   */\n      0x00\n        /* \"#utility.yul\":2975:3028   */\n      tag_310\n        /* \"#utility.yul\":3020:3027   */\n      dup5\n        /* \"#utility.yul\":3011:3017   */\n      dup3\n        /* \"#utility.yul\":3000:3009   */\n      dup6\n        /* \"#utility.yul\":2996:3018   */\n      add\n        /* \"#utility.yul\":2975:3028   */\n      tag_216\n      jump\t// in\n    tag_310:\n        /* \"#utility.yul\":2965:3028   */\n      swap2\n      pop\n        /* \"#utility.yul\":2921:3038   */\n      pop\n        /* \"#utility.yul\":2716:3045   */\n      swap3\n      swap2\n      pop\n      pop\n      jump\t// out\n        /* \"#utility.yul\":3051:3168   */\n    tag_217:\n        /* \"#utility.yul\":3160:3161   */\n      0x00\n        /* \"#utility.yul\":3157:3158   */\n      dup1\n        /* \"#utility.yul\":3150:3162   */\n      revert\n        /* \"#utility.yul\":3174:3276   */\n    tag_218:\n        /* \"#utility.yul\":3215:3221   */\n      0x00\n        /* \"#utility.yul\":3266:3268   */\n      0x1f\n        /* \"#utility.yul\":3262:3269   */\n      not\n        /* \"#utility.yul\":3257:3259   */\n      0x1f\n        /* \"#utility.yul\":3250:3255   */\n      dup4\n        /* \"#utility.yul\":3246:3260   */\n      add\n        /* \"#utility.yul\":3242:3270   */\n      and\n        /* \"#utility.yul\":3232:3270   */\n      swap1\n      pop\n        /* \"#utility.yul\":3174:3276   */\n      swap2\n      swap1\n      pop\n      jump\t// out\n        /* \"#utility.yul\":3282:3462   */\n    tag_219:\n        /* \"#utility.yul\":3330:3407   */\n      0x4e487b7100000000000000000000000000000000000000000000000000000000\n        /* \"#utility.yul\":3327:3328   */\n      0x00\n        /* \"#utility.yul\":3320:3408   */\n      mstore\n        /* \"#utility.yul\":3427:3431   */\n      0x41\n        /* \"#utility.yul\":3424:3425   */\n      0x04\n        /* \"#utility.yul\":3417:3432   */\n      mstore\n        /* \"#utility.yul\":3451:3455   */\n      0x24\n        /* \"#utility.yul\":3448:3449   */\n      0x00\n        /* \"#utility.yul\":3441:3456   */\n      revert\n        /* \"#utility.yul\":3468:3749   */\n    tag_220:\n        /* \"#utility.yul\":3551:3578   */\n      tag_315\n        /* \"#utility.yul\":3573:3577   */\n      dup3\n        /* \"#utility.yul\":3551:3578   */\n      tag_218\n      jump\t// in\n    tag_315:\n        /* \"#utility.yul\":3543:3549   */\n      dup2\n        /* \"#utility.yul\":3539:3579   */\n      add\n        /* \"#utility.yul\":3681:3687   */\n      dup2\n        /* \"#utility.yul\":3669:3679   */\n      dup2\n        /* \"#utility.yul\":3666:3688   */\n      lt\n        /* \"#utility.yul\":3645:3663   */\n      0xffffffffffffffff\n        /* \"#utility.yul\":3633:3643   */\n      dup3\n        /* \"#utility.yul\":3630:3664   */\n      gt\n        /* \"#utility.yul\":3627:3689   */\n      or\n        /* \"#utility.yul\":3624:3712   */\n      iszero\n      tag_316\n      jumpi\n        /* \"#utility.yul\":3692:3710   */\n      tag_317\n      tag_219\n      jump\t// in\n    tag_317:\n        /* \"#utility.yul\":3624:3712   */\n    tag_316:\n        /* \"#utility.yul\":3732:3742   */\n      dup1\n        /* \"#utility.yul\":3728:3730   */\n      0x40\n        /* \"#utility.yul\":3721:3743   */\n      mstore\n        /* \"#utility.yul\":3511:3749   */\n      pop\n        /* \"#utility.yul\":3468:3749   */\n      pop\n      pop\n      jump\t// out\n        /* \"#utility.yul\":3755:3884   */\n    tag_221:\n        /* \"#utility.yul\":3789:3795   */\n      0x00\n        /* \"#utility.yul\":3816:3836   */\n      tag_319\n      tag_205\n      jump\t// in\n    tag_319:\n        /* \"#utility.yul\":3806:3836   */\n      swap1\n      pop\n        /* \"#utility.yul\":3845:3878   */\n      tag_320\n        /* \"#utility.yul\":3873:3877   */\n      dup3\n        /* \"#utility.yul\":3865:3871   */\n      dup3\n        /* \"#utility.yul\":3845:3878   */\n      tag_220\n      jump\t// in\n    tag_320:\n        /* \"#utility.yul\":3755:3884   */\n      swap2\n      swap1\n      pop\n      jump\t// out\n        /* \"#utility.yul\":3890:4201   */\n    tag_222:\n        /* \"#utility.yul\":3967:3971   */\n      0x00\n        /* \"#utility.yul\":4057:4075   */\n      0xffffffffffffffff\n        /* \"#utility.yul\":4049:4055   */\n      dup3\n        /* \"#utility.yul\":4046:4076   */\n      gt\n        /* \"#utility.yul\":4043:4099   */\n      iszero\n      tag_322\n      jumpi\n        /* \"#utility.yul\":4079:4097   */\n      tag_323\n      tag_219\n      jump\t// in\n    tag_323:\n        /* \"#utility.yul\":4043:4099   */\n    tag_322:\n        /* \"#utility.yul\":4129:4133   */\n      0x20\n        /* \"#utility.yul\":4121:4127   */\n      dup3\n        /* \"#utility.yul\":4117:4134   */\n      mul\n        /* \"#utility.yul\":4109:4134   */\n      swap1\n      pop\n        /* \"#utility.yul\":4189:4193   */\n      0x20\n        /* \"#utility.yul\":4183:4187   */\n      dup2\n        /* \"#utility.yul\":4179:4194   */\n      add\n        /* \"#utility.yul\":4171:4194   */\n      swap1\n      pop\n        /* \"#utility.yul\":3890:4201   */\n      swap2\n      swap1\n      pop\n      jump\t// out\n        /* \"#utility.yul\":4207:4324   */\n    tag_223:\n        /* \"#utility.yul\":4316:4317   */\n      0x00\n        /* \"#utility.yul\":4313:4314   */\n      dup1\n        /* \"#utility.yul\":4306:4318   */\n      revert\n        /* \"#utility.yul\":4347:5057   */\n    tag_224:\n        /* \"#utility.yul\":4443:4448   */\n      0x00\n        /* \"#utility.yul\":4468:4549   */\n      tag_326\n        /* \"#utility.yul\":4484:4548   */\n      tag_327\n        /* \"#utility.yul\":4541:4547   */\n      dup5\n        /* \"#utility.yul\":4484:4548   */\n      tag_222\n      jump\t// in\n    tag_327:\n        /* \"#utility.yul\":4468:4549   */\n      tag_221\n      jump\t// in\n    tag_326:\n        /* \"#utility.yul\":4459:4549   */\n      swap1\n      pop\n        /* \"#utility.yul\":4569:4574   */\n      dup1\n        /* \"#utility.yul\":4598:4604   */\n      dup4\n        /* \"#utility.yul\":4591:4596   */\n      dup3\n        /* \"#utility.yul\":4584:4605   */\n      mstore\n        /* \"#utility.yul\":4632:4636   */\n      0x20\n        /* \"#utility.yul\":4625:4630   */\n      dup3\n        /* \"#utility.yul\":4621:4637   */\n      add\n        /* \"#utility.yul\":4614:4637   */\n      swap1\n      pop\n        /* \"#utility.yul\":4685:4689   */\n      0x20\n        /* \"#utility.yul\":4677:4683   */\n      dup5\n        /* \"#utility.yul\":4673:4690   */\n      mul\n        /* \"#utility.yul\":4665:4671   */\n      dup4\n        /* \"#utility.yul\":4661:4691   */\n      add\n        /* \"#utility.yul\":4714:4717   */\n      dup6\n        /* \"#utility.yul\":4706:4712   */\n      dup2\n        /* \"#utility.yul\":4703:4718   */\n      gt\n        /* \"#utility.yul\":4700:4822   */\n      iszero\n      tag_328\n      jumpi\n        /* \"#utility.yul\":4733:4812   */\n      tag_329\n      tag_223\n      jump\t// in\n    tag_329:\n        /* \"#utility.yul\":4700:4822   */\n    tag_328:\n        /* \"#utility.yul\":4848:4854   */\n      dup4\n        /* \"#utility.yul\":4831:5051   */\n    tag_330:\n        /* \"#utility.yul\":4865:4871   */\n      dup2\n        /* \"#utility.yul\":4860:4863   */\n      dup2\n        /* \"#utility.yul\":4857:4872   */\n      lt\n        /* \"#utility.yul\":4831:5051   */\n      iszero\n      tag_332\n      jumpi\n        /* \"#utility.yul\":4940:4943   */\n      dup1\n        /* \"#utility.yul\":4969:5006   */\n      tag_333\n        /* \"#utility.yul\":5002:5005   */\n      dup9\n        /* \"#utility.yul\":4990:5000   */\n      dup3\n        /* \"#utility.yul\":4969:5006   */\n      tag_216\n      jump\t// in\n    tag_333:\n        /* \"#utility.yul\":4964:4967   */\n      dup5\n        /* \"#utility.yul\":4957:5007   */\n      mstore\n        /* \"#utility.yul\":5036:5040   */\n      0x20\n        /* \"#utility.yul\":5031:5034   */\n      dup5\n        /* \"#utility.yul\":5027:5041   */\n      add\n        /* \"#utility.yul\":5020:5041   */\n      swap4\n      pop\n        /* \"#utility.yul\":4907:5051   */\n      pop\n        /* \"#utility.yul\":4891:4895   */\n      0x20\n        /* \"#utility.yul\":4886:4889   */\n      dup2\n        /* \"#utility.yul\":4882:4896   */\n      add\n        /* \"#utility.yul\":4875:4896   */\n      swap1\n      pop\n        /* \"#utility.yul\":4831:5051   */\n      jump(tag_330)\n    tag_332:\n        /* \"#utility.yul\":4835:4856   */\n      pop\n        /* \"#utility.yul\":4449:5057   */\n      pop\n      pop\n        /* \"#utility.yul\":4347:5057   */\n      swap4\n      swap3\n      pop\n      pop\n      pop\n      jump\t// out\n        /* \"#utility.yul\":5080:5450   */\n    tag_225:\n        /* \"#utility.yul\":5151:5156   */\n      0x00\n        /* \"#utility.yul\":5200:5203   */\n      dup3\n        /* \"#utility.yul\":5193:5197   */\n      0x1f\n        /* \"#utility.yul\":5185:5191   */\n      dup4\n        /* \"#utility.yul\":5181:5198   */\n      add\n        /* \"#utility.yul\":5177:5204   */\n      slt\n        /* \"#utility.yul\":5167:5289   */\n      tag_335\n      jumpi\n        /* \"#utility.yul\":5208:5287   */\n      tag_336\n      tag_217\n      jump\t// in\n    tag_336:\n        /* \"#utility.yul\":5167:5289   */\n    tag_335:\n        /* \"#utility.yul\":5325:5331   */\n      dup2\n        /* \"#utility.yul\":5312:5332   */\n      calldataload\n        /* \"#utility.yul\":5350:5444   */\n      tag_337\n        /* \"#utility.yul\":5440:5443   */\n      dup5\n        /* \"#utility.yul\":5432:5438   */\n      dup3\n        /* \"#utility.yul\":5425:5429   */\n      0x20\n        /* \"#utility.yul\":5417:5423   */\n      dup7\n        /* \"#utility.yul\":5413:5430   */\n      add\n        /* \"#utility.yul\":5350:5444   */\n      tag_224\n      jump\t// in\n    tag_337:\n        /* \"#utility.yul\":5341:5444   */\n      swap2\n      pop\n        /* \"#utility.yul\":5157:5450   */\n      pop\n        /* \"#utility.yul\":5080:5450   */\n      swap3\n      swap2\n      pop\n      pop\n      jump\t// out\n        /* \"#utility.yul\":5456:5767   */\n    tag_226:\n        /* \"#utility.yul\":5533:5537   */\n      0x00\n        /* \"#utility.yul\":5623:5641   */\n      0xffffffffffffffff\n        /* \"#utility.yul\":5615:5621   */\n      dup3\n        /* \"#utility.yul\":5612:5642   */\n      gt\n        /* \"#utility.yul\":5609:5665   */\n      iszero\n      tag_339\n      jumpi\n        /* \"#utility.yul\":5645:5663   */\n      tag_340\n      tag_219\n      jump\t// in\n    tag_340:\n        /* \"#utility.yul\":5609:5665   */\n    tag_339:\n        /* \"#utility.yul\":5695:5699   */\n      0x20\n        /* \"#utility.yul\":5687:5693   */\n      dup3\n        /* \"#utility.yul\":5683:5700   */\n      mul\n        /* \"#utility.yul\":5675:5700   */\n      swap1\n      pop\n        /* \"#utility.yul\":5755:5759   */\n      0x20\n        /* \"#utility.yul\":5749:5753   */\n      dup2\n        /* \"#utility.yul\":5745:5760   */\n      add\n        /* \"#utility.yul\":5737:5760   */\n      swap1\n      pop\n        /* \"#utility.yul\":5456:5767   */\n      swap2\n      swap1\n      pop\n      jump\t// out\n        /* \"#utility.yul\":5790:6500   */\n    tag_227:\n        /* \"#utility.yul\":5886:5891   */\n      0x00\n        /* \"#utility.yul\":5911:5992   */\n      tag_342\n        /* \"#utility.yul\":5927:5991   */\n      tag_343\n        /* \"#utility.yul\":5984:5990   */\n      dup5\n        /* \"#utility.yul\":5927:5991   */\n      tag_226\n      jump\t// in\n    tag_343:\n        /* \"#utility.yul\":5911:5992   */\n      tag_221\n      jump\t// in\n    tag_342:\n        /* \"#utility.yul\":5902:5992   */\n      swap1\n      pop\n        /* \"#utility.yul\":6012:6017   */\n      dup1\n        /* \"#utility.yul\":6041:6047   */\n      dup4\n        /* \"#utility.yul\":6034:6039   */\n      dup3\n        /* \"#utility.yul\":6027:6048   */\n      mstore\n        /* \"#utility.yul\":6075:6079   */\n      0x20\n        /* \"#utility.yul\":6068:6073   */\n      dup3\n        /* \"#utility.yul\":6064:6080   */\n      add\n        /* \"#utility.yul\":6057:6080   */\n      swap1\n      pop\n        /* \"#utility.yul\":6128:6132   */\n      0x20\n        /* \"#utility.yul\":6120:6126   */\n      dup5\n        /* \"#utility.yul\":6116:6133   */\n      mul\n        /* \"#utility.yul\":6108:6114   */\n      dup4\n        /* \"#utility.yul\":6104:6134   */\n      add\n        /* \"#utility.yul\":6157:6160   */\n      dup6\n        /* \"#utility.yul\":6149:6155   */\n      dup2\n        /* \"#utility.yul\":6146:6161   */\n      gt\n        /* \"#utility.yul\":6143:6265   */\n      iszero\n      tag_344\n      jumpi\n        /* \"#utility.yul\":6176:6255   */\n      tag_345\n      tag_223\n      jump\t// in\n    tag_345:\n        /* \"#utility.yul\":6143:6265   */\n    tag_344:\n        /* \"#utility.yul\":6291:6297   */\n      dup4\n        /* \"#utility.yul\":6274:6494   */\n    tag_346:\n        /* \"#utility.yul\":6308:6314   */\n      dup2\n        /* \"#utility.yul\":6303:6306   */\n      dup2\n        /* \"#utility.yul\":6300:6315   */\n      lt\n        /* \"#utility.yul\":6274:6494   */\n      iszero\n      tag_348\n      jumpi\n        /* \"#utility.yul\":6383:6386   */\n      dup1\n        /* \"#utility.yul\":6412:6449   */\n      tag_349\n        /* \"#utility.yul\":6445:6448   */\n      dup9\n        /* \"#utility.yul\":6433:6443   */\n      dup3\n        /* \"#utility.yul\":6412:6449   */\n      tag_210\n      jump\t// in\n    tag_349:\n        /* \"#utility.yul\":6407:6410   */\n      dup5\n        /* \"#utility.yul\":6400:6450   */\n      mstore\n        /* \"#utility.yul\":6479:6483   */\n      0x20\n        /* \"#utility.yul\":6474:6477   */\n      dup5\n        /* \"#utility.yul\":6470:6484   */\n      add\n        /* \"#utility.yul\":6463:6484   */\n      swap4\n      pop\n        /* \"#utility.yul\":6350:6494   */\n      pop\n        /* \"#utility.yul\":6334:6338   */\n      0x20\n        /* \"#utility.yul\":6329:6332   */\n      dup2\n        /* \"#utility.yul\":6325:6339   */\n      add\n        /* \"#utility.yul\":6318:6339   */\n      swap1\n      pop\n        /* \"#utility.yul\":6274:6494   */\n      jump(tag_346)\n    tag_348:\n        /* \"#utility.yul\":6278:6299   */\n      pop\n        /* \"#utility.yul\":5892:6500   */\n      pop\n      pop\n        /* \"#utility.yul\":5790:6500   */\n      swap4\n      swap3\n      pop\n      pop\n      pop\n      jump\t// out\n        /* \"#utility.yul\":6523:6893   */\n    tag_228:\n        /* \"#utility.yul\":6594:6599   */\n      0x00\n        /* \"#utility.yul\":6643:6646   */\n      dup3\n        /* \"#utility.yul\":6636:6640   */\n      0x1f\n        /* \"#utility.yul\":6628:6634   */\n      dup4\n        /* \"#utility.yul\":6624:6641   */\n      add\n        /* \"#utility.yul\":6620:6647   */\n      slt\n        /* \"#utility.yul\":6610:6732   */\n      tag_351\n      jumpi\n        /* \"#utility.yul\":6651:6730   */\n      tag_352\n      tag_217\n      jump\t// in\n    tag_352:\n        /* \"#utility.yul\":6610:6732   */\n    tag_351:\n        /* \"#utility.yul\":6768:6774   */\n      dup2\n        /* \"#utility.yul\":6755:6775   */\n      calldataload\n        /* \"#utility.yul\":6793:6887   */\n      tag_353\n        /* \"#utility.yul\":6883:6886   */\n      dup5\n        /* \"#utility.yul\":6875:6881   */\n      dup3\n        /* \"#utility.yul\":6868:6872   */\n      0x20\n        /* \"#utility.yul\":6860:6866   */\n      dup7\n        /* \"#utility.yul\":6856:6873   */\n      add\n        /* \"#utility.yul\":6793:6887   */\n      tag_227\n      jump\t// in\n    tag_353:\n        /* \"#utility.yul\":6784:6887   */\n      swap2\n      pop\n        /* \"#utility.yul\":6600:6893   */\n      pop\n        /* \"#utility.yul\":6523:6893   */\n      swap3\n      swap2\n      pop\n      pop\n      jump\t// out\n        /* \"#utility.yul\":6899:7793   */\n    tag_47:\n        /* \"#utility.yul\":7017:7023   */\n      0x00\n        /* \"#utility.yul\":7025:7031   */\n      dup1\n        /* \"#utility.yul\":7074:7076   */\n      0x40\n        /* \"#utility.yul\":7062:7071   */\n      dup4\n        /* \"#utility.yul\":7053:7060   */\n      dup6\n        /* \"#utility.yul\":7049:7072   */\n      sub\n        /* \"#utility.yul\":7045:7077   */\n      slt\n        /* \"#utility.yul\":7042:7161   */\n      iszero\n      tag_355\n      jumpi\n        /* \"#utility.yul\":7080:7159   */\n      tag_356\n      tag_206\n      jump\t// in\n    tag_356:\n        /* \"#utility.yul\":7042:7161   */\n    tag_355:\n        /* \"#utility.yul\":7228:7229   */\n      0x00\n        /* \"#utility.yul\":7217:7226   */\n      dup4\n        /* \"#utility.yul\":7213:7230   */\n      add\n        /* \"#utility.yul\":7200:7231   */\n      calldataload\n        /* \"#utility.yul\":7258:7276   */\n      0xffffffffffffffff\n        /* \"#utility.yul\":7250:7256   */\n      dup2\n        /* \"#utility.yul\":7247:7277   */\n      gt\n        /* \"#utility.yul\":7244:7361   */\n      iszero\n      tag_357\n      jumpi\n        /* \"#utility.yul\":7280:7359   */\n      tag_358\n      tag_207\n      jump\t// in\n    tag_358:\n        /* \"#utility.yul\":7244:7361   */\n    tag_357:\n        /* \"#utility.yul\":7385:7463   */\n      tag_359\n        /* \"#utility.yul\":7455:7462   */\n      dup6\n        /* \"#utility.yul\":7446:7452   */\n      dup3\n        /* \"#utility.yul\":7435:7444   */\n      dup7\n        /* \"#utility.yul\":7431:7453   */\n      add\n        /* \"#utility.yul\":7385:7463   */\n      tag_225\n      jump\t// in\n    tag_359:\n        /* \"#utility.yul\":7375:7463   */\n      swap3\n      pop\n        /* \"#utility.yul\":7171:7473   */\n      pop\n        /* \"#utility.yul\":7540:7542   */\n      0x20\n        /* \"#utility.yul\":7529:7538   */\n      dup4\n        /* \"#utility.yul\":7525:7543   */\n      add\n        /* \"#utility.yul\":7512:7544   */\n      calldataload\n        /* \"#utility.yul\":7571:7589   */\n      0xffffffffffffffff\n        /* \"#utility.yul\":7563:7569   */\n      dup2\n        /* \"#utility.yul\":7560:7590   */\n      gt\n        /* \"#utility.yul\":7557:7674   */\n      iszero\n      tag_360\n      jumpi\n        /* \"#utility.yul\":7593:7672   */\n      tag_361\n      tag_207\n      jump\t// in\n    tag_361:\n        /* \"#utility.yul\":7557:7674   */\n    tag_360:\n        /* \"#utility.yul\":7698:7776   */\n      tag_362\n        /* \"#utility.yul\":7768:7775   */\n      dup6\n        /* \"#utility.yul\":7759:7765   */\n      dup3\n        /* \"#utility.yul\":7748:7757   */\n      dup7\n        /* \"#utility.yul\":7744:7766   */\n      add\n        /* \"#utility.yul\":7698:7776   */\n      tag_228\n      jump\t// in\n    tag_362:\n        /* \"#utility.yul\":7688:7776   */\n      swap2\n      pop\n        /* \"#utility.yul\":7483:7786   */\n      pop\n        /* \"#utility.yul\":6899:7793   */\n      swap3\n      pop\n      swap3\n      swap1\n      pop\n      jump\t// out\n        /* \"#utility.yul\":7799:7968   */\n    tag_229:\n        /* \"#utility.yul\":7883:7894   */\n      0x00\n        /* \"#utility.yul\":7917:7923   */\n      dup3\n        /* \"#utility.yul\":7912:7915   */\n      dup3\n        /* \"#utility.yul\":7905:7924   */\n      mstore\n        /* \"#utility.yul\":7957:7961   */\n      0x20\n        /* \"#utility.yul\":7952:7955   */\n      dup3\n        /* \"#utility.yul\":7948:7962   */\n      add\n        /* \"#utility.yul\":7933:7962   */\n      swap1\n      pop\n        /* \"#utility.yul\":7799:7968   */\n      swap3\n      swap2\n      pop\n      pop\n      jump\t// out\n        /* \"#utility.yul\":7974:8145   */\n    tag_230:\n        /* \"#utility.yul\":8114:8137   */\n      0x546f6b656e2061646472657373206e6f74207365740000000000000000000000\n        /* \"#utility.yul\":8110:8111   */\n      0x00\n        /* \"#utility.yul\":8102:8108   */\n      dup3\n        /* \"#utility.yul\":8098:8112   */\n      add\n        /* \"#utility.yul\":8091:8138   */\n      mstore\n        /* \"#utility.yul\":7974:8145   */\n      pop\n      jump\t// out\n        /* \"#utility.yul\":8151:8517   */\n    tag_231:\n        /* \"#utility.yul\":8293:8296   */\n      0x00\n        /* \"#utility.yul\":8314:8381   */\n      tag_366\n        /* \"#utility.yul\":8378:8380   */\n      0x15\n        /* \"#utility.yul\":8373:8376   */\n      dup4\n        /* \"#utility.yul\":8314:8381   */\n      tag_229\n      jump\t// in\n    tag_366:\n        /* \"#utility.yul\":8307:8381   */\n      swap2\n      pop\n        /* \"#utility.yul\":8390:8483   */\n      tag_367\n        /* \"#utility.yul\":8479:8482   */\n      dup3\n        /* \"#utility.yul\":8390:8483   */\n      tag_230\n      jump\t// in\n    tag_367:\n        /* \"#utility.yul\":8508:8510   */\n      0x20\n        /* \"#utility.yul\":8503:8506   */\n      dup3\n        /* \"#utility.yul\":8499:8511   */\n      add\n        /* \"#utility.yul\":8492:8511   */\n      swap1\n      pop\n        /* \"#utility.yul\":8151:8517   */\n      swap2\n      swap1\n      pop\n      jump\t// out\n        /* \"#utility.yul\":8523:8942   */\n    tag_61:\n        /* \"#utility.yul\":8689:8693   */\n      0x00\n        /* \"#utility.yul\":8727:8729   */\n      0x20\n        /* \"#utility.yul\":8716:8725   */\n      dup3\n        /* \"#utility.yul\":8712:8730   */\n      add\n        /* \"#utility.yul\":8704:8730   */\n      swap1\n      pop\n        /* \"#utility.yul\":8776:8785   */\n      dup2\n        /* \"#utility.yul\":8770:8774   */\n      dup2\n        /* \"#utility.yul\":8766:8786   */\n      sub\n        /* \"#utility.yul\":8762:8763   */\n      0x00\n        /* \"#utility.yul\":8751:8760   */\n      dup4\n        /* \"#utility.yul\":8747:8764   */\n      add\n        /* \"#utility.yul\":8740:8787   */\n      mstore\n        /* \"#utility.yul\":8804:8935   */\n      tag_369\n        /* \"#utility.yul\":8930:8934   */\n      dup2\n        /* \"#utility.yul\":8804:8935   */\n      tag_231\n      jump\t// in\n    tag_369:\n        /* \"#utility.yul\":8796:8935   */\n      swap1\n      pop\n        /* \"#utility.yul\":8523:8942   */\n      swap2\n      swap1\n      pop\n      jump\t// out\n        /* \"#utility.yul\":8948:9091   */\n    tag_232:\n        /* \"#utility.yul\":9005:9010   */\n      0x00\n        /* \"#utility.yul\":9036:9042   */\n      dup2\n        /* \"#utility.yul\":9030:9043   */\n      mload\n        /* \"#utility.yul\":9021:9043   */\n      swap1\n      pop\n        /* \"#utility.yul\":9052:9085   */\n      tag_371\n        /* \"#utility.yul\":9079:9084   */\n      dup2\n        /* \"#utility.yul\":9052:9085   */\n      tag_209\n      jump\t// in\n    tag_371:\n        /* \"#utility.yul\":8948:9091   */\n      swap3\n      swap2\n      pop\n      pop\n      jump\t// out\n        /* \"#utility.yul\":9097:9448   */\n    tag_66:\n        /* \"#utility.yul\":9167:9173   */\n      0x00\n        /* \"#utility.yul\":9216:9218   */\n      0x20\n        /* \"#utility.yul\":9204:9213   */\n      dup3\n        /* \"#utility.yul\":9195:9202   */\n      dup5\n        /* \"#utility.yul\":9191:9214   */\n      sub\n        /* \"#utility.yul\":9187:9219   */\n      slt\n        /* \"#utility.yul\":9184:9303   */\n      iszero\n      tag_373\n      jumpi\n        /* \"#utility.yul\":9222:9301   */\n      tag_374\n      tag_206\n      jump\t// in\n    tag_374:\n        /* \"#utility.yul\":9184:9303   */\n    tag_373:\n        /* \"#utility.yul\":9342:9343   */\n      0x00\n        /* \"#utility.yul\":9367:9431   */\n      tag_375\n        /* \"#utility.yul\":9423:9430   */\n      dup5\n        /* \"#utility.yul\":9414:9420   */\n      dup3\n        /* \"#utility.yul\":9403:9412   */\n      dup6\n        /* \"#utility.yul\":9399:9421   */\n      add\n        /* \"#utility.yul\":9367:9431   */\n      tag_232\n      jump\t// in\n    tag_375:\n        /* \"#utility.yul\":9357:9431   */\n      swap2\n      pop\n        /* \"#utility.yul\":9313:9441   */\n      pop\n        /* \"#utility.yul\":9097:9448   */\n      swap3\n      swap2\n      pop\n      pop\n      jump\t// out\n        /* \"#utility.yul\":9454:9626   */\n    tag_233:\n        /* \"#utility.yul\":9594:9618   */\n      0x4e6f742074686520636f6e7472616374206f776e657200000000000000000000\n        /* \"#utility.yul\":9590:9591   */\n      0x00\n        /* \"#utility.yul\":9582:9588   */\n      dup3\n        /* \"#utility.yul\":9578:9592   */\n      add\n        /* \"#utility.yul\":9571:9619   */\n      mstore\n        /* \"#utility.yul\":9454:9626   */\n      pop\n      jump\t// out\n        /* \"#utility.yul\":9632:9998   */\n    tag_234:\n        /* \"#utility.yul\":9774:9777   */\n      0x00\n        /* \"#utility.yul\":9795:9862   */\n      tag_378\n        /* \"#utility.yul\":9859:9861   */\n      0x16\n        /* \"#utility.yul\":9854:9857   */\n      dup4\n        /* \"#utility.yul\":9795:9862   */\n      tag_229\n      jump\t// in\n    tag_378:\n        /* \"#utility.yul\":9788:9862   */\n      swap2\n      pop\n        /* \"#utility.yul\":9871:9964   */\n      tag_379\n        /* \"#utility.yul\":9960:9963   */\n      dup3\n        /* \"#utility.yul\":9871:9964   */\n      tag_233\n      jump\t// in\n    tag_379:\n        /* \"#utility.yul\":9989:9991   */\n      0x20\n        /* \"#utility.yul\":9984:9987   */\n      dup3\n        /* \"#utility.yul\":9980:9992   */\n      add\n        /* \"#utility.yul\":9973:9992   */\n      swap1\n      pop\n        /* \"#utility.yul\":9632:9998   */\n      swap2\n      swap1\n      pop\n      jump\t// out\n        /* \"#utility.yul\":10004:10423   */\n    tag_70:\n        /* \"#utility.yul\":10170:10174   */\n      0x00\n        /* \"#utility.yul\":10208:10210   */\n      0x20\n        /* \"#utility.yul\":10197:10206   */\n      dup3\n        /* \"#utility.yul\":10193:10211   */\n      add\n        /* \"#utility.yul\":10185:10211   */\n      swap1\n      pop\n        /* \"#utility.yul\":10257:10266   */\n      dup2\n        /* \"#utility.yul\":10251:10255   */\n      dup2\n        /* \"#utility.yul\":10247:10267   */\n      sub\n        /* \"#utility.yul\":10243:10244   */\n      0x00\n        /* \"#utility.yul\":10232:10241   */\n      dup4\n        /* \"#utility.yul\":10228:10245   */\n      add\n        /* \"#utility.yul\":10221:10268   */\n      mstore\n        /* \"#utility.yul\":10285:10416   */\n      tag_381\n        /* \"#utility.yul\":10411:10415   */\n      dup2\n        /* \"#utility.yul\":10285:10416   */\n      tag_234\n      jump\t// in\n    tag_381:\n        /* \"#utility.yul\":10277:10416   */\n      swap1\n      pop\n        /* \"#utility.yul\":10004:10423   */\n      swap2\n      swap1\n      pop\n      jump\t// out\n        /* \"#utility.yul\":10429:10600   */\n    tag_235:\n        /* \"#utility.yul\":10569:10592   */\n      0x4e6f20746f6b656e7320746f2077697468647261770000000000000000000000\n        /* \"#utility.yul\":10565:10566   */\n      0x00\n        /* \"#utility.yul\":10557:10563   */\n      dup3\n        /* \"#utility.yul\":10553:10567   */\n      add\n        /* \"#utility.yul\":10546:10593   */\n      mstore\n        /* \"#utility.yul\":10429:10600   */\n      pop\n      jump\t// out\n        /* \"#utility.yul\":10606:10972   */\n    tag_236:\n        /* \"#utility.yul\":10748:10751   */\n      0x00\n        /* \"#utility.yul\":10769:10836   */\n      tag_384\n        /* \"#utility.yul\":10833:10835   */\n      0x15\n        /* \"#utility.yul\":10828:10831   */\n      dup4\n        /* \"#utility.yul\":10769:10836   */\n      tag_229\n      jump\t// in\n    tag_384:\n        /* \"#utility.yul\":10762:10836   */\n      swap2\n      pop\n        /* \"#utility.yul\":10845:10938   */\n      tag_385\n        /* \"#utility.yul\":10934:10937   */\n      dup3\n        /* \"#utility.yul\":10845:10938   */\n      tag_235\n      jump\t// in\n    tag_385:\n        /* \"#utility.yul\":10963:10965   */\n      0x20\n        /* \"#utility.yul\":10958:10961   */\n      dup3\n        /* \"#utility.yul\":10954:10966   */\n      add\n        /* \"#utility.yul\":10947:10966   */\n      swap1\n      pop\n        /* \"#utility.yul\":10606:10972   */\n      swap2\n      swap1\n      pop\n      jump\t// out\n        /* \"#utility.yul\":10978:11397   */\n    tag_80:\n        /* \"#utility.yul\":11144:11148   */\n      0x00\n        /* \"#utility.yul\":11182:11184   */\n      0x20\n        /* \"#utility.yul\":11171:11180   */\n      dup3\n        /* \"#utility.yul\":11167:11185   */\n      add\n        /* \"#utility.yul\":11159:11185   */\n      swap1\n      pop\n        /* \"#utility.yul\":11231:11240   */\n      dup2\n        /* \"#utility.yul\":11225:11229   */\n      dup2\n        /* \"#utility.yul\":11221:11241   */\n      sub\n        /* \"#utility.yul\":11217:11218   */\n      0x00\n        /* \"#utility.yul\":11206:11215   */\n      dup4\n        /* \"#utility.yul\":11202:11219   */\n      add\n        /* \"#utility.yul\":11195:11242   */\n      mstore\n        /* \"#utility.yul\":11259:11390   */\n      tag_387\n        /* \"#utility.yul\":11385:11389   */\n      dup2\n        /* \"#utility.yul\":11259:11390   */\n      tag_236\n      jump\t// in\n    tag_387:\n        /* \"#utility.yul\":11251:11390   */\n      swap1\n      pop\n        /* \"#utility.yul\":10978:11397   */\n      swap2\n      swap1\n      pop\n      jump\t// out\n        /* \"#utility.yul\":11403:11735   */\n    tag_82:\n        /* \"#utility.yul\":11524:11528   */\n      0x00\n        /* \"#utility.yul\":11562:11564   */\n      0x40\n        /* \"#utility.yul\":11551:11560   */\n      dup3\n        /* \"#utility.yul\":11547:11565   */\n      add\n        /* \"#utility.yul\":11539:11565   */\n      swap1\n      pop\n        /* \"#utility.yul\":11575:11646   */\n      tag_389\n        /* \"#utility.yul\":11643:11644   */\n      0x00\n        /* \"#utility.yul\":11632:11641   */\n      dup4\n        /* \"#utility.yul\":11628:11645   */\n      add\n        /* \"#utility.yul\":11619:11625   */\n      dup6\n        /* \"#utility.yul\":11575:11646   */\n      tag_214\n      jump\t// in\n    tag_389:\n        /* \"#utility.yul\":11656:11728   */\n      tag_390\n        /* \"#utility.yul\":11724:11726   */\n      0x20\n        /* \"#utility.yul\":11713:11722   */\n      dup4\n        /* \"#utility.yul\":11709:11727   */\n      add\n        /* \"#utility.yul\":11700:11706   */\n      dup5\n        /* \"#utility.yul\":11656:11728   */\n      tag_211\n      jump\t// in\n    tag_390:\n        /* \"#utility.yul\":11403:11735   */\n      swap4\n      swap3\n      pop\n      pop\n      pop\n      jump\t// out\n        /* \"#utility.yul\":11741:11831   */\n    tag_237:\n        /* \"#utility.yul\":11775:11782   */\n      0x00\n        /* \"#utility.yul\":11818:11823   */\n      dup2\n        /* \"#utility.yul\":11811:11824   */\n      iszero\n        /* \"#utility.yul\":11804:11825   */\n      iszero\n        /* \"#utility.yul\":11793:11825   */\n      swap1\n      pop\n        /* \"#utility.yul\":11741:11831   */\n      swap2\n      swap1\n      pop\n      jump\t// out\n        /* \"#utility.yul\":11837:11953   */\n    tag_238:\n        /* \"#utility.yul\":11907:11928   */\n      tag_393\n        /* \"#utility.yul\":11922:11927   */\n      dup2\n        /* \"#utility.yul\":11907:11928   */\n      tag_237\n      jump\t// in\n    tag_393:\n        /* \"#utility.yul\":11900:11905   */\n      dup2\n        /* \"#utility.yul\":11897:11929   */\n      eq\n        /* \"#utility.yul\":11887:11947   */\n      tag_394\n      jumpi\n        /* \"#utility.yul\":11943:11944   */\n      0x00\n        /* \"#utility.yul\":11940:11941   */\n      dup1\n        /* \"#utility.yul\":11933:11945   */\n      revert\n        /* \"#utility.yul\":11887:11947   */\n    tag_394:\n        /* \"#utility.yul\":11837:11953   */\n      pop\n      jump\t// out\n        /* \"#utility.yul\":11959:12096   */\n    tag_239:\n        /* \"#utility.yul\":12013:12018   */\n      0x00\n        /* \"#utility.yul\":12044:12050   */\n      dup2\n        /* \"#utility.yul\":12038:12051   */\n      mload\n        /* \"#utility.yul\":12029:12051   */\n      swap1\n      pop\n        /* \"#utility.yul\":12060:12090   */\n      tag_396\n        /* \"#utility.yul\":12084:12089   */\n      dup2\n        /* \"#utility.yul\":12060:12090   */\n      tag_238\n      jump\t// in\n    tag_396:\n        /* \"#utility.yul\":11959:12096   */\n      swap3\n      swap2\n      pop\n      pop\n      jump\t// out\n        /* \"#utility.yul\":12102:12447   */\n    tag_86:\n        /* \"#utility.yul\":12169:12175   */\n      0x00\n        /* \"#utility.yul\":12218:12220   */\n      0x20\n        /* \"#utility.yul\":12206:12215   */\n      dup3\n        /* \"#utility.yul\":12197:12204   */\n      dup5\n        /* \"#utility.yul\":12193:12216   */\n      sub\n        /* \"#utility.yul\":12189:12221   */\n      slt\n        /* \"#utility.yul\":12186:12305   */\n      iszero\n      tag_398\n      jumpi\n        /* \"#utility.yul\":12224:12303   */\n      tag_399\n      tag_206\n      jump\t// in\n    tag_399:\n        /* \"#utility.yul\":12186:12305   */\n    tag_398:\n        /* \"#utility.yul\":12344:12345   */\n      0x00\n        /* \"#utility.yul\":12369:12430   */\n      tag_400\n        /* \"#utility.yul\":12422:12429   */\n      dup5\n        /* \"#utility.yul\":12413:12419   */\n      dup3\n        /* \"#utility.yul\":12402:12411   */\n      dup6\n        /* \"#utility.yul\":12398:12420   */\n      add\n        /* \"#utility.yul\":12369:12430   */\n      tag_239\n      jump\t// in\n    tag_400:\n        /* \"#utility.yul\":12359:12430   */\n      swap2\n      pop\n        /* \"#utility.yul\":12315:12440   */\n      pop\n        /* \"#utility.yul\":12102:12447   */\n      swap3\n      swap2\n      pop\n      pop\n      jump\t// out\n        /* \"#utility.yul\":12453:12624   */\n    tag_240:\n        /* \"#utility.yul\":12593:12616   */\n      0x496e76616c696420746f6b656e20616464726573730000000000000000000000\n        /* \"#utility.yul\":12589:12590   */\n      0x00\n        /* \"#utility.yul\":12581:12587   */\n      dup3\n        /* \"#utility.yul\":12577:12591   */\n      add\n        /* \"#utility.yul\":12570:12617   */\n      mstore\n        /* \"#utility.yul\":12453:12624   */\n      pop\n      jump\t// out\n        /* \"#utility.yul\":12630:12996   */\n    tag_241:\n        /* \"#utility.yul\":12772:12775   */\n      0x00\n        /* \"#utility.yul\":12793:12860   */\n      tag_403\n        /* \"#utility.yul\":12857:12859   */\n      0x15\n        /* \"#utility.yul\":12852:12855   */\n      dup4\n        /* \"#utility.yul\":12793:12860   */\n      tag_229\n      jump\t// in\n    tag_403:\n        /* \"#utility.yul\":12786:12860   */\n      swap2\n      pop\n        /* \"#utility.yul\":12869:12962   */\n      tag_404\n        /* \"#utility.yul\":12958:12961   */\n      dup3\n        /* \"#utility.yul\":12869:12962   */\n      tag_240\n      jump\t// in\n    tag_404:\n        /* \"#utility.yul\":12987:12989   */\n      0x20\n        /* \"#utility.yul\":12982:12985   */\n      dup3\n        /* \"#utility.yul\":12978:12990   */\n      add\n        /* \"#utility.yul\":12971:12990   */\n      swap1\n      pop\n        /* \"#utility.yul\":12630:12996   */\n      swap2\n      swap1\n      pop\n      jump\t// out\n        /* \"#utility.yul\":13002:13421   */\n    tag_93:\n        /* \"#utility.yul\":13168:13172   */\n      0x00\n        /* \"#utility.yul\":13206:13208   */\n      0x20\n        /* \"#utility.yul\":13195:13204   */\n      dup3\n        /* \"#utility.yul\":13191:13209   */\n      add\n        /* \"#utility.yul\":13183:13209   */\n      swap1\n      pop\n        /* \"#utility.yul\":13255:13264   */\n      dup2\n        /* \"#utility.yul\":13249:13253   */\n      dup2\n        /* \"#utility.yul\":13245:13265   */\n      sub\n        /* \"#utility.yul\":13241:13242   */\n      0x00\n        /* \"#utility.yul\":13230:13239   */\n      dup4\n        /* \"#utility.yul\":13226:13243   */\n      add\n        /* \"#utility.yul\":13219:13266   */\n      mstore\n        /* \"#utility.yul\":13283:13414   */\n      tag_406\n        /* \"#utility.yul\":13409:13413   */\n      dup2\n        /* \"#utility.yul\":13283:13414   */\n      tag_241\n      jump\t// in\n    tag_406:\n        /* \"#utility.yul\":13275:13414   */\n      swap1\n      pop\n        /* \"#utility.yul\":13002:13421   */\n      swap2\n      swap1\n      pop\n      jump\t// out\n        /* \"#utility.yul\":13427:13591   */\n    tag_242:\n        /* \"#utility.yul\":13567:13583   */\n      0x496e76616c696420616d6f756e74000000000000000000000000000000000000\n        /* \"#utility.yul\":13563:13564   */\n      0x00\n        /* \"#utility.yul\":13555:13561   */\n      dup3\n        /* \"#utility.yul\":13551:13565   */\n      add\n        /* \"#utility.yul\":13544:13584   */\n      mstore\n        /* \"#utility.yul\":13427:13591   */\n      pop\n      jump\t// out\n        /* \"#utility.yul\":13597:13963   */\n    tag_243:\n        /* \"#utility.yul\":13739:13742   */\n      0x00\n        /* \"#utility.yul\":13760:13827   */\n      tag_409\n        /* \"#utility.yul\":13824:13826   */\n      0x0e\n        /* \"#utility.yul\":13819:13822   */\n      dup4\n        /* \"#utility.yul\":13760:13827   */\n      tag_229\n      jump\t// in\n    tag_409:\n        /* \"#utility.yul\":13753:13827   */\n      swap2\n      pop\n        /* \"#utility.yul\":13836:13929   */\n      tag_410\n        /* \"#utility.yul\":13925:13928   */\n      dup3\n        /* \"#utility.yul\":13836:13929   */\n      tag_242\n      jump\t// in\n    tag_410:\n        /* \"#utility.yul\":13954:13956   */\n      0x20\n        /* \"#utility.yul\":13949:13952   */\n      dup3\n        /* \"#utility.yul\":13945:13957   */\n      add\n        /* \"#utility.yul\":13938:13957   */\n      swap1\n      pop\n        /* \"#utility.yul\":13597:13963   */\n      swap2\n      swap1\n      pop\n      jump\t// out\n        /* \"#utility.yul\":13969:14388   */\n    tag_96:\n        /* \"#utility.yul\":14135:14139   */\n      0x00\n        /* \"#utility.yul\":14173:14175   */\n      0x20\n        /* \"#utility.yul\":14162:14171   */\n      dup3\n        /* \"#utility.yul\":14158:14176   */\n      add\n        /* \"#utility.yul\":14150:14176   */\n      swap1\n      pop\n        /* \"#utility.yul\":14222:14231   */\n      dup2\n        /* \"#utility.yul\":14216:14220   */\n      dup2\n        /* \"#utility.yul\":14212:14232   */\n      sub\n        /* \"#utility.yul\":14208:14209   */\n      0x00\n        /* \"#utility.yul\":14197:14206   */\n      dup4\n        /* \"#utility.yul\":14193:14210   */\n      add\n        /* \"#utility.yul\":14186:14233   */\n      mstore\n        /* \"#utility.yul\":14250:14381   */\n      tag_412\n        /* \"#utility.yul\":14376:14380   */\n      dup2\n        /* \"#utility.yul\":14250:14381   */\n      tag_243\n      jump\t// in\n    tag_412:\n        /* \"#utility.yul\":14242:14381   */\n      swap1\n      pop\n        /* \"#utility.yul\":13969:14388   */\n      swap2\n      swap1\n      pop\n      jump\t// out\n        /* \"#utility.yul\":14394:14562   */\n    tag_244:\n        /* \"#utility.yul\":14534:14554   */\n      0x4e6f207061796565732070726f76696465640000000000000000000000000000\n        /* \"#utility.yul\":14530:14531   */\n      0x00\n        /* \"#utility.yul\":14522:14528   */\n      dup3\n        /* \"#utility.yul\":14518:14532   */\n      add\n        /* \"#utility.yul\":14511:14555   */\n      mstore\n        /* \"#utility.yul\":14394:14562   */\n      pop\n      jump\t// out\n        /* \"#utility.yul\":14568:14934   */\n    tag_245:\n        /* \"#utility.yul\":14710:14713   */\n      0x00\n        /* \"#utility.yul\":14731:14798   */\n      tag_415\n        /* \"#utility.yul\":14795:14797   */\n      0x12\n        /* \"#utility.yul\":14790:14793   */\n      dup4\n        /* \"#utility.yul\":14731:14798   */\n      tag_229\n      jump\t// in\n    tag_415:\n        /* \"#utility.yul\":14724:14798   */\n      swap2\n      pop\n        /* \"#utility.yul\":14807:14900   */\n      tag_416\n        /* \"#utility.yul\":14896:14899   */\n      dup3\n        /* \"#utility.yul\":14807:14900   */\n      tag_244\n      jump\t// in\n    tag_416:\n        /* \"#utility.yul\":14925:14927   */\n      0x20\n        /* \"#utility.yul\":14920:14923   */\n      dup3\n        /* \"#utility.yul\":14916:14928   */\n      add\n        /* \"#utility.yul\":14909:14928   */\n      swap1\n      pop\n        /* \"#utility.yul\":14568:14934   */\n      swap2\n      swap1\n      pop\n      jump\t// out\n        /* \"#utility.yul\":14940:15359   */\n    tag_119:\n        /* \"#utility.yul\":15106:15110   */\n      0x00\n        /* \"#utility.yul\":15144:15146   */\n      0x20\n        /* \"#utility.yul\":15133:15142   */\n      dup3\n        /* \"#utility.yul\":15129:15147   */\n      add\n        /* \"#utility.yul\":15121:15147   */\n      swap1\n      pop\n        /* \"#utility.yul\":15193:15202   */\n      dup2\n        /* \"#utility.yul\":15187:15191   */\n      dup2\n        /* \"#utility.yul\":15183:15203   */\n      sub\n        /* \"#utility.yul\":15179:15180   */\n      0x00\n        /* \"#utility.yul\":15168:15177   */\n      dup4\n        /* \"#utility.yul\":15164:15181   */\n      add\n        /* \"#utility.yul\":15157:15204   */\n      mstore\n        /* \"#utility.yul\":15221:15352   */\n      tag_418\n        /* \"#utility.yul\":15347:15351   */\n      dup2\n        /* \"#utility.yul\":15221:15352   */\n      tag_245\n      jump\t// in\n    tag_418:\n        /* \"#utility.yul\":15213:15352   */\n      swap1\n      pop\n        /* \"#utility.yul\":14940:15359   */\n      swap2\n      swap1\n      pop\n      jump\t// out\n        /* \"#utility.yul\":15365:15540   */\n    tag_246:\n        /* \"#utility.yul\":15505:15532   */\n      0x496e76616c69642070617965652070657263656e746167657300000000000000\n        /* \"#utility.yul\":15501:15502   */\n      0x00\n        /* \"#utility.yul\":15493:15499   */\n      dup3\n        /* \"#utility.yul\":15489:15503   */\n      add\n        /* \"#utility.yul\":15482:15533   */\n      mstore\n        /* \"#utility.yul\":15365:15540   */\n      pop\n      jump\t// out\n        /* \"#utility.yul\":15546:15912   */\n    tag_247:\n        /* \"#utility.yul\":15688:15691   */\n      0x00\n        /* \"#utility.yul\":15709:15776   */\n      tag_421\n        /* \"#utility.yul\":15773:15775   */\n      0x19\n        /* \"#utility.yul\":15768:15771   */\n      dup4\n        /* \"#utility.yul\":15709:15776   */\n      tag_229\n      jump\t// in\n    tag_421:\n        /* \"#utility.yul\":15702:15776   */\n      swap2\n      pop\n        /* \"#utility.yul\":15785:15878   */\n      tag_422\n        /* \"#utility.yul\":15874:15877   */\n      dup3\n        /* \"#utility.yul\":15785:15878   */\n      tag_246\n      jump\t// in\n    tag_422:\n        /* \"#utility.yul\":15903:15905   */\n      0x20\n        /* \"#utility.yul\":15898:15901   */\n      dup3\n        /* \"#utility.yul\":15894:15906   */\n      add\n        /* \"#utility.yul\":15887:15906   */\n      swap1\n      pop\n        /* \"#utility.yul\":15546:15912   */\n      swap2\n      swap1\n      pop\n      jump\t// out\n        /* \"#utility.yul\":15918:16337   */\n    tag_122:\n        /* \"#utility.yul\":16084:16088   */\n      0x00\n        /* \"#utility.yul\":16122:16124   */\n      0x20\n        /* \"#utility.yul\":16111:16120   */\n      dup3\n        /* \"#utility.yul\":16107:16125   */\n      add\n        /* \"#utility.yul\":16099:16125   */\n      swap1\n      pop\n        /* \"#utility.yul\":16171:16180   */\n      dup2\n        /* \"#utility.yul\":16165:16169   */\n      dup2\n        /* \"#utility.yul\":16161:16181   */\n      sub\n        /* \"#utility.yul\":16157:16158   */\n      0x00\n        /* \"#utility.yul\":16146:16155   */\n      dup4\n        /* \"#utility.yul\":16142:16159   */\n      add\n        /* \"#utility.yul\":16135:16182   */\n      mstore\n        /* \"#utility.yul\":16199:16330   */\n      tag_424\n        /* \"#utility.yul\":16325:16329   */\n      dup2\n        /* \"#utility.yul\":16199:16330   */\n      tag_247\n      jump\t// in\n    tag_424:\n        /* \"#utility.yul\":16191:16330   */\n      swap1\n      pop\n        /* \"#utility.yul\":15918:16337   */\n      swap2\n      swap1\n      pop\n      jump\t// out\n        /* \"#utility.yul\":16343:16457   */\n    tag_248:\n        /* \"#utility.yul\":16410:16416   */\n      0x00\n        /* \"#utility.yul\":16444:16449   */\n      dup2\n        /* \"#utility.yul\":16438:16450   */\n      mload\n        /* \"#utility.yul\":16428:16450   */\n      swap1\n      pop\n        /* \"#utility.yul\":16343:16457   */\n      swap2\n      swap1\n      pop\n      jump\t// out\n        /* \"#utility.yul\":16463:16647   */\n    tag_249:\n        /* \"#utility.yul\":16562:16573   */\n      0x00\n        /* \"#utility.yul\":16596:16602   */\n      dup3\n        /* \"#utility.yul\":16591:16594   */\n      dup3\n        /* \"#utility.yul\":16584:16603   */\n      mstore\n        /* \"#utility.yul\":16636:16640   */\n      0x20\n        /* \"#utility.yul\":16631:16634   */\n      dup3\n        /* \"#utility.yul\":16627:16641   */\n      add\n        /* \"#utility.yul\":16612:16641   */\n      swap1\n      pop\n        /* \"#utility.yul\":16463:16647   */\n      swap3\n      swap2\n      pop\n      pop\n      jump\t// out\n        /* \"#utility.yul\":16653:16785   */\n    tag_250:\n        /* \"#utility.yul\":16720:16724   */\n      0x00\n        /* \"#utility.yul\":16743:16746   */\n      dup2\n        /* \"#utility.yul\":16735:16746   */\n      swap1\n      pop\n        /* \"#utility.yul\":16773:16777   */\n      0x20\n        /* \"#utility.yul\":16768:16771   */\n      dup3\n        /* \"#utility.yul\":16764:16778   */\n      add\n        /* \"#utility.yul\":16756:16778   */\n      swap1\n      pop\n        /* \"#utility.yul\":16653:16785   */\n      swap2\n      swap1\n      pop\n      jump\t// out\n        /* \"#utility.yul\":16791:16899   */\n    tag_251:\n        /* \"#utility.yul\":16868:16892   */\n      tag_429\n        /* \"#utility.yul\":16886:16891   */\n      dup2\n        /* \"#utility.yul\":16868:16892   */\n      tag_213\n      jump\t// in\n    tag_429:\n        /* \"#utility.yul\":16863:16866   */\n      dup3\n        /* \"#utility.yul\":16856:16893   */\n      mstore\n        /* \"#utility.yul\":16791:16899   */\n      pop\n      pop\n      jump\t// out\n        /* \"#utility.yul\":16905:17084   */\n    tag_252:\n        /* \"#utility.yul\":16974:16984   */\n      0x00\n        /* \"#utility.yul\":16995:17041   */\n      tag_431\n        /* \"#utility.yul\":17037:17040   */\n      dup4\n        /* \"#utility.yul\":17029:17035   */\n      dup4\n        /* \"#utility.yul\":16995:17041   */\n      tag_251\n      jump\t// in\n    tag_431:\n        /* \"#utility.yul\":17073:17077   */\n      0x20\n        /* \"#utility.yul\":17068:17071   */\n      dup4\n        /* \"#utility.yul\":17064:17078   */\n      add\n        /* \"#utility.yul\":17050:17078   */\n      swap1\n      pop\n        /* \"#utility.yul\":16905:17084   */\n      swap3\n      swap2\n      pop\n      pop\n      jump\t// out\n        /* \"#utility.yul\":17090:17203   */\n    tag_253:\n        /* \"#utility.yul\":17160:17164   */\n      0x00\n        /* \"#utility.yul\":17192:17196   */\n      0x20\n        /* \"#utility.yul\":17187:17190   */\n      dup3\n        /* \"#utility.yul\":17183:17197   */\n      add\n        /* \"#utility.yul\":17175:17197   */\n      swap1\n      pop\n        /* \"#utility.yul\":17090:17203   */\n      swap2\n      swap1\n      pop\n      jump\t// out\n        /* \"#utility.yul\":17239:17971   */\n    tag_254:\n        /* \"#utility.yul\":17358:17361   */\n      0x00\n        /* \"#utility.yul\":17387:17441   */\n      tag_434\n        /* \"#utility.yul\":17435:17440   */\n      dup3\n        /* \"#utility.yul\":17387:17441   */\n      tag_248\n      jump\t// in\n    tag_434:\n        /* \"#utility.yul\":17457:17543   */\n      tag_435\n        /* \"#utility.yul\":17536:17542   */\n      dup2\n        /* \"#utility.yul\":17531:17534   */\n      dup6\n        /* \"#utility.yul\":17457:17543   */\n      tag_249\n      jump\t// in\n    tag_435:\n        /* \"#utility.yul\":17450:17543   */\n      swap4\n      pop\n        /* \"#utility.yul\":17567:17623   */\n      tag_436\n        /* \"#utility.yul\":17617:17622   */\n      dup4\n        /* \"#utility.yul\":17567:17623   */\n      tag_250\n      jump\t// in\n    tag_436:\n        /* \"#utility.yul\":17646:17653   */\n      dup1\n        /* \"#utility.yul\":17677:17678   */\n      0x00\n        /* \"#utility.yul\":17662:17946   */\n    tag_437:\n        /* \"#utility.yul\":17687:17693   */\n      dup4\n        /* \"#utility.yul\":17684:17685   */\n      dup2\n        /* \"#utility.yul\":17681:17694   */\n      lt\n        /* \"#utility.yul\":17662:17946   */\n      iszero\n      tag_439\n      jumpi\n        /* \"#utility.yul\":17763:17769   */\n      dup2\n        /* \"#utility.yul\":17757:17770   */\n      mload\n        /* \"#utility.yul\":17790:17853   */\n      tag_440\n        /* \"#utility.yul\":17849:17852   */\n      dup9\n        /* \"#utility.yul\":17834:17847   */\n      dup3\n        /* \"#utility.yul\":17790:17853   */\n      tag_252\n      jump\t// in\n    tag_440:\n        /* \"#utility.yul\":17783:17853   */\n      swap8\n      pop\n        /* \"#utility.yul\":17876:17936   */\n      tag_441\n        /* \"#utility.yul\":17929:17935   */\n      dup4\n        /* \"#utility.yul\":17876:17936   */\n      tag_253\n      jump\t// in\n    tag_441:\n        /* \"#utility.yul\":17866:17936   */\n      swap3\n      pop\n        /* \"#utility.yul\":17722:17946   */\n      pop\n        /* \"#utility.yul\":17709:17710   */\n      0x01\n        /* \"#utility.yul\":17706:17707   */\n      dup2\n        /* \"#utility.yul\":17702:17711   */\n      add\n        /* \"#utility.yul\":17697:17711   */\n      swap1\n      pop\n        /* \"#utility.yul\":17662:17946   */\n      jump(tag_437)\n    tag_439:\n        /* \"#utility.yul\":17666:17680   */\n      pop\n        /* \"#utility.yul\":17962:17965   */\n      dup6\n        /* \"#utility.yul\":17955:17965   */\n      swap4\n      pop\n        /* \"#utility.yul\":17363:17971   */\n      pop\n      pop\n      pop\n        /* \"#utility.yul\":17239:17971   */\n      swap3\n      swap2\n      pop\n      pop\n      jump\t// out\n        /* \"#utility.yul\":17977:18091   */\n    tag_255:\n        /* \"#utility.yul\":18044:18050   */\n      0x00\n        /* \"#utility.yul\":18078:18083   */\n      dup2\n        /* \"#utility.yul\":18072:18084   */\n      mload\n        /* \"#utility.yul\":18062:18084   */\n      swap1\n      pop\n        /* \"#utility.yul\":17977:18091   */\n      swap2\n      swap1\n      pop\n      jump\t// out\n        /* \"#utility.yul\":18097:18281   */\n    tag_256:\n        /* \"#utility.yul\":18196:18207   */\n      0x00\n        /* \"#utility.yul\":18230:18236   */\n      dup3\n        /* \"#utility.yul\":18225:18228   */\n      dup3\n        /* \"#utility.yul\":18218:18237   */\n      mstore\n        /* \"#utility.yul\":18270:18274   */\n      0x20\n        /* \"#utility.yul\":18265:18268   */\n      dup3\n        /* \"#utility.yul\":18261:18275   */\n      add\n        /* \"#utility.yul\":18246:18275   */\n      swap1\n      pop\n        /* \"#utility.yul\":18097:18281   */\n      swap3\n      swap2\n      pop\n      pop\n      jump\t// out\n        /* \"#utility.yul\":18287:18419   */\n    tag_257:\n        /* \"#utility.yul\":18354:18358   */\n      0x00\n        /* \"#utility.yul\":18377:18380   */\n      dup2\n        /* \"#utility.yul\":18369:18380   */\n      swap1\n      pop\n        /* \"#utility.yul\":18407:18411   */\n      0x20\n        /* \"#utility.yul\":18402:18405   */\n      dup3\n        /* \"#utility.yul\":18398:18412   */\n      add\n        /* \"#utility.yul\":18390:18412   */\n      swap1\n      pop\n        /* \"#utility.yul\":18287:18419   */\n      swap2\n      swap1\n      pop\n      jump\t// out\n        /* \"#utility.yul\":18425:18533   */\n    tag_258:\n        /* \"#utility.yul\":18502:18526   */\n      tag_446\n        /* \"#utility.yul\":18520:18525   */\n      dup2\n        /* \"#utility.yul\":18502:18526   */\n      tag_208\n      jump\t// in\n    tag_446:\n        /* \"#utility.yul\":18497:18500   */\n      dup3\n        /* \"#utility.yul\":18490:18527   */\n      mstore\n        /* \"#utility.yul\":18425:18533   */\n      pop\n      pop\n      jump\t// out\n        /* \"#utility.yul\":18539:18718   */\n    tag_259:\n        /* \"#utility.yul\":18608:18618   */\n      0x00\n        /* \"#utility.yul\":18629:18675   */\n      tag_448\n        /* \"#utility.yul\":18671:18674   */\n      dup4\n        /* \"#utility.yul\":18663:18669   */\n      dup4\n        /* \"#utility.yul\":18629:18675   */\n      tag_258\n      jump\t// in\n    tag_448:\n        /* \"#utility.yul\":18707:18711   */\n      0x20\n        /* \"#utility.yul\":18702:18705   */\n      dup4\n        /* \"#utility.yul\":18698:18712   */\n      add\n        /* \"#utility.yul\":18684:18712   */\n      swap1\n      pop\n        /* \"#utility.yul\":18539:18718   */\n      swap3\n      swap2\n      pop\n      pop\n      jump\t// out\n        /* \"#utility.yul\":18724:18837   */\n    tag_260:\n        /* \"#utility.yul\":18794:18798   */\n      0x00\n        /* \"#utility.yul\":18826:18830   */\n      0x20\n        /* \"#utility.yul\":18821:18824   */\n      dup3\n        /* \"#utility.yul\":18817:18831   */\n      add\n        /* \"#utility.yul\":18809:18831   */\n      swap1\n      pop\n        /* \"#utility.yul\":18724:18837   */\n      swap2\n      swap1\n      pop\n      jump\t// out\n        /* \"#utility.yul\":18873:19605   */\n    tag_261:\n        /* \"#utility.yul\":18992:18995   */\n      0x00\n        /* \"#utility.yul\":19021:19075   */\n      tag_451\n        /* \"#utility.yul\":19069:19074   */\n      dup3\n        /* \"#utility.yul\":19021:19075   */\n      tag_255\n      jump\t// in\n    tag_451:\n        /* \"#utility.yul\":19091:19177   */\n      tag_452\n        /* \"#utility.yul\":19170:19176   */\n      dup2\n        /* \"#utility.yul\":19165:19168   */\n      dup6\n        /* \"#utility.yul\":19091:19177   */\n      tag_256\n      jump\t// in\n    tag_452:\n        /* \"#utility.yul\":19084:19177   */\n      swap4\n      pop\n        /* \"#utility.yul\":19201:19257   */\n      tag_453\n        /* \"#utility.yul\":19251:19256   */\n      dup4\n        /* \"#utility.yul\":19201:19257   */\n      tag_257\n      jump\t// in\n    tag_453:\n        /* \"#utility.yul\":19280:19287   */\n      dup1\n        /* \"#utility.yul\":19311:19312   */\n      0x00\n        /* \"#utility.yul\":19296:19580   */\n    tag_454:\n        /* \"#utility.yul\":19321:19327   */\n      dup4\n        /* \"#utility.yul\":19318:19319   */\n      dup2\n        /* \"#utility.yul\":19315:19328   */\n      lt\n        /* \"#utility.yul\":19296:19580   */\n      iszero\n      tag_456\n      jumpi\n        /* \"#utility.yul\":19397:19403   */\n      dup2\n        /* \"#utility.yul\":19391:19404   */\n      mload\n        /* \"#utility.yul\":19424:19487   */\n      tag_457\n        /* \"#utility.yul\":19483:19486   */\n      dup9\n        /* \"#utility.yul\":19468:19481   */\n      dup3\n        /* \"#utility.yul\":19424:19487   */\n      tag_259\n      jump\t// in\n    tag_457:\n        /* \"#utility.yul\":19417:19487   */\n      swap8\n      pop\n        /* \"#utility.yul\":19510:19570   */\n      tag_458\n        /* \"#utility.yul\":19563:19569   */\n      dup4\n        /* \"#utility.yul\":19510:19570   */\n      tag_260\n      jump\t// in\n    tag_458:\n        /* \"#utility.yul\":19500:19570   */\n      swap3\n      pop\n        /* \"#utility.yul\":19356:19580   */\n      pop\n        /* \"#utility.yul\":19343:19344   */\n      0x01\n        /* \"#utility.yul\":19340:19341   */\n      dup2\n        /* \"#utility.yul\":19336:19345   */\n      add\n        /* \"#utility.yul\":19331:19345   */\n      swap1\n      pop\n        /* \"#utility.yul\":19296:19580   */\n      jump(tag_454)\n    tag_456:\n        /* \"#utility.yul\":19300:19314   */\n      pop\n        /* \"#utility.yul\":19596:19599   */\n      dup6\n        /* \"#utility.yul\":19589:19599   */\n      swap4\n      pop\n        /* \"#utility.yul\":18997:19605   */\n      pop\n      pop\n      pop\n        /* \"#utility.yul\":18873:19605   */\n      swap3\n      swap2\n      pop\n      pop\n      jump\t// out\n        /* \"#utility.yul\":19611:20245   */\n    tag_128:\n        /* \"#utility.yul\":19832:19836   */\n      0x00\n        /* \"#utility.yul\":19870:19872   */\n      0x40\n        /* \"#utility.yul\":19859:19868   */\n      dup3\n        /* \"#utility.yul\":19855:19873   */\n      add\n        /* \"#utility.yul\":19847:19873   */\n      swap1\n      pop\n        /* \"#utility.yul\":19919:19928   */\n      dup2\n        /* \"#utility.yul\":19913:19917   */\n      dup2\n        /* \"#utility.yul\":19909:19929   */\n      sub\n        /* \"#utility.yul\":19905:19906   */\n      0x00\n        /* \"#utility.yul\":19894:19903   */\n      dup4\n        /* \"#utility.yul\":19890:19907   */\n      add\n        /* \"#utility.yul\":19883:19930   */\n      mstore\n        /* \"#utility.yul\":19947:20055   */\n      tag_460\n        /* \"#utility.yul\":20050:20054   */\n      dup2\n        /* \"#utility.yul\":20041:20047   */\n      dup6\n        /* \"#utility.yul\":19947:20055   */\n      tag_254\n      jump\t// in\n    tag_460:\n        /* \"#utility.yul\":19939:20055   */\n      swap1\n      pop\n        /* \"#utility.yul\":20102:20111   */\n      dup2\n        /* \"#utility.yul\":20096:20100   */\n      dup2\n        /* \"#utility.yul\":20092:20112   */\n      sub\n        /* \"#utility.yul\":20087:20089   */\n      0x20\n        /* \"#utility.yul\":20076:20085   */\n      dup4\n        /* \"#utility.yul\":20072:20090   */\n      add\n        /* \"#utility.yul\":20065:20113   */\n      mstore\n        /* \"#utility.yul\":20130:20238   */\n      tag_461\n        /* \"#utility.yul\":20233:20237   */\n      dup2\n        /* \"#utility.yul\":20224:20230   */\n      dup5\n        /* \"#utility.yul\":20130:20238   */\n      tag_261\n      jump\t// in\n    tag_461:\n        /* \"#utility.yul\":20122:20238   */\n      swap1\n      pop\n        /* \"#utility.yul\":19611:20245   */\n      swap4\n      swap3\n      pop\n      pop\n      pop\n      jump\t// out\n        /* \"#utility.yul\":20251:20424   */\n    tag_262:\n        /* \"#utility.yul\":20391:20416   */\n      0x4e6f20746f6b656e7320746f2064697374726962757465000000000000000000\n        /* \"#utility.yul\":20387:20388   */\n      0x00\n        /* \"#utility.yul\":20379:20385   */\n      dup3\n        /* \"#utility.yul\":20375:20389   */\n      add\n        /* \"#utility.yul\":20368:20417   */\n      mstore\n        /* \"#utility.yul\":20251:20424   */\n      pop\n      jump\t// out\n        /* \"#utility.yul\":20430:20796   */\n    tag_263:\n        /* \"#utility.yul\":20572:20575   */\n      0x00\n        /* \"#utility.yul\":20593:20660   */\n      tag_464\n        /* \"#utility.yul\":20657:20659   */\n      0x17\n        /* \"#utility.yul\":20652:20655   */\n      dup4\n        /* \"#utility.yul\":20593:20660   */\n      tag_229\n      jump\t// in\n    tag_464:\n        /* \"#utility.yul\":20586:20660   */\n      swap2\n      pop\n        /* \"#utility.yul\":20669:20762   */\n      tag_465\n        /* \"#utility.yul\":20758:20761   */\n      dup3\n        /* \"#utility.yul\":20669:20762   */\n      tag_262\n      jump\t// in\n    tag_465:\n        /* \"#utility.yul\":20787:20789   */\n      0x20\n        /* \"#utility.yul\":20782:20785   */\n      dup3\n        /* \"#utility.yul\":20778:20790   */\n      add\n        /* \"#utility.yul\":20771:20790   */\n      swap1\n      pop\n        /* \"#utility.yul\":20430:20796   */\n      swap2\n      swap1\n      pop\n      jump\t// out\n        /* \"#utility.yul\":20802:21221   */\n    tag_138:\n        /* \"#utility.yul\":20968:20972   */\n      0x00\n        /* \"#utility.yul\":21006:21008   */\n      0x20\n        /* \"#utility.yul\":20995:21004   */\n      dup3\n        /* \"#utility.yul\":20991:21009   */\n      add\n        /* \"#utility.yul\":20983:21009   */\n      swap1\n      pop\n        /* \"#utility.yul\":21055:21064   */\n      dup2\n        /* \"#utility.yul\":21049:21053   */\n      dup2\n        /* \"#utility.yul\":21045:21065   */\n      sub\n        /* \"#utility.yul\":21041:21042   */\n      0x00\n        /* \"#utility.yul\":21030:21039   */\n      dup4\n        /* \"#utility.yul\":21026:21043   */\n      add\n        /* \"#utility.yul\":21019:21066   */\n      mstore\n        /* \"#utility.yul\":21083:21214   */\n      tag_467\n        /* \"#utility.yul\":21209:21213   */\n      dup2\n        /* \"#utility.yul\":21083:21214   */\n      tag_263\n      jump\t// in\n    tag_467:\n        /* \"#utility.yul\":21075:21214   */\n      swap1\n      pop\n        /* \"#utility.yul\":20802:21221   */\n      swap2\n      swap1\n      pop\n      jump\t// out\n        /* \"#utility.yul\":21227:21407   */\n    tag_144:\n        /* \"#utility.yul\":21275:21352   */\n      0x4e487b7100000000000000000000000000000000000000000000000000000000\n        /* \"#utility.yul\":21272:21273   */\n      0x00\n        /* \"#utility.yul\":21265:21353   */\n      mstore\n        /* \"#utility.yul\":21372:21376   */\n      0x32\n        /* \"#utility.yul\":21369:21370   */\n      0x04\n        /* \"#utility.yul\":21362:21377   */\n      mstore\n        /* \"#utility.yul\":21396:21400   */\n      0x24\n        /* \"#utility.yul\":21393:21394   */\n      0x00\n        /* \"#utility.yul\":21386:21401   */\n      revert\n        /* \"#utility.yul\":21413:21587   */\n    tag_264:\n        /* \"#utility.yul\":21553:21579   */\n      0x496e76616c69642070617965652070657263656e746167650000000000000000\n        /* \"#utility.yul\":21549:21550   */\n      0x00\n        /* \"#utility.yul\":21541:21547   */\n      dup3\n        /* \"#utility.yul\":21537:21551   */\n      add\n        /* \"#utility.yul\":21530:21580   */\n      mstore\n        /* \"#utility.yul\":21413:21587   */\n      pop\n      jump\t// out\n        /* \"#utility.yul\":21593:21959   */\n    tag_265:\n        /* \"#utility.yul\":21735:21738   */\n      0x00\n        /* \"#utility.yul\":21756:21823   */\n      tag_471\n        /* \"#utility.yul\":21820:21822   */\n      0x18\n        /* \"#utility.yul\":21815:21818   */\n      dup4\n        /* \"#utility.yul\":21756:21823   */\n      tag_229\n      jump\t// in\n    tag_471:\n        /* \"#utility.yul\":21749:21823   */\n      swap2\n      pop\n        /* \"#utility.yul\":21832:21925   */\n      tag_472\n        /* \"#utility.yul\":21921:21924   */\n      dup3\n        /* \"#utility.yul\":21832:21925   */\n      tag_264\n      jump\t// in\n    tag_472:\n        /* \"#utility.yul\":21950:21952   */\n      0x20\n        /* \"#utility.yul\":21945:21948   */\n      dup3\n        /* \"#utility.yul\":21941:21953   */\n      add\n        /* \"#utility.yul\":21934:21953   */\n      swap1\n      pop\n        /* \"#utility.yul\":21593:21959   */\n      swap2\n      swap1\n      pop\n      jump\t// out\n        /* \"#utility.yul\":21965:22384   */\n    tag_148:\n        /* \"#utility.yul\":22131:22135   */\n      0x00\n        /* \"#utility.yul\":22169:22171   */\n      0x20\n        /* \"#utility.yul\":22158:22167   */\n      dup3\n        /* \"#utility.yul\":22154:22172   */\n      add\n        /* \"#utility.yul\":22146:22172   */\n      swap1\n      pop\n        /* \"#utility.yul\":22218:22227   */\n      dup2\n        /* \"#utility.yul\":22212:22216   */\n      dup2\n        /* \"#utility.yul\":22208:22228   */\n      sub\n        /* \"#utility.yul\":22204:22205   */\n      0x00\n        /* \"#utility.yul\":22193:22202   */\n      dup4\n        /* \"#utility.yul\":22189:22206   */\n      add\n        /* \"#utility.yul\":22182:22229   */\n      mstore\n        /* \"#utility.yul\":22246:22377   */\n      tag_474\n        /* \"#utility.yul\":22372:22376   */\n      dup2\n        /* \"#utility.yul\":22246:22377   */\n      tag_265\n      jump\t// in\n    tag_474:\n        /* \"#utility.yul\":22238:22377   */\n      swap1\n      pop\n        /* \"#utility.yul\":21965:22384   */\n      swap2\n      swap1\n      pop\n      jump\t// out\n        /* \"#utility.yul\":22390:22570   */\n    tag_266:\n        /* \"#utility.yul\":22438:22515   */\n      0x4e487b7100000000000000000000000000000000000000000000000000000000\n        /* \"#utility.yul\":22435:22436   */\n      0x00\n        /* \"#utility.yul\":22428:22516   */\n      mstore\n        /* \"#utility.yul\":22535:22539   */\n      0x11\n        /* \"#utility.yul\":22532:22533   */\n      0x04\n        /* \"#utility.yul\":22525:22540   */\n      mstore\n        /* \"#utility.yul\":22559:22563   */\n      0x24\n        /* \"#utility.yul\":22556:22557   */\n      0x00\n        /* \"#utility.yul\":22549:22564   */\n      revert\n        /* \"#utility.yul\":22576:22809   */\n    tag_155:\n        /* \"#utility.yul\":22615:22618   */\n      0x00\n        /* \"#utility.yul\":22638:22662   */\n      tag_477\n        /* \"#utility.yul\":22656:22661   */\n      dup3\n        /* \"#utility.yul\":22638:22662   */\n      tag_208\n      jump\t// in\n    tag_477:\n        /* \"#utility.yul\":22629:22662   */\n      swap2\n      pop\n        /* \"#utility.yul\":22684:22750   */\n      0xffffffffffffffffffffffffffffffffffffffffffffffffffffffffffffffff\n        /* \"#utility.yul\":22677:22682   */\n      dup3\n        /* \"#utility.yul\":22674:22751   */\n      sub\n        /* \"#utility.yul\":22671:22774   */\n      tag_478\n      jumpi\n        /* \"#utility.yul\":22754:22772   */\n      tag_479\n      tag_266\n      jump\t// in\n    tag_479:\n        /* \"#utility.yul\":22671:22774   */\n    tag_478:\n        /* \"#utility.yul\":22801:22802   */\n      0x01\n        /* \"#utility.yul\":22794:22799   */\n      dup3\n        /* \"#utility.yul\":22790:22803   */\n      add\n        /* \"#utility.yul\":22783:22803   */\n      swap1\n      pop\n        /* \"#utility.yul\":22576:22809   */\n      swap2\n      swap1\n      pop\n      jump\t// out\n        /* \"#utility.yul\":22815:22996   */\n    tag_267:\n        /* \"#utility.yul\":22955:22988   */\n      0x546f74616c2070657263656e74616765206d75737420657175616c2031303000\n        /* \"#utility.yul\":22951:22952   */\n      0x00\n        /* \"#utility.yul\":22943:22949   */\n      dup3\n        /* \"#utility.yul\":22939:22953   */\n      add\n        /* \"#utility.yul\":22932:22989   */\n      mstore\n        /* \"#utility.yul\":22815:22996   */\n      pop\n      jump\t// out\n        /* \"#utility.yul\":23002:23368   */\n    tag_268:\n        /* \"#utility.yul\":23144:23147   */\n      0x00\n        /* \"#utility.yul\":23165:23232   */\n      tag_482\n        /* \"#utility.yul\":23229:23231   */\n      0x1f\n        /* \"#utility.yul\":23224:23227   */\n      dup4\n        /* \"#utility.yul\":23165:23232   */\n      tag_229\n      jump\t// in\n    tag_482:\n        /* \"#utility.yul\":23158:23232   */\n      swap2\n      pop\n        /* \"#utility.yul\":23241:23334   */\n      tag_483\n        /* \"#utility.yul\":23330:23333   */\n      dup3\n        /* \"#utility.yul\":23241:23334   */\n      tag_267\n      jump\t// in\n    tag_483:\n        /* \"#utility.yul\":23359:23361   */\n      0x20\n        /* \"#utility.yul\":23354:23357   */\n      dup3\n        /* \"#utility.yul\":23350:23362   */\n      add\n        /* \"#utility.yul\":23343:23362   */\n      swap1\n      pop\n        /* \"#utility.yul\":23002:23368   */\n      swap2\n      swap1\n      pop\n      jump\t// out\n        /* \"#utility.yul\":23374:23793   */\n    tag_158:\n        /* \"#utility.yul\":23540:23544   */\n      0x00\n        /* \"#utility.yul\":23578:23580   */\n      0x20\n        /* \"#utility.yul\":23567:23576   */\n      dup3\n        /* \"#utility.yul\":23563:23581   */\n      add\n        /* \"#utility.yul\":23555:23581   */\n      swap1\n      pop\n        /* \"#utility.yul\":23627:23636   */\n      dup2\n        /* \"#utility.yul\":23621:23625   */\n      dup2\n        /* \"#utility.yul\":23617:23637   */\n      sub\n        /* \"#utility.yul\":23613:23614   */\n      0x00\n        /* \"#utility.yul\":23602:23611   */\n      dup4\n        /* \"#utility.yul\":23598:23615   */\n      add\n        /* \"#utility.yul\":23591:23638   */\n      mstore\n        /* \"#utility.yul\":23655:23786   */\n      tag_485\n        /* \"#utility.yul\":23781:23785   */\n      dup2\n        /* \"#utility.yul\":23655:23786   */\n      tag_268\n      jump\t// in\n    tag_485:\n        /* \"#utility.yul\":23647:23786   */\n      swap1\n      pop\n        /* \"#utility.yul\":23374:23793   */\n      swap2\n      swap1\n      pop\n      jump\t// out\n        /* \"#utility.yul\":23799:23974   */\n    tag_269:\n        /* \"#utility.yul\":23939:23966   */\n      0x496e76616c6964206e6577206f776e6572206164647265737300000000000000\n        /* \"#utility.yul\":23935:23936   */\n      0x00\n        /* \"#utility.yul\":23927:23933   */\n      dup3\n        /* \"#utility.yul\":23923:23937   */\n      add\n        /* \"#utility.yul\":23916:23967   */\n      mstore\n        /* \"#utility.yul\":23799:23974   */\n      pop\n      jump\t// out\n        /* \"#utility.yul\":23980:24346   */\n    tag_270:\n        /* \"#utility.yul\":24122:24125   */\n      0x00\n        /* \"#utility.yul\":24143:24210   */\n      tag_488\n        /* \"#utility.yul\":24207:24209   */\n      0x19\n        /* \"#utility.yul\":24202:24205   */\n      dup4\n        /* \"#utility.yul\":24143:24210   */\n      tag_229\n      jump\t// in\n    tag_488:\n        /* \"#utility.yul\":24136:24210   */\n      swap2\n      pop\n        /* \"#utility.yul\":24219:24312   */\n      tag_489\n        /* \"#utility.yul\":24308:24311   */\n      dup3\n        /* \"#utility.yul\":24219:24312   */\n      tag_269\n      jump\t// in\n    tag_489:\n        /* \"#utility.yul\":24337:24339   */\n      0x20\n        /* \"#utility.yul\":24332:24335   */\n      dup3\n        /* \"#utility.yul\":24328:24340   */\n      add\n        /* \"#utility.yul\":24321:24340   */\n      swap1\n      pop\n        /* \"#utility.yul\":23980:24346   */\n      swap2\n      swap1\n      pop\n      jump\t// out\n        /* \"#utility.yul\":24352:24771   */\n    tag_183:\n        /* \"#utility.yul\":24518:24522   */\n      0x00\n        /* \"#utility.yul\":24556:24558   */\n      0x20\n        /* \"#utility.yul\":24545:24554   */\n      dup3\n        /* \"#utility.yul\":24541:24559   */\n      add\n        /* \"#utility.yul\":24533:24559   */\n      swap1\n      pop\n        /* \"#utility.yul\":24605:24614   */\n      dup2\n        /* \"#utility.yul\":24599:24603   */\n      dup2\n        /* \"#utility.yul\":24595:24615   */\n      sub\n        /* \"#utility.yul\":24591:24592   */\n      0x00\n        /* \"#utility.yul\":24580:24589   */\n      dup4\n        /* \"#utility.yul\":24576:24593   */\n      add\n        /* \"#utility.yul\":24569:24616   */\n      mstore\n        /* \"#utility.yul\":24633:24764   */\n      tag_491\n        /* \"#utility.yul\":24759:24763   */\n      dup2\n        /* \"#utility.yul\":24633:24764   */\n      tag_270\n      jump\t// in\n    tag_491:\n        /* \"#utility.yul\":24625:24764   */\n      swap1\n      pop\n        /* \"#utility.yul\":24352:24771   */\n      swap2\n      swap1\n      pop\n      jump\t// out\n        /* \"#utility.yul\":24777:24968   */\n    tag_187:\n        /* \"#utility.yul\":24817:24820   */\n      0x00\n        /* \"#utility.yul\":24836:24856   */\n      tag_493\n        /* \"#utility.yul\":24854:24855   */\n      dup3\n        /* \"#utility.yul\":24836:24856   */\n      tag_208\n      jump\t// in\n    tag_493:\n        /* \"#utility.yul\":24831:24856   */\n      swap2\n      pop\n        /* \"#utility.yul\":24870:24890   */\n      tag_494\n        /* \"#utility.yul\":24888:24889   */\n      dup4\n        /* \"#utility.yul\":24870:24890   */\n      tag_208\n      jump\t// in\n    tag_494:\n        /* \"#utility.yul\":24865:24890   */\n      swap3\n      pop\n        /* \"#utility.yul\":24913:24914   */\n      dup3\n        /* \"#utility.yul\":24910:24911   */\n      dup3\n        /* \"#utility.yul\":24906:24915   */\n      add\n        /* \"#utility.yul\":24899:24915   */\n      swap1\n      pop\n        /* \"#utility.yul\":24934:24937   */\n      dup1\n        /* \"#utility.yul\":24931:24932   */\n      dup3\n        /* \"#utility.yul\":24928:24938   */\n      gt\n        /* \"#utility.yul\":24925:24961   */\n      iszero\n      tag_495\n      jumpi\n        /* \"#utility.yul\":24941:24959   */\n      tag_496\n      tag_266\n      jump\t// in\n    tag_496:\n        /* \"#utility.yul\":24925:24961   */\n    tag_495:\n        /* \"#utility.yul\":24777:24968   */\n      swap3\n      swap2\n      pop\n      pop\n      jump\t// out\n        /* \"#utility.yul\":24974:25384   */\n    tag_190:\n        /* \"#utility.yul\":25014:25021   */\n      0x00\n        /* \"#utility.yul\":25037:25057   */\n      tag_498\n        /* \"#utility.yul\":25055:25056   */\n      dup3\n        /* \"#utility.yul\":25037:25057   */\n      tag_208\n      jump\t// in\n    tag_498:\n        /* \"#utility.yul\":25032:25057   */\n      swap2\n      pop\n        /* \"#utility.yul\":25071:25091   */\n      tag_499\n        /* \"#utility.yul\":25089:25090   */\n      dup4\n        /* \"#utility.yul\":25071:25091   */\n      tag_208\n      jump\t// in\n    tag_499:\n        /* \"#utility.yul\":25066:25091   */\n      swap3\n      pop\n        /* \"#utility.yul\":25126:25127   */\n      dup3\n        /* \"#utility.yul\":25123:25124   */\n      dup3\n        /* \"#utility.yul\":25119:25128   */\n      mul\n        /* \"#utility.yul\":25148:25178   */\n      tag_500\n        /* \"#utility.yul\":25166:25177   */\n      dup2\n        /* \"#utility.yul\":25148:25178   */\n      tag_208\n      jump\t// in\n    tag_500:\n        /* \"#utility.yul\":25137:25178   */\n      swap2\n      pop\n        /* \"#utility.yul\":25327:25328   */\n      dup3\n        /* \"#utility.yul\":25318:25325   */\n      dup3\n        /* \"#utility.yul\":25314:25329   */\n      div\n        /* \"#utility.yul\":25311:25312   */\n      dup5\n        /* \"#utility.yul\":25308:25330   */\n      eq\n        /* \"#utility.yul\":25288:25289   */\n      dup4\n        /* \"#utility.yul\":25281:25290   */\n      iszero\n        /* \"#utility.yul\":25261:25344   */\n      or\n        /* \"#utility.yul\":25238:25377   */\n      tag_501\n      jumpi\n        /* \"#utility.yul\":25357:25375   */\n      tag_502\n      tag_266\n      jump\t// in\n    tag_502:\n        /* \"#utility.yul\":25238:25377   */\n    tag_501:\n        /* \"#utility.yul\":25022:25384   */\n      pop\n        /* \"#utility.yul\":24974:25384   */\n      swap3\n      swap2\n      pop\n      pop\n      jump\t// out\n        /* \"#utility.yul\":25390:25570   */\n    tag_271:\n        /* \"#utility.yul\":25438:25515   */\n      0x4e487b7100000000000000000000000000000000000000000000000000000000\n        /* \"#utility.yul\":25435:25436   */\n      0x00\n        /* \"#utility.yul\":25428:25516   */\n      mstore\n        /* \"#utility.yul\":25535:25539   */\n      0x12\n        /* \"#utility.yul\":25532:25533   */\n      0x04\n        /* \"#utility.yul\":25525:25540   */\n      mstore\n        /* \"#utility.yul\":25559:25563   */\n      0x24\n        /* \"#utility.yul\":25556:25557   */\n      0x00\n        /* \"#utility.yul\":25549:25564   */\n      revert\n        /* \"#utility.yul\":25576:25761   */\n    tag_193:\n        /* \"#utility.yul\":25616:25617   */\n      0x00\n        /* \"#utility.yul\":25633:25653   */\n      tag_505\n        /* \"#utility.yul\":25651:25652   */\n      dup3\n        /* \"#utility.yul\":25633:25653   */\n      tag_208\n      jump\t// in\n    tag_505:\n        /* \"#utility.yul\":25628:25653   */\n      swap2\n      pop\n        /* \"#utility.yul\":25667:25687   */\n      tag_506\n        /* \"#utility.yul\":25685:25686   */\n      dup4\n        /* \"#utility.yul\":25667:25687   */\n      tag_208\n      jump\t// in\n    tag_506:\n        /* \"#utility.yul\":25662:25687   */\n      swap3\n      pop\n        /* \"#utility.yul\":25706:25707   */\n      dup3\n        /* \"#utility.yul\":25696:25731   */\n      tag_507\n      jumpi\n        /* \"#utility.yul\":25711:25729   */\n      tag_508\n      tag_271\n      jump\t// in\n    tag_508:\n        /* \"#utility.yul\":25696:25731   */\n    tag_507:\n        /* \"#utility.yul\":25753:25754   */\n      dup3\n        /* \"#utility.yul\":25750:25751   */\n      dup3\n        /* \"#utility.yul\":25746:25755   */\n      div\n        /* \"#utility.yul\":25741:25755   */\n      swap1\n      pop\n        /* \"#utility.yul\":25576:25761   */\n      swap3\n      swap2\n      pop\n      pop\n      jump\t// out\n\n    auxdata: 0xa2646970667358221220999d62d7239f15136da8f3c3fd197afdb4be8337ea298e5d09775335b8373b4664736f6c63430008130033\n}\n",
				"bytecode": {
					"linkReferences": {},
					"object": "60806040523480156200001157600080fd5b50604051620027c8380380620027c88339818101604052810190620000379190620005f3565b60008351116200007e576040517f08c379a00000000000000000000000000000000000000000000000000000000081526004016200007590620006ee565b60405180910390fd5b8151835114620000c5576040517f08c379a0000000000000000000000000000000000000000000000000000000008152600401620000bc9062000760565b60405180910390fd5b600073ffffffffffffffffffffffffffffffffffffffff168173ffffffffffffffffffffffffffffffffffffffff160362000137576040517f08c379a00000000000000000000000000000000000000000000000000000000081526004016200012e90620007d2565b60405180910390fd5b33600260006101000a81548173ffffffffffffffffffffffffffffffffffffffff021916908373ffffffffffffffffffffffffffffffffffffffff160217905550826000908051906020019062000190929190620001f4565b508160019080519060200190620001a992919062000283565b5080600360006101000a81548173ffffffffffffffffffffffffffffffffffffffff021916908373ffffffffffffffffffffffffffffffffffffffff160217905550505050620007f4565b82805482825590600052602060002090810192821562000270579160200282015b828111156200026f5782518260006101000a81548173ffffffffffffffffffffffffffffffffffffffff021916908373ffffffffffffffffffffffffffffffffffffffff1602179055509160200191906001019062000215565b5b5090506200027f9190620002d5565b5090565b828054828255906000526020600020908101928215620002c2579160200282015b82811115620002c1578251825591602001919060010190620002a4565b5b509050620002d19190620002d5565b5090565b5b80821115620002f0576000816000905550600101620002d6565b5090565b6000604051905090565b600080fd5b600080fd5b600080fd5b6000601f19601f8301169050919050565b7f4e487b7100000000000000000000000000000000000000000000000000000000600052604160045260246000fd5b62000358826200030d565b810181811067ffffffffffffffff821117156200037a57620003796200031e565b5b80604052505050565b60006200038f620002f4565b90506200039d82826200034d565b919050565b600067ffffffffffffffff821115620003c057620003bf6200031e565b5b602082029050602081019050919050565b600080fd5b600073ffffffffffffffffffffffffffffffffffffffff82169050919050565b60006200040382620003d6565b9050919050565b6200041581620003f6565b81146200042157600080fd5b50565b60008151905062000435816200040a565b92915050565b6000620004526200044c84620003a2565b62000383565b90508083825260208201905060208402830185811115620004785762000477620003d1565b5b835b81811015620004a5578062000490888262000424565b8452602084019350506020810190506200047a565b5050509392505050565b600082601f830112620004c757620004c662000308565b5b8151620004d98482602086016200043b565b91505092915050565b600067ffffffffffffffff8211156200050057620004ff6200031e565b5b602082029050602081019050919050565b6000819050919050565b620005268162000511565b81146200053257600080fd5b50565b60008151905062000546816200051b565b92915050565b6000620005636200055d84620004e2565b62000383565b90508083825260208201905060208402830185811115620005895762000588620003d1565b5b835b81811015620005b65780620005a1888262000535565b8452602084019350506020810190506200058b565b5050509392505050565b600082601f830112620005d857620005d762000308565b5b8151620005ea8482602086016200054c565b91505092915050565b6000806000606084860312156200060f576200060e620002fe565b5b600084015167ffffffffffffffff81111562000630576200062f62000303565b5b6200063e86828701620004af565b935050602084015167ffffffffffffffff81111562000662576200066162000303565b5b6200067086828701620005c0565b9250506040620006838682870162000424565b9150509250925092565b600082825260208201905092915050565b7f4e6f207061796565732070726f76696465640000000000000000000000000000600082015250565b6000620006d66012836200068d565b9150620006e3826200069e565b602082019050919050565b600060208201905081810360008301526200070981620006c7565b9050919050565b7f496e76616c69642070617965652070657263656e746167657300000000000000600082015250565b6000620007486019836200068d565b9150620007558262000710565b602082019050919050565b600060208201905081810360008301526200077b8162000739565b9050919050565b7f496e76616c696420746f6b656e20616464726573730000000000000000000000600082015250565b6000620007ba6015836200068d565b9150620007c78262000782565b602082019050919050565b60006020820190508181036000830152620007ed81620007ab565b9050919050565b611fc480620008046000396000f3fe608060405234801561001057600080fd5b50600436106100a95760003560e01c80638f63458c116100715780638f63458c146101545780639d76ea5814610170578063c9cda91f1461018e578063d9215050146101aa578063e4fc6b6d146101c6578063f2fde38b146101d0576100a9565b80632b29af7f146100ae57806363037b0c146100de57806382b2e2571461010e5780638d8f2adb1461012c5780638da5cb5b14610136575b600080fd5b6100c860048036038101906100c391906112fa565b6101ec565b6040516100d59190611336565b60405180910390f35b6100f860048036038101906100f391906112fa565b610210565b6040516101059190611392565b60405180910390f35b61011661024f565b6040516101239190611336565b60405180910390f35b610134610382565b005b61013e610630565b60405161014b9190611392565b60405180910390f35b61016e600480360381019061016991906113d9565b610656565b005b610178610919565b6040516101859190611392565b60405180910390f35b6101a860048036038101906101a39190611419565b61093f565b005b6101c460048036038101906101bf9190611662565b610ab9565b005b6101ce610c3c565b005b6101ea60048036038101906101e59190611419565b611000565b005b600181815481106101fc57600080fd5b906000526020600020016000915090505481565b6000818154811061022057600080fd5b906000526020600020016000915054906101000a900473ffffffffffffffffffffffffffffffffffffffff1681565b60008073ffffffffffffffffffffffffffffffffffffffff16600360009054906101000a900473ffffffffffffffffffffffffffffffffffffffff1673ffffffffffffffffffffffffffffffffffffffff16036102e1576040517f08c379a00000000000000000000000000000000000000000000000000000000081526004016102d890611737565b60405180910390fd5b600360009054906101000a900473ffffffffffffffffffffffffffffffffffffffff1673ffffffffffffffffffffffffffffffffffffffff166370a08231306040518263ffffffff1660e01b815260040161033c9190611392565b602060405180830381865afa158015610359573d6000803e3d6000fd5b505050506040513d601f19601f8201168201806040525081019061037d919061176c565b905090565b600260009054906101000a900473ffffffffffffffffffffffffffffffffffffffff1673ffffffffffffffffffffffffffffffffffffffff163373ffffffffffffffffffffffffffffffffffffffff1614610412576040517f08c379a0000000000000000000000000000000000000000000000000000000008152600401610409906117e5565b60405180910390fd5b600073ffffffffffffffffffffffffffffffffffffffff16600360009054906101000a900473ffffffffffffffffffffffffffffffffffffffff1673ffffffffffffffffffffffffffffffffffffffff16036104a3576040517f08c379a000000000000000000000000000000000000000000000000000000000815260040161049a90611737565b60405180910390fd5b6000600360009054906101000a900473ffffffffffffffffffffffffffffffffffffffff16905060008173ffffffffffffffffffffffffffffffffffffffff166370a08231306040518263ffffffff1660e01b81526004016105059190611392565b602060405180830381865afa158015610522573d6000803e3d6000fd5b505050506040513d601f19601f82011682018060405250810190610546919061176c565b90506000811161058b576040517f08c379a000000000000000000000000000000000000000000000000000000000815260040161058290611851565b60405180910390fd5b8173ffffffffffffffffffffffffffffffffffffffff1663a9059cbb600260009054906101000a900473ffffffffffffffffffffffffffffffffffffffff16836040518363ffffffff1660e01b81526004016105e8929190611871565b6020604051808303816000875af1158015610607573d6000803e3d6000fd5b505050506040513d601f19601f8201168201806040525081019061062b91906118d2565b505050565b600260009054906101000a900473ffffffffffffffffffffffffffffffffffffffff1681565b600260009054906101000a900473ffffffffffffffffffffffffffffffffffffffff1673ffffffffffffffffffffffffffffffffffffffff163373ffffffffffffffffffffffffffffffffffffffff16146106e6576040517f08c379a00000000000000000000000000000000000000000000000000000000081526004016106dd906117e5565b60405180910390fd5b600073ffffffffffffffffffffffffffffffffffffffff168273ffffffffffffffffffffffffffffffffffffffff1603610755576040517f08c379a000000000000000000000000000000000000000000000000000000000815260040161074c9061194b565b60405180910390fd5b60008111610798576040517f08c379a000000000000000000000000000000000000000000000000000000000815260040161078f906119b7565b60405180910390fd5b600073ffffffffffffffffffffffffffffffffffffffff168273ffffffffffffffffffffffffffffffffffffffff160361083a57600260009054906101000a900473ffffffffffffffffffffffffffffffffffffffff1673ffffffffffffffffffffffffffffffffffffffff166108fc829081150290604051600060405180830381858888f19350505050158015610834573d6000803e3d6000fd5b506108dc565b8173ffffffffffffffffffffffffffffffffffffffff1663a9059cbb600260009054906101000a900473ffffffffffffffffffffffffffffffffffffffff16836040518363ffffffff1660e01b8152600401610897929190611871565b6020604051808303816000875af11580156108b6573d6000803e3d6000fd5b505050506040513d601f19601f820116820180604052508101906108da91906118d2565b505b7f59bfc682b673f8cbf945f1e454df9334834abf7dfe7f92237ca29ecb9b436600828260405161090d929190611871565b60405180910390a15050565b600360009054906101000a900473ffffffffffffffffffffffffffffffffffffffff1681565b600260009054906101000a900473ffffffffffffffffffffffffffffffffffffffff1673ffffffffffffffffffffffffffffffffffffffff163373ffffffffffffffffffffffffffffffffffffffff16146109cf576040517f08c379a00000000000000000000000000000000000000000000000000000000081526004016109c6906117e5565b60405180910390fd5b600073ffffffffffffffffffffffffffffffffffffffff168173ffffffffffffffffffffffffffffffffffffffff1603610a3e576040517f08c379a0000000000000000000000000000000000000000000000000000000008152600401610a359061194b565b60405180910390fd5b80600360006101000a81548173ffffffffffffffffffffffffffffffffffffffff021916908373ffffffffffffffffffffffffffffffffffffffff1602179055507f2f0c7f17be551d1f4566672cd67adbe50173e96632f56ff80d80acc4ac00f32881604051610aae9190611392565b60405180910390a150565b600260009054906101000a900473ffffffffffffffffffffffffffffffffffffffff1673ffffffffffffffffffffffffffffffffffffffff163373ffffffffffffffffffffffffffffffffffffffff1614610b49576040517f08c379a0000000000000000000000000000000000000000000000000000000008152600401610b40906117e5565b60405180910390fd5b6000825111610b8d576040517f08c379a0000000000000000000000000000000000000000000000000000000008152600401610b8490611a23565b60405180910390fd5b8051825114610bd1576040517f08c379a0000000000000000000000000000000000000000000000000000000008152600401610bc890611a8f565b60405180910390fd5b8160009080519060200190610be79291906111bc565b508060019080519060200190610bfe929190611246565b507fe513d216117f51d2e3f1d22d007ed71d23a52c0bcc410e8258732d682fe3db938282604051610c30929190611c2b565b60405180910390a15050565b600073ffffffffffffffffffffffffffffffffffffffff16600360009054906101000a900473ffffffffffffffffffffffffffffffffffffffff1673ffffffffffffffffffffffffffffffffffffffff1603610ccd576040517f08c379a0000000000000000000000000000000000000000000000000000000008152600401610cc490611737565b60405180910390fd5b6000600360009054906101000a900473ffffffffffffffffffffffffffffffffffffffff1673ffffffffffffffffffffffffffffffffffffffff166370a08231306040518263ffffffff1660e01b8152600401610d2a9190611392565b602060405180830381865afa158015610d47573d6000803e3d6000fd5b505050506040513d601f19601f82011682018060405250810190610d6b919061176c565b905060008111610db0576040517f08c379a0000000000000000000000000000000000000000000000000000000008152600401610da790611cae565b60405180910390fd5b600080600090505b600180549050811015610e6c57600060018281548110610ddb57610dda611cce565b5b906000526020600020015411610e26576040517f08c379a0000000000000000000000000000000000000000000000000000000008152600401610e1d90611d49565b60405180910390fd5b610e5760018281548110610e3d57610e3c611cce565b5b90600052602060002001548361117a90919063ffffffff16565b91508080610e6490611d98565b915050610db8565b5060648114610eb0576040517f08c379a0000000000000000000000000000000000000000000000000000000008152600401610ea790611e2c565b60405180910390fd5b60005b600080549050811015610ffb576000610f066064610ef860018581548110610ede57610edd611cce565b5b90600052602060002001548761119090919063ffffffff16565b6111a690919063ffffffff16565b9050600360009054906101000a900473ffffffffffffffffffffffffffffffffffffffff1673ffffffffffffffffffffffffffffffffffffffff1663a9059cbb60008481548110610f5a57610f59611cce565b5b9060005260206000200160009054906101000a900473ffffffffffffffffffffffffffffffffffffffff16836040518363ffffffff1660e01b8152600401610fa3929190611871565b6020604051808303816000875af1158015610fc2573d6000803e3d6000fd5b505050506040513d601f19601f82011682018060405250810190610fe691906118d2565b50508080610ff390611d98565b915050610eb3565b505050565b600260009054906101000a900473ffffffffffffffffffffffffffffffffffffffff1673ffffffffffffffffffffffffffffffffffffffff163373ffffffffffffffffffffffffffffffffffffffff1614611090576040517f08c379a0000000000000000000000000000000000000000000000000000000008152600401611087906117e5565b60405180910390fd5b600073ffffffffffffffffffffffffffffffffffffffff168173ffffffffffffffffffffffffffffffffffffffff16036110ff576040517f08c379a00000000000000000000000000000000000000000000000000000000081526004016110f690611e98565b60405180910390fd5b80600260006101000a81548173ffffffffffffffffffffffffffffffffffffffff021916908373ffffffffffffffffffffffffffffffffffffffff1602179055507f04dba622d284ed0014ee4b9a6a68386be1a4c08a4913ae272de89199cc6861638160405161116f9190611392565b60405180910390a150565b600081836111889190611eb8565b905092915050565b6000818361119e9190611eec565b905092915050565b600081836111b49190611f5d565b905092915050565b828054828255906000526020600020908101928215611235579160200282015b828111156112345782518260006101000a81548173ffffffffffffffffffffffffffffffffffffffff021916908373ffffffffffffffffffffffffffffffffffffffff160217905550916020019190600101906111dc565b5b5090506112429190611293565b5090565b828054828255906000526020600020908101928215611282579160200282015b82811115611281578251825591602001919060010190611266565b5b50905061128f9190611293565b5090565b5b808211156112ac576000816000905550600101611294565b5090565b6000604051905090565b600080fd5b600080fd5b6000819050919050565b6112d7816112c4565b81146112e257600080fd5b50565b6000813590506112f4816112ce565b92915050565b6000602082840312156113105761130f6112ba565b5b600061131e848285016112e5565b91505092915050565b611330816112c4565b82525050565b600060208201905061134b6000830184611327565b92915050565b600073ffffffffffffffffffffffffffffffffffffffff82169050919050565b600061137c82611351565b9050919050565b61138c81611371565b82525050565b60006020820190506113a76000830184611383565b92915050565b6113b681611371565b81146113c157600080fd5b50565b6000813590506113d3816113ad565b92915050565b600080604083850312156113f0576113ef6112ba565b5b60006113fe858286016113c4565b925050602061140f858286016112e5565b9150509250929050565b60006020828403121561142f5761142e6112ba565b5b600061143d848285016113c4565b91505092915050565b600080fd5b6000601f19601f8301169050919050565b7f4e487b7100000000000000000000000000000000000000000000000000000000600052604160045260246000fd5b6114948261144b565b810181811067ffffffffffffffff821117156114b3576114b261145c565b5b80604052505050565b60006114c66112b0565b90506114d2828261148b565b919050565b600067ffffffffffffffff8211156114f2576114f161145c565b5b602082029050602081019050919050565b600080fd5b600061151b611516846114d7565b6114bc565b9050808382526020820190506020840283018581111561153e5761153d611503565b5b835b81811015611567578061155388826113c4565b845260208401935050602081019050611540565b5050509392505050565b600082601f83011261158657611585611446565b5b8135611596848260208601611508565b91505092915050565b600067ffffffffffffffff8211156115ba576115b961145c565b5b602082029050602081019050919050565b60006115de6115d98461159f565b6114bc565b9050808382526020820190506020840283018581111561160157611600611503565b5b835b8181101561162a578061161688826112e5565b845260208401935050602081019050611603565b5050509392505050565b600082601f83011261164957611648611446565b5b81356116598482602086016115cb565b91505092915050565b60008060408385031215611679576116786112ba565b5b600083013567ffffffffffffffff811115611697576116966112bf565b5b6116a385828601611571565b925050602083013567ffffffffffffffff8111156116c4576116c36112bf565b5b6116d085828601611634565b9150509250929050565b600082825260208201905092915050565b7f546f6b656e2061646472657373206e6f74207365740000000000000000000000600082015250565b60006117216015836116da565b915061172c826116eb565b602082019050919050565b6000602082019050818103600083015261175081611714565b9050919050565b600081519050611766816112ce565b92915050565b600060208284031215611782576117816112ba565b5b600061179084828501611757565b91505092915050565b7f4e6f742074686520636f6e7472616374206f776e657200000000000000000000600082015250565b60006117cf6016836116da565b91506117da82611799565b602082019050919050565b600060208201905081810360008301526117fe816117c2565b9050919050565b7f4e6f20746f6b656e7320746f2077697468647261770000000000000000000000600082015250565b600061183b6015836116da565b915061184682611805565b602082019050919050565b6000602082019050818103600083015261186a8161182e565b9050919050565b60006040820190506118866000830185611383565b6118936020830184611327565b9392505050565b60008115159050919050565b6118af8161189a565b81146118ba57600080fd5b50565b6000815190506118cc816118a6565b92915050565b6000602082840312156118e8576118e76112ba565b5b60006118f6848285016118bd565b91505092915050565b7f496e76616c696420746f6b656e20616464726573730000000000000000000000600082015250565b60006119356015836116da565b9150611940826118ff565b602082019050919050565b6000602082019050818103600083015261196481611928565b9050919050565b7f496e76616c696420616d6f756e74000000000000000000000000000000000000600082015250565b60006119a1600e836116da565b91506119ac8261196b565b602082019050919050565b600060208201905081810360008301526119d081611994565b9050919050565b7f4e6f207061796565732070726f76696465640000000000000000000000000000600082015250565b6000611a0d6012836116da565b9150611a18826119d7565b602082019050919050565b60006020820190508181036000830152611a3c81611a00565b9050919050565b7f496e76616c69642070617965652070657263656e746167657300000000000000600082015250565b6000611a796019836116da565b9150611a8482611a43565b602082019050919050565b60006020820190508181036000830152611aa881611a6c565b9050919050565b600081519050919050565b600082825260208201905092915050565b6000819050602082019050919050565b611ae481611371565b82525050565b6000611af68383611adb565b60208301905092915050565b6000602082019050919050565b6000611b1a82611aaf565b611b248185611aba565b9350611b2f83611acb565b8060005b83811015611b60578151611b478882611aea565b9750611b5283611b02565b925050600181019050611b33565b5085935050505092915050565b600081519050919050565b600082825260208201905092915050565b6000819050602082019050919050565b611ba2816112c4565b82525050565b6000611bb48383611b99565b60208301905092915050565b6000602082019050919050565b6000611bd882611b6d565b611be28185611b78565b9350611bed83611b89565b8060005b83811015611c1e578151611c058882611ba8565b9750611c1083611bc0565b925050600181019050611bf1565b5085935050505092915050565b60006040820190508181036000830152611c458185611b0f565b90508181036020830152611c598184611bcd565b90509392505050565b7f4e6f20746f6b656e7320746f2064697374726962757465000000000000000000600082015250565b6000611c986017836116da565b9150611ca382611c62565b602082019050919050565b60006020820190508181036000830152611cc781611c8b565b9050919050565b7f4e487b7100000000000000000000000000000000000000000000000000000000600052603260045260246000fd5b7f496e76616c69642070617965652070657263656e746167650000000000000000600082015250565b6000611d336018836116da565b9150611d3e82611cfd565b602082019050919050565b60006020820190508181036000830152611d6281611d26565b9050919050565b7f4e487b7100000000000000000000000000000000000000000000000000000000600052601160045260246000fd5b6000611da3826112c4565b91507fffffffffffffffffffffffffffffffffffffffffffffffffffffffffffffffff8203611dd557611dd4611d69565b5b600182019050919050565b7f546f74616c2070657263656e74616765206d75737420657175616c2031303000600082015250565b6000611e16601f836116da565b9150611e2182611de0565b602082019050919050565b60006020820190508181036000830152611e4581611e09565b9050919050565b7f496e76616c6964206e6577206f776e6572206164647265737300000000000000600082015250565b6000611e826019836116da565b9150611e8d82611e4c565b602082019050919050565b60006020820190508181036000830152611eb181611e75565b9050919050565b6000611ec3826112c4565b9150611ece836112c4565b9250828201905080821115611ee657611ee5611d69565b5b92915050565b6000611ef7826112c4565b9150611f02836112c4565b9250828202611f10816112c4565b91508282048414831517611f2757611f26611d69565b5b5092915050565b7f4e487b7100000000000000000000000000000000000000000000000000000000600052601260045260246000fd5b6000611f68826112c4565b9150611f73836112c4565b925082611f8357611f82611f2e565b5b82820490509291505056fea2646970667358221220999d62d7239f15136da8f3c3fd197afdb4be8337ea298e5d09775335b8373b4664736f6c63430008130033",
					"opcodes": "PUSH1 0x80 PUSH1 0x40 MSTORE CALLVALUE DUP1 ISZERO PUSH3 0x11 JUMPI PUSH1 0x0 DUP1 REVERT JUMPDEST POP PUSH1 0x40 MLOAD PUSH3 0x27C8 CODESIZE SUB DUP1 PUSH3 0x27C8 DUP4 CODECOPY DUP2 DUP2 ADD PUSH1 0x40 MSTORE DUP2 ADD SWAP1 PUSH3 0x37 SWAP2 SWAP1 PUSH3 0x5F3 JUMP JUMPDEST PUSH1 0x0 DUP4 MLOAD GT PUSH3 0x7E JUMPI PUSH1 0x40 MLOAD PUSH32 0x8C379A000000000000000000000000000000000000000000000000000000000 DUP2 MSTORE PUSH1 0x4 ADD PUSH3 0x75 SWAP1 PUSH3 0x6EE JUMP JUMPDEST PUSH1 0x40 MLOAD DUP1 SWAP2 SUB SWAP1 REVERT JUMPDEST DUP2 MLOAD DUP4 MLOAD EQ PUSH3 0xC5 JUMPI PUSH1 0x40 MLOAD PUSH32 0x8C379A000000000000000000000000000000000000000000000000000000000 DUP2 MSTORE PUSH1 0x4 ADD PUSH3 0xBC SWAP1 PUSH3 0x760 JUMP JUMPDEST PUSH1 0x40 MLOAD DUP1 SWAP2 SUB SWAP1 REVERT JUMPDEST PUSH1 0x0 PUSH20 0xFFFFFFFFFFFFFFFFFFFFFFFFFFFFFFFFFFFFFFFF AND DUP2 PUSH20 0xFFFFFFFFFFFFFFFFFFFFFFFFFFFFFFFFFFFFFFFF AND SUB PUSH3 0x137 JUMPI PUSH1 0x40 MLOAD PUSH32 0x8C379A000000000000000000000000000000000000000000000000000000000 DUP2 MSTORE PUSH1 0x4 ADD PUSH3 0x12E SWAP1 PUSH3 0x7D2 JUMP JUMPDEST PUSH1 0x40 MLOAD DUP1 SWAP2 SUB SWAP1 REVERT JUMPDEST CALLER PUSH1 0x2 PUSH1 0x0 PUSH2 0x100 EXP DUP2 SLOAD DUP2 PUSH20 0xFFFFFFFFFFFFFFFFFFFFFFFFFFFFFFFFFFFFFFFF MUL NOT AND SWAP1 DUP4 PUSH20 0xFFFFFFFFFFFFFFFFFFFFFFFFFFFFFFFFFFFFFFFF AND MUL OR SWAP1 SSTORE POP DUP3 PUSH1 0x0 SWAP1 DUP1 MLOAD SWAP1 PUSH1 0x20 ADD SWAP1 PUSH3 0x190 SWAP3 SWAP2 SWAP1 PUSH3 0x1F4 JUMP JUMPDEST POP DUP2 PUSH1 0x1 SWAP1 DUP1 MLOAD SWAP1 PUSH1 0x20 ADD SWAP1 PUSH3 0x1A9 SWAP3 SWAP2 SWAP1 PUSH3 0x283 JUMP JUMPDEST POP DUP1 PUSH1 0x3 PUSH1 0x0 PUSH2 0x100 EXP DUP2 SLOAD DUP2 PUSH20 0xFFFFFFFFFFFFFFFFFFFFFFFFFFFFFFFFFFFFFFFF MUL NOT AND SWAP1 DUP4 PUSH20 0xFFFFFFFFFFFFFFFFFFFFFFFFFFFFFFFFFFFFFFFF AND MUL OR SWAP1 SSTORE POP POP POP POP PUSH3 0x7F4 JUMP JUMPDEST DUP3 DUP1 SLOAD DUP3 DUP3 SSTORE SWAP1 PUSH1 0x0 MSTORE PUSH1 0x20 PUSH1 0x0 KECCAK256 SWAP1 DUP2 ADD SWAP3 DUP3 ISZERO PUSH3 0x270 JUMPI SWAP2 PUSH1 0x20 MUL DUP3 ADD JUMPDEST DUP3 DUP2 GT ISZERO PUSH3 0x26F JUMPI DUP3 MLOAD DUP3 PUSH1 0x0 PUSH2 0x100 EXP DUP2 SLOAD DUP2 PUSH20 0xFFFFFFFFFFFFFFFFFFFFFFFFFFFFFFFFFFFFFFFF MUL NOT AND SWAP1 DUP4 PUSH20 0xFFFFFFFFFFFFFFFFFFFFFFFFFFFFFFFFFFFFFFFF AND MUL OR SWAP1 SSTORE POP SWAP2 PUSH1 0x20 ADD SWAP2 SWAP1 PUSH1 0x1 ADD SWAP1 PUSH3 0x215 JUMP JUMPDEST JUMPDEST POP SWAP1 POP PUSH3 0x27F SWAP2 SWAP1 PUSH3 0x2D5 JUMP JUMPDEST POP SWAP1 JUMP JUMPDEST DUP3 DUP1 SLOAD DUP3 DUP3 SSTORE SWAP1 PUSH1 0x0 MSTORE PUSH1 0x20 PUSH1 0x0 KECCAK256 SWAP1 DUP2 ADD SWAP3 DUP3 ISZERO PUSH3 0x2C2 JUMPI SWAP2 PUSH1 0x20 MUL DUP3 ADD JUMPDEST DUP3 DUP2 GT ISZERO PUSH3 0x2C1 JUMPI DUP3 MLOAD DUP3 SSTORE SWAP2 PUSH1 0x20 ADD SWAP2 SWAP1 PUSH1 0x1 ADD SWAP1 PUSH3 0x2A4 JUMP JUMPDEST JUMPDEST POP SWAP1 POP PUSH3 0x2D1 SWAP2 SWAP1 PUSH3 0x2D5 JUMP JUMPDEST POP SWAP1 JUMP JUMPDEST JUMPDEST DUP1 DUP3 GT ISZERO PUSH3 0x2F0 JUMPI PUSH1 0x0 DUP2 PUSH1 0x0 SWAP1 SSTORE POP PUSH1 0x1 ADD PUSH3 0x2D6 JUMP JUMPDEST POP SWAP1 JUMP JUMPDEST PUSH1 0x0 PUSH1 0x40 MLOAD SWAP1 POP SWAP1 JUMP JUMPDEST PUSH1 0x0 DUP1 REVERT JUMPDEST PUSH1 0x0 DUP1 REVERT JUMPDEST PUSH1 0x0 DUP1 REVERT JUMPDEST PUSH1 0x0 PUSH1 0x1F NOT PUSH1 0x1F DUP4 ADD AND SWAP1 POP SWAP2 SWAP1 POP JUMP JUMPDEST PUSH32 0x4E487B7100000000000000000000000000000000000000000000000000000000 PUSH1 0x0 MSTORE PUSH1 0x41 PUSH1 0x4 MSTORE PUSH1 0x24 PUSH1 0x0 REVERT JUMPDEST PUSH3 0x358 DUP3 PUSH3 0x30D JUMP JUMPDEST DUP2 ADD DUP2 DUP2 LT PUSH8 0xFFFFFFFFFFFFFFFF DUP3 GT OR ISZERO PUSH3 0x37A JUMPI PUSH3 0x379 PUSH3 0x31E JUMP JUMPDEST JUMPDEST DUP1 PUSH1 0x40 MSTORE POP POP POP JUMP JUMPDEST PUSH1 0x0 PUSH3 0x38F PUSH3 0x2F4 JUMP JUMPDEST SWAP1 POP PUSH3 0x39D DUP3 DUP3 PUSH3 0x34D JUMP JUMPDEST SWAP2 SWAP1 POP JUMP JUMPDEST PUSH1 0x0 PUSH8 0xFFFFFFFFFFFFFFFF DUP3 GT ISZERO PUSH3 0x3C0 JUMPI PUSH3 0x3BF PUSH3 0x31E JUMP JUMPDEST JUMPDEST PUSH1 0x20 DUP3 MUL SWAP1 POP PUSH1 0x20 DUP2 ADD SWAP1 POP SWAP2 SWAP1 POP JUMP JUMPDEST PUSH1 0x0 DUP1 REVERT JUMPDEST PUSH1 0x0 PUSH20 0xFFFFFFFFFFFFFFFFFFFFFFFFFFFFFFFFFFFFFFFF DUP3 AND SWAP1 POP SWAP2 SWAP1 POP JUMP JUMPDEST PUSH1 0x0 PUSH3 0x403 DUP3 PUSH3 0x3D6 JUMP JUMPDEST SWAP1 POP SWAP2 SWAP1 POP JUMP JUMPDEST PUSH3 0x415 DUP2 PUSH3 0x3F6 JUMP JUMPDEST DUP2 EQ PUSH3 0x421 JUMPI PUSH1 0x0 DUP1 REVERT JUMPDEST POP JUMP JUMPDEST PUSH1 0x0 DUP2 MLOAD SWAP1 POP PUSH3 0x435 DUP2 PUSH3 0x40A JUMP JUMPDEST SWAP3 SWAP2 POP POP JUMP JUMPDEST PUSH1 0x0 PUSH3 0x452 PUSH3 0x44C DUP5 PUSH3 0x3A2 JUMP JUMPDEST PUSH3 0x383 JUMP JUMPDEST SWAP1 POP DUP1 DUP4 DUP3 MSTORE PUSH1 0x20 DUP3 ADD SWAP1 POP PUSH1 0x20 DUP5 MUL DUP4 ADD DUP6 DUP2 GT ISZERO PUSH3 0x478 JUMPI PUSH3 0x477 PUSH3 0x3D1 JUMP JUMPDEST JUMPDEST DUP4 JUMPDEST DUP2 DUP2 LT ISZERO PUSH3 0x4A5 JUMPI DUP1 PUSH3 0x490 DUP9 DUP3 PUSH3 0x424 JUMP JUMPDEST DUP5 MSTORE PUSH1 0x20 DUP5 ADD SWAP4 POP POP PUSH1 0x20 DUP2 ADD SWAP1 POP PUSH3 0x47A JUMP JUMPDEST POP POP POP SWAP4 SWAP3 POP POP POP JUMP JUMPDEST PUSH1 0x0 DUP3 PUSH1 0x1F DUP4 ADD SLT PUSH3 0x4C7 JUMPI PUSH3 0x4C6 PUSH3 0x308 JUMP JUMPDEST JUMPDEST DUP2 MLOAD PUSH3 0x4D9 DUP5 DUP3 PUSH1 0x20 DUP7 ADD PUSH3 0x43B JUMP JUMPDEST SWAP2 POP POP SWAP3 SWAP2 POP POP JUMP JUMPDEST PUSH1 0x0 PUSH8 0xFFFFFFFFFFFFFFFF DUP3 GT ISZERO PUSH3 0x500 JUMPI PUSH3 0x4FF PUSH3 0x31E JUMP JUMPDEST JUMPDEST PUSH1 0x20 DUP3 MUL SWAP1 POP PUSH1 0x20 DUP2 ADD SWAP1 POP SWAP2 SWAP1 POP JUMP JUMPDEST PUSH1 0x0 DUP2 SWAP1 POP SWAP2 SWAP1 POP JUMP JUMPDEST PUSH3 0x526 DUP2 PUSH3 0x511 JUMP JUMPDEST DUP2 EQ PUSH3 0x532 JUMPI PUSH1 0x0 DUP1 REVERT JUMPDEST POP JUMP JUMPDEST PUSH1 0x0 DUP2 MLOAD SWAP1 POP PUSH3 0x546 DUP2 PUSH3 0x51B JUMP JUMPDEST SWAP3 SWAP2 POP POP JUMP JUMPDEST PUSH1 0x0 PUSH3 0x563 PUSH3 0x55D DUP5 PUSH3 0x4E2 JUMP JUMPDEST PUSH3 0x383 JUMP JUMPDEST SWAP1 POP DUP1 DUP4 DUP3 MSTORE PUSH1 0x20 DUP3 ADD SWAP1 POP PUSH1 0x20 DUP5 MUL DUP4 ADD DUP6 DUP2 GT ISZERO PUSH3 0x589 JUMPI PUSH3 0x588 PUSH3 0x3D1 JUMP JUMPDEST JUMPDEST DUP4 JUMPDEST DUP2 DUP2 LT ISZERO PUSH3 0x5B6 JUMPI DUP1 PUSH3 0x5A1 DUP9 DUP3 PUSH3 0x535 JUMP JUMPDEST DUP5 MSTORE PUSH1 0x20 DUP5 ADD SWAP4 POP POP PUSH1 0x20 DUP2 ADD SWAP1 POP PUSH3 0x58B JUMP JUMPDEST POP POP POP SWAP4 SWAP3 POP POP POP JUMP JUMPDEST PUSH1 0x0 DUP3 PUSH1 0x1F DUP4 ADD SLT PUSH3 0x5D8 JUMPI PUSH3 0x5D7 PUSH3 0x308 JUMP JUMPDEST JUMPDEST DUP2 MLOAD PUSH3 0x5EA DUP5 DUP3 PUSH1 0x20 DUP7 ADD PUSH3 0x54C JUMP JUMPDEST SWAP2 POP POP SWAP3 SWAP2 POP POP JUMP JUMPDEST PUSH1 0x0 DUP1 PUSH1 0x0 PUSH1 0x60 DUP5 DUP7 SUB SLT ISZERO PUSH3 0x60F JUMPI PUSH3 0x60E PUSH3 0x2FE JUMP JUMPDEST JUMPDEST PUSH1 0x0 DUP5 ADD MLOAD PUSH8 0xFFFFFFFFFFFFFFFF DUP2 GT ISZERO PUSH3 0x630 JUMPI PUSH3 0x62F PUSH3 0x303 JUMP JUMPDEST JUMPDEST PUSH3 0x63E DUP7 DUP3 DUP8 ADD PUSH3 0x4AF JUMP JUMPDEST SWAP4 POP POP PUSH1 0x20 DUP5 ADD MLOAD PUSH8 0xFFFFFFFFFFFFFFFF DUP2 GT ISZERO PUSH3 0x662 JUMPI PUSH3 0x661 PUSH3 0x303 JUMP JUMPDEST JUMPDEST PUSH3 0x670 DUP7 DUP3 DUP8 ADD PUSH3 0x5C0 JUMP JUMPDEST SWAP3 POP POP PUSH1 0x40 PUSH3 0x683 DUP7 DUP3 DUP8 ADD PUSH3 0x424 JUMP JUMPDEST SWAP2 POP POP SWAP3 POP SWAP3 POP SWAP3 JUMP JUMPDEST PUSH1 0x0 DUP3 DUP3 MSTORE PUSH1 0x20 DUP3 ADD SWAP1 POP SWAP3 SWAP2 POP POP JUMP JUMPDEST PUSH32 0x4E6F207061796565732070726F76696465640000000000000000000000000000 PUSH1 0x0 DUP3 ADD MSTORE POP JUMP JUMPDEST PUSH1 0x0 PUSH3 0x6D6 PUSH1 0x12 DUP4 PUSH3 0x68D JUMP JUMPDEST SWAP2 POP PUSH3 0x6E3 DUP3 PUSH3 0x69E JUMP JUMPDEST PUSH1 0x20 DUP3 ADD SWAP1 POP SWAP2 SWAP1 POP JUMP JUMPDEST PUSH1 0x0 PUSH1 0x20 DUP3 ADD SWAP1 POP DUP2 DUP2 SUB PUSH1 0x0 DUP4 ADD MSTORE PUSH3 0x709 DUP2 PUSH3 0x6C7 JUMP JUMPDEST SWAP1 POP SWAP2 SWAP1 POP JUMP JUMPDEST PUSH32 0x496E76616C69642070617965652070657263656E746167657300000000000000 PUSH1 0x0 DUP3 ADD MSTORE POP JUMP JUMPDEST PUSH1 0x0 PUSH3 0x748 PUSH1 0x19 DUP4 PUSH3 0x68D JUMP JUMPDEST SWAP2 POP PUSH3 0x755 DUP3 PUSH3 0x710 JUMP JUMPDEST PUSH1 0x20 DUP3 ADD SWAP1 POP SWAP2 SWAP1 POP JUMP JUMPDEST PUSH1 0x0 PUSH1 0x20 DUP3 ADD SWAP1 POP DUP2 DUP2 SUB PUSH1 0x0 DUP4 ADD MSTORE PUSH3 0x77B DUP2 PUSH3 0x739 JUMP JUMPDEST SWAP1 POP SWAP2 SWAP1 POP JUMP JUMPDEST PUSH32 0x496E76616C696420746F6B656E20616464726573730000000000000000000000 PUSH1 0x0 DUP3 ADD MSTORE POP JUMP JUMPDEST PUSH1 0x0 PUSH3 0x7BA PUSH1 0x15 DUP4 PUSH3 0x68D JUMP JUMPDEST SWAP2 POP PUSH3 0x7C7 DUP3 PUSH3 0x782 JUMP JUMPDEST PUSH1 0x20 DUP3 ADD SWAP1 POP SWAP2 SWAP1 POP JUMP JUMPDEST PUSH1 0x0 PUSH1 0x20 DUP3 ADD SWAP1 POP DUP2 DUP2 SUB PUSH1 0x0 DUP4 ADD MSTORE PUSH3 0x7ED DUP2 PUSH3 0x7AB JUMP JUMPDEST SWAP1 POP SWAP2 SWAP1 POP JUMP JUMPDEST PUSH2 0x1FC4 DUP1 PUSH3 0x804 PUSH1 0x0 CODECOPY PUSH1 0x0 RETURN INVALID PUSH1 0x80 PUSH1 0x40 MSTORE CALLVALUE DUP1 ISZERO PUSH2 0x10 JUMPI PUSH1 0x0 DUP1 REVERT JUMPDEST POP PUSH1 0x4 CALLDATASIZE LT PUSH2 0xA9 JUMPI PUSH1 0x0 CALLDATALOAD PUSH1 0xE0 SHR DUP1 PUSH4 0x8F63458C GT PUSH2 0x71 JUMPI DUP1 PUSH4 0x8F63458C EQ PUSH2 0x154 JUMPI DUP1 PUSH4 0x9D76EA58 EQ PUSH2 0x170 JUMPI DUP1 PUSH4 0xC9CDA91F EQ PUSH2 0x18E JUMPI DUP1 PUSH4 0xD9215050 EQ PUSH2 0x1AA JUMPI DUP1 PUSH4 0xE4FC6B6D EQ PUSH2 0x1C6 JUMPI DUP1 PUSH4 0xF2FDE38B EQ PUSH2 0x1D0 JUMPI PUSH2 0xA9 JUMP JUMPDEST DUP1 PUSH4 0x2B29AF7F EQ PUSH2 0xAE JUMPI DUP1 PUSH4 0x63037B0C EQ PUSH2 0xDE JUMPI DUP1 PUSH4 0x82B2E257 EQ PUSH2 0x10E JUMPI DUP1 PUSH4 0x8D8F2ADB EQ PUSH2 0x12C JUMPI DUP1 PUSH4 0x8DA5CB5B EQ PUSH2 0x136 JUMPI JUMPDEST PUSH1 0x0 DUP1 REVERT JUMPDEST PUSH2 0xC8 PUSH1 0x4 DUP1 CALLDATASIZE SUB DUP2 ADD SWAP1 PUSH2 0xC3 SWAP2 SWAP1 PUSH2 0x12FA JUMP JUMPDEST PUSH2 0x1EC JUMP JUMPDEST PUSH1 0x40 MLOAD PUSH2 0xD5 SWAP2 SWAP1 PUSH2 0x1336 JUMP JUMPDEST PUSH1 0x40 MLOAD DUP1 SWAP2 SUB SWAP1 RETURN JUMPDEST PUSH2 0xF8 PUSH1 0x4 DUP1 CALLDATASIZE SUB DUP2 ADD SWAP1 PUSH2 0xF3 SWAP2 SWAP1 PUSH2 0x12FA JUMP JUMPDEST PUSH2 0x210 JUMP JUMPDEST PUSH1 0x40 MLOAD PUSH2 0x105 SWAP2 SWAP1 PUSH2 0x1392 JUMP JUMPDEST PUSH1 0x40 MLOAD DUP1 SWAP2 SUB SWAP1 RETURN JUMPDEST PUSH2 0x116 PUSH2 0x24F JUMP JUMPDEST PUSH1 0x40 MLOAD PUSH2 0x123 SWAP2 SWAP1 PUSH2 0x1336 JUMP JUMPDEST PUSH1 0x40 MLOAD DUP1 SWAP2 SUB SWAP1 RETURN JUMPDEST PUSH2 0x134 PUSH2 0x382 JUMP JUMPDEST STOP JUMPDEST PUSH2 0x13E PUSH2 0x630 JUMP JUMPDEST PUSH1 0x40 MLOAD PUSH2 0x14B SWAP2 SWAP1 PUSH2 0x1392 JUMP JUMPDEST PUSH1 0x40 MLOAD DUP1 SWAP2 SUB SWAP1 RETURN JUMPDEST PUSH2 0x16E PUSH1 0x4 DUP1 CALLDATASIZE SUB DUP2 ADD SWAP1 PUSH2 0x169 SWAP2 SWAP1 PUSH2 0x13D9 JUMP JUMPDEST PUSH2 0x656 JUMP JUMPDEST STOP JUMPDEST PUSH2 0x178 PUSH2 0x919 JUMP JUMPDEST PUSH1 0x40 MLOAD PUSH2 0x185 SWAP2 SWAP1 PUSH2 0x1392 JUMP JUMPDEST PUSH1 0x40 MLOAD DUP1 SWAP2 SUB SWAP1 RETURN JUMPDEST PUSH2 0x1A8 PUSH1 0x4 DUP1 CALLDATASIZE SUB DUP2 ADD SWAP1 PUSH2 0x1A3 SWAP2 SWAP1 PUSH2 0x1419 JUMP JUMPDEST PUSH2 0x93F JUMP JUMPDEST STOP JUMPDEST PUSH2 0x1C4 PUSH1 0x4 DUP1 CALLDATASIZE SUB DUP2 ADD SWAP1 PUSH2 0x1BF SWAP2 SWAP1 PUSH2 0x1662 JUMP JUMPDEST PUSH2 0xAB9 JUMP JUMPDEST STOP JUMPDEST PUSH2 0x1CE PUSH2 0xC3C JUMP JUMPDEST STOP JUMPDEST PUSH2 0x1EA PUSH1 0x4 DUP1 CALLDATASIZE SUB DUP2 ADD SWAP1 PUSH2 0x1E5 SWAP2 SWAP1 PUSH2 0x1419 JUMP JUMPDEST PUSH2 0x1000 JUMP JUMPDEST STOP JUMPDEST PUSH1 0x1 DUP2 DUP2 SLOAD DUP2 LT PUSH2 0x1FC JUMPI PUSH1 0x0 DUP1 REVERT JUMPDEST SWAP1 PUSH1 0x0 MSTORE PUSH1 0x20 PUSH1 0x0 KECCAK256 ADD PUSH1 0x0 SWAP2 POP SWAP1 POP SLOAD DUP2 JUMP JUMPDEST PUSH1 0x0 DUP2 DUP2 SLOAD DUP2 LT PUSH2 0x220 JUMPI PUSH1 0x0 DUP1 REVERT JUMPDEST SWAP1 PUSH1 0x0 MSTORE PUSH1 0x20 PUSH1 0x0 KECCAK256 ADD PUSH1 0x0 SWAP2 POP SLOAD SWAP1 PUSH2 0x100 EXP SWAP1 DIV PUSH20 0xFFFFFFFFFFFFFFFFFFFFFFFFFFFFFFFFFFFFFFFF AND DUP2 JUMP JUMPDEST PUSH1 0x0 DUP1 PUSH20 0xFFFFFFFFFFFFFFFFFFFFFFFFFFFFFFFFFFFFFFFF AND PUSH1 0x3 PUSH1 0x0 SWAP1 SLOAD SWAP1 PUSH2 0x100 EXP SWAP1 DIV PUSH20 0xFFFFFFFFFFFFFFFFFFFFFFFFFFFFFFFFFFFFFFFF AND PUSH20 0xFFFFFFFFFFFFFFFFFFFFFFFFFFFFFFFFFFFFFFFF AND SUB PUSH2 0x2E1 JUMPI PUSH1 0x40 MLOAD PUSH32 0x8C379A000000000000000000000000000000000000000000000000000000000 DUP2 MSTORE PUSH1 0x4 ADD PUSH2 0x2D8 SWAP1 PUSH2 0x1737 JUMP JUMPDEST PUSH1 0x40 MLOAD DUP1 SWAP2 SUB SWAP1 REVERT JUMPDEST PUSH1 0x3 PUSH1 0x0 SWAP1 SLOAD SWAP1 PUSH2 0x100 EXP SWAP1 DIV PUSH20 0xFFFFFFFFFFFFFFFFFFFFFFFFFFFFFFFFFFFFFFFF AND PUSH20 0xFFFFFFFFFFFFFFFFFFFFFFFFFFFFFFFFFFFFFFFF AND PUSH4 0x70A08231 ADDRESS PUSH1 0x40 MLOAD DUP3 PUSH4 0xFFFFFFFF AND PUSH1 0xE0 SHL DUP2 MSTORE PUSH1 0x4 ADD PUSH2 0x33C SWAP2 SWAP1 PUSH2 0x1392 JUMP JUMPDEST PUSH1 0x20 PUSH1 0x40 MLOAD DUP1 DUP4 SUB DUP2 DUP7 GAS STATICCALL ISZERO DUP1 ISZERO PUSH2 0x359 JUMPI RETURNDATASIZE PUSH1 0x0 DUP1 RETURNDATACOPY RETURNDATASIZE PUSH1 0x0 REVERT JUMPDEST POP POP POP POP PUSH1 0x40 MLOAD RETURNDATASIZE PUSH1 0x1F NOT PUSH1 0x1F DUP3 ADD AND DUP3 ADD DUP1 PUSH1 0x40 MSTORE POP DUP2 ADD SWAP1 PUSH2 0x37D SWAP2 SWAP1 PUSH2 0x176C JUMP JUMPDEST SWAP1 POP SWAP1 JUMP JUMPDEST PUSH1 0x2 PUSH1 0x0 SWAP1 SLOAD SWAP1 PUSH2 0x100 EXP SWAP1 DIV PUSH20 0xFFFFFFFFFFFFFFFFFFFFFFFFFFFFFFFFFFFFFFFF AND PUSH20 0xFFFFFFFFFFFFFFFFFFFFFFFFFFFFFFFFFFFFFFFF AND CALLER PUSH20 0xFFFFFFFFFFFFFFFFFFFFFFFFFFFFFFFFFFFFFFFF AND EQ PUSH2 0x412 JUMPI PUSH1 0x40 MLOAD PUSH32 0x8C379A000000000000000000000000000000000000000000000000000000000 DUP2 MSTORE PUSH1 0x4 ADD PUSH2 0x409 SWAP1 PUSH2 0x17E5 JUMP JUMPDEST PUSH1 0x40 MLOAD DUP1 SWAP2 SUB SWAP1 REVERT JUMPDEST PUSH1 0x0 PUSH20 0xFFFFFFFFFFFFFFFFFFFFFFFFFFFFFFFFFFFFFFFF AND PUSH1 0x3 PUSH1 0x0 SWAP1 SLOAD SWAP1 PUSH2 0x100 EXP SWAP1 DIV PUSH20 0xFFFFFFFFFFFFFFFFFFFFFFFFFFFFFFFFFFFFFFFF AND PUSH20 0xFFFFFFFFFFFFFFFFFFFFFFFFFFFFFFFFFFFFFFFF AND SUB PUSH2 0x4A3 JUMPI PUSH1 0x40 MLOAD PUSH32 0x8C379A000000000000000000000000000000000000000000000000000000000 DUP2 MSTORE PUSH1 0x4 ADD PUSH2 0x49A SWAP1 PUSH2 0x1737 JUMP JUMPDEST PUSH1 0x40 MLOAD DUP1 SWAP2 SUB SWAP1 REVERT JUMPDEST PUSH1 0x0 PUSH1 0x3 PUSH1 0x0 SWAP1 SLOAD SWAP1 PUSH2 0x100 EXP SWAP1 DIV PUSH20 0xFFFFFFFFFFFFFFFFFFFFFFFFFFFFFFFFFFFFFFFF AND SWAP1 POP PUSH1 0x0 DUP2 PUSH20 0xFFFFFFFFFFFFFFFFFFFFFFFFFFFFFFFFFFFFFFFF AND PUSH4 0x70A08231 ADDRESS PUSH1 0x40 MLOAD DUP3 PUSH4 0xFFFFFFFF AND PUSH1 0xE0 SHL DUP2 MSTORE PUSH1 0x4 ADD PUSH2 0x505 SWAP2 SWAP1 PUSH2 0x1392 JUMP JUMPDEST PUSH1 0x20 PUSH1 0x40 MLOAD DUP1 DUP4 SUB DUP2 DUP7 GAS STATICCALL ISZERO DUP1 ISZERO PUSH2 0x522 JUMPI RETURNDATASIZE PUSH1 0x0 DUP1 RETURNDATACOPY RETURNDATASIZE PUSH1 0x0 REVERT JUMPDEST POP POP POP POP PUSH1 0x40 MLOAD RETURNDATASIZE PUSH1 0x1F NOT PUSH1 0x1F DUP3 ADD AND DUP3 ADD DUP1 PUSH1 0x40 MSTORE POP DUP2 ADD SWAP1 PUSH2 0x546 SWAP2 SWAP1 PUSH2 0x176C JUMP JUMPDEST SWAP1 POP PUSH1 0x0 DUP2 GT PUSH2 0x58B JUMPI PUSH1 0x40 MLOAD PUSH32 0x8C379A000000000000000000000000000000000000000000000000000000000 DUP2 MSTORE PUSH1 0x4 ADD PUSH2 0x582 SWAP1 PUSH2 0x1851 JUMP JUMPDEST PUSH1 0x40 MLOAD DUP1 SWAP2 SUB SWAP1 REVERT JUMPDEST DUP2 PUSH20 0xFFFFFFFFFFFFFFFFFFFFFFFFFFFFFFFFFFFFFFFF AND PUSH4 0xA9059CBB PUSH1 0x2 PUSH1 0x0 SWAP1 SLOAD SWAP1 PUSH2 0x100 EXP SWAP1 DIV PUSH20 0xFFFFFFFFFFFFFFFFFFFFFFFFFFFFFFFFFFFFFFFF AND DUP4 PUSH1 0x40 MLOAD DUP4 PUSH4 0xFFFFFFFF AND PUSH1 0xE0 SHL DUP2 MSTORE PUSH1 0x4 ADD PUSH2 0x5E8 SWAP3 SWAP2 SWAP1 PUSH2 0x1871 JUMP JUMPDEST PUSH1 0x20 PUSH1 0x40 MLOAD DUP1 DUP4 SUB DUP2 PUSH1 0x0 DUP8 GAS CALL ISZERO DUP1 ISZERO PUSH2 0x607 JUMPI RETURNDATASIZE PUSH1 0x0 DUP1 RETURNDATACOPY RETURNDATASIZE PUSH1 0x0 REVERT JUMPDEST POP POP POP POP PUSH1 0x40 MLOAD RETURNDATASIZE PUSH1 0x1F NOT PUSH1 0x1F DUP3 ADD AND DUP3 ADD DUP1 PUSH1 0x40 MSTORE POP DUP2 ADD SWAP1 PUSH2 0x62B SWAP2 SWAP1 PUSH2 0x18D2 JUMP JUMPDEST POP POP POP JUMP JUMPDEST PUSH1 0x2 PUSH1 0x0 SWAP1 SLOAD SWAP1 PUSH2 0x100 EXP SWAP1 DIV PUSH20 0xFFFFFFFFFFFFFFFFFFFFFFFFFFFFFFFFFFFFFFFF AND DUP2 JUMP JUMPDEST PUSH1 0x2 PUSH1 0x0 SWAP1 SLOAD SWAP1 PUSH2 0x100 EXP SWAP1 DIV PUSH20 0xFFFFFFFFFFFFFFFFFFFFFFFFFFFFFFFFFFFFFFFF AND PUSH20 0xFFFFFFFFFFFFFFFFFFFFFFFFFFFFFFFFFFFFFFFF AND CALLER PUSH20 0xFFFFFFFFFFFFFFFFFFFFFFFFFFFFFFFFFFFFFFFF AND EQ PUSH2 0x6E6 JUMPI PUSH1 0x40 MLOAD PUSH32 0x8C379A000000000000000000000000000000000000000000000000000000000 DUP2 MSTORE PUSH1 0x4 ADD PUSH2 0x6DD SWAP1 PUSH2 0x17E5 JUMP JUMPDEST PUSH1 0x40 MLOAD DUP1 SWAP2 SUB SWAP1 REVERT JUMPDEST PUSH1 0x0 PUSH20 0xFFFFFFFFFFFFFFFFFFFFFFFFFFFFFFFFFFFFFFFF AND DUP3 PUSH20 0xFFFFFFFFFFFFFFFFFFFFFFFFFFFFFFFFFFFFFFFF AND SUB PUSH2 0x755 JUMPI PUSH1 0x40 MLOAD PUSH32 0x8C379A000000000000000000000000000000000000000000000000000000000 DUP2 MSTORE PUSH1 0x4 ADD PUSH2 0x74C SWAP1 PUSH2 0x194B JUMP JUMPDEST PUSH1 0x40 MLOAD DUP1 SWAP2 SUB SWAP1 REVERT JUMPDEST PUSH1 0x0 DUP2 GT PUSH2 0x798 JUMPI PUSH1 0x40 MLOAD PUSH32 0x8C379A000000000000000000000000000000000000000000000000000000000 DUP2 MSTORE PUSH1 0x4 ADD PUSH2 0x78F SWAP1 PUSH2 0x19B7 JUMP JUMPDEST PUSH1 0x40 MLOAD DUP1 SWAP2 SUB SWAP1 REVERT JUMPDEST PUSH1 0x0 PUSH20 0xFFFFFFFFFFFFFFFFFFFFFFFFFFFFFFFFFFFFFFFF AND DUP3 PUSH20 0xFFFFFFFFFFFFFFFFFFFFFFFFFFFFFFFFFFFFFFFF AND SUB PUSH2 0x83A JUMPI PUSH1 0x2 PUSH1 0x0 SWAP1 SLOAD SWAP1 PUSH2 0x100 EXP SWAP1 DIV PUSH20 0xFFFFFFFFFFFFFFFFFFFFFFFFFFFFFFFFFFFFFFFF AND PUSH20 0xFFFFFFFFFFFFFFFFFFFFFFFFFFFFFFFFFFFFFFFF AND PUSH2 0x8FC DUP3 SWAP1 DUP2 ISZERO MUL SWAP1 PUSH1 0x40 MLOAD PUSH1 0x0 PUSH1 0x40 MLOAD DUP1 DUP4 SUB DUP2 DUP6 DUP9 DUP9 CALL SWAP4 POP POP POP POP ISZERO DUP1 ISZERO PUSH2 0x834 JUMPI RETURNDATASIZE PUSH1 0x0 DUP1 RETURNDATACOPY RETURNDATASIZE PUSH1 0x0 REVERT JUMPDEST POP PUSH2 0x8DC JUMP JUMPDEST DUP2 PUSH20 0xFFFFFFFFFFFFFFFFFFFFFFFFFFFFFFFFFFFFFFFF AND PUSH4 0xA9059CBB PUSH1 0x2 PUSH1 0x0 SWAP1 SLOAD SWAP1 PUSH2 0x100 EXP SWAP1 DIV PUSH20 0xFFFFFFFFFFFFFFFFFFFFFFFFFFFFFFFFFFFFFFFF AND DUP4 PUSH1 0x40 MLOAD DUP4 PUSH4 0xFFFFFFFF AND PUSH1 0xE0 SHL DUP2 MSTORE PUSH1 0x4 ADD PUSH2 0x897 SWAP3 SWAP2 SWAP1 PUSH2 0x1871 JUMP JUMPDEST PUSH1 0x20 PUSH1 0x40 MLOAD DUP1 DUP4 SUB DUP2 PUSH1 0x0 DUP8 GAS CALL ISZERO DUP1 ISZERO PUSH2 0x8B6 JUMPI RETURNDATASIZE PUSH1 0x0 DUP1 RETURNDATACOPY RETURNDATASIZE PUSH1 0x0 REVERT JUMPDEST POP POP POP POP PUSH1 0x40 MLOAD RETURNDATASIZE PUSH1 0x1F NOT PUSH1 0x1F DUP3 ADD AND DUP3 ADD DUP1 PUSH1 0x40 MSTORE POP DUP2 ADD SWAP1 PUSH2 0x8DA SWAP2 SWAP1 PUSH2 0x18D2 JUMP JUMPDEST POP JUMPDEST PUSH32 0x59BFC682B673F8CBF945F1E454DF9334834ABF7DFE7F92237CA29ECB9B436600 DUP3 DUP3 PUSH1 0x40 MLOAD PUSH2 0x90D SWAP3 SWAP2 SWAP1 PUSH2 0x1871 JUMP JUMPDEST PUSH1 0x40 MLOAD DUP1 SWAP2 SUB SWAP1 LOG1 POP POP JUMP JUMPDEST PUSH1 0x3 PUSH1 0x0 SWAP1 SLOAD SWAP1 PUSH2 0x100 EXP SWAP1 DIV PUSH20 0xFFFFFFFFFFFFFFFFFFFFFFFFFFFFFFFFFFFFFFFF AND DUP2 JUMP JUMPDEST PUSH1 0x2 PUSH1 0x0 SWAP1 SLOAD SWAP1 PUSH2 0x100 EXP SWAP1 DIV PUSH20 0xFFFFFFFFFFFFFFFFFFFFFFFFFFFFFFFFFFFFFFFF AND PUSH20 0xFFFFFFFFFFFFFFFFFFFFFFFFFFFFFFFFFFFFFFFF AND CALLER PUSH20 0xFFFFFFFFFFFFFFFFFFFFFFFFFFFFFFFFFFFFFFFF AND EQ PUSH2 0x9CF JUMPI PUSH1 0x40 MLOAD PUSH32 0x8C379A000000000000000000000000000000000000000000000000000000000 DUP2 MSTORE PUSH1 0x4 ADD PUSH2 0x9C6 SWAP1 PUSH2 0x17E5 JUMP JUMPDEST PUSH1 0x40 MLOAD DUP1 SWAP2 SUB SWAP1 REVERT JUMPDEST PUSH1 0x0 PUSH20 0xFFFFFFFFFFFFFFFFFFFFFFFFFFFFFFFFFFFFFFFF AND DUP2 PUSH20 0xFFFFFFFFFFFFFFFFFFFFFFFFFFFFFFFFFFFFFFFF AND SUB PUSH2 0xA3E JUMPI PUSH1 0x40 MLOAD PUSH32 0x8C379A000000000000000000000000000000000000000000000000000000000 DUP2 MSTORE PUSH1 0x4 ADD PUSH2 0xA35 SWAP1 PUSH2 0x194B JUMP JUMPDEST PUSH1 0x40 MLOAD DUP1 SWAP2 SUB SWAP1 REVERT JUMPDEST DUP1 PUSH1 0x3 PUSH1 0x0 PUSH2 0x100 EXP DUP2 SLOAD DUP2 PUSH20 0xFFFFFFFFFFFFFFFFFFFFFFFFFFFFFFFFFFFFFFFF MUL NOT AND SWAP1 DUP4 PUSH20 0xFFFFFFFFFFFFFFFFFFFFFFFFFFFFFFFFFFFFFFFF AND MUL OR SWAP1 SSTORE POP PUSH32 0x2F0C7F17BE551D1F4566672CD67ADBE50173E96632F56FF80D80ACC4AC00F328 DUP2 PUSH1 0x40 MLOAD PUSH2 0xAAE SWAP2 SWAP1 PUSH2 0x1392 JUMP JUMPDEST PUSH1 0x40 MLOAD DUP1 SWAP2 SUB SWAP1 LOG1 POP JUMP JUMPDEST PUSH1 0x2 PUSH1 0x0 SWAP1 SLOAD SWAP1 PUSH2 0x100 EXP SWAP1 DIV PUSH20 0xFFFFFFFFFFFFFFFFFFFFFFFFFFFFFFFFFFFFFFFF AND PUSH20 0xFFFFFFFFFFFFFFFFFFFFFFFFFFFFFFFFFFFFFFFF AND CALLER PUSH20 0xFFFFFFFFFFFFFFFFFFFFFFFFFFFFFFFFFFFFFFFF AND EQ PUSH2 0xB49 JUMPI PUSH1 0x40 MLOAD PUSH32 0x8C379A000000000000000000000000000000000000000000000000000000000 DUP2 MSTORE PUSH1 0x4 ADD PUSH2 0xB40 SWAP1 PUSH2 0x17E5 JUMP JUMPDEST PUSH1 0x40 MLOAD DUP1 SWAP2 SUB SWAP1 REVERT JUMPDEST PUSH1 0x0 DUP3 MLOAD GT PUSH2 0xB8D JUMPI PUSH1 0x40 MLOAD PUSH32 0x8C379A000000000000000000000000000000000000000000000000000000000 DUP2 MSTORE PUSH1 0x4 ADD PUSH2 0xB84 SWAP1 PUSH2 0x1A23 JUMP JUMPDEST PUSH1 0x40 MLOAD DUP1 SWAP2 SUB SWAP1 REVERT JUMPDEST DUP1 MLOAD DUP3 MLOAD EQ PUSH2 0xBD1 JUMPI PUSH1 0x40 MLOAD PUSH32 0x8C379A000000000000000000000000000000000000000000000000000000000 DUP2 MSTORE PUSH1 0x4 ADD PUSH2 0xBC8 SWAP1 PUSH2 0x1A8F JUMP JUMPDEST PUSH1 0x40 MLOAD DUP1 SWAP2 SUB SWAP1 REVERT JUMPDEST DUP2 PUSH1 0x0 SWAP1 DUP1 MLOAD SWAP1 PUSH1 0x20 ADD SWAP1 PUSH2 0xBE7 SWAP3 SWAP2 SWAP1 PUSH2 0x11BC JUMP JUMPDEST POP DUP1 PUSH1 0x1 SWAP1 DUP1 MLOAD SWAP1 PUSH1 0x20 ADD SWAP1 PUSH2 0xBFE SWAP3 SWAP2 SWAP1 PUSH2 0x1246 JUMP JUMPDEST POP PUSH32 0xE513D216117F51D2E3F1D22D007ED71D23A52C0BCC410E8258732D682FE3DB93 DUP3 DUP3 PUSH1 0x40 MLOAD PUSH2 0xC30 SWAP3 SWAP2 SWAP1 PUSH2 0x1C2B JUMP JUMPDEST PUSH1 0x40 MLOAD DUP1 SWAP2 SUB SWAP1 LOG1 POP POP JUMP JUMPDEST PUSH1 0x0 PUSH20 0xFFFFFFFFFFFFFFFFFFFFFFFFFFFFFFFFFFFFFFFF AND PUSH1 0x3 PUSH1 0x0 SWAP1 SLOAD SWAP1 PUSH2 0x100 EXP SWAP1 DIV PUSH20 0xFFFFFFFFFFFFFFFFFFFFFFFFFFFFFFFFFFFFFFFF AND PUSH20 0xFFFFFFFFFFFFFFFFFFFFFFFFFFFFFFFFFFFFFFFF AND SUB PUSH2 0xCCD JUMPI PUSH1 0x40 MLOAD PUSH32 0x8C379A000000000000000000000000000000000000000000000000000000000 DUP2 MSTORE PUSH1 0x4 ADD PUSH2 0xCC4 SWAP1 PUSH2 0x1737 JUMP JUMPDEST PUSH1 0x40 MLOAD DUP1 SWAP2 SUB SWAP1 REVERT JUMPDEST PUSH1 0x0 PUSH1 0x3 PUSH1 0x0 SWAP1 SLOAD SWAP1 PUSH2 0x100 EXP SWAP1 DIV PUSH20 0xFFFFFFFFFFFFFFFFFFFFFFFFFFFFFFFFFFFFFFFF AND PUSH20 0xFFFFFFFFFFFFFFFFFFFFFFFFFFFFFFFFFFFFFFFF AND PUSH4 0x70A08231 ADDRESS PUSH1 0x40 MLOAD DUP3 PUSH4 0xFFFFFFFF AND PUSH1 0xE0 SHL DUP2 MSTORE PUSH1 0x4 ADD PUSH2 0xD2A SWAP2 SWAP1 PUSH2 0x1392 JUMP JUMPDEST PUSH1 0x20 PUSH1 0x40 MLOAD DUP1 DUP4 SUB DUP2 DUP7 GAS STATICCALL ISZERO DUP1 ISZERO PUSH2 0xD47 JUMPI RETURNDATASIZE PUSH1 0x0 DUP1 RETURNDATACOPY RETURNDATASIZE PUSH1 0x0 REVERT JUMPDEST POP POP POP POP PUSH1 0x40 MLOAD RETURNDATASIZE PUSH1 0x1F NOT PUSH1 0x1F DUP3 ADD AND DUP3 ADD DUP1 PUSH1 0x40 MSTORE POP DUP2 ADD SWAP1 PUSH2 0xD6B SWAP2 SWAP1 PUSH2 0x176C JUMP JUMPDEST SWAP1 POP PUSH1 0x0 DUP2 GT PUSH2 0xDB0 JUMPI PUSH1 0x40 MLOAD PUSH32 0x8C379A000000000000000000000000000000000000000000000000000000000 DUP2 MSTORE PUSH1 0x4 ADD PUSH2 0xDA7 SWAP1 PUSH2 0x1CAE JUMP JUMPDEST PUSH1 0x40 MLOAD DUP1 SWAP2 SUB SWAP1 REVERT JUMPDEST PUSH1 0x0 DUP1 PUSH1 0x0 SWAP1 POP JUMPDEST PUSH1 0x1 DUP1 SLOAD SWAP1 POP DUP2 LT ISZERO PUSH2 0xE6C JUMPI PUSH1 0x0 PUSH1 0x1 DUP3 DUP2 SLOAD DUP2 LT PUSH2 0xDDB JUMPI PUSH2 0xDDA PUSH2 0x1CCE JUMP JUMPDEST JUMPDEST SWAP1 PUSH1 0x0 MSTORE PUSH1 0x20 PUSH1 0x0 KECCAK256 ADD SLOAD GT PUSH2 0xE26 JUMPI PUSH1 0x40 MLOAD PUSH32 0x8C379A000000000000000000000000000000000000000000000000000000000 DUP2 MSTORE PUSH1 0x4 ADD PUSH2 0xE1D SWAP1 PUSH2 0x1D49 JUMP JUMPDEST PUSH1 0x40 MLOAD DUP1 SWAP2 SUB SWAP1 REVERT JUMPDEST PUSH2 0xE57 PUSH1 0x1 DUP3 DUP2 SLOAD DUP2 LT PUSH2 0xE3D JUMPI PUSH2 0xE3C PUSH2 0x1CCE JUMP JUMPDEST JUMPDEST SWAP1 PUSH1 0x0 MSTORE PUSH1 0x20 PUSH1 0x0 KECCAK256 ADD SLOAD DUP4 PUSH2 0x117A SWAP1 SWAP2 SWAP1 PUSH4 0xFFFFFFFF AND JUMP JUMPDEST SWAP2 POP DUP1 DUP1 PUSH2 0xE64 SWAP1 PUSH2 0x1D98 JUMP JUMPDEST SWAP2 POP POP PUSH2 0xDB8 JUMP JUMPDEST POP PUSH1 0x64 DUP2 EQ PUSH2 0xEB0 JUMPI PUSH1 0x40 MLOAD PUSH32 0x8C379A000000000000000000000000000000000000000000000000000000000 DUP2 MSTORE PUSH1 0x4 ADD PUSH2 0xEA7 SWAP1 PUSH2 0x1E2C JUMP JUMPDEST PUSH1 0x40 MLOAD DUP1 SWAP2 SUB SWAP1 REVERT JUMPDEST PUSH1 0x0 JUMPDEST PUSH1 0x0 DUP1 SLOAD SWAP1 POP DUP2 LT ISZERO PUSH2 0xFFB JUMPI PUSH1 0x0 PUSH2 0xF06 PUSH1 0x64 PUSH2 0xEF8 PUSH1 0x1 DUP6 DUP2 SLOAD DUP2 LT PUSH2 0xEDE JUMPI PUSH2 0xEDD PUSH2 0x1CCE JUMP JUMPDEST JUMPDEST SWAP1 PUSH1 0x0 MSTORE PUSH1 0x20 PUSH1 0x0 KECCAK256 ADD SLOAD DUP8 PUSH2 0x1190 SWAP1 SWAP2 SWAP1 PUSH4 0xFFFFFFFF AND JUMP JUMPDEST PUSH2 0x11A6 SWAP1 SWAP2 SWAP1 PUSH4 0xFFFFFFFF AND JUMP JUMPDEST SWAP1 POP PUSH1 0x3 PUSH1 0x0 SWAP1 SLOAD SWAP1 PUSH2 0x100 EXP SWAP1 DIV PUSH20 0xFFFFFFFFFFFFFFFFFFFFFFFFFFFFFFFFFFFFFFFF AND PUSH20 0xFFFFFFFFFFFFFFFFFFFFFFFFFFFFFFFFFFFFFFFF AND PUSH4 0xA9059CBB PUSH1 0x0 DUP5 DUP2 SLOAD DUP2 LT PUSH2 0xF5A JUMPI PUSH2 0xF59 PUSH2 0x1CCE JUMP JUMPDEST JUMPDEST SWAP1 PUSH1 0x0 MSTORE PUSH1 0x20 PUSH1 0x0 KECCAK256 ADD PUSH1 0x0 SWAP1 SLOAD SWAP1 PUSH2 0x100 EXP SWAP1 DIV PUSH20 0xFFFFFFFFFFFFFFFFFFFFFFFFFFFFFFFFFFFFFFFF AND DUP4 PUSH1 0x40 MLOAD DUP4 PUSH4 0xFFFFFFFF AND PUSH1 0xE0 SHL DUP2 MSTORE PUSH1 0x4 ADD PUSH2 0xFA3 SWAP3 SWAP2 SWAP1 PUSH2 0x1871 JUMP JUMPDEST PUSH1 0x20 PUSH1 0x40 MLOAD DUP1 DUP4 SUB DUP2 PUSH1 0x0 DUP8 GAS CALL ISZERO DUP1 ISZERO PUSH2 0xFC2 JUMPI RETURNDATASIZE PUSH1 0x0 DUP1 RETURNDATACOPY RETURNDATASIZE PUSH1 0x0 REVERT JUMPDEST POP POP POP POP PUSH1 0x40 MLOAD RETURNDATASIZE PUSH1 0x1F NOT PUSH1 0x1F DUP3 ADD AND DUP3 ADD DUP1 PUSH1 0x40 MSTORE POP DUP2 ADD SWAP1 PUSH2 0xFE6 SWAP2 SWAP1 PUSH2 0x18D2 JUMP JUMPDEST POP POP DUP1 DUP1 PUSH2 0xFF3 SWAP1 PUSH2 0x1D98 JUMP JUMPDEST SWAP2 POP POP PUSH2 0xEB3 JUMP JUMPDEST POP POP POP JUMP JUMPDEST PUSH1 0x2 PUSH1 0x0 SWAP1 SLOAD SWAP1 PUSH2 0x100 EXP SWAP1 DIV PUSH20 0xFFFFFFFFFFFFFFFFFFFFFFFFFFFFFFFFFFFFFFFF AND PUSH20 0xFFFFFFFFFFFFFFFFFFFFFFFFFFFFFFFFFFFFFFFF AND CALLER PUSH20 0xFFFFFFFFFFFFFFFFFFFFFFFFFFFFFFFFFFFFFFFF AND EQ PUSH2 0x1090 JUMPI PUSH1 0x40 MLOAD PUSH32 0x8C379A000000000000000000000000000000000000000000000000000000000 DUP2 MSTORE PUSH1 0x4 ADD PUSH2 0x1087 SWAP1 PUSH2 0x17E5 JUMP JUMPDEST PUSH1 0x40 MLOAD DUP1 SWAP2 SUB SWAP1 REVERT JUMPDEST PUSH1 0x0 PUSH20 0xFFFFFFFFFFFFFFFFFFFFFFFFFFFFFFFFFFFFFFFF AND DUP2 PUSH20 0xFFFFFFFFFFFFFFFFFFFFFFFFFFFFFFFFFFFFFFFF AND SUB PUSH2 0x10FF JUMPI PUSH1 0x40 MLOAD PUSH32 0x8C379A000000000000000000000000000000000000000000000000000000000 DUP2 MSTORE PUSH1 0x4 ADD PUSH2 0x10F6 SWAP1 PUSH2 0x1E98 JUMP JUMPDEST PUSH1 0x40 MLOAD DUP1 SWAP2 SUB SWAP1 REVERT JUMPDEST DUP1 PUSH1 0x2 PUSH1 0x0 PUSH2 0x100 EXP DUP2 SLOAD DUP2 PUSH20 0xFFFFFFFFFFFFFFFFFFFFFFFFFFFFFFFFFFFFFFFF MUL NOT AND SWAP1 DUP4 PUSH20 0xFFFFFFFFFFFFFFFFFFFFFFFFFFFFFFFFFFFFFFFF AND MUL OR SWAP1 SSTORE POP PUSH32 0x4DBA622D284ED0014EE4B9A6A68386BE1A4C08A4913AE272DE89199CC686163 DUP2 PUSH1 0x40 MLOAD PUSH2 0x116F SWAP2 SWAP1 PUSH2 0x1392 JUMP JUMPDEST PUSH1 0x40 MLOAD DUP1 SWAP2 SUB SWAP1 LOG1 POP JUMP JUMPDEST PUSH1 0x0 DUP2 DUP4 PUSH2 0x1188 SWAP2 SWAP1 PUSH2 0x1EB8 JUMP JUMPDEST SWAP1 POP SWAP3 SWAP2 POP POP JUMP JUMPDEST PUSH1 0x0 DUP2 DUP4 PUSH2 0x119E SWAP2 SWAP1 PUSH2 0x1EEC JUMP JUMPDEST SWAP1 POP SWAP3 SWAP2 POP POP JUMP JUMPDEST PUSH1 0x0 DUP2 DUP4 PUSH2 0x11B4 SWAP2 SWAP1 PUSH2 0x1F5D JUMP JUMPDEST SWAP1 POP SWAP3 SWAP2 POP POP JUMP JUMPDEST DUP3 DUP1 SLOAD DUP3 DUP3 SSTORE SWAP1 PUSH1 0x0 MSTORE PUSH1 0x20 PUSH1 0x0 KECCAK256 SWAP1 DUP2 ADD SWAP3 DUP3 ISZERO PUSH2 0x1235 JUMPI SWAP2 PUSH1 0x20 MUL DUP3 ADD JUMPDEST DUP3 DUP2 GT ISZERO PUSH2 0x1234 JUMPI DUP3 MLOAD DUP3 PUSH1 0x0 PUSH2 0x100 EXP DUP2 SLOAD DUP2 PUSH20 0xFFFFFFFFFFFFFFFFFFFFFFFFFFFFFFFFFFFFFFFF MUL NOT AND SWAP1 DUP4 PUSH20 0xFFFFFFFFFFFFFFFFFFFFFFFFFFFFFFFFFFFFFFFF AND MUL OR SWAP1 SSTORE POP SWAP2 PUSH1 0x20 ADD SWAP2 SWAP1 PUSH1 0x1 ADD SWAP1 PUSH2 0x11DC JUMP JUMPDEST JUMPDEST POP SWAP1 POP PUSH2 0x1242 SWAP2 SWAP1 PUSH2 0x1293 JUMP JUMPDEST POP SWAP1 JUMP JUMPDEST DUP3 DUP1 SLOAD DUP3 DUP3 SSTORE SWAP1 PUSH1 0x0 MSTORE PUSH1 0x20 PUSH1 0x0 KECCAK256 SWAP1 DUP2 ADD SWAP3 DUP3 ISZERO PUSH2 0x1282 JUMPI SWAP2 PUSH1 0x20 MUL DUP3 ADD JUMPDEST DUP3 DUP2 GT ISZERO PUSH2 0x1281 JUMPI DUP3 MLOAD DUP3 SSTORE SWAP2 PUSH1 0x20 ADD SWAP2 SWAP1 PUSH1 0x1 ADD SWAP1 PUSH2 0x1266 JUMP JUMPDEST JUMPDEST POP SWAP1 POP PUSH2 0x128F SWAP2 SWAP1 PUSH2 0x1293 JUMP JUMPDEST POP SWAP1 JUMP JUMPDEST JUMPDEST DUP1 DUP3 GT ISZERO PUSH2 0x12AC JUMPI PUSH1 0x0 DUP2 PUSH1 0x0 SWAP1 SSTORE POP PUSH1 0x1 ADD PUSH2 0x1294 JUMP JUMPDEST POP SWAP1 JUMP JUMPDEST PUSH1 0x0 PUSH1 0x40 MLOAD SWAP1 POP SWAP1 JUMP JUMPDEST PUSH1 0x0 DUP1 REVERT JUMPDEST PUSH1 0x0 DUP1 REVERT JUMPDEST PUSH1 0x0 DUP2 SWAP1 POP SWAP2 SWAP1 POP JUMP JUMPDEST PUSH2 0x12D7 DUP2 PUSH2 0x12C4 JUMP JUMPDEST DUP2 EQ PUSH2 0x12E2 JUMPI PUSH1 0x0 DUP1 REVERT JUMPDEST POP JUMP JUMPDEST PUSH1 0x0 DUP2 CALLDATALOAD SWAP1 POP PUSH2 0x12F4 DUP2 PUSH2 0x12CE JUMP JUMPDEST SWAP3 SWAP2 POP POP JUMP JUMPDEST PUSH1 0x0 PUSH1 0x20 DUP3 DUP5 SUB SLT ISZERO PUSH2 0x1310 JUMPI PUSH2 0x130F PUSH2 0x12BA JUMP JUMPDEST JUMPDEST PUSH1 0x0 PUSH2 0x131E DUP5 DUP3 DUP6 ADD PUSH2 0x12E5 JUMP JUMPDEST SWAP2 POP POP SWAP3 SWAP2 POP POP JUMP JUMPDEST PUSH2 0x1330 DUP2 PUSH2 0x12C4 JUMP JUMPDEST DUP3 MSTORE POP POP JUMP JUMPDEST PUSH1 0x0 PUSH1 0x20 DUP3 ADD SWAP1 POP PUSH2 0x134B PUSH1 0x0 DUP4 ADD DUP5 PUSH2 0x1327 JUMP JUMPDEST SWAP3 SWAP2 POP POP JUMP JUMPDEST PUSH1 0x0 PUSH20 0xFFFFFFFFFFFFFFFFFFFFFFFFFFFFFFFFFFFFFFFF DUP3 AND SWAP1 POP SWAP2 SWAP1 POP JUMP JUMPDEST PUSH1 0x0 PUSH2 0x137C DUP3 PUSH2 0x1351 JUMP JUMPDEST SWAP1 POP SWAP2 SWAP1 POP JUMP JUMPDEST PUSH2 0x138C DUP2 PUSH2 0x1371 JUMP JUMPDEST DUP3 MSTORE POP POP JUMP JUMPDEST PUSH1 0x0 PUSH1 0x20 DUP3 ADD SWAP1 POP PUSH2 0x13A7 PUSH1 0x0 DUP4 ADD DUP5 PUSH2 0x1383 JUMP JUMPDEST SWAP3 SWAP2 POP POP JUMP JUMPDEST PUSH2 0x13B6 DUP2 PUSH2 0x1371 JUMP JUMPDEST DUP2 EQ PUSH2 0x13C1 JUMPI PUSH1 0x0 DUP1 REVERT JUMPDEST POP JUMP JUMPDEST PUSH1 0x0 DUP2 CALLDATALOAD SWAP1 POP PUSH2 0x13D3 DUP2 PUSH2 0x13AD JUMP JUMPDEST SWAP3 SWAP2 POP POP JUMP JUMPDEST PUSH1 0x0 DUP1 PUSH1 0x40 DUP4 DUP6 SUB SLT ISZERO PUSH2 0x13F0 JUMPI PUSH2 0x13EF PUSH2 0x12BA JUMP JUMPDEST JUMPDEST PUSH1 0x0 PUSH2 0x13FE DUP6 DUP3 DUP7 ADD PUSH2 0x13C4 JUMP JUMPDEST SWAP3 POP POP PUSH1 0x20 PUSH2 0x140F DUP6 DUP3 DUP7 ADD PUSH2 0x12E5 JUMP JUMPDEST SWAP2 POP POP SWAP3 POP SWAP3 SWAP1 POP JUMP JUMPDEST PUSH1 0x0 PUSH1 0x20 DUP3 DUP5 SUB SLT ISZERO PUSH2 0x142F JUMPI PUSH2 0x142E PUSH2 0x12BA JUMP JUMPDEST JUMPDEST PUSH1 0x0 PUSH2 0x143D DUP5 DUP3 DUP6 ADD PUSH2 0x13C4 JUMP JUMPDEST SWAP2 POP POP SWAP3 SWAP2 POP POP JUMP JUMPDEST PUSH1 0x0 DUP1 REVERT JUMPDEST PUSH1 0x0 PUSH1 0x1F NOT PUSH1 0x1F DUP4 ADD AND SWAP1 POP SWAP2 SWAP1 POP JUMP JUMPDEST PUSH32 0x4E487B7100000000000000000000000000000000000000000000000000000000 PUSH1 0x0 MSTORE PUSH1 0x41 PUSH1 0x4 MSTORE PUSH1 0x24 PUSH1 0x0 REVERT JUMPDEST PUSH2 0x1494 DUP3 PUSH2 0x144B JUMP JUMPDEST DUP2 ADD DUP2 DUP2 LT PUSH8 0xFFFFFFFFFFFFFFFF DUP3 GT OR ISZERO PUSH2 0x14B3 JUMPI PUSH2 0x14B2 PUSH2 0x145C JUMP JUMPDEST JUMPDEST DUP1 PUSH1 0x40 MSTORE POP POP POP JUMP JUMPDEST PUSH1 0x0 PUSH2 0x14C6 PUSH2 0x12B0 JUMP JUMPDEST SWAP1 POP PUSH2 0x14D2 DUP3 DUP3 PUSH2 0x148B JUMP JUMPDEST SWAP2 SWAP1 POP JUMP JUMPDEST PUSH1 0x0 PUSH8 0xFFFFFFFFFFFFFFFF DUP3 GT ISZERO PUSH2 0x14F2 JUMPI PUSH2 0x14F1 PUSH2 0x145C JUMP JUMPDEST JUMPDEST PUSH1 0x20 DUP3 MUL SWAP1 POP PUSH1 0x20 DUP2 ADD SWAP1 POP SWAP2 SWAP1 POP JUMP JUMPDEST PUSH1 0x0 DUP1 REVERT JUMPDEST PUSH1 0x0 PUSH2 0x151B PUSH2 0x1516 DUP5 PUSH2 0x14D7 JUMP JUMPDEST PUSH2 0x14BC JUMP JUMPDEST SWAP1 POP DUP1 DUP4 DUP3 MSTORE PUSH1 0x20 DUP3 ADD SWAP1 POP PUSH1 0x20 DUP5 MUL DUP4 ADD DUP6 DUP2 GT ISZERO PUSH2 0x153E JUMPI PUSH2 0x153D PUSH2 0x1503 JUMP JUMPDEST JUMPDEST DUP4 JUMPDEST DUP2 DUP2 LT ISZERO PUSH2 0x1567 JUMPI DUP1 PUSH2 0x1553 DUP9 DUP3 PUSH2 0x13C4 JUMP JUMPDEST DUP5 MSTORE PUSH1 0x20 DUP5 ADD SWAP4 POP POP PUSH1 0x20 DUP2 ADD SWAP1 POP PUSH2 0x1540 JUMP JUMPDEST POP POP POP SWAP4 SWAP3 POP POP POP JUMP JUMPDEST PUSH1 0x0 DUP3 PUSH1 0x1F DUP4 ADD SLT PUSH2 0x1586 JUMPI PUSH2 0x1585 PUSH2 0x1446 JUMP JUMPDEST JUMPDEST DUP2 CALLDATALOAD PUSH2 0x1596 DUP5 DUP3 PUSH1 0x20 DUP7 ADD PUSH2 0x1508 JUMP JUMPDEST SWAP2 POP POP SWAP3 SWAP2 POP POP JUMP JUMPDEST PUSH1 0x0 PUSH8 0xFFFFFFFFFFFFFFFF DUP3 GT ISZERO PUSH2 0x15BA JUMPI PUSH2 0x15B9 PUSH2 0x145C JUMP JUMPDEST JUMPDEST PUSH1 0x20 DUP3 MUL SWAP1 POP PUSH1 0x20 DUP2 ADD SWAP1 POP SWAP2 SWAP1 POP JUMP JUMPDEST PUSH1 0x0 PUSH2 0x15DE PUSH2 0x15D9 DUP5 PUSH2 0x159F JUMP JUMPDEST PUSH2 0x14BC JUMP JUMPDEST SWAP1 POP DUP1 DUP4 DUP3 MSTORE PUSH1 0x20 DUP3 ADD SWAP1 POP PUSH1 0x20 DUP5 MUL DUP4 ADD DUP6 DUP2 GT ISZERO PUSH2 0x1601 JUMPI PUSH2 0x1600 PUSH2 0x1503 JUMP JUMPDEST JUMPDEST DUP4 JUMPDEST DUP2 DUP2 LT ISZERO PUSH2 0x162A JUMPI DUP1 PUSH2 0x1616 DUP9 DUP3 PUSH2 0x12E5 JUMP JUMPDEST DUP5 MSTORE PUSH1 0x20 DUP5 ADD SWAP4 POP POP PUSH1 0x20 DUP2 ADD SWAP1 POP PUSH2 0x1603 JUMP JUMPDEST POP POP POP SWAP4 SWAP3 POP POP POP JUMP JUMPDEST PUSH1 0x0 DUP3 PUSH1 0x1F DUP4 ADD SLT PUSH2 0x1649 JUMPI PUSH2 0x1648 PUSH2 0x1446 JUMP JUMPDEST JUMPDEST DUP2 CALLDATALOAD PUSH2 0x1659 DUP5 DUP3 PUSH1 0x20 DUP7 ADD PUSH2 0x15CB JUMP JUMPDEST SWAP2 POP POP SWAP3 SWAP2 POP POP JUMP JUMPDEST PUSH1 0x0 DUP1 PUSH1 0x40 DUP4 DUP6 SUB SLT ISZERO PUSH2 0x1679 JUMPI PUSH2 0x1678 PUSH2 0x12BA JUMP JUMPDEST JUMPDEST PUSH1 0x0 DUP4 ADD CALLDATALOAD PUSH8 0xFFFFFFFFFFFFFFFF DUP2 GT ISZERO PUSH2 0x1697 JUMPI PUSH2 0x1696 PUSH2 0x12BF JUMP JUMPDEST JUMPDEST PUSH2 0x16A3 DUP6 DUP3 DUP7 ADD PUSH2 0x1571 JUMP JUMPDEST SWAP3 POP POP PUSH1 0x20 DUP4 ADD CALLDATALOAD PUSH8 0xFFFFFFFFFFFFFFFF DUP2 GT ISZERO PUSH2 0x16C4 JUMPI PUSH2 0x16C3 PUSH2 0x12BF JUMP JUMPDEST JUMPDEST PUSH2 0x16D0 DUP6 DUP3 DUP7 ADD PUSH2 0x1634 JUMP JUMPDEST SWAP2 POP POP SWAP3 POP SWAP3 SWAP1 POP JUMP JUMPDEST PUSH1 0x0 DUP3 DUP3 MSTORE PUSH1 0x20 DUP3 ADD SWAP1 POP SWAP3 SWAP2 POP POP JUMP JUMPDEST PUSH32 0x546F6B656E2061646472657373206E6F74207365740000000000000000000000 PUSH1 0x0 DUP3 ADD MSTORE POP JUMP JUMPDEST PUSH1 0x0 PUSH2 0x1721 PUSH1 0x15 DUP4 PUSH2 0x16DA JUMP JUMPDEST SWAP2 POP PUSH2 0x172C DUP3 PUSH2 0x16EB JUMP JUMPDEST PUSH1 0x20 DUP3 ADD SWAP1 POP SWAP2 SWAP1 POP JUMP JUMPDEST PUSH1 0x0 PUSH1 0x20 DUP3 ADD SWAP1 POP DUP2 DUP2 SUB PUSH1 0x0 DUP4 ADD MSTORE PUSH2 0x1750 DUP2 PUSH2 0x1714 JUMP JUMPDEST SWAP1 POP SWAP2 SWAP1 POP JUMP JUMPDEST PUSH1 0x0 DUP2 MLOAD SWAP1 POP PUSH2 0x1766 DUP2 PUSH2 0x12CE JUMP JUMPDEST SWAP3 SWAP2 POP POP JUMP JUMPDEST PUSH1 0x0 PUSH1 0x20 DUP3 DUP5 SUB SLT ISZERO PUSH2 0x1782 JUMPI PUSH2 0x1781 PUSH2 0x12BA JUMP JUMPDEST JUMPDEST PUSH1 0x0 PUSH2 0x1790 DUP5 DUP3 DUP6 ADD PUSH2 0x1757 JUMP JUMPDEST SWAP2 POP POP SWAP3 SWAP2 POP POP JUMP JUMPDEST PUSH32 0x4E6F742074686520636F6E7472616374206F776E657200000000000000000000 PUSH1 0x0 DUP3 ADD MSTORE POP JUMP JUMPDEST PUSH1 0x0 PUSH2 0x17CF PUSH1 0x16 DUP4 PUSH2 0x16DA JUMP JUMPDEST SWAP2 POP PUSH2 0x17DA DUP3 PUSH2 0x1799 JUMP JUMPDEST PUSH1 0x20 DUP3 ADD SWAP1 POP SWAP2 SWAP1 POP JUMP JUMPDEST PUSH1 0x0 PUSH1 0x20 DUP3 ADD SWAP1 POP DUP2 DUP2 SUB PUSH1 0x0 DUP4 ADD MSTORE PUSH2 0x17FE DUP2 PUSH2 0x17C2 JUMP JUMPDEST SWAP1 POP SWAP2 SWAP1 POP JUMP JUMPDEST PUSH32 0x4E6F20746F6B656E7320746F2077697468647261770000000000000000000000 PUSH1 0x0 DUP3 ADD MSTORE POP JUMP JUMPDEST PUSH1 0x0 PUSH2 0x183B PUSH1 0x15 DUP4 PUSH2 0x16DA JUMP JUMPDEST SWAP2 POP PUSH2 0x1846 DUP3 PUSH2 0x1805 JUMP JUMPDEST PUSH1 0x20 DUP3 ADD SWAP1 POP SWAP2 SWAP1 POP JUMP JUMPDEST PUSH1 0x0 PUSH1 0x20 DUP3 ADD SWAP1 POP DUP2 DUP2 SUB PUSH1 0x0 DUP4 ADD MSTORE PUSH2 0x186A DUP2 PUSH2 0x182E JUMP JUMPDEST SWAP1 POP SWAP2 SWAP1 POP JUMP JUMPDEST PUSH1 0x0 PUSH1 0x40 DUP3 ADD SWAP1 POP PUSH2 0x1886 PUSH1 0x0 DUP4 ADD DUP6 PUSH2 0x1383 JUMP JUMPDEST PUSH2 0x1893 PUSH1 0x20 DUP4 ADD DUP5 PUSH2 0x1327 JUMP JUMPDEST SWAP4 SWAP3 POP POP POP JUMP JUMPDEST PUSH1 0x0 DUP2 ISZERO ISZERO SWAP1 POP SWAP2 SWAP1 POP JUMP JUMPDEST PUSH2 0x18AF DUP2 PUSH2 0x189A JUMP JUMPDEST DUP2 EQ PUSH2 0x18BA JUMPI PUSH1 0x0 DUP1 REVERT JUMPDEST POP JUMP JUMPDEST PUSH1 0x0 DUP2 MLOAD SWAP1 POP PUSH2 0x18CC DUP2 PUSH2 0x18A6 JUMP JUMPDEST SWAP3 SWAP2 POP POP JUMP JUMPDEST PUSH1 0x0 PUSH1 0x20 DUP3 DUP5 SUB SLT ISZERO PUSH2 0x18E8 JUMPI PUSH2 0x18E7 PUSH2 0x12BA JUMP JUMPDEST JUMPDEST PUSH1 0x0 PUSH2 0x18F6 DUP5 DUP3 DUP6 ADD PUSH2 0x18BD JUMP JUMPDEST SWAP2 POP POP SWAP3 SWAP2 POP POP JUMP JUMPDEST PUSH32 0x496E76616C696420746F6B656E20616464726573730000000000000000000000 PUSH1 0x0 DUP3 ADD MSTORE POP JUMP JUMPDEST PUSH1 0x0 PUSH2 0x1935 PUSH1 0x15 DUP4 PUSH2 0x16DA JUMP JUMPDEST SWAP2 POP PUSH2 0x1940 DUP3 PUSH2 0x18FF JUMP JUMPDEST PUSH1 0x20 DUP3 ADD SWAP1 POP SWAP2 SWAP1 POP JUMP JUMPDEST PUSH1 0x0 PUSH1 0x20 DUP3 ADD SWAP1 POP DUP2 DUP2 SUB PUSH1 0x0 DUP4 ADD MSTORE PUSH2 0x1964 DUP2 PUSH2 0x1928 JUMP JUMPDEST SWAP1 POP SWAP2 SWAP1 POP JUMP JUMPDEST PUSH32 0x496E76616C696420616D6F756E74000000000000000000000000000000000000 PUSH1 0x0 DUP3 ADD MSTORE POP JUMP JUMPDEST PUSH1 0x0 PUSH2 0x19A1 PUSH1 0xE DUP4 PUSH2 0x16DA JUMP JUMPDEST SWAP2 POP PUSH2 0x19AC DUP3 PUSH2 0x196B JUMP JUMPDEST PUSH1 0x20 DUP3 ADD SWAP1 POP SWAP2 SWAP1 POP JUMP JUMPDEST PUSH1 0x0 PUSH1 0x20 DUP3 ADD SWAP1 POP DUP2 DUP2 SUB PUSH1 0x0 DUP4 ADD MSTORE PUSH2 0x19D0 DUP2 PUSH2 0x1994 JUMP JUMPDEST SWAP1 POP SWAP2 SWAP1 POP JUMP JUMPDEST PUSH32 0x4E6F207061796565732070726F76696465640000000000000000000000000000 PUSH1 0x0 DUP3 ADD MSTORE POP JUMP JUMPDEST PUSH1 0x0 PUSH2 0x1A0D PUSH1 0x12 DUP4 PUSH2 0x16DA JUMP JUMPDEST SWAP2 POP PUSH2 0x1A18 DUP3 PUSH2 0x19D7 JUMP JUMPDEST PUSH1 0x20 DUP3 ADD SWAP1 POP SWAP2 SWAP1 POP JUMP JUMPDEST PUSH1 0x0 PUSH1 0x20 DUP3 ADD SWAP1 POP DUP2 DUP2 SUB PUSH1 0x0 DUP4 ADD MSTORE PUSH2 0x1A3C DUP2 PUSH2 0x1A00 JUMP JUMPDEST SWAP1 POP SWAP2 SWAP1 POP JUMP JUMPDEST PUSH32 0x496E76616C69642070617965652070657263656E746167657300000000000000 PUSH1 0x0 DUP3 ADD MSTORE POP JUMP JUMPDEST PUSH1 0x0 PUSH2 0x1A79 PUSH1 0x19 DUP4 PUSH2 0x16DA JUMP JUMPDEST SWAP2 POP PUSH2 0x1A84 DUP3 PUSH2 0x1A43 JUMP JUMPDEST PUSH1 0x20 DUP3 ADD SWAP1 POP SWAP2 SWAP1 POP JUMP JUMPDEST PUSH1 0x0 PUSH1 0x20 DUP3 ADD SWAP1 POP DUP2 DUP2 SUB PUSH1 0x0 DUP4 ADD MSTORE PUSH2 0x1AA8 DUP2 PUSH2 0x1A6C JUMP JUMPDEST SWAP1 POP SWAP2 SWAP1 POP JUMP JUMPDEST PUSH1 0x0 DUP2 MLOAD SWAP1 POP SWAP2 SWAP1 POP JUMP JUMPDEST PUSH1 0x0 DUP3 DUP3 MSTORE PUSH1 0x20 DUP3 ADD SWAP1 POP SWAP3 SWAP2 POP POP JUMP JUMPDEST PUSH1 0x0 DUP2 SWAP1 POP PUSH1 0x20 DUP3 ADD SWAP1 POP SWAP2 SWAP1 POP JUMP JUMPDEST PUSH2 0x1AE4 DUP2 PUSH2 0x1371 JUMP JUMPDEST DUP3 MSTORE POP POP JUMP JUMPDEST PUSH1 0x0 PUSH2 0x1AF6 DUP4 DUP4 PUSH2 0x1ADB JUMP JUMPDEST PUSH1 0x20 DUP4 ADD SWAP1 POP SWAP3 SWAP2 POP POP JUMP JUMPDEST PUSH1 0x0 PUSH1 0x20 DUP3 ADD SWAP1 POP SWAP2 SWAP1 POP JUMP JUMPDEST PUSH1 0x0 PUSH2 0x1B1A DUP3 PUSH2 0x1AAF JUMP JUMPDEST PUSH2 0x1B24 DUP2 DUP6 PUSH2 0x1ABA JUMP JUMPDEST SWAP4 POP PUSH2 0x1B2F DUP4 PUSH2 0x1ACB JUMP JUMPDEST DUP1 PUSH1 0x0 JUMPDEST DUP4 DUP2 LT ISZERO PUSH2 0x1B60 JUMPI DUP2 MLOAD PUSH2 0x1B47 DUP9 DUP3 PUSH2 0x1AEA JUMP JUMPDEST SWAP8 POP PUSH2 0x1B52 DUP4 PUSH2 0x1B02 JUMP JUMPDEST SWAP3 POP POP PUSH1 0x1 DUP2 ADD SWAP1 POP PUSH2 0x1B33 JUMP JUMPDEST POP DUP6 SWAP4 POP POP POP POP SWAP3 SWAP2 POP POP JUMP JUMPDEST PUSH1 0x0 DUP2 MLOAD SWAP1 POP SWAP2 SWAP1 POP JUMP JUMPDEST PUSH1 0x0 DUP3 DUP3 MSTORE PUSH1 0x20 DUP3 ADD SWAP1 POP SWAP3 SWAP2 POP POP JUMP JUMPDEST PUSH1 0x0 DUP2 SWAP1 POP PUSH1 0x20 DUP3 ADD SWAP1 POP SWAP2 SWAP1 POP JUMP JUMPDEST PUSH2 0x1BA2 DUP2 PUSH2 0x12C4 JUMP JUMPDEST DUP3 MSTORE POP POP JUMP JUMPDEST PUSH1 0x0 PUSH2 0x1BB4 DUP4 DUP4 PUSH2 0x1B99 JUMP JUMPDEST PUSH1 0x20 DUP4 ADD SWAP1 POP SWAP3 SWAP2 POP POP JUMP JUMPDEST PUSH1 0x0 PUSH1 0x20 DUP3 ADD SWAP1 POP SWAP2 SWAP1 POP JUMP JUMPDEST PUSH1 0x0 PUSH2 0x1BD8 DUP3 PUSH2 0x1B6D JUMP JUMPDEST PUSH2 0x1BE2 DUP2 DUP6 PUSH2 0x1B78 JUMP JUMPDEST SWAP4 POP PUSH2 0x1BED DUP4 PUSH2 0x1B89 JUMP JUMPDEST DUP1 PUSH1 0x0 JUMPDEST DUP4 DUP2 LT ISZERO PUSH2 0x1C1E JUMPI DUP2 MLOAD PUSH2 0x1C05 DUP9 DUP3 PUSH2 0x1BA8 JUMP JUMPDEST SWAP8 POP PUSH2 0x1C10 DUP4 PUSH2 0x1BC0 JUMP JUMPDEST SWAP3 POP POP PUSH1 0x1 DUP2 ADD SWAP1 POP PUSH2 0x1BF1 JUMP JUMPDEST POP DUP6 SWAP4 POP POP POP POP SWAP3 SWAP2 POP POP JUMP JUMPDEST PUSH1 0x0 PUSH1 0x40 DUP3 ADD SWAP1 POP DUP2 DUP2 SUB PUSH1 0x0 DUP4 ADD MSTORE PUSH2 0x1C45 DUP2 DUP6 PUSH2 0x1B0F JUMP JUMPDEST SWAP1 POP DUP2 DUP2 SUB PUSH1 0x20 DUP4 ADD MSTORE PUSH2 0x1C59 DUP2 DUP5 PUSH2 0x1BCD JUMP JUMPDEST SWAP1 POP SWAP4 SWAP3 POP POP POP JUMP JUMPDEST PUSH32 0x4E6F20746F6B656E7320746F2064697374726962757465000000000000000000 PUSH1 0x0 DUP3 ADD MSTORE POP JUMP JUMPDEST PUSH1 0x0 PUSH2 0x1C98 PUSH1 0x17 DUP4 PUSH2 0x16DA JUMP JUMPDEST SWAP2 POP PUSH2 0x1CA3 DUP3 PUSH2 0x1C62 JUMP JUMPDEST PUSH1 0x20 DUP3 ADD SWAP1 POP SWAP2 SWAP1 POP JUMP JUMPDEST PUSH1 0x0 PUSH1 0x20 DUP3 ADD SWAP1 POP DUP2 DUP2 SUB PUSH1 0x0 DUP4 ADD MSTORE PUSH2 0x1CC7 DUP2 PUSH2 0x1C8B JUMP JUMPDEST SWAP1 POP SWAP2 SWAP1 POP JUMP JUMPDEST PUSH32 0x4E487B7100000000000000000000000000000000000000000000000000000000 PUSH1 0x0 MSTORE PUSH1 0x32 PUSH1 0x4 MSTORE PUSH1 0x24 PUSH1 0x0 REVERT JUMPDEST PUSH32 0x496E76616C69642070617965652070657263656E746167650000000000000000 PUSH1 0x0 DUP3 ADD MSTORE POP JUMP JUMPDEST PUSH1 0x0 PUSH2 0x1D33 PUSH1 0x18 DUP4 PUSH2 0x16DA JUMP JUMPDEST SWAP2 POP PUSH2 0x1D3E DUP3 PUSH2 0x1CFD JUMP JUMPDEST PUSH1 0x20 DUP3 ADD SWAP1 POP SWAP2 SWAP1 POP JUMP JUMPDEST PUSH1 0x0 PUSH1 0x20 DUP3 ADD SWAP1 POP DUP2 DUP2 SUB PUSH1 0x0 DUP4 ADD MSTORE PUSH2 0x1D62 DUP2 PUSH2 0x1D26 JUMP JUMPDEST SWAP1 POP SWAP2 SWAP1 POP JUMP JUMPDEST PUSH32 0x4E487B7100000000000000000000000000000000000000000000000000000000 PUSH1 0x0 MSTORE PUSH1 0x11 PUSH1 0x4 MSTORE PUSH1 0x24 PUSH1 0x0 REVERT JUMPDEST PUSH1 0x0 PUSH2 0x1DA3 DUP3 PUSH2 0x12C4 JUMP JUMPDEST SWAP2 POP PUSH32 0xFFFFFFFFFFFFFFFFFFFFFFFFFFFFFFFFFFFFFFFFFFFFFFFFFFFFFFFFFFFFFFFF DUP3 SUB PUSH2 0x1DD5 JUMPI PUSH2 0x1DD4 PUSH2 0x1D69 JUMP JUMPDEST JUMPDEST PUSH1 0x1 DUP3 ADD SWAP1 POP SWAP2 SWAP1 POP JUMP JUMPDEST PUSH32 0x546F74616C2070657263656E74616765206D75737420657175616C2031303000 PUSH1 0x0 DUP3 ADD MSTORE POP JUMP JUMPDEST PUSH1 0x0 PUSH2 0x1E16 PUSH1 0x1F DUP4 PUSH2 0x16DA JUMP JUMPDEST SWAP2 POP PUSH2 0x1E21 DUP3 PUSH2 0x1DE0 JUMP JUMPDEST PUSH1 0x20 DUP3 ADD SWAP1 POP SWAP2 SWAP1 POP JUMP JUMPDEST PUSH1 0x0 PUSH1 0x20 DUP3 ADD SWAP1 POP DUP2 DUP2 SUB PUSH1 0x0 DUP4 ADD MSTORE PUSH2 0x1E45 DUP2 PUSH2 0x1E09 JUMP JUMPDEST SWAP1 POP SWAP2 SWAP1 POP JUMP JUMPDEST PUSH32 0x496E76616C6964206E6577206F776E6572206164647265737300000000000000 PUSH1 0x0 DUP3 ADD MSTORE POP JUMP JUMPDEST PUSH1 0x0 PUSH2 0x1E82 PUSH1 0x19 DUP4 PUSH2 0x16DA JUMP JUMPDEST SWAP2 POP PUSH2 0x1E8D DUP3 PUSH2 0x1E4C JUMP JUMPDEST PUSH1 0x20 DUP3 ADD SWAP1 POP SWAP2 SWAP1 POP JUMP JUMPDEST PUSH1 0x0 PUSH1 0x20 DUP3 ADD SWAP1 POP DUP2 DUP2 SUB PUSH1 0x0 DUP4 ADD MSTORE PUSH2 0x1EB1 DUP2 PUSH2 0x1E75 JUMP JUMPDEST SWAP1 POP SWAP2 SWAP1 POP JUMP JUMPDEST PUSH1 0x0 PUSH2 0x1EC3 DUP3 PUSH2 0x12C4 JUMP JUMPDEST SWAP2 POP PUSH2 0x1ECE DUP4 PUSH2 0x12C4 JUMP JUMPDEST SWAP3 POP DUP3 DUP3 ADD SWAP1 POP DUP1 DUP3 GT ISZERO PUSH2 0x1EE6 JUMPI PUSH2 0x1EE5 PUSH2 0x1D69 JUMP JUMPDEST JUMPDEST SWAP3 SWAP2 POP POP JUMP JUMPDEST PUSH1 0x0 PUSH2 0x1EF7 DUP3 PUSH2 0x12C4 JUMP JUMPDEST SWAP2 POP PUSH2 0x1F02 DUP4 PUSH2 0x12C4 JUMP JUMPDEST SWAP3 POP DUP3 DUP3 MUL PUSH2 0x1F10 DUP2 PUSH2 0x12C4 JUMP JUMPDEST SWAP2 POP DUP3 DUP3 DIV DUP5 EQ DUP4 ISZERO OR PUSH2 0x1F27 JUMPI PUSH2 0x1F26 PUSH2 0x1D69 JUMP JUMPDEST JUMPDEST POP SWAP3 SWAP2 POP POP JUMP JUMPDEST PUSH32 0x4E487B7100000000000000000000000000000000000000000000000000000000 PUSH1 0x0 MSTORE PUSH1 0x12 PUSH1 0x4 MSTORE PUSH1 0x24 PUSH1 0x0 REVERT JUMPDEST PUSH1 0x0 PUSH2 0x1F68 DUP3 PUSH2 0x12C4 JUMP JUMPDEST SWAP2 POP PUSH2 0x1F73 DUP4 PUSH2 0x12C4 JUMP JUMPDEST SWAP3 POP DUP3 PUSH2 0x1F83 JUMPI PUSH2 0x1F82 PUSH2 0x1F2E JUMP JUMPDEST JUMPDEST DUP3 DUP3 DIV SWAP1 POP SWAP3 SWAP2 POP POP JUMP INVALID LOG2 PUSH5 0x6970667358 0x22 SLT KECCAK256 SWAP10 SWAP14 PUSH3 0xD7239F ISZERO SGT PUSH14 0xA8F3C3FD197AFDB4BE8337EA298E 0x5D MULMOD PUSH24 0x5335B8373B4664736F6C6343000813003300000000000000 "
				},
				"gasEstimates": {
					"creation": {
						"codeDepositCost": "1626400",
						"executionCost": "infinite",
						"totalCost": "infinite"
					},
					"external": {
						"changeTokenAddress(address)": "infinite",
						"distribute()": "infinite",
						"getTokenBalance()": "infinite",
						"owner()": "2603",
						"payeePercentages(uint256)": "infinite",
						"payees(uint256)": "4979",
						"recoverLostFunds(address,uint256)": "infinite",
						"tokenAddress()": "2536",
						"transferOwnership(address)": "infinite",
						"updatePayees(address[],uint256[])": "infinite",
						"withdrawTokens()": "infinite"
					}
				},
				"methodIdentifiers": {
					"changeTokenAddress(address)": "c9cda91f",
					"distribute()": "e4fc6b6d",
					"getTokenBalance()": "82b2e257",
					"owner()": "8da5cb5b",
					"payeePercentages(uint256)": "2b29af7f",
					"payees(uint256)": "63037b0c",
					"recoverLostFunds(address,uint256)": "8f63458c",
					"tokenAddress()": "9d76ea58",
					"transferOwnership(address)": "f2fde38b",
					"updatePayees(address[],uint256[])": "d9215050",
					"withdrawTokens()": "8d8f2adb"
				}
			},
			"storageLayout": {
				"storage": [
					{
						"astId": 337,
						"contract": "splitter.sol:AnyPaymentSplitter",
						"label": "payees",
						"offset": 0,
						"slot": "0",
						"type": "t_array(t_address)dyn_storage"
					},
					{
						"astId": 340,
						"contract": "splitter.sol:AnyPaymentSplitter",
						"label": "payeePercentages",
						"offset": 0,
						"slot": "1",
						"type": "t_array(t_uint256)dyn_storage"
					},
					{
						"astId": 342,
						"contract": "splitter.sol:AnyPaymentSplitter",
						"label": "owner",
						"offset": 0,
						"slot": "2",
						"type": "t_address"
					},
					{
						"astId": 344,
						"contract": "splitter.sol:AnyPaymentSplitter",
						"label": "tokenAddress",
						"offset": 0,
						"slot": "3",
						"type": "t_address"
					}
				],
				"types": {
					"t_address": {
						"encoding": "inplace",
						"label": "address",
						"numberOfBytes": "20"
					},
					"t_array(t_address)dyn_storage": {
						"base": "t_address",
						"encoding": "dynamic_array",
						"label": "address[]",
						"numberOfBytes": "32"
					},
					"t_array(t_uint256)dyn_storage": {
						"base": "t_uint256",
						"encoding": "dynamic_array",
						"label": "uint256[]",
						"numberOfBytes": "32"
					},
					"t_uint256": {
						"encoding": "inplace",
						"label": "uint256",
						"numberOfBytes": "32"
					}
				}
			},
			"userdoc": {
				"kind": "user",
				"methods": {},
				"version": 1
			}
		}
	}
}