{
	"data": {
		"bytecode": {
			"linkReferences": {},
			"object": "60c06040526000600560006101000a81548160ff0219169083151502179055506101f46006556103e8608090815250601960a0908152506000600760006101000a81548173ffffffffffffffffffffffffffffffffffffffff021916908373ffffffffffffffffffffffffffffffffffffffff1602179055506000600960006101000a81548160ff0219169083151502179055506001600960016101000a81548160ff0219169083151502179055506064600a556001600b60006101000a81548160ff0219169083151502179055506032600c5542600d556000601060006101000a81548160ff0219169083151502179055506001601260006101000a81548160ff0219169083151502179055503480156200011a57600080fd5b5060405162004a4838038062004a4883398181016040528101906200014091906200058b565b6040518060400160405280600881526020017f54776f4c616e64730000000000000000000000000000000000000000000000008152506040518060400160405280600581526020017f4c414e44530000000000000000000000000000000000000000000000000000008152508160039081620001bd91906200082d565b508060049081620001cf91906200082d565b505050620001e433826200026460201b60201c565b620001f96000801b33620003dc60201b60201c565b6200022b7f7935bd0ae54bc31f548c14dba4d37c5c64b3f8ca900cb468fb8abd54d5894f5533620003dc60201b60201c565b6200025d7fbacb663e11b33b3c60095a1a43993e26dc295019d5cfae50a57996f97e90c82033620003dc60201b60201c565b5062000a2f565b600073ffffffffffffffffffffffffffffffffffffffff168273ffffffffffffffffffffffffffffffffffffffff1603620002d6576040517f08c379a0000000000000000000000000000000000000000000000000000000008152600401620002cd9062000975565b60405180910390fd5b620002ea60008383620004ce60201b60201c565b8060026000828254620002fe9190620009c6565b92505081905550806000808473ffffffffffffffffffffffffffffffffffffffff1673ffffffffffffffffffffffffffffffffffffffff1681526020019081526020016000206000828254620003559190620009c6565b925050819055508173ffffffffffffffffffffffffffffffffffffffff16600073ffffffffffffffffffffffffffffffffffffffff167fddf252ad1be2c89b69c2b068fc378daa952ba7f163c4a11628f55a4df523b3ef83604051620003bc919062000a12565b60405180910390a3620003d860008383620004d360201b60201c565b5050565b620003ee8282620004d860201b60201c565b620004ca5760016008600084815260200190815260200160002060000160008373ffffffffffffffffffffffffffffffffffffffff1673ffffffffffffffffffffffffffffffffffffffff16815260200190815260200160002060006101000a81548160ff0219169083151502179055506200046f6200054360201b60201c565b73ffffffffffffffffffffffffffffffffffffffff168173ffffffffffffffffffffffffffffffffffffffff16837f2f8788117e7eff1d82e926ec794901d17c78024a50270940304540a733656f0d60405160405180910390a45b5050565b505050565b505050565b60006008600084815260200190815260200160002060000160008373ffffffffffffffffffffffffffffffffffffffff1673ffffffffffffffffffffffffffffffffffffffff16815260200190815260200160002060009054906101000a900460ff16905092915050565b600033905090565b600080fd5b6000819050919050565b620005658162000550565b81146200057157600080fd5b50565b60008151905062000585816200055a565b92915050565b600060208284031215620005a457620005a36200054b565b5b6000620005b48482850162000574565b91505092915050565b600081519050919050565b7f4e487b7100000000000000000000000000000000000000000000000000000000600052604160045260246000fd5b7f4e487b7100000000000000000000000000000000000000000000000000000000600052602260045260246000fd5b600060028204905060018216806200063f57607f821691505b602082108103620006555762000654620005f7565b5b50919050565b60008190508160005260206000209050919050565b60006020601f8301049050919050565b600082821b905092915050565b600060088302620006bf7fffffffffffffffffffffffffffffffffffffffffffffffffffffffffffffffff8262000680565b620006cb868362000680565b95508019841693508086168417925050509392505050565b6000819050919050565b60006200070e62000708620007028462000550565b620006e3565b62000550565b9050919050565b6000819050919050565b6200072a83620006ed565b62000742620007398262000715565b8484546200068d565b825550505050565b600090565b620007596200074a565b620007668184846200071f565b505050565b5b818110156200078e57620007826000826200074f565b6001810190506200076c565b5050565b601f821115620007dd57620007a7816200065b565b620007b28462000670565b81016020851015620007c2578190505b620007da620007d18562000670565b8301826200076b565b50505b505050565b600082821c905092915050565b60006200080260001984600802620007e2565b1980831691505092915050565b60006200081d8383620007ef565b9150826002028217905092915050565b6200083882620005bd565b67ffffffffffffffff811115620008545762000853620005c8565b5b62000860825462000626565b6200086d82828562000792565b600060209050601f831160018114620008a5576000841562000890578287015190505b6200089c85826200080f565b8655506200090c565b601f198416620008b5866200065b565b60005b82811015620008df57848901518255600182019150602085019450602081019050620008b8565b86831015620008ff5784890151620008fb601f891682620007ef565b8355505b6001600288020188555050505b505050505050565b600082825260208201905092915050565b7f45524332303a206d696e7420746f20746865207a65726f206164647265737300600082015250565b60006200095d601f8362000914565b91506200096a8262000925565b602082019050919050565b6000602082019050818103600083015262000990816200094e565b9050919050565b7f4e487b7100000000000000000000000000000000000000000000000000000000600052601160045260246000fd5b6000620009d38262000550565b9150620009e08362000550565b9250828201905080821115620009fb57620009fa62000997565b5b92915050565b62000a0c8162000550565b82525050565b600060208201905062000a29600083018462000a01565b92915050565b60805160a051613ff362000a556000396000612954015260006128f10152613ff36000f3fe60806040526004361061028c5760003560e01c806379cc67901161015a578063b4dcb2e3116100c1578063dd62ed3e1161007a578063dd62ed3e14610a4c578063dda3d27a14610a89578063e26ffe0814610ab2578063e7fccee014610aef578063f9f92be414610b1a578063ff3cf3f014610b57576102c3565b8063b4dcb2e314610950578063bdf4f8311461097b578063bfc12c05146109a4578063cca0feb6146109cf578063ccc57490146109f8578063d547741f14610a23576102c3565b806395d89b411161011357806395d89b411461082c5780639e01392f14610857578063a217fddf14610882578063a457c2d7146108ad578063a9059cbb146108ea578063b45639d014610927576102c3565b806379cc6790146107305780638a2b66d1146107595780638a8c523c146107845780639155e0831461079b57806391d14854146107c45780639534b12914610801576102c3565b806339509351116101fe5780635a99a7e9116101b75780635a99a7e91461060c5780635ac0562614610637578063618127441461066057806370a082311461068b57806372ad20b9146106c8578063748eb3a514610705576102c3565b806339509351146105105780633b9b03141461054d5780633cfd52111461057857806342966c68146105a15780634ada218b146105ca5780635360f3cc146105f5576102c3565b8063248a9ca311610250578063248a9ca314610402578063262c7ea51461043f5780632f2ff15d1461046a578063313ce5671461049357806332c94021146104be57806336568abe146104e7576102c3565b806301ffc9a7146102f557806306fdde0314610332578063095ea7b31461035d57806318160ddd1461039a57806323b872dd146103c5576102c3565b366102c3576040517fa4675adf00000000000000000000000000000000000000000000000000000000815260040160405180910390fd5b6040517fa4675adf00000000000000000000000000000000000000000000000000000000815260040160405180910390fd5b34801561030157600080fd5b5061031c60048036038101906103179190612fb2565b610b82565b6040516103299190612ffa565b60405180910390f35b34801561033e57600080fd5b50610347610bfc565b60405161035491906130a5565b60405180910390f35b34801561036957600080fd5b50610384600480360381019061037f919061315b565b610c8e565b6040516103919190612ffa565b60405180910390f35b3480156103a657600080fd5b506103af610cb1565b6040516103bc91906131aa565b60405180910390f35b3480156103d157600080fd5b506103ec60048036038101906103e791906131c5565b610cbb565b6040516103f99190612ffa565b60405180910390f35b34801561040e57600080fd5b506104296004803603810190610424919061324e565b610cea565b604051610436919061328a565b60405180910390f35b34801561044b57600080fd5b50610454610d0a565b6040516104619190612ffa565b60405180910390f35b34801561047657600080fd5b50610491600480360381019061048c91906132a5565b610d1d565b005b34801561049f57600080fd5b506104a8610d46565b6040516104b59190613301565b60405180910390f35b3480156104ca57600080fd5b506104e560048036038101906104e0919061331c565b610d4f565b005b3480156104f357600080fd5b5061050e600480360381019061050991906132a5565b610e26565b005b34801561051c57600080fd5b506105376004803603810190610532919061315b565b610ea9565b6040516105449190612ffa565b60405180910390f35b34801561055957600080fd5b50610562610f53565b60405161056f91906131aa565b60405180910390f35b34801561058457600080fd5b5061059f600480360381019061059a9190613375565b610f5d565b005b3480156105ad57600080fd5b506105c860048036038101906105c391906133a2565b610fe4565b005b3480156105d657600080fd5b506105df610ff8565b6040516105ec9190612ffa565b60405180910390f35b34801561060157600080fd5b5061060a61100b565b005b34801561061857600080fd5b50610621611087565b60405161062e919061328a565b60405180910390f35b34801561064357600080fd5b5061065e600480360381019061065991906133cf565b6110ab565b005b34801561066c57600080fd5b50610675611139565b6040516106829190612ffa565b60405180910390f35b34801561069757600080fd5b506106b260048036038101906106ad919061331c565b61114c565b6040516106bf91906131aa565b60405180910390f35b3480156106d457600080fd5b506106ef60048036038101906106ea919061331c565b611194565b6040516106fc9190612ffa565b60405180910390f35b34801561071157600080fd5b5061071a6111b4565b6040516107279190612ffa565b60405180910390f35b34801561073c57600080fd5b506107576004803603810190610752919061315b565b6111c7565b005b34801561076557600080fd5b5061076e6111e7565b60405161077b919061341e565b60405180910390f35b34801561079057600080fd5b50610799611211565b005b3480156107a757600080fd5b506107c260048036038101906107bd91906133cf565b61128d565b005b3480156107d057600080fd5b506107eb60048036038101906107e691906132a5565b611434565b6040516107f89190612ffa565b60405180910390f35b34801561080d57600080fd5b5061081661149f565b60405161082391906131aa565b60405180910390f35b34801561083857600080fd5b506108416114a5565b60405161084e91906130a5565b60405180910390f35b34801561086357600080fd5b5061086c611537565b6040516108799190612ffa565b60405180910390f35b34801561088e57600080fd5b5061089761154e565b6040516108a4919061328a565b60405180910390f35b3480156108b957600080fd5b506108d460048036038101906108cf919061315b565b611555565b6040516108e19190612ffa565b60405180910390f35b3480156108f657600080fd5b50610911600480360381019061090c919061315b565b61163f565b60405161091e9190612ffa565b60405180910390f35b34801561093357600080fd5b5061094e60048036038101906109499190613375565b611662565b005b34801561095c57600080fd5b506109656116de565b60405161097291906131aa565b60405180910390f35b34801561098757600080fd5b506109a2600480360381019061099d9190613375565b6116e4565b005b3480156109b057600080fd5b506109b9611760565b6040516109c691906131aa565b60405180910390f35b3480156109db57600080fd5b506109f660048036038101906109f191906133a2565b611766565b005b348015610a0457600080fd5b50610a0d611812565b604051610a1a919061328a565b60405180910390f35b348015610a2f57600080fd5b50610a4a6004803603810190610a4591906132a5565b611836565b005b348015610a5857600080fd5b50610a736004803603810190610a6e9190613439565b61185f565b604051610a8091906131aa565b60405180910390f35b348015610a9557600080fd5b50610ab06004803603810190610aab9190613375565b6118e6565b005b348015610abe57600080fd5b50610ad96004803603810190610ad4919061331c565b611962565b604051610ae691906131aa565b60405180910390f35b348015610afb57600080fd5b50610b0461197a565b604051610b119190612ffa565b60405180910390f35b348015610b2657600080fd5b50610b416004803603810190610b3c919061331c565b61198d565b604051610b4e9190612ffa565b60405180910390f35b348015610b6357600080fd5b50610b6c6119ad565b604051610b7991906131aa565b60405180910390f35b60007f7965db0b000000000000000000000000000000000000000000000000000000007bffffffffffffffffffffffffffffffffffffffffffffffffffffffff1916827bffffffffffffffffffffffffffffffffffffffffffffffffffffffff19161480610bf55750610bf4826119b3565b5b9050919050565b606060038054610c0b906134a8565b80601f0160208091040260200160405190810160405280929190818152602001828054610c37906134a8565b8015610c845780601f10610c5957610100808354040283529160200191610c84565b820191906000526020600020905b815481529060010190602001808311610c6757829003601f168201915b5050505050905090565b600080610c99611a1d565b9050610ca6818585611a25565b600191505092915050565b6000600254905090565b600080610cc6611a1d565b9050610cd3858285611bee565b610cde858585611c7a565b60019150509392505050565b600060086000838152602001908152602001600020600101549050919050565b600960009054906101000a900460ff1681565b610d2682610cea565b610d3781610d32611a1d565b612371565b610d41838361240e565b505050565b60006012905090565b7f7935bd0ae54bc31f548c14dba4d37c5c64b3f8ca900cb468fb8abd54d5894f55610d8181610d7c611a1d565b612371565b610d896111e7565b73ffffffffffffffffffffffffffffffffffffffff168273ffffffffffffffffffffffffffffffffffffffff1603610ded576040517fc23f6ccb00000000000000000000000000000000000000000000000000000000815260040160405180910390fd5b610df6826124ef565b7fbe040b2fee49a0b1c0e9c247f9262c84252d7307a7f809efb5152044a217a36d60405160405180910390a15050565b610e2e611a1d565b73ffffffffffffffffffffffffffffffffffffffff168173ffffffffffffffffffffffffffffffffffffffff1614610e9b576040517f08c379a0000000000000000000000000000000000000000000000000000000008152600401610e929061354b565b60405180910390fd5b610ea58282612571565b5050565b600080610eb4611a1d565b9050610f48818585600160008673ffffffffffffffffffffffffffffffffffffffff1673ffffffffffffffffffffffffffffffffffffffff16815260200190815260200160002060008973ffffffffffffffffffffffffffffffffffffffff1673ffffffffffffffffffffffffffffffffffffffff16815260200190815260200160002054610f43919061359a565b611a25565b600191505092915050565b6000600654905090565b7f7935bd0ae54bc31f548c14dba4d37c5c64b3f8ca900cb468fb8abd54d5894f55610f8f81610f8a611a1d565b612371565b6001151582151514610fa857610fa3612653565b610fb1565b610fb06126b6565b5b8115157ffacadd79f59ad01d38b1ec5e5ddf62a7c0b040f5039c29c2e7b04aa474ba02b560405160405180910390a25050565b610ff5610fef611a1d565b82612719565b50565b601060009054906101000a900460ff1681565b7f7935bd0ae54bc31f548c14dba4d37c5c64b3f8ca900cb468fb8abd54d5894f5561103d81611038611a1d565b612371565b6001600960006101000a81548160ff0219169083151502179055507f434b7453f4f1c6763b37650565f246cfc2cc356b4e71cbe5184fb9f2847d9b4d60405160405180910390a150565b7fbacb663e11b33b3c60095a1a43993e26dc295019d5cfae50a57996f97e90c82081565b7f7935bd0ae54bc31f548c14dba4d37c5c64b3f8ca900cb468fb8abd54d5894f556110dd816110d8611a1d565b612371565b81600e60008573ffffffffffffffffffffffffffffffffffffffff1673ffffffffffffffffffffffffffffffffffffffff16815260200190815260200160002060006101000a81548160ff021916908315150217905550505050565b600b60009054906101000a900460ff1681565b60008060008373ffffffffffffffffffffffffffffffffffffffff1673ffffffffffffffffffffffffffffffffffffffff168152602001908152602001600020549050919050565b600e6020528060005260406000206000915054906101000a900460ff1681565b601260009054906101000a900460ff1681565b6111d9826111d3611a1d565b83611bee565b6111e38282612719565b5050565b6000600760009054906101000a900473ffffffffffffffffffffffffffffffffffffffff16905090565b7f7935bd0ae54bc31f548c14dba4d37c5c64b3f8ca900cb468fb8abd54d5894f556112438161123e611a1d565b612371565b6001601060006101000a81548160ff0219169083151502179055507f799663458a5ef2936f7fa0c99b3336c69c25890f82974f04e811e5bb359186c760405160405180910390a150565b7f7935bd0ae54bc31f548c14dba4d37c5c64b3f8ca900cb468fb8abd54d5894f556112bf816112ba611a1d565b612371565b62093a80600d54426112d191906135ce565b1115611309576040517f6d29b86100000000000000000000000000000000000000000000000000000000815260040160405180910390fd5b811515600f60008573ffffffffffffffffffffffffffffffffffffffff1673ffffffffffffffffffffffffffffffffffffffff16815260200190815260200160002060009054906101000a900460ff16151503611392576040517fc23f6ccb00000000000000000000000000000000000000000000000000000000815260040160405180910390fd5b81600f60008573ffffffffffffffffffffffffffffffffffffffff1673ffffffffffffffffffffffffffffffffffffffff16815260200190815260200160002060006101000a81548160ff0219169083151502179055508115158373ffffffffffffffffffffffffffffffffffffffff167f6a12b3df6cba4203bd7fd06b816789f87de8c594299aed5717ae070fac781bac60405160405180910390a3505050565b60006008600084815260200190815260200160002060000160008373ffffffffffffffffffffffffffffffffffffffff1673ffffffffffffffffffffffffffffffffffffffff16815260200190815260200160002060009054906101000a900460ff16905092915050565b60115481565b6060600480546114b4906134a8565b80601f01602080910402602001604051908101604052809291908181526020018280546114e0906134a8565b801561152d5780601f106115025761010080835404028352916020019161152d565b820191906000526020600020905b81548152906001019060200180831161151057829003601f168201915b5050505050905090565b6000600560009054906101000a900460ff16905090565b6000801b81565b600080611560611a1d565b90506000600160008373ffffffffffffffffffffffffffffffffffffffff1673ffffffffffffffffffffffffffffffffffffffff16815260200190815260200160002060008673ffffffffffffffffffffffffffffffffffffffff1673ffffffffffffffffffffffffffffffffffffffff16815260200190815260200160002054905083811015611626576040517f08c379a000000000000000000000000000000000000000000000000000000000815260040161161d90613674565b60405180910390fd5b6116338286868403611a25565b60019250505092915050565b60008061164a611a1d565b9050611657818585611c7a565b600191505092915050565b7f7935bd0ae54bc31f548c14dba4d37c5c64b3f8ca900cb468fb8abd54d5894f556116948161168f611a1d565b612371565b81600960016101000a81548160ff0219169083151502179055507ffd4ed1ea0fafbcf68b191f270443ae4bc23a904e615f8a369a6b1a9a4cc5247b60405160405180910390a15050565b600a5481565b7f7935bd0ae54bc31f548c14dba4d37c5c64b3f8ca900cb468fb8abd54d5894f5561171681611711611a1d565b612371565b81601260006101000a81548160ff0219169083151502179055507ffcd12ad8181c055ce7c8866198d05beb7127a14121d7657a993594656f8d3f9860405160405180910390a15050565b600d5481565b7f7935bd0ae54bc31f548c14dba4d37c5c64b3f8ca900cb468fb8abd54d5894f5561179881611793611a1d565b612371565b6117a0610f53565b82036117d8576040517fc23f6ccb00000000000000000000000000000000000000000000000000000000815260040160405180910390fd5b6117e1826128ef565b817f7f54b0f873d8150d0613da0f8db3a0935c36fb63d4d2d75fa8cd08b4b1f33be160405160405180910390a25050565b7f7935bd0ae54bc31f548c14dba4d37c5c64b3f8ca900cb468fb8abd54d5894f5581565b61183f82610cea565b6118508161184b611a1d565b612371565b61185a8383612571565b505050565b6000600160008473ffffffffffffffffffffffffffffffffffffffff1673ffffffffffffffffffffffffffffffffffffffff16815260200190815260200160002060008373ffffffffffffffffffffffffffffffffffffffff1673ffffffffffffffffffffffffffffffffffffffff16815260200190815260200160002054905092915050565b7f7935bd0ae54bc31f548c14dba4d37c5c64b3f8ca900cb468fb8abd54d5894f5561191881611913611a1d565b612371565b81600b60006101000a81548160ff0219169083151502179055507f173863318a1574c66582b9162d0809c55106d0dc64ef42d193662e4d561ae46c60405160405180910390a15050565b60136020528060005260406000206000915090505481565b600960019054906101000a900460ff1681565b600f6020528060005260406000206000915054906101000a900460ff1681565b600c5481565b60007f01ffc9a7000000000000000000000000000000000000000000000000000000007bffffffffffffffffffffffffffffffffffffffffffffffffffffffff1916827bffffffffffffffffffffffffffffffffffffffffffffffffffffffff1916149050919050565b600033905090565b600073ffffffffffffffffffffffffffffffffffffffff168373ffffffffffffffffffffffffffffffffffffffff1603611a94576040517f08c379a0000000000000000000000000000000000000000000000000000000008152600401611a8b90613706565b60405180910390fd5b600073ffffffffffffffffffffffffffffffffffffffff168273ffffffffffffffffffffffffffffffffffffffff1603611b03576040517f08c379a0000000000000000000000000000000000000000000000000000000008152600401611afa90613798565b60405180910390fd5b80600160008573ffffffffffffffffffffffffffffffffffffffff1673ffffffffffffffffffffffffffffffffffffffff16815260200190815260200160002060008473ffffffffffffffffffffffffffffffffffffffff1673ffffffffffffffffffffffffffffffffffffffff168152602001908152602001600020819055508173ffffffffffffffffffffffffffffffffffffffff168373ffffffffffffffffffffffffffffffffffffffff167f8c5be1e5ebec7d5bd14f71427d1e84f3dd0314c0f7b2291e5b200ac8c7c3b92583604051611be191906131aa565b60405180910390a3505050565b6000611bfa848461185f565b90507fffffffffffffffffffffffffffffffffffffffffffffffffffffffffffffffff8114611c745781811015611c66576040517f08c379a0000000000000000000000000000000000000000000000000000000008152600401611c5d90613804565b60405180910390fd5b611c738484848403611a25565b5b50505050565b82600f60008273ffffffffffffffffffffffffffffffffffffffff1673ffffffffffffffffffffffffffffffffffffffff16815260200190815260200160002060009054906101000a900460ff1615611cff576040517f09550c7700000000000000000000000000000000000000000000000000000000815260040160405180910390fd5b82600f60008273ffffffffffffffffffffffffffffffffffffffff1673ffffffffffffffffffffffffffffffffffffffff16815260200190815260200160002060009054906101000a900460ff1615611d84576040517f09550c7700000000000000000000000000000000000000000000000000000000815260040160405180910390fd5b82611d8e8661114c565b1015611dc6576040517f5dd3b4d100000000000000000000000000000000000000000000000000000000815260040160405180910390fd5b600960009054906101000a900460ff16156122e057611e057fbacb663e11b33b3c60095a1a43993e26dc295019d5cfae50a57996f97e90c82086611434565b80611e365750611e357fbacb663e11b33b3c60095a1a43993e26dc295019d5cfae50a57996f97e90c82085611434565b5b15611e4b57611e468585856129fd565b61236a565b611e53611537565b61213b57600b60009054906101000a900460ff1615611ec857612710600c54611e7a610cb1565b611e849190613824565b611e8e9190613895565b831115611ec7576040517f823ee58400000000000000000000000000000000000000000000000000000000815260040160405180910390fd5b5b601260009054906101000a900460ff168015611ef05750601060009054906101000a900460ff165b156120555742601360008773ffffffffffffffffffffffffffffffffffffffff1673ffffffffffffffffffffffffffffffffffffffff1681526020019081526020016000205410611f76576040517f08c379a0000000000000000000000000000000000000000000000000000000008152600401611f6d90613912565b60405180910390fd5b610e1042611f84919061359a565b601360008773ffffffffffffffffffffffffffffffffffffffff1673ffffffffffffffffffffffffffffffffffffffff168152602001908152602001600020819055508473ffffffffffffffffffffffffffffffffffffffff167ff3bd5c18443c8d915b41249a50236ec9dd3b9f10cb53ba90408d4fb2266410f6601360008873ffffffffffffffffffffffffffffffffffffffff1673ffffffffffffffffffffffffffffffffffffffff1681526020019081526020016000205460405161204c91906131aa565b60405180910390a25b600960019054906101000a900460ff161561212b57600e60008573ffffffffffffffffffffffffffffffffffffffff1673ffffffffffffffffffffffffffffffffffffffff16815260200190815260200160002060009054906101000a900460ff1661212a57612710600a546120c9610cb1565b6120d39190613824565b6120dd9190613895565b836120e78661114c565b6120f1919061359a565b1115612129576040517f8f635c4c00000000000000000000000000000000000000000000000000000000815260040160405180910390fd5b5b5b6121368585856129fd565b61236a565b60006121456111e7565b90506000612710612154610f53565b8661215f9190613824565b6121699190613895565b90506000818661217991906135ce565b9050600b60009054906101000a900460ff16156121ec57612710600c5461219e610cb1565b6121a89190613824565b6121b29190613895565b8111156121eb576040517f823ee58400000000000000000000000000000000000000000000000000000000815260040160405180910390fd5b5b600960019054906101000a900460ff16156122c257600e60008873ffffffffffffffffffffffffffffffffffffffff1673ffffffffffffffffffffffffffffffffffffffff16815260200190815260200160002060009054906101000a900460ff166122c157612710600a54612260610cb1565b61226a9190613824565b6122749190613895565b8161227e8961114c565b612288919061359a565b11156122c0576040517f8f635c4c00000000000000000000000000000000000000000000000000000000815260040160405180910390fd5b5b5b6122cd8884846129fd565b6122d88888836129fd565b50505061236a565b600960009054906101000a900460ff1615801561232357506123227f7935bd0ae54bc31f548c14dba4d37c5c64b3f8ca900cb468fb8abd54d5894f5586611434565b5b15612338576123338585856129fd565b61236a565b6040517f8cd22d1900000000000000000000000000000000000000000000000000000000815260040160405180910390fd5b5050505050565b61237b8282611434565b61240a576123a08173ffffffffffffffffffffffffffffffffffffffff166014612c7c565b6123ae8360001c6020612c7c565b6040516020016123bf929190613a06565b6040516020818303038152906040526040517f08c379a000000000000000000000000000000000000000000000000000000000815260040161240191906130a5565b60405180910390fd5b5050565b6124188282611434565b6124eb5760016008600084815260200190815260200160002060000160008373ffffffffffffffffffffffffffffffffffffffff1673ffffffffffffffffffffffffffffffffffffffff16815260200190815260200160002060006101000a81548160ff021916908315150217905550612490611a1d565b73ffffffffffffffffffffffffffffffffffffffff168173ffffffffffffffffffffffffffffffffffffffff16837f2f8788117e7eff1d82e926ec794901d17c78024a50270940304540a733656f0d60405160405180910390a45b5050565b80600760006101000a81548173ffffffffffffffffffffffffffffffffffffffff021916908373ffffffffffffffffffffffffffffffffffffffff1602179055507f09eee28d8d70bfad809ce8acadd46ce657b1fa64646b1e4b414e6bbb2eb2c8fa612559611a1d565b604051612566919061341e565b60405180910390a150565b61257b8282611434565b1561264f5760006008600084815260200190815260200160002060000160008373ffffffffffffffffffffffffffffffffffffffff1673ffffffffffffffffffffffffffffffffffffffff16815260200190815260200160002060006101000a81548160ff0219169083151502179055506125f4611a1d565b73ffffffffffffffffffffffffffffffffffffffff168173ffffffffffffffffffffffffffffffffffffffff16837ff6391f5c32d9c69d2a47ea670b442974b53935d1edc7fd64eb21e047a839171b60405160405180910390a45b5050565b61265b612eb8565b6000600560006101000a81548160ff0219169083151502179055507f8b99205429b09a5a41d0d69839e5129b5f813b29a8e9924b45131170948d88a861269f611a1d565b6040516126ac919061341e565b60405180910390a1565b6126be612f01565b6001600560006101000a81548160ff0219169083151502179055507fcca130fdd52ce6e5eedb160c5f635a53883abcfe2b46453038a1516d7d5380b9612702611a1d565b60405161270f919061341e565b60405180910390a1565b600073ffffffffffffffffffffffffffffffffffffffff168273ffffffffffffffffffffffffffffffffffffffff1603612788576040517f08c379a000000000000000000000000000000000000000000000000000000000815260040161277f90613ab2565b60405180910390fd5b61279482600083612f4b565b60008060008473ffffffffffffffffffffffffffffffffffffffff1673ffffffffffffffffffffffffffffffffffffffff1681526020019081526020016000205490508181101561281a576040517f08c379a000000000000000000000000000000000000000000000000000000000815260040161281190613b44565b60405180910390fd5b8181036000808573ffffffffffffffffffffffffffffffffffffffff1673ffffffffffffffffffffffffffffffffffffffff16815260200190815260200160002081905550816002600082825461287191906135ce565b92505081905550600073ffffffffffffffffffffffffffffffffffffffff168373ffffffffffffffffffffffffffffffffffffffff167fddf252ad1be2c89b69c2b068fc378daa952ba7f163c4a11628f55a4df523b3ef846040516128d691906131aa565b60405180910390a36128ea83600084612f50565b505050565b7f0000000000000000000000000000000000000000000000000000000000000000811115612952576040517f08c379a000000000000000000000000000000000000000000000000000000000815260040161294990613bb0565b60405180910390fd5b7f00000000000000000000000000000000000000000000000000000000000000008110156129b5576040517f08c379a00000000000000000000000000000000000000000000000000000000081526004016129ac90613c1c565b60405180910390fd5b806006819055507fc8eab30ec12770242ba7c205b239d632db8d3f54b3392aa8692893c8fd07abc36129e5611a1d565b6040516129f2919061341e565b60405180910390a150565b600073ffffffffffffffffffffffffffffffffffffffff168373ffffffffffffffffffffffffffffffffffffffff1603612a6c576040517f08c379a0000000000000000000000000000000000000000000000000000000008152600401612a6390613cae565b60405180910390fd5b600073ffffffffffffffffffffffffffffffffffffffff168273ffffffffffffffffffffffffffffffffffffffff1603612adb576040517f08c379a0000000000000000000000000000000000000000000000000000000008152600401612ad290613d40565b60405180910390fd5b612ae6838383612f4b565b60008060008573ffffffffffffffffffffffffffffffffffffffff1673ffffffffffffffffffffffffffffffffffffffff16815260200190815260200160002054905081811015612b6c576040517f08c379a0000000000000000000000000000000000000000000000000000000008152600401612b6390613dd2565b60405180910390fd5b8181036000808673ffffffffffffffffffffffffffffffffffffffff1673ffffffffffffffffffffffffffffffffffffffff16815260200190815260200160002081905550816000808573ffffffffffffffffffffffffffffffffffffffff1673ffffffffffffffffffffffffffffffffffffffff1681526020019081526020016000206000828254612bff919061359a565b925050819055508273ffffffffffffffffffffffffffffffffffffffff168473ffffffffffffffffffffffffffffffffffffffff167fddf252ad1be2c89b69c2b068fc378daa952ba7f163c4a11628f55a4df523b3ef84604051612c6391906131aa565b60405180910390a3612c76848484612f50565b50505050565b606060006002836002612c8f9190613824565b612c99919061359a565b67ffffffffffffffff811115612cb257612cb1613df2565b5b6040519080825280601f01601f191660200182016040528015612ce45781602001600182028036833780820191505090505b5090507f300000000000000000000000000000000000000000000000000000000000000081600081518110612d1c57612d1b613e21565b5b60200101907effffffffffffffffffffffffffffffffffffffffffffffffffffffffffffff1916908160001a9053507f780000000000000000000000000000000000000000000000000000000000000081600181518110612d8057612d7f613e21565b5b60200101907effffffffffffffffffffffffffffffffffffffffffffffffffffffffffffff1916908160001a90535060006001846002612dc09190613824565b612dca919061359a565b90505b6001811115612e6a577f3031323334353637383961626364656600000000000000000000000000000000600f861660108110612e0c57612e0b613e21565b5b1a60f81b828281518110612e2357612e22613e21565b5b60200101907effffffffffffffffffffffffffffffffffffffffffffffffffffffffffffff1916908160001a905350600485901c945080612e6390613e50565b9050612dcd565b5060008414612eae576040517f08c379a0000000000000000000000000000000000000000000000000000000008152600401612ea590613ec5565b60405180910390fd5b8091505092915050565b612ec0611537565b612eff576040517f08c379a0000000000000000000000000000000000000000000000000000000008152600401612ef690613f31565b60405180910390fd5b565b612f09611537565b15612f49576040517f08c379a0000000000000000000000000000000000000000000000000000000008152600401612f4090613f9d565b60405180910390fd5b565b505050565b505050565b600080fd5b60007fffffffff0000000000000000000000000000000000000000000000000000000082169050919050565b612f8f81612f5a565b8114612f9a57600080fd5b50565b600081359050612fac81612f86565b92915050565b600060208284031215612fc857612fc7612f55565b5b6000612fd684828501612f9d565b91505092915050565b60008115159050919050565b612ff481612fdf565b82525050565b600060208201905061300f6000830184612feb565b92915050565b600081519050919050565b600082825260208201905092915050565b60005b8381101561304f578082015181840152602081019050613034565b60008484015250505050565b6000601f19601f8301169050919050565b600061307782613015565b6130818185613020565b9350613091818560208601613031565b61309a8161305b565b840191505092915050565b600060208201905081810360008301526130bf818461306c565b905092915050565b600073ffffffffffffffffffffffffffffffffffffffff82169050919050565b60006130f2826130c7565b9050919050565b613102816130e7565b811461310d57600080fd5b50565b60008135905061311f816130f9565b92915050565b6000819050919050565b61313881613125565b811461314357600080fd5b50565b6000813590506131558161312f565b92915050565b6000806040838503121561317257613171612f55565b5b600061318085828601613110565b925050602061319185828601613146565b9150509250929050565b6131a481613125565b82525050565b60006020820190506131bf600083018461319b565b92915050565b6000806000606084860312156131de576131dd612f55565b5b60006131ec86828701613110565b93505060206131fd86828701613110565b925050604061320e86828701613146565b9150509250925092565b6000819050919050565b61322b81613218565b811461323657600080fd5b50565b60008135905061324881613222565b92915050565b60006020828403121561326457613263612f55565b5b600061327284828501613239565b91505092915050565b61328481613218565b82525050565b600060208201905061329f600083018461327b565b92915050565b600080604083850312156132bc576132bb612f55565b5b60006132ca85828601613239565b92505060206132db85828601613110565b9150509250929050565b600060ff82169050919050565b6132fb816132e5565b82525050565b600060208201905061331660008301846132f2565b92915050565b60006020828403121561333257613331612f55565b5b600061334084828501613110565b91505092915050565b61335281612fdf565b811461335d57600080fd5b50565b60008135905061336f81613349565b92915050565b60006020828403121561338b5761338a612f55565b5b600061339984828501613360565b91505092915050565b6000602082840312156133b8576133b7612f55565b5b60006133c684828501613146565b91505092915050565b600080604083850312156133e6576133e5612f55565b5b60006133f485828601613110565b925050602061340585828601613360565b9150509250929050565b613418816130e7565b82525050565b6000602082019050613433600083018461340f565b92915050565b600080604083850312156134505761344f612f55565b5b600061345e85828601613110565b925050602061346f85828601613110565b9150509250929050565b7f4e487b7100000000000000000000000000000000000000000000000000000000600052602260045260246000fd5b600060028204905060018216806134c057607f821691505b6020821081036134d3576134d2613479565b5b50919050565b7f416363657373436f6e74726f6c3a2063616e206f6e6c792072656e6f756e636560008201527f20726f6c657320666f722073656c660000000000000000000000000000000000602082015250565b6000613535602f83613020565b9150613540826134d9565b604082019050919050565b6000602082019050818103600083015261356481613528565b9050919050565b7f4e487b7100000000000000000000000000000000000000000000000000000000600052601160045260246000fd5b60006135a582613125565b91506135b083613125565b92508282019050808211156135c8576135c761356b565b5b92915050565b60006135d982613125565b91506135e483613125565b92508282039050818111156135fc576135fb61356b565b5b92915050565b7f45524332303a2064656372656173656420616c6c6f77616e63652062656c6f7760008201527f207a65726f000000000000000000000000000000000000000000000000000000602082015250565b600061365e602583613020565b915061366982613602565b604082019050919050565b6000602082019050818103600083015261368d81613651565b9050919050565b7f45524332303a20617070726f76652066726f6d20746865207a65726f2061646460008201527f7265737300000000000000000000000000000000000000000000000000000000602082015250565b60006136f0602483613020565b91506136fb82613694565b604082019050919050565b6000602082019050818103600083015261371f816136e3565b9050919050565b7f45524332303a20617070726f766520746f20746865207a65726f20616464726560008201527f7373000000000000000000000000000000000000000000000000000000000000602082015250565b6000613782602283613020565b915061378d82613726565b604082019050919050565b600060208201905081810360008301526137b181613775565b9050919050565b7f45524332303a20696e73756666696369656e7420616c6c6f77616e6365000000600082015250565b60006137ee601d83613020565b91506137f9826137b8565b602082019050919050565b6000602082019050818103600083015261381d816137e1565b9050919050565b600061382f82613125565b915061383a83613125565b925082820261384881613125565b9150828204841483151761385f5761385e61356b565b5b5092915050565b7f4e487b7100000000000000000000000000000000000000000000000000000000600052601260045260246000fd5b60006138a082613125565b91506138ab83613125565b9250826138bb576138ba613866565b5b828204905092915050565b7f416e74692d626f743a205761697420666f7220636f6f6c646f776e0000000000600082015250565b60006138fc601b83613020565b9150613907826138c6565b602082019050919050565b6000602082019050818103600083015261392b816138ef565b9050919050565b600081905092915050565b7f416363657373436f6e74726f6c3a206163636f756e7420000000000000000000600082015250565b6000613973601783613932565b915061397e8261393d565b601782019050919050565b600061399482613015565b61399e8185613932565b93506139ae818560208601613031565b80840191505092915050565b7f206973206d697373696e6720726f6c6520000000000000000000000000000000600082015250565b60006139f0601183613932565b91506139fb826139ba565b601182019050919050565b6000613a1182613966565b9150613a1d8285613989565b9150613a28826139e3565b9150613a348284613989565b91508190509392505050565b7f45524332303a206275726e2066726f6d20746865207a65726f2061646472657360008201527f7300000000000000000000000000000000000000000000000000000000000000602082015250565b6000613a9c602183613020565b9150613aa782613a40565b604082019050919050565b60006020820190508181036000830152613acb81613a8f565b9050919050565b7f45524332303a206275726e20616d6f756e7420657863656564732062616c616e60008201527f6365000000000000000000000000000000000000000000000000000000000000602082015250565b6000613b2e602283613020565b9150613b3982613ad2565b604082019050919050565b60006020820190508181036000830152613b5d81613b21565b9050919050565b7f54617861626c653a2074617820697320746f6f20686967680000000000000000600082015250565b6000613b9a601883613020565b9150613ba582613b64565b602082019050919050565b60006020820190508181036000830152613bc981613b8d565b9050919050565b7f54617861626c653a2074617820697320746f6f206c6f77000000000000000000600082015250565b6000613c06601783613020565b9150613c1182613bd0565b602082019050919050565b60006020820190508181036000830152613c3581613bf9565b9050919050565b7f45524332303a207472616e736665722066726f6d20746865207a65726f20616460008201527f6472657373000000000000000000000000000000000000000000000000000000602082015250565b6000613c98602583613020565b9150613ca382613c3c565b604082019050919050565b60006020820190508181036000830152613cc781613c8b565b9050919050565b7f45524332303a207472616e7366657220746f20746865207a65726f206164647260008201527f6573730000000000000000000000000000000000000000000000000000000000602082015250565b6000613d2a602383613020565b9150613d3582613cce565b604082019050919050565b60006020820190508181036000830152613d5981613d1d565b9050919050565b7f45524332303a207472616e7366657220616d6f756e742065786365656473206260008201527f616c616e63650000000000000000000000000000000000000000000000000000602082015250565b6000613dbc602683613020565b9150613dc782613d60565b604082019050919050565b60006020820190508181036000830152613deb81613daf565b9050919050565b7f4e487b7100000000000000000000000000000000000000000000000000000000600052604160045260246000fd5b7f4e487b7100000000000000000000000000000000000000000000000000000000600052603260045260246000fd5b6000613e5b82613125565b915060008203613e6e57613e6d61356b565b5b600182039050919050565b7f537472696e67733a20686578206c656e67746820696e73756666696369656e74600082015250565b6000613eaf602083613020565b9150613eba82613e79565b602082019050919050565b60006020820190508181036000830152613ede81613ea2565b9050919050565b7f54617861626c653a206e6f742074617865640000000000000000000000000000600082015250565b6000613f1b601283613020565b9150613f2682613ee5565b602082019050919050565b60006020820190508181036000830152613f4a81613f0e565b9050919050565b7f54617861626c653a207461786564000000000000000000000000000000000000600082015250565b6000613f87600e83613020565b9150613f9282613f51565b602082019050919050565b60006020820190508181036000830152613fb681613f7a565b905091905056fea26469706673582212205881fc61356a213e5d54408d080b220f1dcfb0639b3b59b35c045911b950543664736f6c63430008130033",
			"opcodes": "PUSH1 0xC0 PUSH1 0x40 MSTORE PUSH1 0x0 PUSH1 0x5 PUSH1 0x0 PUSH2 0x100 EXP DUP2 SLOAD DUP2 PUSH1 0xFF MUL NOT AND SWAP1 DUP4 ISZERO ISZERO MUL OR SWAP1 SSTORE POP PUSH2 0x1F4 PUSH1 0x6 SSTORE PUSH2 0x3E8 PUSH1 0x80 SWAP1 DUP2 MSTORE POP PUSH1 0x19 PUSH1 0xA0 SWAP1 DUP2 MSTORE POP PUSH1 0x0 PUSH1 0x7 PUSH1 0x0 PUSH2 0x100 EXP DUP2 SLOAD DUP2 PUSH20 0xFFFFFFFFFFFFFFFFFFFFFFFFFFFFFFFFFFFFFFFF MUL NOT AND SWAP1 DUP4 PUSH20 0xFFFFFFFFFFFFFFFFFFFFFFFFFFFFFFFFFFFFFFFF AND MUL OR SWAP1 SSTORE POP PUSH1 0x0 PUSH1 0x9 PUSH1 0x0 PUSH2 0x100 EXP DUP2 SLOAD DUP2 PUSH1 0xFF MUL NOT AND SWAP1 DUP4 ISZERO ISZERO MUL OR SWAP1 SSTORE POP PUSH1 0x1 PUSH1 0x9 PUSH1 0x1 PUSH2 0x100 EXP DUP2 SLOAD DUP2 PUSH1 0xFF MUL NOT AND SWAP1 DUP4 ISZERO ISZERO MUL OR SWAP1 SSTORE POP PUSH1 0x64 PUSH1 0xA SSTORE PUSH1 0x1 PUSH1 0xB PUSH1 0x0 PUSH2 0x100 EXP DUP2 SLOAD DUP2 PUSH1 0xFF MUL NOT AND SWAP1 DUP4 ISZERO ISZERO MUL OR SWAP1 SSTORE POP PUSH1 0x32 PUSH1 0xC SSTORE TIMESTAMP PUSH1 0xD SSTORE PUSH1 0x0 PUSH1 0x10 PUSH1 0x0 PUSH2 0x100 EXP DUP2 SLOAD DUP2 PUSH1 0xFF MUL NOT AND SWAP1 DUP4 ISZERO ISZERO MUL OR SWAP1 SSTORE POP PUSH1 0x1 PUSH1 0x12 PUSH1 0x0 PUSH2 0x100 EXP DUP2 SLOAD DUP2 PUSH1 0xFF MUL NOT AND SWAP1 DUP4 ISZERO ISZERO MUL OR SWAP1 SSTORE POP CALLVALUE DUP1 ISZERO PUSH3 0x11A JUMPI PUSH1 0x0 DUP1 REVERT JUMPDEST POP PUSH1 0x40 MLOAD PUSH3 0x4A48 CODESIZE SUB DUP1 PUSH3 0x4A48 DUP4 CODECOPY DUP2 DUP2 ADD PUSH1 0x40 MSTORE DUP2 ADD SWAP1 PUSH3 0x140 SWAP2 SWAP1 PUSH3 0x58B JUMP JUMPDEST PUSH1 0x40 MLOAD DUP1 PUSH1 0x40 ADD PUSH1 0x40 MSTORE DUP1 PUSH1 0x8 DUP2 MSTORE PUSH1 0x20 ADD PUSH32 0x54776F4C616E6473000000000000000000000000000000000000000000000000 DUP2 MSTORE POP PUSH1 0x40 MLOAD DUP1 PUSH1 0x40 ADD PUSH1 0x40 MSTORE DUP1 PUSH1 0x5 DUP2 MSTORE PUSH1 0x20 ADD PUSH32 0x4C414E4453000000000000000000000000000000000000000000000000000000 DUP2 MSTORE POP DUP2 PUSH1 0x3 SWAP1 DUP2 PUSH3 0x1BD SWAP2 SWAP1 PUSH3 0x82D JUMP JUMPDEST POP DUP1 PUSH1 0x4 SWAP1 DUP2 PUSH3 0x1CF SWAP2 SWAP1 PUSH3 0x82D JUMP JUMPDEST POP POP POP PUSH3 0x1E4 CALLER DUP3 PUSH3 0x264 PUSH1 0x20 SHL PUSH1 0x20 SHR JUMP JUMPDEST PUSH3 0x1F9 PUSH1 0x0 DUP1 SHL CALLER PUSH3 0x3DC PUSH1 0x20 SHL PUSH1 0x20 SHR JUMP JUMPDEST PUSH3 0x22B PUSH32 0x7935BD0AE54BC31F548C14DBA4D37C5C64B3F8CA900CB468FB8ABD54D5894F55 CALLER PUSH3 0x3DC PUSH1 0x20 SHL PUSH1 0x20 SHR JUMP JUMPDEST PUSH3 0x25D PUSH32 0xBACB663E11B33B3C60095A1A43993E26DC295019D5CFAE50A57996F97E90C820 CALLER PUSH3 0x3DC PUSH1 0x20 SHL PUSH1 0x20 SHR JUMP JUMPDEST POP PUSH3 0xA2F JUMP JUMPDEST PUSH1 0x0 PUSH20 0xFFFFFFFFFFFFFFFFFFFFFFFFFFFFFFFFFFFFFFFF AND DUP3 PUSH20 0xFFFFFFFFFFFFFFFFFFFFFFFFFFFFFFFFFFFFFFFF AND SUB PUSH3 0x2D6 JUMPI PUSH1 0x40 MLOAD PUSH32 0x8C379A000000000000000000000000000000000000000000000000000000000 DUP2 MSTORE PUSH1 0x4 ADD PUSH3 0x2CD SWAP1 PUSH3 0x975 JUMP JUMPDEST PUSH1 0x40 MLOAD DUP1 SWAP2 SUB SWAP1 REVERT JUMPDEST PUSH3 0x2EA PUSH1 0x0 DUP4 DUP4 PUSH3 0x4CE PUSH1 0x20 SHL PUSH1 0x20 SHR JUMP JUMPDEST DUP1 PUSH1 0x2 PUSH1 0x0 DUP3 DUP3 SLOAD PUSH3 0x2FE SWAP2 SWAP1 PUSH3 0x9C6 JUMP JUMPDEST SWAP3 POP POP DUP2 SWAP1 SSTORE POP DUP1 PUSH1 0x0 DUP1 DUP5 PUSH20 0xFFFFFFFFFFFFFFFFFFFFFFFFFFFFFFFFFFFFFFFF AND PUSH20 0xFFFFFFFFFFFFFFFFFFFFFFFFFFFFFFFFFFFFFFFF AND DUP2 MSTORE PUSH1 0x20 ADD SWAP1 DUP2 MSTORE PUSH1 0x20 ADD PUSH1 0x0 KECCAK256 PUSH1 0x0 DUP3 DUP3 SLOAD PUSH3 0x355 SWAP2 SWAP1 PUSH3 0x9C6 JUMP JUMPDEST SWAP3 POP POP DUP2 SWAP1 SSTORE POP DUP2 PUSH20 0xFFFFFFFFFFFFFFFFFFFFFFFFFFFFFFFFFFFFFFFF AND PUSH1 0x0 PUSH20 0xFFFFFFFFFFFFFFFFFFFFFFFFFFFFFFFFFFFFFFFF AND PUSH32 0xDDF252AD1BE2C89B69C2B068FC378DAA952BA7F163C4A11628F55A4DF523B3EF DUP4 PUSH1 0x40 MLOAD PUSH3 0x3BC SWAP2 SWAP1 PUSH3 0xA12 JUMP JUMPDEST PUSH1 0x40 MLOAD DUP1 SWAP2 SUB SWAP1 LOG3 PUSH3 0x3D8 PUSH1 0x0 DUP4 DUP4 PUSH3 0x4D3 PUSH1 0x20 SHL PUSH1 0x20 SHR JUMP JUMPDEST POP POP JUMP JUMPDEST PUSH3 0x3EE DUP3 DUP3 PUSH3 0x4D8 PUSH1 0x20 SHL PUSH1 0x20 SHR JUMP JUMPDEST PUSH3 0x4CA JUMPI PUSH1 0x1 PUSH1 0x8 PUSH1 0x0 DUP5 DUP2 MSTORE PUSH1 0x20 ADD SWAP1 DUP2 MSTORE PUSH1 0x20 ADD PUSH1 0x0 KECCAK256 PUSH1 0x0 ADD PUSH1 0x0 DUP4 PUSH20 0xFFFFFFFFFFFFFFFFFFFFFFFFFFFFFFFFFFFFFFFF AND PUSH20 0xFFFFFFFFFFFFFFFFFFFFFFFFFFFFFFFFFFFFFFFF AND DUP2 MSTORE PUSH1 0x20 ADD SWAP1 DUP2 MSTORE PUSH1 0x20 ADD PUSH1 0x0 KECCAK256 PUSH1 0x0 PUSH2 0x100 EXP DUP2 SLOAD DUP2 PUSH1 0xFF MUL NOT AND SWAP1 DUP4 ISZERO ISZERO MUL OR SWAP1 SSTORE POP PUSH3 0x46F PUSH3 0x543 PUSH1 0x20 SHL PUSH1 0x20 SHR JUMP JUMPDEST PUSH20 0xFFFFFFFFFFFFFFFFFFFFFFFFFFFFFFFFFFFFFFFF AND DUP2 PUSH20 0xFFFFFFFFFFFFFFFFFFFFFFFFFFFFFFFFFFFFFFFF AND DUP4 PUSH32 0x2F8788117E7EFF1D82E926EC794901D17C78024A50270940304540A733656F0D PUSH1 0x40 MLOAD PUSH1 0x40 MLOAD DUP1 SWAP2 SUB SWAP1 LOG4 JUMPDEST POP POP JUMP JUMPDEST POP POP POP JUMP JUMPDEST POP POP POP JUMP JUMPDEST PUSH1 0x0 PUSH1 0x8 PUSH1 0x0 DUP5 DUP2 MSTORE PUSH1 0x20 ADD SWAP1 DUP2 MSTORE PUSH1 0x20 ADD PUSH1 0x0 KECCAK256 PUSH1 0x0 ADD PUSH1 0x0 DUP4 PUSH20 0xFFFFFFFFFFFFFFFFFFFFFFFFFFFFFFFFFFFFFFFF AND PUSH20 0xFFFFFFFFFFFFFFFFFFFFFFFFFFFFFFFFFFFFFFFF AND DUP2 MSTORE PUSH1 0x20 ADD SWAP1 DUP2 MSTORE PUSH1 0x20 ADD PUSH1 0x0 KECCAK256 PUSH1 0x0 SWAP1 SLOAD SWAP1 PUSH2 0x100 EXP SWAP1 DIV PUSH1 0xFF AND SWAP1 POP SWAP3 SWAP2 POP POP JUMP JUMPDEST PUSH1 0x0 CALLER SWAP1 POP SWAP1 JUMP JUMPDEST PUSH1 0x0 DUP1 REVERT JUMPDEST PUSH1 0x0 DUP2 SWAP1 POP SWAP2 SWAP1 POP JUMP JUMPDEST PUSH3 0x565 DUP2 PUSH3 0x550 JUMP JUMPDEST DUP2 EQ PUSH3 0x571 JUMPI PUSH1 0x0 DUP1 REVERT JUMPDEST POP JUMP JUMPDEST PUSH1 0x0 DUP2 MLOAD SWAP1 POP PUSH3 0x585 DUP2 PUSH3 0x55A JUMP JUMPDEST SWAP3 SWAP2 POP POP JUMP JUMPDEST PUSH1 0x0 PUSH1 0x20 DUP3 DUP5 SUB SLT ISZERO PUSH3 0x5A4 JUMPI PUSH3 0x5A3 PUSH3 0x54B JUMP JUMPDEST JUMPDEST PUSH1 0x0 PUSH3 0x5B4 DUP5 DUP3 DUP6 ADD PUSH3 0x574 JUMP JUMPDEST SWAP2 POP POP SWAP3 SWAP2 POP POP JUMP JUMPDEST PUSH1 0x0 DUP2 MLOAD SWAP1 POP SWAP2 SWAP1 POP JUMP JUMPDEST PUSH32 0x4E487B7100000000000000000000000000000000000000000000000000000000 PUSH1 0x0 MSTORE PUSH1 0x41 PUSH1 0x4 MSTORE PUSH1 0x24 PUSH1 0x0 REVERT JUMPDEST PUSH32 0x4E487B7100000000000000000000000000000000000000000000000000000000 PUSH1 0x0 MSTORE PUSH1 0x22 PUSH1 0x4 MSTORE PUSH1 0x24 PUSH1 0x0 REVERT JUMPDEST PUSH1 0x0 PUSH1 0x2 DUP3 DIV SWAP1 POP PUSH1 0x1 DUP3 AND DUP1 PUSH3 0x63F JUMPI PUSH1 0x7F DUP3 AND SWAP2 POP JUMPDEST PUSH1 0x20 DUP3 LT DUP2 SUB PUSH3 0x655 JUMPI PUSH3 0x654 PUSH3 0x5F7 JUMP JUMPDEST JUMPDEST POP SWAP2 SWAP1 POP JUMP JUMPDEST PUSH1 0x0 DUP2 SWAP1 POP DUP2 PUSH1 0x0 MSTORE PUSH1 0x20 PUSH1 0x0 KECCAK256 SWAP1 POP SWAP2 SWAP1 POP JUMP JUMPDEST PUSH1 0x0 PUSH1 0x20 PUSH1 0x1F DUP4 ADD DIV SWAP1 POP SWAP2 SWAP1 POP JUMP JUMPDEST PUSH1 0x0 DUP3 DUP3 SHL SWAP1 POP SWAP3 SWAP2 POP POP JUMP JUMPDEST PUSH1 0x0 PUSH1 0x8 DUP4 MUL PUSH3 0x6BF PUSH32 0xFFFFFFFFFFFFFFFFFFFFFFFFFFFFFFFFFFFFFFFFFFFFFFFFFFFFFFFFFFFFFFFF DUP3 PUSH3 0x680 JUMP JUMPDEST PUSH3 0x6CB DUP7 DUP4 PUSH3 0x680 JUMP JUMPDEST SWAP6 POP DUP1 NOT DUP5 AND SWAP4 POP DUP1 DUP7 AND DUP5 OR SWAP3 POP POP POP SWAP4 SWAP3 POP POP POP JUMP JUMPDEST PUSH1 0x0 DUP2 SWAP1 POP SWAP2 SWAP1 POP JUMP JUMPDEST PUSH1 0x0 PUSH3 0x70E PUSH3 0x708 PUSH3 0x702 DUP5 PUSH3 0x550 JUMP JUMPDEST PUSH3 0x6E3 JUMP JUMPDEST PUSH3 0x550 JUMP JUMPDEST SWAP1 POP SWAP2 SWAP1 POP JUMP JUMPDEST PUSH1 0x0 DUP2 SWAP1 POP SWAP2 SWAP1 POP JUMP JUMPDEST PUSH3 0x72A DUP4 PUSH3 0x6ED JUMP JUMPDEST PUSH3 0x742 PUSH3 0x739 DUP3 PUSH3 0x715 JUMP JUMPDEST DUP5 DUP5 SLOAD PUSH3 0x68D JUMP JUMPDEST DUP3 SSTORE POP POP POP POP JUMP JUMPDEST PUSH1 0x0 SWAP1 JUMP JUMPDEST PUSH3 0x759 PUSH3 0x74A JUMP JUMPDEST PUSH3 0x766 DUP2 DUP5 DUP5 PUSH3 0x71F JUMP JUMPDEST POP POP POP JUMP JUMPDEST JUMPDEST DUP2 DUP2 LT ISZERO PUSH3 0x78E JUMPI PUSH3 0x782 PUSH1 0x0 DUP3 PUSH3 0x74F JUMP JUMPDEST PUSH1 0x1 DUP2 ADD SWAP1 POP PUSH3 0x76C JUMP JUMPDEST POP POP JUMP JUMPDEST PUSH1 0x1F DUP3 GT ISZERO PUSH3 0x7DD JUMPI PUSH3 0x7A7 DUP2 PUSH3 0x65B JUMP JUMPDEST PUSH3 0x7B2 DUP5 PUSH3 0x670 JUMP JUMPDEST DUP2 ADD PUSH1 0x20 DUP6 LT ISZERO PUSH3 0x7C2 JUMPI DUP2 SWAP1 POP JUMPDEST PUSH3 0x7DA PUSH3 0x7D1 DUP6 PUSH3 0x670 JUMP JUMPDEST DUP4 ADD DUP3 PUSH3 0x76B JUMP JUMPDEST POP POP JUMPDEST POP POP POP JUMP JUMPDEST PUSH1 0x0 DUP3 DUP3 SHR SWAP1 POP SWAP3 SWAP2 POP POP JUMP JUMPDEST PUSH1 0x0 PUSH3 0x802 PUSH1 0x0 NOT DUP5 PUSH1 0x8 MUL PUSH3 0x7E2 JUMP JUMPDEST NOT DUP1 DUP4 AND SWAP2 POP POP SWAP3 SWAP2 POP POP JUMP JUMPDEST PUSH1 0x0 PUSH3 0x81D DUP4 DUP4 PUSH3 0x7EF JUMP JUMPDEST SWAP2 POP DUP3 PUSH1 0x2 MUL DUP3 OR SWAP1 POP SWAP3 SWAP2 POP POP JUMP JUMPDEST PUSH3 0x838 DUP3 PUSH3 0x5BD JUMP JUMPDEST PUSH8 0xFFFFFFFFFFFFFFFF DUP2 GT ISZERO PUSH3 0x854 JUMPI PUSH3 0x853 PUSH3 0x5C8 JUMP JUMPDEST JUMPDEST PUSH3 0x860 DUP3 SLOAD PUSH3 0x626 JUMP JUMPDEST PUSH3 0x86D DUP3 DUP3 DUP6 PUSH3 0x792 JUMP JUMPDEST PUSH1 0x0 PUSH1 0x20 SWAP1 POP PUSH1 0x1F DUP4 GT PUSH1 0x1 DUP2 EQ PUSH3 0x8A5 JUMPI PUSH1 0x0 DUP5 ISZERO PUSH3 0x890 JUMPI DUP3 DUP8 ADD MLOAD SWAP1 POP JUMPDEST PUSH3 0x89C DUP6 DUP3 PUSH3 0x80F JUMP JUMPDEST DUP7 SSTORE POP PUSH3 0x90C JUMP JUMPDEST PUSH1 0x1F NOT DUP5 AND PUSH3 0x8B5 DUP7 PUSH3 0x65B JUMP JUMPDEST PUSH1 0x0 JUMPDEST DUP3 DUP2 LT ISZERO PUSH3 0x8DF JUMPI DUP5 DUP10 ADD MLOAD DUP3 SSTORE PUSH1 0x1 DUP3 ADD SWAP2 POP PUSH1 0x20 DUP6 ADD SWAP5 POP PUSH1 0x20 DUP2 ADD SWAP1 POP PUSH3 0x8B8 JUMP JUMPDEST DUP7 DUP4 LT ISZERO PUSH3 0x8FF JUMPI DUP5 DUP10 ADD MLOAD PUSH3 0x8FB PUSH1 0x1F DUP10 AND DUP3 PUSH3 0x7EF JUMP JUMPDEST DUP4 SSTORE POP JUMPDEST PUSH1 0x1 PUSH1 0x2 DUP9 MUL ADD DUP9 SSTORE POP POP POP JUMPDEST POP POP POP POP POP POP JUMP JUMPDEST PUSH1 0x0 DUP3 DUP3 MSTORE PUSH1 0x20 DUP3 ADD SWAP1 POP SWAP3 SWAP2 POP POP JUMP JUMPDEST PUSH32 0x45524332303A206D696E7420746F20746865207A65726F206164647265737300 PUSH1 0x0 DUP3 ADD MSTORE POP JUMP JUMPDEST PUSH1 0x0 PUSH3 0x95D PUSH1 0x1F DUP4 PUSH3 0x914 JUMP JUMPDEST SWAP2 POP PUSH3 0x96A DUP3 PUSH3 0x925 JUMP JUMPDEST PUSH1 0x20 DUP3 ADD SWAP1 POP SWAP2 SWAP1 POP JUMP JUMPDEST PUSH1 0x0 PUSH1 0x20 DUP3 ADD SWAP1 POP DUP2 DUP2 SUB PUSH1 0x0 DUP4 ADD MSTORE PUSH3 0x990 DUP2 PUSH3 0x94E JUMP JUMPDEST SWAP1 POP SWAP2 SWAP1 POP JUMP JUMPDEST PUSH32 0x4E487B7100000000000000000000000000000000000000000000000000000000 PUSH1 0x0 MSTORE PUSH1 0x11 PUSH1 0x4 MSTORE PUSH1 0x24 PUSH1 0x0 REVERT JUMPDEST PUSH1 0x0 PUSH3 0x9D3 DUP3 PUSH3 0x550 JUMP JUMPDEST SWAP2 POP PUSH3 0x9E0 DUP4 PUSH3 0x550 JUMP JUMPDEST SWAP3 POP DUP3 DUP3 ADD SWAP1 POP DUP1 DUP3 GT ISZERO PUSH3 0x9FB JUMPI PUSH3 0x9FA PUSH3 0x997 JUMP JUMPDEST JUMPDEST SWAP3 SWAP2 POP POP JUMP JUMPDEST PUSH3 0xA0C DUP2 PUSH3 0x550 JUMP JUMPDEST DUP3 MSTORE POP POP JUMP JUMPDEST PUSH1 0x0 PUSH1 0x20 DUP3 ADD SWAP1 POP PUSH3 0xA29 PUSH1 0x0 DUP4 ADD DUP5 PUSH3 0xA01 JUMP JUMPDEST SWAP3 SWAP2 POP POP JUMP JUMPDEST PUSH1 0x80 MLOAD PUSH1 0xA0 MLOAD PUSH2 0x3FF3 PUSH3 0xA55 PUSH1 0x0 CODECOPY PUSH1 0x0 PUSH2 0x2954 ADD MSTORE PUSH1 0x0 PUSH2 0x28F1 ADD MSTORE PUSH2 0x3FF3 PUSH1 0x0 RETURN INVALID PUSH1 0x80 PUSH1 0x40 MSTORE PUSH1 0x4 CALLDATASIZE LT PUSH2 0x28C JUMPI PUSH1 0x0 CALLDATALOAD PUSH1 0xE0 SHR DUP1 PUSH4 0x79CC6790 GT PUSH2 0x15A JUMPI DUP1 PUSH4 0xB4DCB2E3 GT PUSH2 0xC1 JUMPI DUP1 PUSH4 0xDD62ED3E GT PUSH2 0x7A JUMPI DUP1 PUSH4 0xDD62ED3E EQ PUSH2 0xA4C JUMPI DUP1 PUSH4 0xDDA3D27A EQ PUSH2 0xA89 JUMPI DUP1 PUSH4 0xE26FFE08 EQ PUSH2 0xAB2 JUMPI DUP1 PUSH4 0xE7FCCEE0 EQ PUSH2 0xAEF JUMPI DUP1 PUSH4 0xF9F92BE4 EQ PUSH2 0xB1A JUMPI DUP1 PUSH4 0xFF3CF3F0 EQ PUSH2 0xB57 JUMPI PUSH2 0x2C3 JUMP JUMPDEST DUP1 PUSH4 0xB4DCB2E3 EQ PUSH2 0x950 JUMPI DUP1 PUSH4 0xBDF4F831 EQ PUSH2 0x97B JUMPI DUP1 PUSH4 0xBFC12C05 EQ PUSH2 0x9A4 JUMPI DUP1 PUSH4 0xCCA0FEB6 EQ PUSH2 0x9CF JUMPI DUP1 PUSH4 0xCCC57490 EQ PUSH2 0x9F8 JUMPI DUP1 PUSH4 0xD547741F EQ PUSH2 0xA23 JUMPI PUSH2 0x2C3 JUMP JUMPDEST DUP1 PUSH4 0x95D89B41 GT PUSH2 0x113 JUMPI DUP1 PUSH4 0x95D89B41 EQ PUSH2 0x82C JUMPI DUP1 PUSH4 0x9E01392F EQ PUSH2 0x857 JUMPI DUP1 PUSH4 0xA217FDDF EQ PUSH2 0x882 JUMPI DUP1 PUSH4 0xA457C2D7 EQ PUSH2 0x8AD JUMPI DUP1 PUSH4 0xA9059CBB EQ PUSH2 0x8EA JUMPI DUP1 PUSH4 0xB45639D0 EQ PUSH2 0x927 JUMPI PUSH2 0x2C3 JUMP JUMPDEST DUP1 PUSH4 0x79CC6790 EQ PUSH2 0x730 JUMPI DUP1 PUSH4 0x8A2B66D1 EQ PUSH2 0x759 JUMPI DUP1 PUSH4 0x8A8C523C EQ PUSH2 0x784 JUMPI DUP1 PUSH4 0x9155E083 EQ PUSH2 0x79B JUMPI DUP1 PUSH4 0x91D14854 EQ PUSH2 0x7C4 JUMPI DUP1 PUSH4 0x9534B129 EQ PUSH2 0x801 JUMPI PUSH2 0x2C3 JUMP JUMPDEST DUP1 PUSH4 0x39509351 GT PUSH2 0x1FE JUMPI DUP1 PUSH4 0x5A99A7E9 GT PUSH2 0x1B7 JUMPI DUP1 PUSH4 0x5A99A7E9 EQ PUSH2 0x60C JUMPI DUP1 PUSH4 0x5AC05626 EQ PUSH2 0x637 JUMPI DUP1 PUSH4 0x61812744 EQ PUSH2 0x660 JUMPI DUP1 PUSH4 0x70A08231 EQ PUSH2 0x68B JUMPI DUP1 PUSH4 0x72AD20B9 EQ PUSH2 0x6C8 JUMPI DUP1 PUSH4 0x748EB3A5 EQ PUSH2 0x705 JUMPI PUSH2 0x2C3 JUMP JUMPDEST DUP1 PUSH4 0x39509351 EQ PUSH2 0x510 JUMPI DUP1 PUSH4 0x3B9B0314 EQ PUSH2 0x54D JUMPI DUP1 PUSH4 0x3CFD5211 EQ PUSH2 0x578 JUMPI DUP1 PUSH4 0x42966C68 EQ PUSH2 0x5A1 JUMPI DUP1 PUSH4 0x4ADA218B EQ PUSH2 0x5CA JUMPI DUP1 PUSH4 0x5360F3CC EQ PUSH2 0x5F5 JUMPI PUSH2 0x2C3 JUMP JUMPDEST DUP1 PUSH4 0x248A9CA3 GT PUSH2 0x250 JUMPI DUP1 PUSH4 0x248A9CA3 EQ PUSH2 0x402 JUMPI DUP1 PUSH4 0x262C7EA5 EQ PUSH2 0x43F JUMPI DUP1 PUSH4 0x2F2FF15D EQ PUSH2 0x46A JUMPI DUP1 PUSH4 0x313CE567 EQ PUSH2 0x493 JUMPI DUP1 PUSH4 0x32C94021 EQ PUSH2 0x4BE JUMPI DUP1 PUSH4 0x36568ABE EQ PUSH2 0x4E7 JUMPI PUSH2 0x2C3 JUMP JUMPDEST DUP1 PUSH4 0x1FFC9A7 EQ PUSH2 0x2F5 JUMPI DUP1 PUSH4 0x6FDDE03 EQ PUSH2 0x332 JUMPI DUP1 PUSH4 0x95EA7B3 EQ PUSH2 0x35D JUMPI DUP1 PUSH4 0x18160DDD EQ PUSH2 0x39A JUMPI DUP1 PUSH4 0x23B872DD EQ PUSH2 0x3C5 JUMPI PUSH2 0x2C3 JUMP JUMPDEST CALLDATASIZE PUSH2 0x2C3 JUMPI PUSH1 0x40 MLOAD PUSH32 0xA4675ADF00000000000000000000000000000000000000000000000000000000 DUP2 MSTORE PUSH1 0x4 ADD PUSH1 0x40 MLOAD DUP1 SWAP2 SUB SWAP1 REVERT JUMPDEST PUSH1 0x40 MLOAD PUSH32 0xA4675ADF00000000000000000000000000000000000000000000000000000000 DUP2 MSTORE PUSH1 0x4 ADD PUSH1 0x40 MLOAD DUP1 SWAP2 SUB SWAP1 REVERT JUMPDEST CALLVALUE DUP1 ISZERO PUSH2 0x301 JUMPI PUSH1 0x0 DUP1 REVERT JUMPDEST POP PUSH2 0x31C PUSH1 0x4 DUP1 CALLDATASIZE SUB DUP2 ADD SWAP1 PUSH2 0x317 SWAP2 SWAP1 PUSH2 0x2FB2 JUMP JUMPDEST PUSH2 0xB82 JUMP JUMPDEST PUSH1 0x40 MLOAD PUSH2 0x329 SWAP2 SWAP1 PUSH2 0x2FFA JUMP JUMPDEST PUSH1 0x40 MLOAD DUP1 SWAP2 SUB SWAP1 RETURN JUMPDEST CALLVALUE DUP1 ISZERO PUSH2 0x33E JUMPI PUSH1 0x0 DUP1 REVERT JUMPDEST POP PUSH2 0x347 PUSH2 0xBFC JUMP JUMPDEST PUSH1 0x40 MLOAD PUSH2 0x354 SWAP2 SWAP1 PUSH2 0x30A5 JUMP JUMPDEST PUSH1 0x40 MLOAD DUP1 SWAP2 SUB SWAP1 RETURN JUMPDEST CALLVALUE DUP1 ISZERO PUSH2 0x369 JUMPI PUSH1 0x0 DUP1 REVERT JUMPDEST POP PUSH2 0x384 PUSH1 0x4 DUP1 CALLDATASIZE SUB DUP2 ADD SWAP1 PUSH2 0x37F SWAP2 SWAP1 PUSH2 0x315B JUMP JUMPDEST PUSH2 0xC8E JUMP JUMPDEST PUSH1 0x40 MLOAD PUSH2 0x391 SWAP2 SWAP1 PUSH2 0x2FFA JUMP JUMPDEST PUSH1 0x40 MLOAD DUP1 SWAP2 SUB SWAP1 RETURN JUMPDEST CALLVALUE DUP1 ISZERO PUSH2 0x3A6 JUMPI PUSH1 0x0 DUP1 REVERT JUMPDEST POP PUSH2 0x3AF PUSH2 0xCB1 JUMP JUMPDEST PUSH1 0x40 MLOAD PUSH2 0x3BC SWAP2 SWAP1 PUSH2 0x31AA JUMP JUMPDEST PUSH1 0x40 MLOAD DUP1 SWAP2 SUB SWAP1 RETURN JUMPDEST CALLVALUE DUP1 ISZERO PUSH2 0x3D1 JUMPI PUSH1 0x0 DUP1 REVERT JUMPDEST POP PUSH2 0x3EC PUSH1 0x4 DUP1 CALLDATASIZE SUB DUP2 ADD SWAP1 PUSH2 0x3E7 SWAP2 SWAP1 PUSH2 0x31C5 JUMP JUMPDEST PUSH2 0xCBB JUMP JUMPDEST PUSH1 0x40 MLOAD PUSH2 0x3F9 SWAP2 SWAP1 PUSH2 0x2FFA JUMP JUMPDEST PUSH1 0x40 MLOAD DUP1 SWAP2 SUB SWAP1 RETURN JUMPDEST CALLVALUE DUP1 ISZERO PUSH2 0x40E JUMPI PUSH1 0x0 DUP1 REVERT JUMPDEST POP PUSH2 0x429 PUSH1 0x4 DUP1 CALLDATASIZE SUB DUP2 ADD SWAP1 PUSH2 0x424 SWAP2 SWAP1 PUSH2 0x324E JUMP JUMPDEST PUSH2 0xCEA JUMP JUMPDEST PUSH1 0x40 MLOAD PUSH2 0x436 SWAP2 SWAP1 PUSH2 0x328A JUMP JUMPDEST PUSH1 0x40 MLOAD DUP1 SWAP2 SUB SWAP1 RETURN JUMPDEST CALLVALUE DUP1 ISZERO PUSH2 0x44B JUMPI PUSH1 0x0 DUP1 REVERT JUMPDEST POP PUSH2 0x454 PUSH2 0xD0A JUMP JUMPDEST PUSH1 0x40 MLOAD PUSH2 0x461 SWAP2 SWAP1 PUSH2 0x2FFA JUMP JUMPDEST PUSH1 0x40 MLOAD DUP1 SWAP2 SUB SWAP1 RETURN JUMPDEST CALLVALUE DUP1 ISZERO PUSH2 0x476 JUMPI PUSH1 0x0 DUP1 REVERT JUMPDEST POP PUSH2 0x491 PUSH1 0x4 DUP1 CALLDATASIZE SUB DUP2 ADD SWAP1 PUSH2 0x48C SWAP2 SWAP1 PUSH2 0x32A5 JUMP JUMPDEST PUSH2 0xD1D JUMP JUMPDEST STOP JUMPDEST CALLVALUE DUP1 ISZERO PUSH2 0x49F JUMPI PUSH1 0x0 DUP1 REVERT JUMPDEST POP PUSH2 0x4A8 PUSH2 0xD46 JUMP JUMPDEST PUSH1 0x40 MLOAD PUSH2 0x4B5 SWAP2 SWAP1 PUSH2 0x3301 JUMP JUMPDEST PUSH1 0x40 MLOAD DUP1 SWAP2 SUB SWAP1 RETURN JUMPDEST CALLVALUE DUP1 ISZERO PUSH2 0x4CA JUMPI PUSH1 0x0 DUP1 REVERT JUMPDEST POP PUSH2 0x4E5 PUSH1 0x4 DUP1 CALLDATASIZE SUB DUP2 ADD SWAP1 PUSH2 0x4E0 SWAP2 SWAP1 PUSH2 0x331C JUMP JUMPDEST PUSH2 0xD4F JUMP JUMPDEST STOP JUMPDEST CALLVALUE DUP1 ISZERO PUSH2 0x4F3 JUMPI PUSH1 0x0 DUP1 REVERT JUMPDEST POP PUSH2 0x50E PUSH1 0x4 DUP1 CALLDATASIZE SUB DUP2 ADD SWAP1 PUSH2 0x509 SWAP2 SWAP1 PUSH2 0x32A5 JUMP JUMPDEST PUSH2 0xE26 JUMP JUMPDEST STOP JUMPDEST CALLVALUE DUP1 ISZERO PUSH2 0x51C JUMPI PUSH1 0x0 DUP1 REVERT JUMPDEST POP PUSH2 0x537 PUSH1 0x4 DUP1 CALLDATASIZE SUB DUP2 ADD SWAP1 PUSH2 0x532 SWAP2 SWAP1 PUSH2 0x315B JUMP JUMPDEST PUSH2 0xEA9 JUMP JUMPDEST PUSH1 0x40 MLOAD PUSH2 0x544 SWAP2 SWAP1 PUSH2 0x2FFA JUMP JUMPDEST PUSH1 0x40 MLOAD DUP1 SWAP2 SUB SWAP1 RETURN JUMPDEST CALLVALUE DUP1 ISZERO PUSH2 0x559 JUMPI PUSH1 0x0 DUP1 REVERT JUMPDEST POP PUSH2 0x562 PUSH2 0xF53 JUMP JUMPDEST PUSH1 0x40 MLOAD PUSH2 0x56F SWAP2 SWAP1 PUSH2 0x31AA JUMP JUMPDEST PUSH1 0x40 MLOAD DUP1 SWAP2 SUB SWAP1 RETURN JUMPDEST CALLVALUE DUP1 ISZERO PUSH2 0x584 JUMPI PUSH1 0x0 DUP1 REVERT JUMPDEST POP PUSH2 0x59F PUSH1 0x4 DUP1 CALLDATASIZE SUB DUP2 ADD SWAP1 PUSH2 0x59A SWAP2 SWAP1 PUSH2 0x3375 JUMP JUMPDEST PUSH2 0xF5D JUMP JUMPDEST STOP JUMPDEST CALLVALUE DUP1 ISZERO PUSH2 0x5AD JUMPI PUSH1 0x0 DUP1 REVERT JUMPDEST POP PUSH2 0x5C8 PUSH1 0x4 DUP1 CALLDATASIZE SUB DUP2 ADD SWAP1 PUSH2 0x5C3 SWAP2 SWAP1 PUSH2 0x33A2 JUMP JUMPDEST PUSH2 0xFE4 JUMP JUMPDEST STOP JUMPDEST CALLVALUE DUP1 ISZERO PUSH2 0x5D6 JUMPI PUSH1 0x0 DUP1 REVERT JUMPDEST POP PUSH2 0x5DF PUSH2 0xFF8 JUMP JUMPDEST PUSH1 0x40 MLOAD PUSH2 0x5EC SWAP2 SWAP1 PUSH2 0x2FFA JUMP JUMPDEST PUSH1 0x40 MLOAD DUP1 SWAP2 SUB SWAP1 RETURN JUMPDEST CALLVALUE DUP1 ISZERO PUSH2 0x601 JUMPI PUSH1 0x0 DUP1 REVERT JUMPDEST POP PUSH2 0x60A PUSH2 0x100B JUMP JUMPDEST STOP JUMPDEST CALLVALUE DUP1 ISZERO PUSH2 0x618 JUMPI PUSH1 0x0 DUP1 REVERT JUMPDEST POP PUSH2 0x621 PUSH2 0x1087 JUMP JUMPDEST PUSH1 0x40 MLOAD PUSH2 0x62E SWAP2 SWAP1 PUSH2 0x328A JUMP JUMPDEST PUSH1 0x40 MLOAD DUP1 SWAP2 SUB SWAP1 RETURN JUMPDEST CALLVALUE DUP1 ISZERO PUSH2 0x643 JUMPI PUSH1 0x0 DUP1 REVERT JUMPDEST POP PUSH2 0x65E PUSH1 0x4 DUP1 CALLDATASIZE SUB DUP2 ADD SWAP1 PUSH2 0x659 SWAP2 SWAP1 PUSH2 0x33CF JUMP JUMPDEST PUSH2 0x10AB JUMP JUMPDEST STOP JUMPDEST CALLVALUE DUP1 ISZERO PUSH2 0x66C JUMPI PUSH1 0x0 DUP1 REVERT JUMPDEST POP PUSH2 0x675 PUSH2 0x1139 JUMP JUMPDEST PUSH1 0x40 MLOAD PUSH2 0x682 SWAP2 SWAP1 PUSH2 0x2FFA JUMP JUMPDEST PUSH1 0x40 MLOAD DUP1 SWAP2 SUB SWAP1 RETURN JUMPDEST CALLVALUE DUP1 ISZERO PUSH2 0x697 JUMPI PUSH1 0x0 DUP1 REVERT JUMPDEST POP PUSH2 0x6B2 PUSH1 0x4 DUP1 CALLDATASIZE SUB DUP2 ADD SWAP1 PUSH2 0x6AD SWAP2 SWAP1 PUSH2 0x331C JUMP JUMPDEST PUSH2 0x114C JUMP JUMPDEST PUSH1 0x40 MLOAD PUSH2 0x6BF SWAP2 SWAP1 PUSH2 0x31AA JUMP JUMPDEST PUSH1 0x40 MLOAD DUP1 SWAP2 SUB SWAP1 RETURN JUMPDEST CALLVALUE DUP1 ISZERO PUSH2 0x6D4 JUMPI PUSH1 0x0 DUP1 REVERT JUMPDEST POP PUSH2 0x6EF PUSH1 0x4 DUP1 CALLDATASIZE SUB DUP2 ADD SWAP1 PUSH2 0x6EA SWAP2 SWAP1 PUSH2 0x331C JUMP JUMPDEST PUSH2 0x1194 JUMP JUMPDEST PUSH1 0x40 MLOAD PUSH2 0x6FC SWAP2 SWAP1 PUSH2 0x2FFA JUMP JUMPDEST PUSH1 0x40 MLOAD DUP1 SWAP2 SUB SWAP1 RETURN JUMPDEST CALLVALUE DUP1 ISZERO PUSH2 0x711 JUMPI PUSH1 0x0 DUP1 REVERT JUMPDEST POP PUSH2 0x71A PUSH2 0x11B4 JUMP JUMPDEST PUSH1 0x40 MLOAD PUSH2 0x727 SWAP2 SWAP1 PUSH2 0x2FFA JUMP JUMPDEST PUSH1 0x40 MLOAD DUP1 SWAP2 SUB SWAP1 RETURN JUMPDEST CALLVALUE DUP1 ISZERO PUSH2 0x73C JUMPI PUSH1 0x0 DUP1 REVERT JUMPDEST POP PUSH2 0x757 PUSH1 0x4 DUP1 CALLDATASIZE SUB DUP2 ADD SWAP1 PUSH2 0x752 SWAP2 SWAP1 PUSH2 0x315B JUMP JUMPDEST PUSH2 0x11C7 JUMP JUMPDEST STOP JUMPDEST CALLVALUE DUP1 ISZERO PUSH2 0x765 JUMPI PUSH1 0x0 DUP1 REVERT JUMPDEST POP PUSH2 0x76E PUSH2 0x11E7 JUMP JUMPDEST PUSH1 0x40 MLOAD PUSH2 0x77B SWAP2 SWAP1 PUSH2 0x341E JUMP JUMPDEST PUSH1 0x40 MLOAD DUP1 SWAP2 SUB SWAP1 RETURN JUMPDEST CALLVALUE DUP1 ISZERO PUSH2 0x790 JUMPI PUSH1 0x0 DUP1 REVERT JUMPDEST POP PUSH2 0x799 PUSH2 0x1211 JUMP JUMPDEST STOP JUMPDEST CALLVALUE DUP1 ISZERO PUSH2 0x7A7 JUMPI PUSH1 0x0 DUP1 REVERT JUMPDEST POP PUSH2 0x7C2 PUSH1 0x4 DUP1 CALLDATASIZE SUB DUP2 ADD SWAP1 PUSH2 0x7BD SWAP2 SWAP1 PUSH2 0x33CF JUMP JUMPDEST PUSH2 0x128D JUMP JUMPDEST STOP JUMPDEST CALLVALUE DUP1 ISZERO PUSH2 0x7D0 JUMPI PUSH1 0x0 DUP1 REVERT JUMPDEST POP PUSH2 0x7EB PUSH1 0x4 DUP1 CALLDATASIZE SUB DUP2 ADD SWAP1 PUSH2 0x7E6 SWAP2 SWAP1 PUSH2 0x32A5 JUMP JUMPDEST PUSH2 0x1434 JUMP JUMPDEST PUSH1 0x40 MLOAD PUSH2 0x7F8 SWAP2 SWAP1 PUSH2 0x2FFA JUMP JUMPDEST PUSH1 0x40 MLOAD DUP1 SWAP2 SUB SWAP1 RETURN JUMPDEST CALLVALUE DUP1 ISZERO PUSH2 0x80D JUMPI PUSH1 0x0 DUP1 REVERT JUMPDEST POP PUSH2 0x816 PUSH2 0x149F JUMP JUMPDEST PUSH1 0x40 MLOAD PUSH2 0x823 SWAP2 SWAP1 PUSH2 0x31AA JUMP JUMPDEST PUSH1 0x40 MLOAD DUP1 SWAP2 SUB SWAP1 RETURN JUMPDEST CALLVALUE DUP1 ISZERO PUSH2 0x838 JUMPI PUSH1 0x0 DUP1 REVERT JUMPDEST POP PUSH2 0x841 PUSH2 0x14A5 JUMP JUMPDEST PUSH1 0x40 MLOAD PUSH2 0x84E SWAP2 SWAP1 PUSH2 0x30A5 JUMP JUMPDEST PUSH1 0x40 MLOAD DUP1 SWAP2 SUB SWAP1 RETURN JUMPDEST CALLVALUE DUP1 ISZERO PUSH2 0x863 JUMPI PUSH1 0x0 DUP1 REVERT JUMPDEST POP PUSH2 0x86C PUSH2 0x1537 JUMP JUMPDEST PUSH1 0x40 MLOAD PUSH2 0x879 SWAP2 SWAP1 PUSH2 0x2FFA JUMP JUMPDEST PUSH1 0x40 MLOAD DUP1 SWAP2 SUB SWAP1 RETURN JUMPDEST CALLVALUE DUP1 ISZERO PUSH2 0x88E JUMPI PUSH1 0x0 DUP1 REVERT JUMPDEST POP PUSH2 0x897 PUSH2 0x154E JUMP JUMPDEST PUSH1 0x40 MLOAD PUSH2 0x8A4 SWAP2 SWAP1 PUSH2 0x328A JUMP JUMPDEST PUSH1 0x40 MLOAD DUP1 SWAP2 SUB SWAP1 RETURN JUMPDEST CALLVALUE DUP1 ISZERO PUSH2 0x8B9 JUMPI PUSH1 0x0 DUP1 REVERT JUMPDEST POP PUSH2 0x8D4 PUSH1 0x4 DUP1 CALLDATASIZE SUB DUP2 ADD SWAP1 PUSH2 0x8CF SWAP2 SWAP1 PUSH2 0x315B JUMP JUMPDEST PUSH2 0x1555 JUMP JUMPDEST PUSH1 0x40 MLOAD PUSH2 0x8E1 SWAP2 SWAP1 PUSH2 0x2FFA JUMP JUMPDEST PUSH1 0x40 MLOAD DUP1 SWAP2 SUB SWAP1 RETURN JUMPDEST CALLVALUE DUP1 ISZERO PUSH2 0x8F6 JUMPI PUSH1 0x0 DUP1 REVERT JUMPDEST POP PUSH2 0x911 PUSH1 0x4 DUP1 CALLDATASIZE SUB DUP2 ADD SWAP1 PUSH2 0x90C SWAP2 SWAP1 PUSH2 0x315B JUMP JUMPDEST PUSH2 0x163F JUMP JUMPDEST PUSH1 0x40 MLOAD PUSH2 0x91E SWAP2 SWAP1 PUSH2 0x2FFA JUMP JUMPDEST PUSH1 0x40 MLOAD DUP1 SWAP2 SUB SWAP1 RETURN JUMPDEST CALLVALUE DUP1 ISZERO PUSH2 0x933 JUMPI PUSH1 0x0 DUP1 REVERT JUMPDEST POP PUSH2 0x94E PUSH1 0x4 DUP1 CALLDATASIZE SUB DUP2 ADD SWAP1 PUSH2 0x949 SWAP2 SWAP1 PUSH2 0x3375 JUMP JUMPDEST PUSH2 0x1662 JUMP JUMPDEST STOP JUMPDEST CALLVALUE DUP1 ISZERO PUSH2 0x95C JUMPI PUSH1 0x0 DUP1 REVERT JUMPDEST POP PUSH2 0x965 PUSH2 0x16DE JUMP JUMPDEST PUSH1 0x40 MLOAD PUSH2 0x972 SWAP2 SWAP1 PUSH2 0x31AA JUMP JUMPDEST PUSH1 0x40 MLOAD DUP1 SWAP2 SUB SWAP1 RETURN JUMPDEST CALLVALUE DUP1 ISZERO PUSH2 0x987 JUMPI PUSH1 0x0 DUP1 REVERT JUMPDEST POP PUSH2 0x9A2 PUSH1 0x4 DUP1 CALLDATASIZE SUB DUP2 ADD SWAP1 PUSH2 0x99D SWAP2 SWAP1 PUSH2 0x3375 JUMP JUMPDEST PUSH2 0x16E4 JUMP JUMPDEST STOP JUMPDEST CALLVALUE DUP1 ISZERO PUSH2 0x9B0 JUMPI PUSH1 0x0 DUP1 REVERT JUMPDEST POP PUSH2 0x9B9 PUSH2 0x1760 JUMP JUMPDEST PUSH1 0x40 MLOAD PUSH2 0x9C6 SWAP2 SWAP1 PUSH2 0x31AA JUMP JUMPDEST PUSH1 0x40 MLOAD DUP1 SWAP2 SUB SWAP1 RETURN JUMPDEST CALLVALUE DUP1 ISZERO PUSH2 0x9DB JUMPI PUSH1 0x0 DUP1 REVERT JUMPDEST POP PUSH2 0x9F6 PUSH1 0x4 DUP1 CALLDATASIZE SUB DUP2 ADD SWAP1 PUSH2 0x9F1 SWAP2 SWAP1 PUSH2 0x33A2 JUMP JUMPDEST PUSH2 0x1766 JUMP JUMPDEST STOP JUMPDEST CALLVALUE DUP1 ISZERO PUSH2 0xA04 JUMPI PUSH1 0x0 DUP1 REVERT JUMPDEST POP PUSH2 0xA0D PUSH2 0x1812 JUMP JUMPDEST PUSH1 0x40 MLOAD PUSH2 0xA1A SWAP2 SWAP1 PUSH2 0x328A JUMP JUMPDEST PUSH1 0x40 MLOAD DUP1 SWAP2 SUB SWAP1 RETURN JUMPDEST CALLVALUE DUP1 ISZERO PUSH2 0xA2F JUMPI PUSH1 0x0 DUP1 REVERT JUMPDEST POP PUSH2 0xA4A PUSH1 0x4 DUP1 CALLDATASIZE SUB DUP2 ADD SWAP1 PUSH2 0xA45 SWAP2 SWAP1 PUSH2 0x32A5 JUMP JUMPDEST PUSH2 0x1836 JUMP JUMPDEST STOP JUMPDEST CALLVALUE DUP1 ISZERO PUSH2 0xA58 JUMPI PUSH1 0x0 DUP1 REVERT JUMPDEST POP PUSH2 0xA73 PUSH1 0x4 DUP1 CALLDATASIZE SUB DUP2 ADD SWAP1 PUSH2 0xA6E SWAP2 SWAP1 PUSH2 0x3439 JUMP JUMPDEST PUSH2 0x185F JUMP JUMPDEST PUSH1 0x40 MLOAD PUSH2 0xA80 SWAP2 SWAP1 PUSH2 0x31AA JUMP JUMPDEST PUSH1 0x40 MLOAD DUP1 SWAP2 SUB SWAP1 RETURN JUMPDEST CALLVALUE DUP1 ISZERO PUSH2 0xA95 JUMPI PUSH1 0x0 DUP1 REVERT JUMPDEST POP PUSH2 0xAB0 PUSH1 0x4 DUP1 CALLDATASIZE SUB DUP2 ADD SWAP1 PUSH2 0xAAB SWAP2 SWAP1 PUSH2 0x3375 JUMP JUMPDEST PUSH2 0x18E6 JUMP JUMPDEST STOP JUMPDEST CALLVALUE DUP1 ISZERO PUSH2 0xABE JUMPI PUSH1 0x0 DUP1 REVERT JUMPDEST POP PUSH2 0xAD9 PUSH1 0x4 DUP1 CALLDATASIZE SUB DUP2 ADD SWAP1 PUSH2 0xAD4 SWAP2 SWAP1 PUSH2 0x331C JUMP JUMPDEST PUSH2 0x1962 JUMP JUMPDEST PUSH1 0x40 MLOAD PUSH2 0xAE6 SWAP2 SWAP1 PUSH2 0x31AA JUMP JUMPDEST PUSH1 0x40 MLOAD DUP1 SWAP2 SUB SWAP1 RETURN JUMPDEST CALLVALUE DUP1 ISZERO PUSH2 0xAFB JUMPI PUSH1 0x0 DUP1 REVERT JUMPDEST POP PUSH2 0xB04 PUSH2 0x197A JUMP JUMPDEST PUSH1 0x40 MLOAD PUSH2 0xB11 SWAP2 SWAP1 PUSH2 0x2FFA JUMP JUMPDEST PUSH1 0x40 MLOAD DUP1 SWAP2 SUB SWAP1 RETURN JUMPDEST CALLVALUE DUP1 ISZERO PUSH2 0xB26 JUMPI PUSH1 0x0 DUP1 REVERT JUMPDEST POP PUSH2 0xB41 PUSH1 0x4 DUP1 CALLDATASIZE SUB DUP2 ADD SWAP1 PUSH2 0xB3C SWAP2 SWAP1 PUSH2 0x331C JUMP JUMPDEST PUSH2 0x198D JUMP JUMPDEST PUSH1 0x40 MLOAD PUSH2 0xB4E SWAP2 SWAP1 PUSH2 0x2FFA JUMP JUMPDEST PUSH1 0x40 MLOAD DUP1 SWAP2 SUB SWAP1 RETURN JUMPDEST CALLVALUE DUP1 ISZERO PUSH2 0xB63 JUMPI PUSH1 0x0 DUP1 REVERT JUMPDEST POP PUSH2 0xB6C PUSH2 0x19AD JUMP JUMPDEST PUSH1 0x40 MLOAD PUSH2 0xB79 SWAP2 SWAP1 PUSH2 0x31AA JUMP JUMPDEST PUSH1 0x40 MLOAD DUP1 SWAP2 SUB SWAP1 RETURN JUMPDEST PUSH1 0x0 PUSH32 0x7965DB0B00000000000000000000000000000000000000000000000000000000 PUSH28 0xFFFFFFFFFFFFFFFFFFFFFFFFFFFFFFFFFFFFFFFFFFFFFFFFFFFFFFFF NOT AND DUP3 PUSH28 0xFFFFFFFFFFFFFFFFFFFFFFFFFFFFFFFFFFFFFFFFFFFFFFFFFFFFFFFF NOT AND EQ DUP1 PUSH2 0xBF5 JUMPI POP PUSH2 0xBF4 DUP3 PUSH2 0x19B3 JUMP JUMPDEST JUMPDEST SWAP1 POP SWAP2 SWAP1 POP JUMP JUMPDEST PUSH1 0x60 PUSH1 0x3 DUP1 SLOAD PUSH2 0xC0B SWAP1 PUSH2 0x34A8 JUMP JUMPDEST DUP1 PUSH1 0x1F ADD PUSH1 0x20 DUP1 SWAP2 DIV MUL PUSH1 0x20 ADD PUSH1 0x40 MLOAD SWAP1 DUP2 ADD PUSH1 0x40 MSTORE DUP1 SWAP3 SWAP2 SWAP1 DUP2 DUP2 MSTORE PUSH1 0x20 ADD DUP3 DUP1 SLOAD PUSH2 0xC37 SWAP1 PUSH2 0x34A8 JUMP JUMPDEST DUP1 ISZERO PUSH2 0xC84 JUMPI DUP1 PUSH1 0x1F LT PUSH2 0xC59 JUMPI PUSH2 0x100 DUP1 DUP4 SLOAD DIV MUL DUP4 MSTORE SWAP2 PUSH1 0x20 ADD SWAP2 PUSH2 0xC84 JUMP JUMPDEST DUP3 ADD SWAP2 SWAP1 PUSH1 0x0 MSTORE PUSH1 0x20 PUSH1 0x0 KECCAK256 SWAP1 JUMPDEST DUP2 SLOAD DUP2 MSTORE SWAP1 PUSH1 0x1 ADD SWAP1 PUSH1 0x20 ADD DUP1 DUP4 GT PUSH2 0xC67 JUMPI DUP3 SWAP1 SUB PUSH1 0x1F AND DUP3 ADD SWAP2 JUMPDEST POP POP POP POP POP SWAP1 POP SWAP1 JUMP JUMPDEST PUSH1 0x0 DUP1 PUSH2 0xC99 PUSH2 0x1A1D JUMP JUMPDEST SWAP1 POP PUSH2 0xCA6 DUP2 DUP6 DUP6 PUSH2 0x1A25 JUMP JUMPDEST PUSH1 0x1 SWAP2 POP POP SWAP3 SWAP2 POP POP JUMP JUMPDEST PUSH1 0x0 PUSH1 0x2 SLOAD SWAP1 POP SWAP1 JUMP JUMPDEST PUSH1 0x0 DUP1 PUSH2 0xCC6 PUSH2 0x1A1D JUMP JUMPDEST SWAP1 POP PUSH2 0xCD3 DUP6 DUP3 DUP6 PUSH2 0x1BEE JUMP JUMPDEST PUSH2 0xCDE DUP6 DUP6 DUP6 PUSH2 0x1C7A JUMP JUMPDEST PUSH1 0x1 SWAP2 POP POP SWAP4 SWAP3 POP POP POP JUMP JUMPDEST PUSH1 0x0 PUSH1 0x8 PUSH1 0x0 DUP4 DUP2 MSTORE PUSH1 0x20 ADD SWAP1 DUP2 MSTORE PUSH1 0x20 ADD PUSH1 0x0 KECCAK256 PUSH1 0x1 ADD SLOAD SWAP1 POP SWAP2 SWAP1 POP JUMP JUMPDEST PUSH1 0x9 PUSH1 0x0 SWAP1 SLOAD SWAP1 PUSH2 0x100 EXP SWAP1 DIV PUSH1 0xFF AND DUP2 JUMP JUMPDEST PUSH2 0xD26 DUP3 PUSH2 0xCEA JUMP JUMPDEST PUSH2 0xD37 DUP2 PUSH2 0xD32 PUSH2 0x1A1D JUMP JUMPDEST PUSH2 0x2371 JUMP JUMPDEST PUSH2 0xD41 DUP4 DUP4 PUSH2 0x240E JUMP JUMPDEST POP POP POP JUMP JUMPDEST PUSH1 0x0 PUSH1 0x12 SWAP1 POP SWAP1 JUMP JUMPDEST PUSH32 0x7935BD0AE54BC31F548C14DBA4D37C5C64B3F8CA900CB468FB8ABD54D5894F55 PUSH2 0xD81 DUP2 PUSH2 0xD7C PUSH2 0x1A1D JUMP JUMPDEST PUSH2 0x2371 JUMP JUMPDEST PUSH2 0xD89 PUSH2 0x11E7 JUMP JUMPDEST PUSH20 0xFFFFFFFFFFFFFFFFFFFFFFFFFFFFFFFFFFFFFFFF AND DUP3 PUSH20 0xFFFFFFFFFFFFFFFFFFFFFFFFFFFFFFFFFFFFFFFF AND SUB PUSH2 0xDED JUMPI PUSH1 0x40 MLOAD PUSH32 0xC23F6CCB00000000000000000000000000000000000000000000000000000000 DUP2 MSTORE PUSH1 0x4 ADD PUSH1 0x40 MLOAD DUP1 SWAP2 SUB SWAP1 REVERT JUMPDEST PUSH2 0xDF6 DUP3 PUSH2 0x24EF JUMP JUMPDEST PUSH32 0xBE040B2FEE49A0B1C0E9C247F9262C84252D7307A7F809EFB5152044A217A36D PUSH1 0x40 MLOAD PUSH1 0x40 MLOAD DUP1 SWAP2 SUB SWAP1 LOG1 POP POP JUMP JUMPDEST PUSH2 0xE2E PUSH2 0x1A1D JUMP JUMPDEST PUSH20 0xFFFFFFFFFFFFFFFFFFFFFFFFFFFFFFFFFFFFFFFF AND DUP2 PUSH20 0xFFFFFFFFFFFFFFFFFFFFFFFFFFFFFFFFFFFFFFFF AND EQ PUSH2 0xE9B JUMPI PUSH1 0x40 MLOAD PUSH32 0x8C379A000000000000000000000000000000000000000000000000000000000 DUP2 MSTORE PUSH1 0x4 ADD PUSH2 0xE92 SWAP1 PUSH2 0x354B JUMP JUMPDEST PUSH1 0x40 MLOAD DUP1 SWAP2 SUB SWAP1 REVERT JUMPDEST PUSH2 0xEA5 DUP3 DUP3 PUSH2 0x2571 JUMP JUMPDEST POP POP JUMP JUMPDEST PUSH1 0x0 DUP1 PUSH2 0xEB4 PUSH2 0x1A1D JUMP JUMPDEST SWAP1 POP PUSH2 0xF48 DUP2 DUP6 DUP6 PUSH1 0x1 PUSH1 0x0 DUP7 PUSH20 0xFFFFFFFFFFFFFFFFFFFFFFFFFFFFFFFFFFFFFFFF AND PUSH20 0xFFFFFFFFFFFFFFFFFFFFFFFFFFFFFFFFFFFFFFFF AND DUP2 MSTORE PUSH1 0x20 ADD SWAP1 DUP2 MSTORE PUSH1 0x20 ADD PUSH1 0x0 KECCAK256 PUSH1 0x0 DUP10 PUSH20 0xFFFFFFFFFFFFFFFFFFFFFFFFFFFFFFFFFFFFFFFF AND PUSH20 0xFFFFFFFFFFFFFFFFFFFFFFFFFFFFFFFFFFFFFFFF AND DUP2 MSTORE PUSH1 0x20 ADD SWAP1 DUP2 MSTORE PUSH1 0x20 ADD PUSH1 0x0 KECCAK256 SLOAD PUSH2 0xF43 SWAP2 SWAP1 PUSH2 0x359A JUMP JUMPDEST PUSH2 0x1A25 JUMP JUMPDEST PUSH1 0x1 SWAP2 POP POP SWAP3 SWAP2 POP POP JUMP JUMPDEST PUSH1 0x0 PUSH1 0x6 SLOAD SWAP1 POP SWAP1 JUMP JUMPDEST PUSH32 0x7935BD0AE54BC31F548C14DBA4D37C5C64B3F8CA900CB468FB8ABD54D5894F55 PUSH2 0xF8F DUP2 PUSH2 0xF8A PUSH2 0x1A1D JUMP JUMPDEST PUSH2 0x2371 JUMP JUMPDEST PUSH1 0x1 ISZERO ISZERO DUP3 ISZERO ISZERO EQ PUSH2 0xFA8 JUMPI PUSH2 0xFA3 PUSH2 0x2653 JUMP JUMPDEST PUSH2 0xFB1 JUMP JUMPDEST PUSH2 0xFB0 PUSH2 0x26B6 JUMP JUMPDEST JUMPDEST DUP2 ISZERO ISZERO PUSH32 0xFACADD79F59AD01D38B1EC5E5DDF62A7C0B040F5039C29C2E7B04AA474BA02B5 PUSH1 0x40 MLOAD PUSH1 0x40 MLOAD DUP1 SWAP2 SUB SWAP1 LOG2 POP POP JUMP JUMPDEST PUSH2 0xFF5 PUSH2 0xFEF PUSH2 0x1A1D JUMP JUMPDEST DUP3 PUSH2 0x2719 JUMP JUMPDEST POP JUMP JUMPDEST PUSH1 0x10 PUSH1 0x0 SWAP1 SLOAD SWAP1 PUSH2 0x100 EXP SWAP1 DIV PUSH1 0xFF AND DUP2 JUMP JUMPDEST PUSH32 0x7935BD0AE54BC31F548C14DBA4D37C5C64B3F8CA900CB468FB8ABD54D5894F55 PUSH2 0x103D DUP2 PUSH2 0x1038 PUSH2 0x1A1D JUMP JUMPDEST PUSH2 0x2371 JUMP JUMPDEST PUSH1 0x1 PUSH1 0x9 PUSH1 0x0 PUSH2 0x100 EXP DUP2 SLOAD DUP2 PUSH1 0xFF MUL NOT AND SWAP1 DUP4 ISZERO ISZERO MUL OR SWAP1 SSTORE POP PUSH32 0x434B7453F4F1C6763B37650565F246CFC2CC356B4E71CBE5184FB9F2847D9B4D PUSH1 0x40 MLOAD PUSH1 0x40 MLOAD DUP1 SWAP2 SUB SWAP1 LOG1 POP JUMP JUMPDEST PUSH32 0xBACB663E11B33B3C60095A1A43993E26DC295019D5CFAE50A57996F97E90C820 DUP2 JUMP JUMPDEST PUSH32 0x7935BD0AE54BC31F548C14DBA4D37C5C64B3F8CA900CB468FB8ABD54D5894F55 PUSH2 0x10DD DUP2 PUSH2 0x10D8 PUSH2 0x1A1D JUMP JUMPDEST PUSH2 0x2371 JUMP JUMPDEST DUP2 PUSH1 0xE PUSH1 0x0 DUP6 PUSH20 0xFFFFFFFFFFFFFFFFFFFFFFFFFFFFFFFFFFFFFFFF AND PUSH20 0xFFFFFFFFFFFFFFFFFFFFFFFFFFFFFFFFFFFFFFFF AND DUP2 MSTORE PUSH1 0x20 ADD SWAP1 DUP2 MSTORE PUSH1 0x20 ADD PUSH1 0x0 KECCAK256 PUSH1 0x0 PUSH2 0x100 EXP DUP2 SLOAD DUP2 PUSH1 0xFF MUL NOT AND SWAP1 DUP4 ISZERO ISZERO MUL OR SWAP1 SSTORE POP POP POP POP JUMP JUMPDEST PUSH1 0xB PUSH1 0x0 SWAP1 SLOAD SWAP1 PUSH2 0x100 EXP SWAP1 DIV PUSH1 0xFF AND DUP2 JUMP JUMPDEST PUSH1 0x0 DUP1 PUSH1 0x0 DUP4 PUSH20 0xFFFFFFFFFFFFFFFFFFFFFFFFFFFFFFFFFFFFFFFF AND PUSH20 0xFFFFFFFFFFFFFFFFFFFFFFFFFFFFFFFFFFFFFFFF AND DUP2 MSTORE PUSH1 0x20 ADD SWAP1 DUP2 MSTORE PUSH1 0x20 ADD PUSH1 0x0 KECCAK256 SLOAD SWAP1 POP SWAP2 SWAP1 POP JUMP JUMPDEST PUSH1 0xE PUSH1 0x20 MSTORE DUP1 PUSH1 0x0 MSTORE PUSH1 0x40 PUSH1 0x0 KECCAK256 PUSH1 0x0 SWAP2 POP SLOAD SWAP1 PUSH2 0x100 EXP SWAP1 DIV PUSH1 0xFF AND DUP2 JUMP JUMPDEST PUSH1 0x12 PUSH1 0x0 SWAP1 SLOAD SWAP1 PUSH2 0x100 EXP SWAP1 DIV PUSH1 0xFF AND DUP2 JUMP JUMPDEST PUSH2 0x11D9 DUP3 PUSH2 0x11D3 PUSH2 0x1A1D JUMP JUMPDEST DUP4 PUSH2 0x1BEE JUMP JUMPDEST PUSH2 0x11E3 DUP3 DUP3 PUSH2 0x2719 JUMP JUMPDEST POP POP JUMP JUMPDEST PUSH1 0x0 PUSH1 0x7 PUSH1 0x0 SWAP1 SLOAD SWAP1 PUSH2 0x100 EXP SWAP1 DIV PUSH20 0xFFFFFFFFFFFFFFFFFFFFFFFFFFFFFFFFFFFFFFFF AND SWAP1 POP SWAP1 JUMP JUMPDEST PUSH32 0x7935BD0AE54BC31F548C14DBA4D37C5C64B3F8CA900CB468FB8ABD54D5894F55 PUSH2 0x1243 DUP2 PUSH2 0x123E PUSH2 0x1A1D JUMP JUMPDEST PUSH2 0x2371 JUMP JUMPDEST PUSH1 0x1 PUSH1 0x10 PUSH1 0x0 PUSH2 0x100 EXP DUP2 SLOAD DUP2 PUSH1 0xFF MUL NOT AND SWAP1 DUP4 ISZERO ISZERO MUL OR SWAP1 SSTORE POP PUSH32 0x799663458A5EF2936F7FA0C99B3336C69C25890F82974F04E811E5BB359186C7 PUSH1 0x40 MLOAD PUSH1 0x40 MLOAD DUP1 SWAP2 SUB SWAP1 LOG1 POP JUMP JUMPDEST PUSH32 0x7935BD0AE54BC31F548C14DBA4D37C5C64B3F8CA900CB468FB8ABD54D5894F55 PUSH2 0x12BF DUP2 PUSH2 0x12BA PUSH2 0x1A1D JUMP JUMPDEST PUSH2 0x2371 JUMP JUMPDEST PUSH3 0x93A80 PUSH1 0xD SLOAD TIMESTAMP PUSH2 0x12D1 SWAP2 SWAP1 PUSH2 0x35CE JUMP JUMPDEST GT ISZERO PUSH2 0x1309 JUMPI PUSH1 0x40 MLOAD PUSH32 0x6D29B86100000000000000000000000000000000000000000000000000000000 DUP2 MSTORE PUSH1 0x4 ADD PUSH1 0x40 MLOAD DUP1 SWAP2 SUB SWAP1 REVERT JUMPDEST DUP2 ISZERO ISZERO PUSH1 0xF PUSH1 0x0 DUP6 PUSH20 0xFFFFFFFFFFFFFFFFFFFFFFFFFFFFFFFFFFFFFFFF AND PUSH20 0xFFFFFFFFFFFFFFFFFFFFFFFFFFFFFFFFFFFFFFFF AND DUP2 MSTORE PUSH1 0x20 ADD SWAP1 DUP2 MSTORE PUSH1 0x20 ADD PUSH1 0x0 KECCAK256 PUSH1 0x0 SWAP1 SLOAD SWAP1 PUSH2 0x100 EXP SWAP1 DIV PUSH1 0xFF AND ISZERO ISZERO SUB PUSH2 0x1392 JUMPI PUSH1 0x40 MLOAD PUSH32 0xC23F6CCB00000000000000000000000000000000000000000000000000000000 DUP2 MSTORE PUSH1 0x4 ADD PUSH1 0x40 MLOAD DUP1 SWAP2 SUB SWAP1 REVERT JUMPDEST DUP2 PUSH1 0xF PUSH1 0x0 DUP6 PUSH20 0xFFFFFFFFFFFFFFFFFFFFFFFFFFFFFFFFFFFFFFFF AND PUSH20 0xFFFFFFFFFFFFFFFFFFFFFFFFFFFFFFFFFFFFFFFF AND DUP2 MSTORE PUSH1 0x20 ADD SWAP1 DUP2 MSTORE PUSH1 0x20 ADD PUSH1 0x0 KECCAK256 PUSH1 0x0 PUSH2 0x100 EXP DUP2 SLOAD DUP2 PUSH1 0xFF MUL NOT AND SWAP1 DUP4 ISZERO ISZERO MUL OR SWAP1 SSTORE POP DUP2 ISZERO ISZERO DUP4 PUSH20 0xFFFFFFFFFFFFFFFFFFFFFFFFFFFFFFFFFFFFFFFF AND PUSH32 0x6A12B3DF6CBA4203BD7FD06B816789F87DE8C594299AED5717AE070FAC781BAC PUSH1 0x40 MLOAD PUSH1 0x40 MLOAD DUP1 SWAP2 SUB SWAP1 LOG3 POP POP POP JUMP JUMPDEST PUSH1 0x0 PUSH1 0x8 PUSH1 0x0 DUP5 DUP2 MSTORE PUSH1 0x20 ADD SWAP1 DUP2 MSTORE PUSH1 0x20 ADD PUSH1 0x0 KECCAK256 PUSH1 0x0 ADD PUSH1 0x0 DUP4 PUSH20 0xFFFFFFFFFFFFFFFFFFFFFFFFFFFFFFFFFFFFFFFF AND PUSH20 0xFFFFFFFFFFFFFFFFFFFFFFFFFFFFFFFFFFFFFFFF AND DUP2 MSTORE PUSH1 0x20 ADD SWAP1 DUP2 MSTORE PUSH1 0x20 ADD PUSH1 0x0 KECCAK256 PUSH1 0x0 SWAP1 SLOAD SWAP1 PUSH2 0x100 EXP SWAP1 DIV PUSH1 0xFF AND SWAP1 POP SWAP3 SWAP2 POP POP JUMP JUMPDEST PUSH1 0x11 SLOAD DUP2 JUMP JUMPDEST PUSH1 0x60 PUSH1 0x4 DUP1 SLOAD PUSH2 0x14B4 SWAP1 PUSH2 0x34A8 JUMP JUMPDEST DUP1 PUSH1 0x1F ADD PUSH1 0x20 DUP1 SWAP2 DIV MUL PUSH1 0x20 ADD PUSH1 0x40 MLOAD SWAP1 DUP2 ADD PUSH1 0x40 MSTORE DUP1 SWAP3 SWAP2 SWAP1 DUP2 DUP2 MSTORE PUSH1 0x20 ADD DUP3 DUP1 SLOAD PUSH2 0x14E0 SWAP1 PUSH2 0x34A8 JUMP JUMPDEST DUP1 ISZERO PUSH2 0x152D JUMPI DUP1 PUSH1 0x1F LT PUSH2 0x1502 JUMPI PUSH2 0x100 DUP1 DUP4 SLOAD DIV MUL DUP4 MSTORE SWAP2 PUSH1 0x20 ADD SWAP2 PUSH2 0x152D JUMP JUMPDEST DUP3 ADD SWAP2 SWAP1 PUSH1 0x0 MSTORE PUSH1 0x20 PUSH1 0x0 KECCAK256 SWAP1 JUMPDEST DUP2 SLOAD DUP2 MSTORE SWAP1 PUSH1 0x1 ADD SWAP1 PUSH1 0x20 ADD DUP1 DUP4 GT PUSH2 0x1510 JUMPI DUP3 SWAP1 SUB PUSH1 0x1F AND DUP3 ADD SWAP2 JUMPDEST POP POP POP POP POP SWAP1 POP SWAP1 JUMP JUMPDEST PUSH1 0x0 PUSH1 0x5 PUSH1 0x0 SWAP1 SLOAD SWAP1 PUSH2 0x100 EXP SWAP1 DIV PUSH1 0xFF AND SWAP1 POP SWAP1 JUMP JUMPDEST PUSH1 0x0 DUP1 SHL DUP2 JUMP JUMPDEST PUSH1 0x0 DUP1 PUSH2 0x1560 PUSH2 0x1A1D JUMP JUMPDEST SWAP1 POP PUSH1 0x0 PUSH1 0x1 PUSH1 0x0 DUP4 PUSH20 0xFFFFFFFFFFFFFFFFFFFFFFFFFFFFFFFFFFFFFFFF AND PUSH20 0xFFFFFFFFFFFFFFFFFFFFFFFFFFFFFFFFFFFFFFFF AND DUP2 MSTORE PUSH1 0x20 ADD SWAP1 DUP2 MSTORE PUSH1 0x20 ADD PUSH1 0x0 KECCAK256 PUSH1 0x0 DUP7 PUSH20 0xFFFFFFFFFFFFFFFFFFFFFFFFFFFFFFFFFFFFFFFF AND PUSH20 0xFFFFFFFFFFFFFFFFFFFFFFFFFFFFFFFFFFFFFFFF AND DUP2 MSTORE PUSH1 0x20 ADD SWAP1 DUP2 MSTORE PUSH1 0x20 ADD PUSH1 0x0 KECCAK256 SLOAD SWAP1 POP DUP4 DUP2 LT ISZERO PUSH2 0x1626 JUMPI PUSH1 0x40 MLOAD PUSH32 0x8C379A000000000000000000000000000000000000000000000000000000000 DUP2 MSTORE PUSH1 0x4 ADD PUSH2 0x161D SWAP1 PUSH2 0x3674 JUMP JUMPDEST PUSH1 0x40 MLOAD DUP1 SWAP2 SUB SWAP1 REVERT JUMPDEST PUSH2 0x1633 DUP3 DUP7 DUP7 DUP5 SUB PUSH2 0x1A25 JUMP JUMPDEST PUSH1 0x1 SWAP3 POP POP POP SWAP3 SWAP2 POP POP JUMP JUMPDEST PUSH1 0x0 DUP1 PUSH2 0x164A PUSH2 0x1A1D JUMP JUMPDEST SWAP1 POP PUSH2 0x1657 DUP2 DUP6 DUP6 PUSH2 0x1C7A JUMP JUMPDEST PUSH1 0x1 SWAP2 POP POP SWAP3 SWAP2 POP POP JUMP JUMPDEST PUSH32 0x7935BD0AE54BC31F548C14DBA4D37C5C64B3F8CA900CB468FB8ABD54D5894F55 PUSH2 0x1694 DUP2 PUSH2 0x168F PUSH2 0x1A1D JUMP JUMPDEST PUSH2 0x2371 JUMP JUMPDEST DUP2 PUSH1 0x9 PUSH1 0x1 PUSH2 0x100 EXP DUP2 SLOAD DUP2 PUSH1 0xFF MUL NOT AND SWAP1 DUP4 ISZERO ISZERO MUL OR SWAP1 SSTORE POP PUSH32 0xFD4ED1EA0FAFBCF68B191F270443AE4BC23A904E615F8A369A6B1A9A4CC5247B PUSH1 0x40 MLOAD PUSH1 0x40 MLOAD DUP1 SWAP2 SUB SWAP1 LOG1 POP POP JUMP JUMPDEST PUSH1 0xA SLOAD DUP2 JUMP JUMPDEST PUSH32 0x7935BD0AE54BC31F548C14DBA4D37C5C64B3F8CA900CB468FB8ABD54D5894F55 PUSH2 0x1716 DUP2 PUSH2 0x1711 PUSH2 0x1A1D JUMP JUMPDEST PUSH2 0x2371 JUMP JUMPDEST DUP2 PUSH1 0x12 PUSH1 0x0 PUSH2 0x100 EXP DUP2 SLOAD DUP2 PUSH1 0xFF MUL NOT AND SWAP1 DUP4 ISZERO ISZERO MUL OR SWAP1 SSTORE POP PUSH32 0xFCD12AD8181C055CE7C8866198D05BEB7127A14121D7657A993594656F8D3F98 PUSH1 0x40 MLOAD PUSH1 0x40 MLOAD DUP1 SWAP2 SUB SWAP1 LOG1 POP POP JUMP JUMPDEST PUSH1 0xD SLOAD DUP2 JUMP JUMPDEST PUSH32 0x7935BD0AE54BC31F548C14DBA4D37C5C64B3F8CA900CB468FB8ABD54D5894F55 PUSH2 0x1798 DUP2 PUSH2 0x1793 PUSH2 0x1A1D JUMP JUMPDEST PUSH2 0x2371 JUMP JUMPDEST PUSH2 0x17A0 PUSH2 0xF53 JUMP JUMPDEST DUP3 SUB PUSH2 0x17D8 JUMPI PUSH1 0x40 MLOAD PUSH32 0xC23F6CCB00000000000000000000000000000000000000000000000000000000 DUP2 MSTORE PUSH1 0x4 ADD PUSH1 0x40 MLOAD DUP1 SWAP2 SUB SWAP1 REVERT JUMPDEST PUSH2 0x17E1 DUP3 PUSH2 0x28EF JUMP JUMPDEST DUP2 PUSH32 0x7F54B0F873D8150D0613DA0F8DB3A0935C36FB63D4D2D75FA8CD08B4B1F33BE1 PUSH1 0x40 MLOAD PUSH1 0x40 MLOAD DUP1 SWAP2 SUB SWAP1 LOG2 POP POP JUMP JUMPDEST PUSH32 0x7935BD0AE54BC31F548C14DBA4D37C5C64B3F8CA900CB468FB8ABD54D5894F55 DUP2 JUMP JUMPDEST PUSH2 0x183F DUP3 PUSH2 0xCEA JUMP JUMPDEST PUSH2 0x1850 DUP2 PUSH2 0x184B PUSH2 0x1A1D JUMP JUMPDEST PUSH2 0x2371 JUMP JUMPDEST PUSH2 0x185A DUP4 DUP4 PUSH2 0x2571 JUMP JUMPDEST POP POP POP JUMP JUMPDEST PUSH1 0x0 PUSH1 0x1 PUSH1 0x0 DUP5 PUSH20 0xFFFFFFFFFFFFFFFFFFFFFFFFFFFFFFFFFFFFFFFF AND PUSH20 0xFFFFFFFFFFFFFFFFFFFFFFFFFFFFFFFFFFFFFFFF AND DUP2 MSTORE PUSH1 0x20 ADD SWAP1 DUP2 MSTORE PUSH1 0x20 ADD PUSH1 0x0 KECCAK256 PUSH1 0x0 DUP4 PUSH20 0xFFFFFFFFFFFFFFFFFFFFFFFFFFFFFFFFFFFFFFFF AND PUSH20 0xFFFFFFFFFFFFFFFFFFFFFFFFFFFFFFFFFFFFFFFF AND DUP2 MSTORE PUSH1 0x20 ADD SWAP1 DUP2 MSTORE PUSH1 0x20 ADD PUSH1 0x0 KECCAK256 SLOAD SWAP1 POP SWAP3 SWAP2 POP POP JUMP JUMPDEST PUSH32 0x7935BD0AE54BC31F548C14DBA4D37C5C64B3F8CA900CB468FB8ABD54D5894F55 PUSH2 0x1918 DUP2 PUSH2 0x1913 PUSH2 0x1A1D JUMP JUMPDEST PUSH2 0x2371 JUMP JUMPDEST DUP2 PUSH1 0xB PUSH1 0x0 PUSH2 0x100 EXP DUP2 SLOAD DUP2 PUSH1 0xFF MUL NOT AND SWAP1 DUP4 ISZERO ISZERO MUL OR SWAP1 SSTORE POP PUSH32 0x173863318A1574C66582B9162D0809C55106D0DC64EF42D193662E4D561AE46C PUSH1 0x40 MLOAD PUSH1 0x40 MLOAD DUP1 SWAP2 SUB SWAP1 LOG1 POP POP JUMP JUMPDEST PUSH1 0x13 PUSH1 0x20 MSTORE DUP1 PUSH1 0x0 MSTORE PUSH1 0x40 PUSH1 0x0 KECCAK256 PUSH1 0x0 SWAP2 POP SWAP1 POP SLOAD DUP2 JUMP JUMPDEST PUSH1 0x9 PUSH1 0x1 SWAP1 SLOAD SWAP1 PUSH2 0x100 EXP SWAP1 DIV PUSH1 0xFF AND DUP2 JUMP JUMPDEST PUSH1 0xF PUSH1 0x20 MSTORE DUP1 PUSH1 0x0 MSTORE PUSH1 0x40 PUSH1 0x0 KECCAK256 PUSH1 0x0 SWAP2 POP SLOAD SWAP1 PUSH2 0x100 EXP SWAP1 DIV PUSH1 0xFF AND DUP2 JUMP JUMPDEST PUSH1 0xC SLOAD DUP2 JUMP JUMPDEST PUSH1 0x0 PUSH32 0x1FFC9A700000000000000000000000000000000000000000000000000000000 PUSH28 0xFFFFFFFFFFFFFFFFFFFFFFFFFFFFFFFFFFFFFFFFFFFFFFFFFFFFFFFF NOT AND DUP3 PUSH28 0xFFFFFFFFFFFFFFFFFFFFFFFFFFFFFFFFFFFFFFFFFFFFFFFFFFFFFFFF NOT AND EQ SWAP1 POP SWAP2 SWAP1 POP JUMP JUMPDEST PUSH1 0x0 CALLER SWAP1 POP SWAP1 JUMP JUMPDEST PUSH1 0x0 PUSH20 0xFFFFFFFFFFFFFFFFFFFFFFFFFFFFFFFFFFFFFFFF AND DUP4 PUSH20 0xFFFFFFFFFFFFFFFFFFFFFFFFFFFFFFFFFFFFFFFF AND SUB PUSH2 0x1A94 JUMPI PUSH1 0x40 MLOAD PUSH32 0x8C379A000000000000000000000000000000000000000000000000000000000 DUP2 MSTORE PUSH1 0x4 ADD PUSH2 0x1A8B SWAP1 PUSH2 0x3706 JUMP JUMPDEST PUSH1 0x40 MLOAD DUP1 SWAP2 SUB SWAP1 REVERT JUMPDEST PUSH1 0x0 PUSH20 0xFFFFFFFFFFFFFFFFFFFFFFFFFFFFFFFFFFFFFFFF AND DUP3 PUSH20 0xFFFFFFFFFFFFFFFFFFFFFFFFFFFFFFFFFFFFFFFF AND SUB PUSH2 0x1B03 JUMPI PUSH1 0x40 MLOAD PUSH32 0x8C379A000000000000000000000000000000000000000000000000000000000 DUP2 MSTORE PUSH1 0x4 ADD PUSH2 0x1AFA SWAP1 PUSH2 0x3798 JUMP JUMPDEST PUSH1 0x40 MLOAD DUP1 SWAP2 SUB SWAP1 REVERT JUMPDEST DUP1 PUSH1 0x1 PUSH1 0x0 DUP6 PUSH20 0xFFFFFFFFFFFFFFFFFFFFFFFFFFFFFFFFFFFFFFFF AND PUSH20 0xFFFFFFFFFFFFFFFFFFFFFFFFFFFFFFFFFFFFFFFF AND DUP2 MSTORE PUSH1 0x20 ADD SWAP1 DUP2 MSTORE PUSH1 0x20 ADD PUSH1 0x0 KECCAK256 PUSH1 0x0 DUP5 PUSH20 0xFFFFFFFFFFFFFFFFFFFFFFFFFFFFFFFFFFFFFFFF AND PUSH20 0xFFFFFFFFFFFFFFFFFFFFFFFFFFFFFFFFFFFFFFFF AND DUP2 MSTORE PUSH1 0x20 ADD SWAP1 DUP2 MSTORE PUSH1 0x20 ADD PUSH1 0x0 KECCAK256 DUP2 SWAP1 SSTORE POP DUP2 PUSH20 0xFFFFFFFFFFFFFFFFFFFFFFFFFFFFFFFFFFFFFFFF AND DUP4 PUSH20 0xFFFFFFFFFFFFFFFFFFFFFFFFFFFFFFFFFFFFFFFF AND PUSH32 0x8C5BE1E5EBEC7D5BD14F71427D1E84F3DD0314C0F7B2291E5B200AC8C7C3B925 DUP4 PUSH1 0x40 MLOAD PUSH2 0x1BE1 SWAP2 SWAP1 PUSH2 0x31AA JUMP JUMPDEST PUSH1 0x40 MLOAD DUP1 SWAP2 SUB SWAP1 LOG3 POP POP POP JUMP JUMPDEST PUSH1 0x0 PUSH2 0x1BFA DUP5 DUP5 PUSH2 0x185F JUMP JUMPDEST SWAP1 POP PUSH32 0xFFFFFFFFFFFFFFFFFFFFFFFFFFFFFFFFFFFFFFFFFFFFFFFFFFFFFFFFFFFFFFFF DUP2 EQ PUSH2 0x1C74 JUMPI DUP2 DUP2 LT ISZERO PUSH2 0x1C66 JUMPI PUSH1 0x40 MLOAD PUSH32 0x8C379A000000000000000000000000000000000000000000000000000000000 DUP2 MSTORE PUSH1 0x4 ADD PUSH2 0x1C5D SWAP1 PUSH2 0x3804 JUMP JUMPDEST PUSH1 0x40 MLOAD DUP1 SWAP2 SUB SWAP1 REVERT JUMPDEST PUSH2 0x1C73 DUP5 DUP5 DUP5 DUP5 SUB PUSH2 0x1A25 JUMP JUMPDEST JUMPDEST POP POP POP POP JUMP JUMPDEST DUP3 PUSH1 0xF PUSH1 0x0 DUP3 PUSH20 0xFFFFFFFFFFFFFFFFFFFFFFFFFFFFFFFFFFFFFFFF AND PUSH20 0xFFFFFFFFFFFFFFFFFFFFFFFFFFFFFFFFFFFFFFFF AND DUP2 MSTORE PUSH1 0x20 ADD SWAP1 DUP2 MSTORE PUSH1 0x20 ADD PUSH1 0x0 KECCAK256 PUSH1 0x0 SWAP1 SLOAD SWAP1 PUSH2 0x100 EXP SWAP1 DIV PUSH1 0xFF AND ISZERO PUSH2 0x1CFF JUMPI PUSH1 0x40 MLOAD PUSH32 0x9550C7700000000000000000000000000000000000000000000000000000000 DUP2 MSTORE PUSH1 0x4 ADD PUSH1 0x40 MLOAD DUP1 SWAP2 SUB SWAP1 REVERT JUMPDEST DUP3 PUSH1 0xF PUSH1 0x0 DUP3 PUSH20 0xFFFFFFFFFFFFFFFFFFFFFFFFFFFFFFFFFFFFFFFF AND PUSH20 0xFFFFFFFFFFFFFFFFFFFFFFFFFFFFFFFFFFFFFFFF AND DUP2 MSTORE PUSH1 0x20 ADD SWAP1 DUP2 MSTORE PUSH1 0x20 ADD PUSH1 0x0 KECCAK256 PUSH1 0x0 SWAP1 SLOAD SWAP1 PUSH2 0x100 EXP SWAP1 DIV PUSH1 0xFF AND ISZERO PUSH2 0x1D84 JUMPI PUSH1 0x40 MLOAD PUSH32 0x9550C7700000000000000000000000000000000000000000000000000000000 DUP2 MSTORE PUSH1 0x4 ADD PUSH1 0x40 MLOAD DUP1 SWAP2 SUB SWAP1 REVERT JUMPDEST DUP3 PUSH2 0x1D8E DUP7 PUSH2 0x114C JUMP JUMPDEST LT ISZERO PUSH2 0x1DC6 JUMPI PUSH1 0x40 MLOAD PUSH32 0x5DD3B4D100000000000000000000000000000000000000000000000000000000 DUP2 MSTORE PUSH1 0x4 ADD PUSH1 0x40 MLOAD DUP1 SWAP2 SUB SWAP1 REVERT JUMPDEST PUSH1 0x9 PUSH1 0x0 SWAP1 SLOAD SWAP1 PUSH2 0x100 EXP SWAP1 DIV PUSH1 0xFF AND ISZERO PUSH2 0x22E0 JUMPI PUSH2 0x1E05 PUSH32 0xBACB663E11B33B3C60095A1A43993E26DC295019D5CFAE50A57996F97E90C820 DUP7 PUSH2 0x1434 JUMP JUMPDEST DUP1 PUSH2 0x1E36 JUMPI POP PUSH2 0x1E35 PUSH32 0xBACB663E11B33B3C60095A1A43993E26DC295019D5CFAE50A57996F97E90C820 DUP6 PUSH2 0x1434 JUMP JUMPDEST JUMPDEST ISZERO PUSH2 0x1E4B JUMPI PUSH2 0x1E46 DUP6 DUP6 DUP6 PUSH2 0x29FD JUMP JUMPDEST PUSH2 0x236A JUMP JUMPDEST PUSH2 0x1E53 PUSH2 0x1537 JUMP JUMPDEST PUSH2 0x213B JUMPI PUSH1 0xB PUSH1 0x0 SWAP1 SLOAD SWAP1 PUSH2 0x100 EXP SWAP1 DIV PUSH1 0xFF AND ISZERO PUSH2 0x1EC8 JUMPI PUSH2 0x2710 PUSH1 0xC SLOAD PUSH2 0x1E7A PUSH2 0xCB1 JUMP JUMPDEST PUSH2 0x1E84 SWAP2 SWAP1 PUSH2 0x3824 JUMP JUMPDEST PUSH2 0x1E8E SWAP2 SWAP1 PUSH2 0x3895 JUMP JUMPDEST DUP4 GT ISZERO PUSH2 0x1EC7 JUMPI PUSH1 0x40 MLOAD PUSH32 0x823EE58400000000000000000000000000000000000000000000000000000000 DUP2 MSTORE PUSH1 0x4 ADD PUSH1 0x40 MLOAD DUP1 SWAP2 SUB SWAP1 REVERT JUMPDEST JUMPDEST PUSH1 0x12 PUSH1 0x0 SWAP1 SLOAD SWAP1 PUSH2 0x100 EXP SWAP1 DIV PUSH1 0xFF AND DUP1 ISZERO PUSH2 0x1EF0 JUMPI POP PUSH1 0x10 PUSH1 0x0 SWAP1 SLOAD SWAP1 PUSH2 0x100 EXP SWAP1 DIV PUSH1 0xFF AND JUMPDEST ISZERO PUSH2 0x2055 JUMPI TIMESTAMP PUSH1 0x13 PUSH1 0x0 DUP8 PUSH20 0xFFFFFFFFFFFFFFFFFFFFFFFFFFFFFFFFFFFFFFFF AND PUSH20 0xFFFFFFFFFFFFFFFFFFFFFFFFFFFFFFFFFFFFFFFF AND DUP2 MSTORE PUSH1 0x20 ADD SWAP1 DUP2 MSTORE PUSH1 0x20 ADD PUSH1 0x0 KECCAK256 SLOAD LT PUSH2 0x1F76 JUMPI PUSH1 0x40 MLOAD PUSH32 0x8C379A000000000000000000000000000000000000000000000000000000000 DUP2 MSTORE PUSH1 0x4 ADD PUSH2 0x1F6D SWAP1 PUSH2 0x3912 JUMP JUMPDEST PUSH1 0x40 MLOAD DUP1 SWAP2 SUB SWAP1 REVERT JUMPDEST PUSH2 0xE10 TIMESTAMP PUSH2 0x1F84 SWAP2 SWAP1 PUSH2 0x359A JUMP JUMPDEST PUSH1 0x13 PUSH1 0x0 DUP8 PUSH20 0xFFFFFFFFFFFFFFFFFFFFFFFFFFFFFFFFFFFFFFFF AND PUSH20 0xFFFFFFFFFFFFFFFFFFFFFFFFFFFFFFFFFFFFFFFF AND DUP2 MSTORE PUSH1 0x20 ADD SWAP1 DUP2 MSTORE PUSH1 0x20 ADD PUSH1 0x0 KECCAK256 DUP2 SWAP1 SSTORE POP DUP5 PUSH20 0xFFFFFFFFFFFFFFFFFFFFFFFFFFFFFFFFFFFFFFFF AND PUSH32 0xF3BD5C18443C8D915B41249A50236EC9DD3B9F10CB53BA90408D4FB2266410F6 PUSH1 0x13 PUSH1 0x0 DUP9 PUSH20 0xFFFFFFFFFFFFFFFFFFFFFFFFFFFFFFFFFFFFFFFF AND PUSH20 0xFFFFFFFFFFFFFFFFFFFFFFFFFFFFFFFFFFFFFFFF AND DUP2 MSTORE PUSH1 0x20 ADD SWAP1 DUP2 MSTORE PUSH1 0x20 ADD PUSH1 0x0 KECCAK256 SLOAD PUSH1 0x40 MLOAD PUSH2 0x204C SWAP2 SWAP1 PUSH2 0x31AA JUMP JUMPDEST PUSH1 0x40 MLOAD DUP1 SWAP2 SUB SWAP1 LOG2 JUMPDEST PUSH1 0x9 PUSH1 0x1 SWAP1 SLOAD SWAP1 PUSH2 0x100 EXP SWAP1 DIV PUSH1 0xFF AND ISZERO PUSH2 0x212B JUMPI PUSH1 0xE PUSH1 0x0 DUP6 PUSH20 0xFFFFFFFFFFFFFFFFFFFFFFFFFFFFFFFFFFFFFFFF AND PUSH20 0xFFFFFFFFFFFFFFFFFFFFFFFFFFFFFFFFFFFFFFFF AND DUP2 MSTORE PUSH1 0x20 ADD SWAP1 DUP2 MSTORE PUSH1 0x20 ADD PUSH1 0x0 KECCAK256 PUSH1 0x0 SWAP1 SLOAD SWAP1 PUSH2 0x100 EXP SWAP1 DIV PUSH1 0xFF AND PUSH2 0x212A JUMPI PUSH2 0x2710 PUSH1 0xA SLOAD PUSH2 0x20C9 PUSH2 0xCB1 JUMP JUMPDEST PUSH2 0x20D3 SWAP2 SWAP1 PUSH2 0x3824 JUMP JUMPDEST PUSH2 0x20DD SWAP2 SWAP1 PUSH2 0x3895 JUMP JUMPDEST DUP4 PUSH2 0x20E7 DUP7 PUSH2 0x114C JUMP JUMPDEST PUSH2 0x20F1 SWAP2 SWAP1 PUSH2 0x359A JUMP JUMPDEST GT ISZERO PUSH2 0x2129 JUMPI PUSH1 0x40 MLOAD PUSH32 0x8F635C4C00000000000000000000000000000000000000000000000000000000 DUP2 MSTORE PUSH1 0x4 ADD PUSH1 0x40 MLOAD DUP1 SWAP2 SUB SWAP1 REVERT JUMPDEST JUMPDEST JUMPDEST PUSH2 0x2136 DUP6 DUP6 DUP6 PUSH2 0x29FD JUMP JUMPDEST PUSH2 0x236A JUMP JUMPDEST PUSH1 0x0 PUSH2 0x2145 PUSH2 0x11E7 JUMP JUMPDEST SWAP1 POP PUSH1 0x0 PUSH2 0x2710 PUSH2 0x2154 PUSH2 0xF53 JUMP JUMPDEST DUP7 PUSH2 0x215F SWAP2 SWAP1 PUSH2 0x3824 JUMP JUMPDEST PUSH2 0x2169 SWAP2 SWAP1 PUSH2 0x3895 JUMP JUMPDEST SWAP1 POP PUSH1 0x0 DUP2 DUP7 PUSH2 0x2179 SWAP2 SWAP1 PUSH2 0x35CE JUMP JUMPDEST SWAP1 POP PUSH1 0xB PUSH1 0x0 SWAP1 SLOAD SWAP1 PUSH2 0x100 EXP SWAP1 DIV PUSH1 0xFF AND ISZERO PUSH2 0x21EC JUMPI PUSH2 0x2710 PUSH1 0xC SLOAD PUSH2 0x219E PUSH2 0xCB1 JUMP JUMPDEST PUSH2 0x21A8 SWAP2 SWAP1 PUSH2 0x3824 JUMP JUMPDEST PUSH2 0x21B2 SWAP2 SWAP1 PUSH2 0x3895 JUMP JUMPDEST DUP2 GT ISZERO PUSH2 0x21EB JUMPI PUSH1 0x40 MLOAD PUSH32 0x823EE58400000000000000000000000000000000000000000000000000000000 DUP2 MSTORE PUSH1 0x4 ADD PUSH1 0x40 MLOAD DUP1 SWAP2 SUB SWAP1 REVERT JUMPDEST JUMPDEST PUSH1 0x9 PUSH1 0x1 SWAP1 SLOAD SWAP1 PUSH2 0x100 EXP SWAP1 DIV PUSH1 0xFF AND ISZERO PUSH2 0x22C2 JUMPI PUSH1 0xE PUSH1 0x0 DUP9 PUSH20 0xFFFFFFFFFFFFFFFFFFFFFFFFFFFFFFFFFFFFFFFF AND PUSH20 0xFFFFFFFFFFFFFFFFFFFFFFFFFFFFFFFFFFFFFFFF AND DUP2 MSTORE PUSH1 0x20 ADD SWAP1 DUP2 MSTORE PUSH1 0x20 ADD PUSH1 0x0 KECCAK256 PUSH1 0x0 SWAP1 SLOAD SWAP1 PUSH2 0x100 EXP SWAP1 DIV PUSH1 0xFF AND PUSH2 0x22C1 JUMPI PUSH2 0x2710 PUSH1 0xA SLOAD PUSH2 0x2260 PUSH2 0xCB1 JUMP JUMPDEST PUSH2 0x226A SWAP2 SWAP1 PUSH2 0x3824 JUMP JUMPDEST PUSH2 0x2274 SWAP2 SWAP1 PUSH2 0x3895 JUMP JUMPDEST DUP2 PUSH2 0x227E DUP10 PUSH2 0x114C JUMP JUMPDEST PUSH2 0x2288 SWAP2 SWAP1 PUSH2 0x359A JUMP JUMPDEST GT ISZERO PUSH2 0x22C0 JUMPI PUSH1 0x40 MLOAD PUSH32 0x8F635C4C00000000000000000000000000000000000000000000000000000000 DUP2 MSTORE PUSH1 0x4 ADD PUSH1 0x40 MLOAD DUP1 SWAP2 SUB SWAP1 REVERT JUMPDEST JUMPDEST JUMPDEST PUSH2 0x22CD DUP9 DUP5 DUP5 PUSH2 0x29FD JUMP JUMPDEST PUSH2 0x22D8 DUP9 DUP9 DUP4 PUSH2 0x29FD JUMP JUMPDEST POP POP POP PUSH2 0x236A JUMP JUMPDEST PUSH1 0x9 PUSH1 0x0 SWAP1 SLOAD SWAP1 PUSH2 0x100 EXP SWAP1 DIV PUSH1 0xFF AND ISZERO DUP1 ISZERO PUSH2 0x2323 JUMPI POP PUSH2 0x2322 PUSH32 0x7935BD0AE54BC31F548C14DBA4D37C5C64B3F8CA900CB468FB8ABD54D5894F55 DUP7 PUSH2 0x1434 JUMP JUMPDEST JUMPDEST ISZERO PUSH2 0x2338 JUMPI PUSH2 0x2333 DUP6 DUP6 DUP6 PUSH2 0x29FD JUMP JUMPDEST PUSH2 0x236A JUMP JUMPDEST PUSH1 0x40 MLOAD PUSH32 0x8CD22D1900000000000000000000000000000000000000000000000000000000 DUP2 MSTORE PUSH1 0x4 ADD PUSH1 0x40 MLOAD DUP1 SWAP2 SUB SWAP1 REVERT JUMPDEST POP POP POP POP POP JUMP JUMPDEST PUSH2 0x237B DUP3 DUP3 PUSH2 0x1434 JUMP JUMPDEST PUSH2 0x240A JUMPI PUSH2 0x23A0 DUP2 PUSH20 0xFFFFFFFFFFFFFFFFFFFFFFFFFFFFFFFFFFFFFFFF AND PUSH1 0x14 PUSH2 0x2C7C JUMP JUMPDEST PUSH2 0x23AE DUP4 PUSH1 0x0 SHR PUSH1 0x20 PUSH2 0x2C7C JUMP JUMPDEST PUSH1 0x40 MLOAD PUSH1 0x20 ADD PUSH2 0x23BF SWAP3 SWAP2 SWAP1 PUSH2 0x3A06 JUMP JUMPDEST PUSH1 0x40 MLOAD PUSH1 0x20 DUP2 DUP4 SUB SUB DUP2 MSTORE SWAP1 PUSH1 0x40 MSTORE PUSH1 0x40 MLOAD PUSH32 0x8C379A000000000000000000000000000000000000000000000000000000000 DUP2 MSTORE PUSH1 0x4 ADD PUSH2 0x2401 SWAP2 SWAP1 PUSH2 0x30A5 JUMP JUMPDEST PUSH1 0x40 MLOAD DUP1 SWAP2 SUB SWAP1 REVERT JUMPDEST POP POP JUMP JUMPDEST PUSH2 0x2418 DUP3 DUP3 PUSH2 0x1434 JUMP JUMPDEST PUSH2 0x24EB JUMPI PUSH1 0x1 PUSH1 0x8 PUSH1 0x0 DUP5 DUP2 MSTORE PUSH1 0x20 ADD SWAP1 DUP2 MSTORE PUSH1 0x20 ADD PUSH1 0x0 KECCAK256 PUSH1 0x0 ADD PUSH1 0x0 DUP4 PUSH20 0xFFFFFFFFFFFFFFFFFFFFFFFFFFFFFFFFFFFFFFFF AND PUSH20 0xFFFFFFFFFFFFFFFFFFFFFFFFFFFFFFFFFFFFFFFF AND DUP2 MSTORE PUSH1 0x20 ADD SWAP1 DUP2 MSTORE PUSH1 0x20 ADD PUSH1 0x0 KECCAK256 PUSH1 0x0 PUSH2 0x100 EXP DUP2 SLOAD DUP2 PUSH1 0xFF MUL NOT AND SWAP1 DUP4 ISZERO ISZERO MUL OR SWAP1 SSTORE POP PUSH2 0x2490 PUSH2 0x1A1D JUMP JUMPDEST PUSH20 0xFFFFFFFFFFFFFFFFFFFFFFFFFFFFFFFFFFFFFFFF AND DUP2 PUSH20 0xFFFFFFFFFFFFFFFFFFFFFFFFFFFFFFFFFFFFFFFF AND DUP4 PUSH32 0x2F8788117E7EFF1D82E926EC794901D17C78024A50270940304540A733656F0D PUSH1 0x40 MLOAD PUSH1 0x40 MLOAD DUP1 SWAP2 SUB SWAP1 LOG4 JUMPDEST POP POP JUMP JUMPDEST DUP1 PUSH1 0x7 PUSH1 0x0 PUSH2 0x100 EXP DUP2 SLOAD DUP2 PUSH20 0xFFFFFFFFFFFFFFFFFFFFFFFFFFFFFFFFFFFFFFFF MUL NOT AND SWAP1 DUP4 PUSH20 0xFFFFFFFFFFFFFFFFFFFFFFFFFFFFFFFFFFFFFFFF AND MUL OR SWAP1 SSTORE POP PUSH32 0x9EEE28D8D70BFAD809CE8ACADD46CE657B1FA64646B1E4B414E6BBB2EB2C8FA PUSH2 0x2559 PUSH2 0x1A1D JUMP JUMPDEST PUSH1 0x40 MLOAD PUSH2 0x2566 SWAP2 SWAP1 PUSH2 0x341E JUMP JUMPDEST PUSH1 0x40 MLOAD DUP1 SWAP2 SUB SWAP1 LOG1 POP JUMP JUMPDEST PUSH2 0x257B DUP3 DUP3 PUSH2 0x1434 JUMP JUMPDEST ISZERO PUSH2 0x264F JUMPI PUSH1 0x0 PUSH1 0x8 PUSH1 0x0 DUP5 DUP2 MSTORE PUSH1 0x20 ADD SWAP1 DUP2 MSTORE PUSH1 0x20 ADD PUSH1 0x0 KECCAK256 PUSH1 0x0 ADD PUSH1 0x0 DUP4 PUSH20 0xFFFFFFFFFFFFFFFFFFFFFFFFFFFFFFFFFFFFFFFF AND PUSH20 0xFFFFFFFFFFFFFFFFFFFFFFFFFFFFFFFFFFFFFFFF AND DUP2 MSTORE PUSH1 0x20 ADD SWAP1 DUP2 MSTORE PUSH1 0x20 ADD PUSH1 0x0 KECCAK256 PUSH1 0x0 PUSH2 0x100 EXP DUP2 SLOAD DUP2 PUSH1 0xFF MUL NOT AND SWAP1 DUP4 ISZERO ISZERO MUL OR SWAP1 SSTORE POP PUSH2 0x25F4 PUSH2 0x1A1D JUMP JUMPDEST PUSH20 0xFFFFFFFFFFFFFFFFFFFFFFFFFFFFFFFFFFFFFFFF AND DUP2 PUSH20 0xFFFFFFFFFFFFFFFFFFFFFFFFFFFFFFFFFFFFFFFF AND DUP4 PUSH32 0xF6391F5C32D9C69D2A47EA670B442974B53935D1EDC7FD64EB21E047A839171B PUSH1 0x40 MLOAD PUSH1 0x40 MLOAD DUP1 SWAP2 SUB SWAP1 LOG4 JUMPDEST POP POP JUMP JUMPDEST PUSH2 0x265B PUSH2 0x2EB8 JUMP JUMPDEST PUSH1 0x0 PUSH1 0x5 PUSH1 0x0 PUSH2 0x100 EXP DUP2 SLOAD DUP2 PUSH1 0xFF MUL NOT AND SWAP1 DUP4 ISZERO ISZERO MUL OR SWAP1 SSTORE POP PUSH32 0x8B99205429B09A5A41D0D69839E5129B5F813B29A8E9924B45131170948D88A8 PUSH2 0x269F PUSH2 0x1A1D JUMP JUMPDEST PUSH1 0x40 MLOAD PUSH2 0x26AC SWAP2 SWAP1 PUSH2 0x341E JUMP JUMPDEST PUSH1 0x40 MLOAD DUP1 SWAP2 SUB SWAP1 LOG1 JUMP JUMPDEST PUSH2 0x26BE PUSH2 0x2F01 JUMP JUMPDEST PUSH1 0x1 PUSH1 0x5 PUSH1 0x0 PUSH2 0x100 EXP DUP2 SLOAD DUP2 PUSH1 0xFF MUL NOT AND SWAP1 DUP4 ISZERO ISZERO MUL OR SWAP1 SSTORE POP PUSH32 0xCCA130FDD52CE6E5EEDB160C5F635A53883ABCFE2B46453038A1516D7D5380B9 PUSH2 0x2702 PUSH2 0x1A1D JUMP JUMPDEST PUSH1 0x40 MLOAD PUSH2 0x270F SWAP2 SWAP1 PUSH2 0x341E JUMP JUMPDEST PUSH1 0x40 MLOAD DUP1 SWAP2 SUB SWAP1 LOG1 JUMP JUMPDEST PUSH1 0x0 PUSH20 0xFFFFFFFFFFFFFFFFFFFFFFFFFFFFFFFFFFFFFFFF AND DUP3 PUSH20 0xFFFFFFFFFFFFFFFFFFFFFFFFFFFFFFFFFFFFFFFF AND SUB PUSH2 0x2788 JUMPI PUSH1 0x40 MLOAD PUSH32 0x8C379A000000000000000000000000000000000000000000000000000000000 DUP2 MSTORE PUSH1 0x4 ADD PUSH2 0x277F SWAP1 PUSH2 0x3AB2 JUMP JUMPDEST PUSH1 0x40 MLOAD DUP1 SWAP2 SUB SWAP1 REVERT JUMPDEST PUSH2 0x2794 DUP3 PUSH1 0x0 DUP4 PUSH2 0x2F4B JUMP JUMPDEST PUSH1 0x0 DUP1 PUSH1 0x0 DUP5 PUSH20 0xFFFFFFFFFFFFFFFFFFFFFFFFFFFFFFFFFFFFFFFF AND PUSH20 0xFFFFFFFFFFFFFFFFFFFFFFFFFFFFFFFFFFFFFFFF AND DUP2 MSTORE PUSH1 0x20 ADD SWAP1 DUP2 MSTORE PUSH1 0x20 ADD PUSH1 0x0 KECCAK256 SLOAD SWAP1 POP DUP2 DUP2 LT ISZERO PUSH2 0x281A JUMPI PUSH1 0x40 MLOAD PUSH32 0x8C379A000000000000000000000000000000000000000000000000000000000 DUP2 MSTORE PUSH1 0x4 ADD PUSH2 0x2811 SWAP1 PUSH2 0x3B44 JUMP JUMPDEST PUSH1 0x40 MLOAD DUP1 SWAP2 SUB SWAP1 REVERT JUMPDEST DUP2 DUP2 SUB PUSH1 0x0 DUP1 DUP6 PUSH20 0xFFFFFFFFFFFFFFFFFFFFFFFFFFFFFFFFFFFFFFFF AND PUSH20 0xFFFFFFFFFFFFFFFFFFFFFFFFFFFFFFFFFFFFFFFF AND DUP2 MSTORE PUSH1 0x20 ADD SWAP1 DUP2 MSTORE PUSH1 0x20 ADD PUSH1 0x0 KECCAK256 DUP2 SWAP1 SSTORE POP DUP2 PUSH1 0x2 PUSH1 0x0 DUP3 DUP3 SLOAD PUSH2 0x2871 SWAP2 SWAP1 PUSH2 0x35CE JUMP JUMPDEST SWAP3 POP POP DUP2 SWAP1 SSTORE POP PUSH1 0x0 PUSH20 0xFFFFFFFFFFFFFFFFFFFFFFFFFFFFFFFFFFFFFFFF AND DUP4 PUSH20 0xFFFFFFFFFFFFFFFFFFFFFFFFFFFFFFFFFFFFFFFF AND PUSH32 0xDDF252AD1BE2C89B69C2B068FC378DAA952BA7F163C4A11628F55A4DF523B3EF DUP5 PUSH1 0x40 MLOAD PUSH2 0x28D6 SWAP2 SWAP1 PUSH2 0x31AA JUMP JUMPDEST PUSH1 0x40 MLOAD DUP1 SWAP2 SUB SWAP1 LOG3 PUSH2 0x28EA DUP4 PUSH1 0x0 DUP5 PUSH2 0x2F50 JUMP JUMPDEST POP POP POP JUMP JUMPDEST PUSH32 0x0 DUP2 GT ISZERO PUSH2 0x2952 JUMPI PUSH1 0x40 MLOAD PUSH32 0x8C379A000000000000000000000000000000000000000000000000000000000 DUP2 MSTORE PUSH1 0x4 ADD PUSH2 0x2949 SWAP1 PUSH2 0x3BB0 JUMP JUMPDEST PUSH1 0x40 MLOAD DUP1 SWAP2 SUB SWAP1 REVERT JUMPDEST PUSH32 0x0 DUP2 LT ISZERO PUSH2 0x29B5 JUMPI PUSH1 0x40 MLOAD PUSH32 0x8C379A000000000000000000000000000000000000000000000000000000000 DUP2 MSTORE PUSH1 0x4 ADD PUSH2 0x29AC SWAP1 PUSH2 0x3C1C JUMP JUMPDEST PUSH1 0x40 MLOAD DUP1 SWAP2 SUB SWAP1 REVERT JUMPDEST DUP1 PUSH1 0x6 DUP2 SWAP1 SSTORE POP PUSH32 0xC8EAB30EC12770242BA7C205B239D632DB8D3F54B3392AA8692893C8FD07ABC3 PUSH2 0x29E5 PUSH2 0x1A1D JUMP JUMPDEST PUSH1 0x40 MLOAD PUSH2 0x29F2 SWAP2 SWAP1 PUSH2 0x341E JUMP JUMPDEST PUSH1 0x40 MLOAD DUP1 SWAP2 SUB SWAP1 LOG1 POP JUMP JUMPDEST PUSH1 0x0 PUSH20 0xFFFFFFFFFFFFFFFFFFFFFFFFFFFFFFFFFFFFFFFF AND DUP4 PUSH20 0xFFFFFFFFFFFFFFFFFFFFFFFFFFFFFFFFFFFFFFFF AND SUB PUSH2 0x2A6C JUMPI PUSH1 0x40 MLOAD PUSH32 0x8C379A000000000000000000000000000000000000000000000000000000000 DUP2 MSTORE PUSH1 0x4 ADD PUSH2 0x2A63 SWAP1 PUSH2 0x3CAE JUMP JUMPDEST PUSH1 0x40 MLOAD DUP1 SWAP2 SUB SWAP1 REVERT JUMPDEST PUSH1 0x0 PUSH20 0xFFFFFFFFFFFFFFFFFFFFFFFFFFFFFFFFFFFFFFFF AND DUP3 PUSH20 0xFFFFFFFFFFFFFFFFFFFFFFFFFFFFFFFFFFFFFFFF AND SUB PUSH2 0x2ADB JUMPI PUSH1 0x40 MLOAD PUSH32 0x8C379A000000000000000000000000000000000000000000000000000000000 DUP2 MSTORE PUSH1 0x4 ADD PUSH2 0x2AD2 SWAP1 PUSH2 0x3D40 JUMP JUMPDEST PUSH1 0x40 MLOAD DUP1 SWAP2 SUB SWAP1 REVERT JUMPDEST PUSH2 0x2AE6 DUP4 DUP4 DUP4 PUSH2 0x2F4B JUMP JUMPDEST PUSH1 0x0 DUP1 PUSH1 0x0 DUP6 PUSH20 0xFFFFFFFFFFFFFFFFFFFFFFFFFFFFFFFFFFFFFFFF AND PUSH20 0xFFFFFFFFFFFFFFFFFFFFFFFFFFFFFFFFFFFFFFFF AND DUP2 MSTORE PUSH1 0x20 ADD SWAP1 DUP2 MSTORE PUSH1 0x20 ADD PUSH1 0x0 KECCAK256 SLOAD SWAP1 POP DUP2 DUP2 LT ISZERO PUSH2 0x2B6C JUMPI PUSH1 0x40 MLOAD PUSH32 0x8C379A000000000000000000000000000000000000000000000000000000000 DUP2 MSTORE PUSH1 0x4 ADD PUSH2 0x2B63 SWAP1 PUSH2 0x3DD2 JUMP JUMPDEST PUSH1 0x40 MLOAD DUP1 SWAP2 SUB SWAP1 REVERT JUMPDEST DUP2 DUP2 SUB PUSH1 0x0 DUP1 DUP7 PUSH20 0xFFFFFFFFFFFFFFFFFFFFFFFFFFFFFFFFFFFFFFFF AND PUSH20 0xFFFFFFFFFFFFFFFFFFFFFFFFFFFFFFFFFFFFFFFF AND DUP2 MSTORE PUSH1 0x20 ADD SWAP1 DUP2 MSTORE PUSH1 0x20 ADD PUSH1 0x0 KECCAK256 DUP2 SWAP1 SSTORE POP DUP2 PUSH1 0x0 DUP1 DUP6 PUSH20 0xFFFFFFFFFFFFFFFFFFFFFFFFFFFFFFFFFFFFFFFF AND PUSH20 0xFFFFFFFFFFFFFFFFFFFFFFFFFFFFFFFFFFFFFFFF AND DUP2 MSTORE PUSH1 0x20 ADD SWAP1 DUP2 MSTORE PUSH1 0x20 ADD PUSH1 0x0 KECCAK256 PUSH1 0x0 DUP3 DUP3 SLOAD PUSH2 0x2BFF SWAP2 SWAP1 PUSH2 0x359A JUMP JUMPDEST SWAP3 POP POP DUP2 SWAP1 SSTORE POP DUP3 PUSH20 0xFFFFFFFFFFFFFFFFFFFFFFFFFFFFFFFFFFFFFFFF AND DUP5 PUSH20 0xFFFFFFFFFFFFFFFFFFFFFFFFFFFFFFFFFFFFFFFF AND PUSH32 0xDDF252AD1BE2C89B69C2B068FC378DAA952BA7F163C4A11628F55A4DF523B3EF DUP5 PUSH1 0x40 MLOAD PUSH2 0x2C63 SWAP2 SWAP1 PUSH2 0x31AA JUMP JUMPDEST PUSH1 0x40 MLOAD DUP1 SWAP2 SUB SWAP1 LOG3 PUSH2 0x2C76 DUP5 DUP5 DUP5 PUSH2 0x2F50 JUMP JUMPDEST POP POP POP POP JUMP JUMPDEST PUSH1 0x60 PUSH1 0x0 PUSH1 0x2 DUP4 PUSH1 0x2 PUSH2 0x2C8F SWAP2 SWAP1 PUSH2 0x3824 JUMP JUMPDEST PUSH2 0x2C99 SWAP2 SWAP1 PUSH2 0x359A JUMP JUMPDEST PUSH8 0xFFFFFFFFFFFFFFFF DUP2 GT ISZERO PUSH2 0x2CB2 JUMPI PUSH2 0x2CB1 PUSH2 0x3DF2 JUMP JUMPDEST JUMPDEST PUSH1 0x40 MLOAD SWAP1 DUP1 DUP3 MSTORE DUP1 PUSH1 0x1F ADD PUSH1 0x1F NOT AND PUSH1 0x20 ADD DUP3 ADD PUSH1 0x40 MSTORE DUP1 ISZERO PUSH2 0x2CE4 JUMPI DUP2 PUSH1 0x20 ADD PUSH1 0x1 DUP3 MUL DUP1 CALLDATASIZE DUP4 CALLDATACOPY DUP1 DUP3 ADD SWAP2 POP POP SWAP1 POP JUMPDEST POP SWAP1 POP PUSH32 0x3000000000000000000000000000000000000000000000000000000000000000 DUP2 PUSH1 0x0 DUP2 MLOAD DUP2 LT PUSH2 0x2D1C JUMPI PUSH2 0x2D1B PUSH2 0x3E21 JUMP JUMPDEST JUMPDEST PUSH1 0x20 ADD ADD SWAP1 PUSH31 0xFFFFFFFFFFFFFFFFFFFFFFFFFFFFFFFFFFFFFFFFFFFFFFFFFFFFFFFFFFFFFF NOT AND SWAP1 DUP2 PUSH1 0x0 BYTE SWAP1 MSTORE8 POP PUSH32 0x7800000000000000000000000000000000000000000000000000000000000000 DUP2 PUSH1 0x1 DUP2 MLOAD DUP2 LT PUSH2 0x2D80 JUMPI PUSH2 0x2D7F PUSH2 0x3E21 JUMP JUMPDEST JUMPDEST PUSH1 0x20 ADD ADD SWAP1 PUSH31 0xFFFFFFFFFFFFFFFFFFFFFFFFFFFFFFFFFFFFFFFFFFFFFFFFFFFFFFFFFFFFFF NOT AND SWAP1 DUP2 PUSH1 0x0 BYTE SWAP1 MSTORE8 POP PUSH1 0x0 PUSH1 0x1 DUP5 PUSH1 0x2 PUSH2 0x2DC0 SWAP2 SWAP1 PUSH2 0x3824 JUMP JUMPDEST PUSH2 0x2DCA SWAP2 SWAP1 PUSH2 0x359A JUMP JUMPDEST SWAP1 POP JUMPDEST PUSH1 0x1 DUP2 GT ISZERO PUSH2 0x2E6A JUMPI PUSH32 0x3031323334353637383961626364656600000000000000000000000000000000 PUSH1 0xF DUP7 AND PUSH1 0x10 DUP2 LT PUSH2 0x2E0C JUMPI PUSH2 0x2E0B PUSH2 0x3E21 JUMP JUMPDEST JUMPDEST BYTE PUSH1 0xF8 SHL DUP3 DUP3 DUP2 MLOAD DUP2 LT PUSH2 0x2E23 JUMPI PUSH2 0x2E22 PUSH2 0x3E21 JUMP JUMPDEST JUMPDEST PUSH1 0x20 ADD ADD SWAP1 PUSH31 0xFFFFFFFFFFFFFFFFFFFFFFFFFFFFFFFFFFFFFFFFFFFFFFFFFFFFFFFFFFFFFF NOT AND SWAP1 DUP2 PUSH1 0x0 BYTE SWAP1 MSTORE8 POP PUSH1 0x4 DUP6 SWAP1 SHR SWAP5 POP DUP1 PUSH2 0x2E63 SWAP1 PUSH2 0x3E50 JUMP JUMPDEST SWAP1 POP PUSH2 0x2DCD JUMP JUMPDEST POP PUSH1 0x0 DUP5 EQ PUSH2 0x2EAE JUMPI PUSH1 0x40 MLOAD PUSH32 0x8C379A000000000000000000000000000000000000000000000000000000000 DUP2 MSTORE PUSH1 0x4 ADD PUSH2 0x2EA5 SWAP1 PUSH2 0x3EC5 JUMP JUMPDEST PUSH1 0x40 MLOAD DUP1 SWAP2 SUB SWAP1 REVERT JUMPDEST DUP1 SWAP2 POP POP SWAP3 SWAP2 POP POP JUMP JUMPDEST PUSH2 0x2EC0 PUSH2 0x1537 JUMP JUMPDEST PUSH2 0x2EFF JUMPI PUSH1 0x40 MLOAD PUSH32 0x8C379A000000000000000000000000000000000000000000000000000000000 DUP2 MSTORE PUSH1 0x4 ADD PUSH2 0x2EF6 SWAP1 PUSH2 0x3F31 JUMP JUMPDEST PUSH1 0x40 MLOAD DUP1 SWAP2 SUB SWAP1 REVERT JUMPDEST JUMP JUMPDEST PUSH2 0x2F09 PUSH2 0x1537 JUMP JUMPDEST ISZERO PUSH2 0x2F49 JUMPI PUSH1 0x40 MLOAD PUSH32 0x8C379A000000000000000000000000000000000000000000000000000000000 DUP2 MSTORE PUSH1 0x4 ADD PUSH2 0x2F40 SWAP1 PUSH2 0x3F9D JUMP JUMPDEST PUSH1 0x40 MLOAD DUP1 SWAP2 SUB SWAP1 REVERT JUMPDEST JUMP JUMPDEST POP POP POP JUMP JUMPDEST POP POP POP JUMP JUMPDEST PUSH1 0x0 DUP1 REVERT JUMPDEST PUSH1 0x0 PUSH32 0xFFFFFFFF00000000000000000000000000000000000000000000000000000000 DUP3 AND SWAP1 POP SWAP2 SWAP1 POP JUMP JUMPDEST PUSH2 0x2F8F DUP2 PUSH2 0x2F5A JUMP JUMPDEST DUP2 EQ PUSH2 0x2F9A JUMPI PUSH1 0x0 DUP1 REVERT JUMPDEST POP JUMP JUMPDEST PUSH1 0x0 DUP2 CALLDATALOAD SWAP1 POP PUSH2 0x2FAC DUP2 PUSH2 0x2F86 JUMP JUMPDEST SWAP3 SWAP2 POP POP JUMP JUMPDEST PUSH1 0x0 PUSH1 0x20 DUP3 DUP5 SUB SLT ISZERO PUSH2 0x2FC8 JUMPI PUSH2 0x2FC7 PUSH2 0x2F55 JUMP JUMPDEST JUMPDEST PUSH1 0x0 PUSH2 0x2FD6 DUP5 DUP3 DUP6 ADD PUSH2 0x2F9D JUMP JUMPDEST SWAP2 POP POP SWAP3 SWAP2 POP POP JUMP JUMPDEST PUSH1 0x0 DUP2 ISZERO ISZERO SWAP1 POP SWAP2 SWAP1 POP JUMP JUMPDEST PUSH2 0x2FF4 DUP2 PUSH2 0x2FDF JUMP JUMPDEST DUP3 MSTORE POP POP JUMP JUMPDEST PUSH1 0x0 PUSH1 0x20 DUP3 ADD SWAP1 POP PUSH2 0x300F PUSH1 0x0 DUP4 ADD DUP5 PUSH2 0x2FEB JUMP JUMPDEST SWAP3 SWAP2 POP POP JUMP JUMPDEST PUSH1 0x0 DUP2 MLOAD SWAP1 POP SWAP2 SWAP1 POP JUMP JUMPDEST PUSH1 0x0 DUP3 DUP3 MSTORE PUSH1 0x20 DUP3 ADD SWAP1 POP SWAP3 SWAP2 POP POP JUMP JUMPDEST PUSH1 0x0 JUMPDEST DUP4 DUP2 LT ISZERO PUSH2 0x304F JUMPI DUP1 DUP3 ADD MLOAD DUP2 DUP5 ADD MSTORE PUSH1 0x20 DUP2 ADD SWAP1 POP PUSH2 0x3034 JUMP JUMPDEST PUSH1 0x0 DUP5 DUP5 ADD MSTORE POP POP POP POP JUMP JUMPDEST PUSH1 0x0 PUSH1 0x1F NOT PUSH1 0x1F DUP4 ADD AND SWAP1 POP SWAP2 SWAP1 POP JUMP JUMPDEST PUSH1 0x0 PUSH2 0x3077 DUP3 PUSH2 0x3015 JUMP JUMPDEST PUSH2 0x3081 DUP2 DUP6 PUSH2 0x3020 JUMP JUMPDEST SWAP4 POP PUSH2 0x3091 DUP2 DUP6 PUSH1 0x20 DUP7 ADD PUSH2 0x3031 JUMP JUMPDEST PUSH2 0x309A DUP2 PUSH2 0x305B JUMP JUMPDEST DUP5 ADD SWAP2 POP POP SWAP3 SWAP2 POP POP JUMP JUMPDEST PUSH1 0x0 PUSH1 0x20 DUP3 ADD SWAP1 POP DUP2 DUP2 SUB PUSH1 0x0 DUP4 ADD MSTORE PUSH2 0x30BF DUP2 DUP5 PUSH2 0x306C JUMP JUMPDEST SWAP1 POP SWAP3 SWAP2 POP POP JUMP JUMPDEST PUSH1 0x0 PUSH20 0xFFFFFFFFFFFFFFFFFFFFFFFFFFFFFFFFFFFFFFFF DUP3 AND SWAP1 POP SWAP2 SWAP1 POP JUMP JUMPDEST PUSH1 0x0 PUSH2 0x30F2 DUP3 PUSH2 0x30C7 JUMP JUMPDEST SWAP1 POP SWAP2 SWAP1 POP JUMP JUMPDEST PUSH2 0x3102 DUP2 PUSH2 0x30E7 JUMP JUMPDEST DUP2 EQ PUSH2 0x310D JUMPI PUSH1 0x0 DUP1 REVERT JUMPDEST POP JUMP JUMPDEST PUSH1 0x0 DUP2 CALLDATALOAD SWAP1 POP PUSH2 0x311F DUP2 PUSH2 0x30F9 JUMP JUMPDEST SWAP3 SWAP2 POP POP JUMP JUMPDEST PUSH1 0x0 DUP2 SWAP1 POP SWAP2 SWAP1 POP JUMP JUMPDEST PUSH2 0x3138 DUP2 PUSH2 0x3125 JUMP JUMPDEST DUP2 EQ PUSH2 0x3143 JUMPI PUSH1 0x0 DUP1 REVERT JUMPDEST POP JUMP JUMPDEST PUSH1 0x0 DUP2 CALLDATALOAD SWAP1 POP PUSH2 0x3155 DUP2 PUSH2 0x312F JUMP JUMPDEST SWAP3 SWAP2 POP POP JUMP JUMPDEST PUSH1 0x0 DUP1 PUSH1 0x40 DUP4 DUP6 SUB SLT ISZERO PUSH2 0x3172 JUMPI PUSH2 0x3171 PUSH2 0x2F55 JUMP JUMPDEST JUMPDEST PUSH1 0x0 PUSH2 0x3180 DUP6 DUP3 DUP7 ADD PUSH2 0x3110 JUMP JUMPDEST SWAP3 POP POP PUSH1 0x20 PUSH2 0x3191 DUP6 DUP3 DUP7 ADD PUSH2 0x3146 JUMP JUMPDEST SWAP2 POP POP SWAP3 POP SWAP3 SWAP1 POP JUMP JUMPDEST PUSH2 0x31A4 DUP2 PUSH2 0x3125 JUMP JUMPDEST DUP3 MSTORE POP POP JUMP JUMPDEST PUSH1 0x0 PUSH1 0x20 DUP3 ADD SWAP1 POP PUSH2 0x31BF PUSH1 0x0 DUP4 ADD DUP5 PUSH2 0x319B JUMP JUMPDEST SWAP3 SWAP2 POP POP JUMP JUMPDEST PUSH1 0x0 DUP1 PUSH1 0x0 PUSH1 0x60 DUP5 DUP7 SUB SLT ISZERO PUSH2 0x31DE JUMPI PUSH2 0x31DD PUSH2 0x2F55 JUMP JUMPDEST JUMPDEST PUSH1 0x0 PUSH2 0x31EC DUP7 DUP3 DUP8 ADD PUSH2 0x3110 JUMP JUMPDEST SWAP4 POP POP PUSH1 0x20 PUSH2 0x31FD DUP7 DUP3 DUP8 ADD PUSH2 0x3110 JUMP JUMPDEST SWAP3 POP POP PUSH1 0x40 PUSH2 0x320E DUP7 DUP3 DUP8 ADD PUSH2 0x3146 JUMP JUMPDEST SWAP2 POP POP SWAP3 POP SWAP3 POP SWAP3 JUMP JUMPDEST PUSH1 0x0 DUP2 SWAP1 POP SWAP2 SWAP1 POP JUMP JUMPDEST PUSH2 0x322B DUP2 PUSH2 0x3218 JUMP JUMPDEST DUP2 EQ PUSH2 0x3236 JUMPI PUSH1 0x0 DUP1 REVERT JUMPDEST POP JUMP JUMPDEST PUSH1 0x0 DUP2 CALLDATALOAD SWAP1 POP PUSH2 0x3248 DUP2 PUSH2 0x3222 JUMP JUMPDEST SWAP3 SWAP2 POP POP JUMP JUMPDEST PUSH1 0x0 PUSH1 0x20 DUP3 DUP5 SUB SLT ISZERO PUSH2 0x3264 JUMPI PUSH2 0x3263 PUSH2 0x2F55 JUMP JUMPDEST JUMPDEST PUSH1 0x0 PUSH2 0x3272 DUP5 DUP3 DUP6 ADD PUSH2 0x3239 JUMP JUMPDEST SWAP2 POP POP SWAP3 SWAP2 POP POP JUMP JUMPDEST PUSH2 0x3284 DUP2 PUSH2 0x3218 JUMP JUMPDEST DUP3 MSTORE POP POP JUMP JUMPDEST PUSH1 0x0 PUSH1 0x20 DUP3 ADD SWAP1 POP PUSH2 0x329F PUSH1 0x0 DUP4 ADD DUP5 PUSH2 0x327B JUMP JUMPDEST SWAP3 SWAP2 POP POP JUMP JUMPDEST PUSH1 0x0 DUP1 PUSH1 0x40 DUP4 DUP6 SUB SLT ISZERO PUSH2 0x32BC JUMPI PUSH2 0x32BB PUSH2 0x2F55 JUMP JUMPDEST JUMPDEST PUSH1 0x0 PUSH2 0x32CA DUP6 DUP3 DUP7 ADD PUSH2 0x3239 JUMP JUMPDEST SWAP3 POP POP PUSH1 0x20 PUSH2 0x32DB DUP6 DUP3 DUP7 ADD PUSH2 0x3110 JUMP JUMPDEST SWAP2 POP POP SWAP3 POP SWAP3 SWAP1 POP JUMP JUMPDEST PUSH1 0x0 PUSH1 0xFF DUP3 AND SWAP1 POP SWAP2 SWAP1 POP JUMP JUMPDEST PUSH2 0x32FB DUP2 PUSH2 0x32E5 JUMP JUMPDEST DUP3 MSTORE POP POP JUMP JUMPDEST PUSH1 0x0 PUSH1 0x20 DUP3 ADD SWAP1 POP PUSH2 0x3316 PUSH1 0x0 DUP4 ADD DUP5 PUSH2 0x32F2 JUMP JUMPDEST SWAP3 SWAP2 POP POP JUMP JUMPDEST PUSH1 0x0 PUSH1 0x20 DUP3 DUP5 SUB SLT ISZERO PUSH2 0x3332 JUMPI PUSH2 0x3331 PUSH2 0x2F55 JUMP JUMPDEST JUMPDEST PUSH1 0x0 PUSH2 0x3340 DUP5 DUP3 DUP6 ADD PUSH2 0x3110 JUMP JUMPDEST SWAP2 POP POP SWAP3 SWAP2 POP POP JUMP JUMPDEST PUSH2 0x3352 DUP2 PUSH2 0x2FDF JUMP JUMPDEST DUP2 EQ PUSH2 0x335D JUMPI PUSH1 0x0 DUP1 REVERT JUMPDEST POP JUMP JUMPDEST PUSH1 0x0 DUP2 CALLDATALOAD SWAP1 POP PUSH2 0x336F DUP2 PUSH2 0x3349 JUMP JUMPDEST SWAP3 SWAP2 POP POP JUMP JUMPDEST PUSH1 0x0 PUSH1 0x20 DUP3 DUP5 SUB SLT ISZERO PUSH2 0x338B JUMPI PUSH2 0x338A PUSH2 0x2F55 JUMP JUMPDEST JUMPDEST PUSH1 0x0 PUSH2 0x3399 DUP5 DUP3 DUP6 ADD PUSH2 0x3360 JUMP JUMPDEST SWAP2 POP POP SWAP3 SWAP2 POP POP JUMP JUMPDEST PUSH1 0x0 PUSH1 0x20 DUP3 DUP5 SUB SLT ISZERO PUSH2 0x33B8 JUMPI PUSH2 0x33B7 PUSH2 0x2F55 JUMP JUMPDEST JUMPDEST PUSH1 0x0 PUSH2 0x33C6 DUP5 DUP3 DUP6 ADD PUSH2 0x3146 JUMP JUMPDEST SWAP2 POP POP SWAP3 SWAP2 POP POP JUMP JUMPDEST PUSH1 0x0 DUP1 PUSH1 0x40 DUP4 DUP6 SUB SLT ISZERO PUSH2 0x33E6 JUMPI PUSH2 0x33E5 PUSH2 0x2F55 JUMP JUMPDEST JUMPDEST PUSH1 0x0 PUSH2 0x33F4 DUP6 DUP3 DUP7 ADD PUSH2 0x3110 JUMP JUMPDEST SWAP3 POP POP PUSH1 0x20 PUSH2 0x3405 DUP6 DUP3 DUP7 ADD PUSH2 0x3360 JUMP JUMPDEST SWAP2 POP POP SWAP3 POP SWAP3 SWAP1 POP JUMP JUMPDEST PUSH2 0x3418 DUP2 PUSH2 0x30E7 JUMP JUMPDEST DUP3 MSTORE POP POP JUMP JUMPDEST PUSH1 0x0 PUSH1 0x20 DUP3 ADD SWAP1 POP PUSH2 0x3433 PUSH1 0x0 DUP4 ADD DUP5 PUSH2 0x340F JUMP JUMPDEST SWAP3 SWAP2 POP POP JUMP JUMPDEST PUSH1 0x0 DUP1 PUSH1 0x40 DUP4 DUP6 SUB SLT ISZERO PUSH2 0x3450 JUMPI PUSH2 0x344F PUSH2 0x2F55 JUMP JUMPDEST JUMPDEST PUSH1 0x0 PUSH2 0x345E DUP6 DUP3 DUP7 ADD PUSH2 0x3110 JUMP JUMPDEST SWAP3 POP POP PUSH1 0x20 PUSH2 0x346F DUP6 DUP3 DUP7 ADD PUSH2 0x3110 JUMP JUMPDEST SWAP2 POP POP SWAP3 POP SWAP3 SWAP1 POP JUMP JUMPDEST PUSH32 0x4E487B7100000000000000000000000000000000000000000000000000000000 PUSH1 0x0 MSTORE PUSH1 0x22 PUSH1 0x4 MSTORE PUSH1 0x24 PUSH1 0x0 REVERT JUMPDEST PUSH1 0x0 PUSH1 0x2 DUP3 DIV SWAP1 POP PUSH1 0x1 DUP3 AND DUP1 PUSH2 0x34C0 JUMPI PUSH1 0x7F DUP3 AND SWAP2 POP JUMPDEST PUSH1 0x20 DUP3 LT DUP2 SUB PUSH2 0x34D3 JUMPI PUSH2 0x34D2 PUSH2 0x3479 JUMP JUMPDEST JUMPDEST POP SWAP2 SWAP1 POP JUMP JUMPDEST PUSH32 0x416363657373436F6E74726F6C3A2063616E206F6E6C792072656E6F756E6365 PUSH1 0x0 DUP3 ADD MSTORE PUSH32 0x20726F6C657320666F722073656C660000000000000000000000000000000000 PUSH1 0x20 DUP3 ADD MSTORE POP JUMP JUMPDEST PUSH1 0x0 PUSH2 0x3535 PUSH1 0x2F DUP4 PUSH2 0x3020 JUMP JUMPDEST SWAP2 POP PUSH2 0x3540 DUP3 PUSH2 0x34D9 JUMP JUMPDEST PUSH1 0x40 DUP3 ADD SWAP1 POP SWAP2 SWAP1 POP JUMP JUMPDEST PUSH1 0x0 PUSH1 0x20 DUP3 ADD SWAP1 POP DUP2 DUP2 SUB PUSH1 0x0 DUP4 ADD MSTORE PUSH2 0x3564 DUP2 PUSH2 0x3528 JUMP JUMPDEST SWAP1 POP SWAP2 SWAP1 POP JUMP JUMPDEST PUSH32 0x4E487B7100000000000000000000000000000000000000000000000000000000 PUSH1 0x0 MSTORE PUSH1 0x11 PUSH1 0x4 MSTORE PUSH1 0x24 PUSH1 0x0 REVERT JUMPDEST PUSH1 0x0 PUSH2 0x35A5 DUP3 PUSH2 0x3125 JUMP JUMPDEST SWAP2 POP PUSH2 0x35B0 DUP4 PUSH2 0x3125 JUMP JUMPDEST SWAP3 POP DUP3 DUP3 ADD SWAP1 POP DUP1 DUP3 GT ISZERO PUSH2 0x35C8 JUMPI PUSH2 0x35C7 PUSH2 0x356B JUMP JUMPDEST JUMPDEST SWAP3 SWAP2 POP POP JUMP JUMPDEST PUSH1 0x0 PUSH2 0x35D9 DUP3 PUSH2 0x3125 JUMP JUMPDEST SWAP2 POP PUSH2 0x35E4 DUP4 PUSH2 0x3125 JUMP JUMPDEST SWAP3 POP DUP3 DUP3 SUB SWAP1 POP DUP2 DUP2 GT ISZERO PUSH2 0x35FC JUMPI PUSH2 0x35FB PUSH2 0x356B JUMP JUMPDEST JUMPDEST SWAP3 SWAP2 POP POP JUMP JUMPDEST PUSH32 0x45524332303A2064656372656173656420616C6C6F77616E63652062656C6F77 PUSH1 0x0 DUP3 ADD MSTORE PUSH32 0x207A65726F000000000000000000000000000000000000000000000000000000 PUSH1 0x20 DUP3 ADD MSTORE POP JUMP JUMPDEST PUSH1 0x0 PUSH2 0x365E PUSH1 0x25 DUP4 PUSH2 0x3020 JUMP JUMPDEST SWAP2 POP PUSH2 0x3669 DUP3 PUSH2 0x3602 JUMP JUMPDEST PUSH1 0x40 DUP3 ADD SWAP1 POP SWAP2 SWAP1 POP JUMP JUMPDEST PUSH1 0x0 PUSH1 0x20 DUP3 ADD SWAP1 POP DUP2 DUP2 SUB PUSH1 0x0 DUP4 ADD MSTORE PUSH2 0x368D DUP2 PUSH2 0x3651 JUMP JUMPDEST SWAP1 POP SWAP2 SWAP1 POP JUMP JUMPDEST PUSH32 0x45524332303A20617070726F76652066726F6D20746865207A65726F20616464 PUSH1 0x0 DUP3 ADD MSTORE PUSH32 0x7265737300000000000000000000000000000000000000000000000000000000 PUSH1 0x20 DUP3 ADD MSTORE POP JUMP JUMPDEST PUSH1 0x0 PUSH2 0x36F0 PUSH1 0x24 DUP4 PUSH2 0x3020 JUMP JUMPDEST SWAP2 POP PUSH2 0x36FB DUP3 PUSH2 0x3694 JUMP JUMPDEST PUSH1 0x40 DUP3 ADD SWAP1 POP SWAP2 SWAP1 POP JUMP JUMPDEST PUSH1 0x0 PUSH1 0x20 DUP3 ADD SWAP1 POP DUP2 DUP2 SUB PUSH1 0x0 DUP4 ADD MSTORE PUSH2 0x371F DUP2 PUSH2 0x36E3 JUMP JUMPDEST SWAP1 POP SWAP2 SWAP1 POP JUMP JUMPDEST PUSH32 0x45524332303A20617070726F766520746F20746865207A65726F206164647265 PUSH1 0x0 DUP3 ADD MSTORE PUSH32 0x7373000000000000000000000000000000000000000000000000000000000000 PUSH1 0x20 DUP3 ADD MSTORE POP JUMP JUMPDEST PUSH1 0x0 PUSH2 0x3782 PUSH1 0x22 DUP4 PUSH2 0x3020 JUMP JUMPDEST SWAP2 POP PUSH2 0x378D DUP3 PUSH2 0x3726 JUMP JUMPDEST PUSH1 0x40 DUP3 ADD SWAP1 POP SWAP2 SWAP1 POP JUMP JUMPDEST PUSH1 0x0 PUSH1 0x20 DUP3 ADD SWAP1 POP DUP2 DUP2 SUB PUSH1 0x0 DUP4 ADD MSTORE PUSH2 0x37B1 DUP2 PUSH2 0x3775 JUMP JUMPDEST SWAP1 POP SWAP2 SWAP1 POP JUMP JUMPDEST PUSH32 0x45524332303A20696E73756666696369656E7420616C6C6F77616E6365000000 PUSH1 0x0 DUP3 ADD MSTORE POP JUMP JUMPDEST PUSH1 0x0 PUSH2 0x37EE PUSH1 0x1D DUP4 PUSH2 0x3020 JUMP JUMPDEST SWAP2 POP PUSH2 0x37F9 DUP3 PUSH2 0x37B8 JUMP JUMPDEST PUSH1 0x20 DUP3 ADD SWAP1 POP SWAP2 SWAP1 POP JUMP JUMPDEST PUSH1 0x0 PUSH1 0x20 DUP3 ADD SWAP1 POP DUP2 DUP2 SUB PUSH1 0x0 DUP4 ADD MSTORE PUSH2 0x381D DUP2 PUSH2 0x37E1 JUMP JUMPDEST SWAP1 POP SWAP2 SWAP1 POP JUMP JUMPDEST PUSH1 0x0 PUSH2 0x382F DUP3 PUSH2 0x3125 JUMP JUMPDEST SWAP2 POP PUSH2 0x383A DUP4 PUSH2 0x3125 JUMP JUMPDEST SWAP3 POP DUP3 DUP3 MUL PUSH2 0x3848 DUP2 PUSH2 0x3125 JUMP JUMPDEST SWAP2 POP DUP3 DUP3 DIV DUP5 EQ DUP4 ISZERO OR PUSH2 0x385F JUMPI PUSH2 0x385E PUSH2 0x356B JUMP JUMPDEST JUMPDEST POP SWAP3 SWAP2 POP POP JUMP JUMPDEST PUSH32 0x4E487B7100000000000000000000000000000000000000000000000000000000 PUSH1 0x0 MSTORE PUSH1 0x12 PUSH1 0x4 MSTORE PUSH1 0x24 PUSH1 0x0 REVERT JUMPDEST PUSH1 0x0 PUSH2 0x38A0 DUP3 PUSH2 0x3125 JUMP JUMPDEST SWAP2 POP PUSH2 0x38AB DUP4 PUSH2 0x3125 JUMP JUMPDEST SWAP3 POP DUP3 PUSH2 0x38BB JUMPI PUSH2 0x38BA PUSH2 0x3866 JUMP JUMPDEST JUMPDEST DUP3 DUP3 DIV SWAP1 POP SWAP3 SWAP2 POP POP JUMP JUMPDEST PUSH32 0x416E74692D626F743A205761697420666F7220636F6F6C646F776E0000000000 PUSH1 0x0 DUP3 ADD MSTORE POP JUMP JUMPDEST PUSH1 0x0 PUSH2 0x38FC PUSH1 0x1B DUP4 PUSH2 0x3020 JUMP JUMPDEST SWAP2 POP PUSH2 0x3907 DUP3 PUSH2 0x38C6 JUMP JUMPDEST PUSH1 0x20 DUP3 ADD SWAP1 POP SWAP2 SWAP1 POP JUMP JUMPDEST PUSH1 0x0 PUSH1 0x20 DUP3 ADD SWAP1 POP DUP2 DUP2 SUB PUSH1 0x0 DUP4 ADD MSTORE PUSH2 0x392B DUP2 PUSH2 0x38EF JUMP JUMPDEST SWAP1 POP SWAP2 SWAP1 POP JUMP JUMPDEST PUSH1 0x0 DUP2 SWAP1 POP SWAP3 SWAP2 POP POP JUMP JUMPDEST PUSH32 0x416363657373436F6E74726F6C3A206163636F756E7420000000000000000000 PUSH1 0x0 DUP3 ADD MSTORE POP JUMP JUMPDEST PUSH1 0x0 PUSH2 0x3973 PUSH1 0x17 DUP4 PUSH2 0x3932 JUMP JUMPDEST SWAP2 POP PUSH2 0x397E DUP3 PUSH2 0x393D JUMP JUMPDEST PUSH1 0x17 DUP3 ADD SWAP1 POP SWAP2 SWAP1 POP JUMP JUMPDEST PUSH1 0x0 PUSH2 0x3994 DUP3 PUSH2 0x3015 JUMP JUMPDEST PUSH2 0x399E DUP2 DUP6 PUSH2 0x3932 JUMP JUMPDEST SWAP4 POP PUSH2 0x39AE DUP2 DUP6 PUSH1 0x20 DUP7 ADD PUSH2 0x3031 JUMP JUMPDEST DUP1 DUP5 ADD SWAP2 POP POP SWAP3 SWAP2 POP POP JUMP JUMPDEST PUSH32 0x206973206D697373696E6720726F6C6520000000000000000000000000000000 PUSH1 0x0 DUP3 ADD MSTORE POP JUMP JUMPDEST PUSH1 0x0 PUSH2 0x39F0 PUSH1 0x11 DUP4 PUSH2 0x3932 JUMP JUMPDEST SWAP2 POP PUSH2 0x39FB DUP3 PUSH2 0x39BA JUMP JUMPDEST PUSH1 0x11 DUP3 ADD SWAP1 POP SWAP2 SWAP1 POP JUMP JUMPDEST PUSH1 0x0 PUSH2 0x3A11 DUP3 PUSH2 0x3966 JUMP JUMPDEST SWAP2 POP PUSH2 0x3A1D DUP3 DUP6 PUSH2 0x3989 JUMP JUMPDEST SWAP2 POP PUSH2 0x3A28 DUP3 PUSH2 0x39E3 JUMP JUMPDEST SWAP2 POP PUSH2 0x3A34 DUP3 DUP5 PUSH2 0x3989 JUMP JUMPDEST SWAP2 POP DUP2 SWAP1 POP SWAP4 SWAP3 POP POP POP JUMP JUMPDEST PUSH32 0x45524332303A206275726E2066726F6D20746865207A65726F20616464726573 PUSH1 0x0 DUP3 ADD MSTORE PUSH32 0x7300000000000000000000000000000000000000000000000000000000000000 PUSH1 0x20 DUP3 ADD MSTORE POP JUMP JUMPDEST PUSH1 0x0 PUSH2 0x3A9C PUSH1 0x21 DUP4 PUSH2 0x3020 JUMP JUMPDEST SWAP2 POP PUSH2 0x3AA7 DUP3 PUSH2 0x3A40 JUMP JUMPDEST PUSH1 0x40 DUP3 ADD SWAP1 POP SWAP2 SWAP1 POP JUMP JUMPDEST PUSH1 0x0 PUSH1 0x20 DUP3 ADD SWAP1 POP DUP2 DUP2 SUB PUSH1 0x0 DUP4 ADD MSTORE PUSH2 0x3ACB DUP2 PUSH2 0x3A8F JUMP JUMPDEST SWAP1 POP SWAP2 SWAP1 POP JUMP JUMPDEST PUSH32 0x45524332303A206275726E20616D6F756E7420657863656564732062616C616E PUSH1 0x0 DUP3 ADD MSTORE PUSH32 0x6365000000000000000000000000000000000000000000000000000000000000 PUSH1 0x20 DUP3 ADD MSTORE POP JUMP JUMPDEST PUSH1 0x0 PUSH2 0x3B2E PUSH1 0x22 DUP4 PUSH2 0x3020 JUMP JUMPDEST SWAP2 POP PUSH2 0x3B39 DUP3 PUSH2 0x3AD2 JUMP JUMPDEST PUSH1 0x40 DUP3 ADD SWAP1 POP SWAP2 SWAP1 POP JUMP JUMPDEST PUSH1 0x0 PUSH1 0x20 DUP3 ADD SWAP1 POP DUP2 DUP2 SUB PUSH1 0x0 DUP4 ADD MSTORE PUSH2 0x3B5D DUP2 PUSH2 0x3B21 JUMP JUMPDEST SWAP1 POP SWAP2 SWAP1 POP JUMP JUMPDEST PUSH32 0x54617861626C653A2074617820697320746F6F20686967680000000000000000 PUSH1 0x0 DUP3 ADD MSTORE POP JUMP JUMPDEST PUSH1 0x0 PUSH2 0x3B9A PUSH1 0x18 DUP4 PUSH2 0x3020 JUMP JUMPDEST SWAP2 POP PUSH2 0x3BA5 DUP3 PUSH2 0x3B64 JUMP JUMPDEST PUSH1 0x20 DUP3 ADD SWAP1 POP SWAP2 SWAP1 POP JUMP JUMPDEST PUSH1 0x0 PUSH1 0x20 DUP3 ADD SWAP1 POP DUP2 DUP2 SUB PUSH1 0x0 DUP4 ADD MSTORE PUSH2 0x3BC9 DUP2 PUSH2 0x3B8D JUMP JUMPDEST SWAP1 POP SWAP2 SWAP1 POP JUMP JUMPDEST PUSH32 0x54617861626C653A2074617820697320746F6F206C6F77000000000000000000 PUSH1 0x0 DUP3 ADD MSTORE POP JUMP JUMPDEST PUSH1 0x0 PUSH2 0x3C06 PUSH1 0x17 DUP4 PUSH2 0x3020 JUMP JUMPDEST SWAP2 POP PUSH2 0x3C11 DUP3 PUSH2 0x3BD0 JUMP JUMPDEST PUSH1 0x20 DUP3 ADD SWAP1 POP SWAP2 SWAP1 POP JUMP JUMPDEST PUSH1 0x0 PUSH1 0x20 DUP3 ADD SWAP1 POP DUP2 DUP2 SUB PUSH1 0x0 DUP4 ADD MSTORE PUSH2 0x3C35 DUP2 PUSH2 0x3BF9 JUMP JUMPDEST SWAP1 POP SWAP2 SWAP1 POP JUMP JUMPDEST PUSH32 0x45524332303A207472616E736665722066726F6D20746865207A65726F206164 PUSH1 0x0 DUP3 ADD MSTORE PUSH32 0x6472657373000000000000000000000000000000000000000000000000000000 PUSH1 0x20 DUP3 ADD MSTORE POP JUMP JUMPDEST PUSH1 0x0 PUSH2 0x3C98 PUSH1 0x25 DUP4 PUSH2 0x3020 JUMP JUMPDEST SWAP2 POP PUSH2 0x3CA3 DUP3 PUSH2 0x3C3C JUMP JUMPDEST PUSH1 0x40 DUP3 ADD SWAP1 POP SWAP2 SWAP1 POP JUMP JUMPDEST PUSH1 0x0 PUSH1 0x20 DUP3 ADD SWAP1 POP DUP2 DUP2 SUB PUSH1 0x0 DUP4 ADD MSTORE PUSH2 0x3CC7 DUP2 PUSH2 0x3C8B JUMP JUMPDEST SWAP1 POP SWAP2 SWAP1 POP JUMP JUMPDEST PUSH32 0x45524332303A207472616E7366657220746F20746865207A65726F2061646472 PUSH1 0x0 DUP3 ADD MSTORE PUSH32 0x6573730000000000000000000000000000000000000000000000000000000000 PUSH1 0x20 DUP3 ADD MSTORE POP JUMP JUMPDEST PUSH1 0x0 PUSH2 0x3D2A PUSH1 0x23 DUP4 PUSH2 0x3020 JUMP JUMPDEST SWAP2 POP PUSH2 0x3D35 DUP3 PUSH2 0x3CCE JUMP JUMPDEST PUSH1 0x40 DUP3 ADD SWAP1 POP SWAP2 SWAP1 POP JUMP JUMPDEST PUSH1 0x0 PUSH1 0x20 DUP3 ADD SWAP1 POP DUP2 DUP2 SUB PUSH1 0x0 DUP4 ADD MSTORE PUSH2 0x3D59 DUP2 PUSH2 0x3D1D JUMP JUMPDEST SWAP1 POP SWAP2 SWAP1 POP JUMP JUMPDEST PUSH32 0x45524332303A207472616E7366657220616D6F756E7420657863656564732062 PUSH1 0x0 DUP3 ADD MSTORE PUSH32 0x616C616E63650000000000000000000000000000000000000000000000000000 PUSH1 0x20 DUP3 ADD MSTORE POP JUMP JUMPDEST PUSH1 0x0 PUSH2 0x3DBC PUSH1 0x26 DUP4 PUSH2 0x3020 JUMP JUMPDEST SWAP2 POP PUSH2 0x3DC7 DUP3 PUSH2 0x3D60 JUMP JUMPDEST PUSH1 0x40 DUP3 ADD SWAP1 POP SWAP2 SWAP1 POP JUMP JUMPDEST PUSH1 0x0 PUSH1 0x20 DUP3 ADD SWAP1 POP DUP2 DUP2 SUB PUSH1 0x0 DUP4 ADD MSTORE PUSH2 0x3DEB DUP2 PUSH2 0x3DAF JUMP JUMPDEST SWAP1 POP SWAP2 SWAP1 POP JUMP JUMPDEST PUSH32 0x4E487B7100000000000000000000000000000000000000000000000000000000 PUSH1 0x0 MSTORE PUSH1 0x41 PUSH1 0x4 MSTORE PUSH1 0x24 PUSH1 0x0 REVERT JUMPDEST PUSH32 0x4E487B7100000000000000000000000000000000000000000000000000000000 PUSH1 0x0 MSTORE PUSH1 0x32 PUSH1 0x4 MSTORE PUSH1 0x24 PUSH1 0x0 REVERT JUMPDEST PUSH1 0x0 PUSH2 0x3E5B DUP3 PUSH2 0x3125 JUMP JUMPDEST SWAP2 POP PUSH1 0x0 DUP3 SUB PUSH2 0x3E6E JUMPI PUSH2 0x3E6D PUSH2 0x356B JUMP JUMPDEST JUMPDEST PUSH1 0x1 DUP3 SUB SWAP1 POP SWAP2 SWAP1 POP JUMP JUMPDEST PUSH32 0x537472696E67733A20686578206C656E67746820696E73756666696369656E74 PUSH1 0x0 DUP3 ADD MSTORE POP JUMP JUMPDEST PUSH1 0x0 PUSH2 0x3EAF PUSH1 0x20 DUP4 PUSH2 0x3020 JUMP JUMPDEST SWAP2 POP PUSH2 0x3EBA DUP3 PUSH2 0x3E79 JUMP JUMPDEST PUSH1 0x20 DUP3 ADD SWAP1 POP SWAP2 SWAP1 POP JUMP JUMPDEST PUSH1 0x0 PUSH1 0x20 DUP3 ADD SWAP1 POP DUP2 DUP2 SUB PUSH1 0x0 DUP4 ADD MSTORE PUSH2 0x3EDE DUP2 PUSH2 0x3EA2 JUMP JUMPDEST SWAP1 POP SWAP2 SWAP1 POP JUMP JUMPDEST PUSH32 0x54617861626C653A206E6F742074617865640000000000000000000000000000 PUSH1 0x0 DUP3 ADD MSTORE POP JUMP JUMPDEST PUSH1 0x0 PUSH2 0x3F1B PUSH1 0x12 DUP4 PUSH2 0x3020 JUMP JUMPDEST SWAP2 POP PUSH2 0x3F26 DUP3 PUSH2 0x3EE5 JUMP JUMPDEST PUSH1 0x20 DUP3 ADD SWAP1 POP SWAP2 SWAP1 POP JUMP JUMPDEST PUSH1 0x0 PUSH1 0x20 DUP3 ADD SWAP1 POP DUP2 DUP2 SUB PUSH1 0x0 DUP4 ADD MSTORE PUSH2 0x3F4A DUP2 PUSH2 0x3F0E JUMP JUMPDEST SWAP1 POP SWAP2 SWAP1 POP JUMP JUMPDEST PUSH32 0x54617861626C653A207461786564000000000000000000000000000000000000 PUSH1 0x0 DUP3 ADD MSTORE POP JUMP JUMPDEST PUSH1 0x0 PUSH2 0x3F87 PUSH1 0xE DUP4 PUSH2 0x3020 JUMP JUMPDEST SWAP2 POP PUSH2 0x3F92 DUP3 PUSH2 0x3F51 JUMP JUMPDEST PUSH1 0x20 DUP3 ADD SWAP1 POP SWAP2 SWAP1 POP JUMP JUMPDEST PUSH1 0x0 PUSH1 0x20 DUP3 ADD SWAP1 POP DUP2 DUP2 SUB PUSH1 0x0 DUP4 ADD MSTORE PUSH2 0x3FB6 DUP2 PUSH2 0x3F7A JUMP JUMPDEST SWAP1 POP SWAP2 SWAP1 POP JUMP INVALID LOG2 PUSH5 0x6970667358 0x22 SLT KECCAK256 PC DUP2 0xFC PUSH2 0x356A 0x21 RETURNDATACOPY 0x5D SLOAD BLOCKHASH DUP14 ADDMOD SIGNEXTEND 0x22 0xF SAR 0xCF 0xB0 PUSH4 0x9B3B59B3 0x5C DIV MSIZE GT 0xB9 POP SLOAD CALLDATASIZE PUSH5 0x736F6C6343 STOP ADDMOD SGT STOP CALLER "
		},
		"gasEstimates": {
			"creation": {
				"codeDepositCost": "3274200",
				"executionCost": "infinite",
				"totalCost": "infinite"
			},
			"external": {
				"": "287",
				"DEFAULT_ADMIN_ROLE()": "424",
				"EXCLUDED_ROLE()": "374",
				"GOVERNOR_ROLE()": "462",
				"allowance(address,address)": "infinite",
				"approve(address,uint256)": "infinite",
				"balanceOf(address)": "2952",
				"blacklist(address)": "2977",
				"botProtectionEnabled()": "2626",
				"burn(uint256)": "infinite",
				"burnFrom(address,uint256)": "infinite",
				"decimals()": "455",
				"decreaseAllowance(address,uint256)": "infinite",
				"deploymentTimestamp()": "2518",
				"enableTrading()": "infinite",
				"getRoleAdmin(bytes32)": "infinite",
				"grantRole(bytes32,address)": "infinite",
				"hasRole(bytes32,address)": "3274",
				"increaseAllowance(address,uint256)": "infinite",
				"initialLiquidityProvided()": "2539",
				"lastExecutionGas()": "2585",
				"lastTradeTimestamp(address)": "2902",
				"maxPercentageHolding()": "2474",
				"maxPercentageHoldingEnabled()": "2631",
				"maxTransferPercentage()": "2583",
				"maxTransferPercentageEnabled()": "2560",
				"name()": "infinite",
				"renounceRole(bytes32,address)": "infinite",
				"revokeRole(bytes32,address)": "infinite",
				"supportsInterface(bytes4)": "774",
				"symbol()": "infinite",
				"taxdestination()": "2590",
				"taxed()": "2546",
				"thetax()": "2505",
				"toggleBotProtection(bool)": "infinite",
				"toggleMaxPercentageHolding(bool)": "infinite",
				"toggleMaxTransferEnabled(bool)": "infinite",
				"toggleTax(bool)": "infinite",
				"totalSupply()": "2550",
				"tradingEnabled()": "2605",
				"transfer(address,uint256)": "infinite",
				"transferFrom(address,address,uint256)": "infinite",
				"uniPairs(address)": "2978",
				"updateBlacklist(address,bool)": "infinite",
				"updateInitiaLiquidityProvided()": "infinite",
				"updateLPPair(address,bool)": "infinite",
				"updateTax(uint256)": "infinite",
				"updateTaxDestination(address)": "infinite"
			},
			"internal": {
				"_transfer(address,address,uint256)": "infinite"
			}
		},
		"methodIdentifiers": {
			"DEFAULT_ADMIN_ROLE()": "a217fddf",
			"EXCLUDED_ROLE()": "5a99a7e9",
			"GOVERNOR_ROLE()": "ccc57490",
			"allowance(address,address)": "dd62ed3e",
			"approve(address,uint256)": "095ea7b3",
			"balanceOf(address)": "70a08231",
			"blacklist(address)": "f9f92be4",
			"botProtectionEnabled()": "748eb3a5",
			"burn(uint256)": "42966c68",
			"burnFrom(address,uint256)": "79cc6790",
			"decimals()": "313ce567",
			"decreaseAllowance(address,uint256)": "a457c2d7",
			"deploymentTimestamp()": "bfc12c05",
			"enableTrading()": "8a8c523c",
			"getRoleAdmin(bytes32)": "248a9ca3",
			"grantRole(bytes32,address)": "2f2ff15d",
			"hasRole(bytes32,address)": "91d14854",
			"increaseAllowance(address,uint256)": "39509351",
			"initialLiquidityProvided()": "262c7ea5",
			"lastExecutionGas()": "9534b129",
			"lastTradeTimestamp(address)": "e26ffe08",
			"maxPercentageHolding()": "b4dcb2e3",
			"maxPercentageHoldingEnabled()": "e7fccee0",
			"maxTransferPercentage()": "ff3cf3f0",
			"maxTransferPercentageEnabled()": "61812744",
			"name()": "06fdde03",
			"renounceRole(bytes32,address)": "36568abe",
			"revokeRole(bytes32,address)": "d547741f",
			"supportsInterface(bytes4)": "01ffc9a7",
			"symbol()": "95d89b41",
			"taxdestination()": "8a2b66d1",
			"taxed()": "9e01392f",
			"thetax()": "3b9b0314",
			"toggleBotProtection(bool)": "bdf4f831",
			"toggleMaxPercentageHolding(bool)": "b45639d0",
			"toggleMaxTransferEnabled(bool)": "dda3d27a",
			"toggleTax(bool)": "3cfd5211",
			"totalSupply()": "18160ddd",
			"tradingEnabled()": "4ada218b",
			"transfer(address,uint256)": "a9059cbb",
			"transferFrom(address,address,uint256)": "23b872dd",
			"uniPairs(address)": "72ad20b9",
			"updateBlacklist(address,bool)": "9155e083",
			"updateInitiaLiquidityProvided()": "5360f3cc",
			"updateLPPair(address,bool)": "5ac05626",
			"updateTax(uint256)": "cca0feb6",
			"updateTaxDestination(address)": "32c94021"
		}
	},
	"abi": [
		{
			"inputs": [
				{
					"internalType": "uint256",
					"name": "initialSupply",
					"type": "uint256"
				}
			],
			"stateMutability": "nonpayable",
			"type": "constructor"
		},
		{
			"inputs": [],
			"name": "BlacklistTimeExpired",
			"type": "error"
		},
		{
			"inputs": [],
			"name": "Blacklisted",
			"type": "error"
		},
		{
			"inputs": [],
			"name": "NoEther",
			"type": "error"
		},
		{
			"inputs": [],
			"name": "NotEnoughTokenBalance",
			"type": "error"
		},
		{
			"inputs": [],
			"name": "SameValue",
			"type": "error"
		},
		{
			"inputs": [],
			"name": "TransferExceedsHolding",
			"type": "error"
		},
		{
			"inputs": [],
			"name": "TransferExceedsTransferP",
			"type": "error"
		},
		{
			"inputs": [],
			"name": "TransferNotAllowed",
			"type": "error"
		},
		{
			"anonymous": false,
			"inputs": [
				{
					"indexed": true,
					"internalType": "address",
					"name": "owner",
					"type": "address"
				},
				{
					"indexed": true,
					"internalType": "address",
					"name": "spender",
					"type": "address"
				},
				{
					"indexed": false,
					"internalType": "uint256",
					"name": "value",
					"type": "uint256"
				}
			],
			"name": "Approval",
			"type": "event"
		},
		{
			"anonymous": false,
			"inputs": [
				{
					"indexed": true,
					"internalType": "address",
					"name": "_address",
					"type": "address"
				},
				{
					"indexed": true,
					"internalType": "bool",
					"name": "_state",
					"type": "bool"
				}
			],
			"name": "BlacklistUpdated",
			"type": "event"
		},
		{
			"anonymous": false,
			"inputs": [],
			"name": "BotProtectionEnabled",
			"type": "event"
		},
		{
			"anonymous": false,
			"inputs": [],
			"name": "InitialLiquidityProvided",
			"type": "event"
		},
		{
			"anonymous": false,
			"inputs": [],
			"name": "MaxPercentageHoldingToggle",
			"type": "event"
		},
		{
			"anonymous": false,
			"inputs": [],
			"name": "MaxPercentageTransferToggle",
			"type": "event"
		},
		{
			"anonymous": false,
			"inputs": [
				{
					"indexed": true,
					"internalType": "bytes32",
					"name": "role",
					"type": "bytes32"
				},
				{
					"indexed": true,
					"internalType": "bytes32",
					"name": "previousAdminRole",
					"type": "bytes32"
				},
				{
					"indexed": true,
					"internalType": "bytes32",
					"name": "newAdminRole",
					"type": "bytes32"
				}
			],
			"name": "RoleAdminChanged",
			"type": "event"
		},
		{
			"anonymous": false,
			"inputs": [
				{
					"indexed": true,
					"internalType": "bytes32",
					"name": "role",
					"type": "bytes32"
				},
				{
					"indexed": true,
					"internalType": "address",
					"name": "account",
					"type": "address"
				},
				{
					"indexed": true,
					"internalType": "address",
					"name": "sender",
					"type": "address"
				}
			],
			"name": "RoleGranted",
			"type": "event"
		},
		{
			"anonymous": false,
			"inputs": [
				{
					"indexed": true,
					"internalType": "bytes32",
					"name": "role",
					"type": "bytes32"
				},
				{
					"indexed": true,
					"internalType": "address",
					"name": "account",
					"type": "address"
				},
				{
					"indexed": true,
					"internalType": "address",
					"name": "sender",
					"type": "address"
				}
			],
			"name": "RoleRevoked",
			"type": "event"
		},
		{
			"anonymous": false,
			"inputs": [
				{
					"indexed": false,
					"internalType": "address",
					"name": "account",
					"type": "address"
				}
			],
			"name": "TaxChanged",
			"type": "event"
		},
		{
			"anonymous": false,
			"inputs": [
				{
					"indexed": false,
					"internalType": "address",
					"name": "account",
					"type": "address"
				}
			],
			"name": "TaxDestinationChanged",
			"type": "event"
		},
		{
			"anonymous": false,
			"inputs": [],
			"name": "TaxDestinationUpdated",
			"type": "event"
		},
		{
			"anonymous": false,
			"inputs": [
				{
					"indexed": false,
					"internalType": "address",
					"name": "account",
					"type": "address"
				}
			],
			"name": "TaxOff",
			"type": "event"
		},
		{
			"anonymous": false,
			"inputs": [
				{
					"indexed": false,
					"internalType": "address",
					"name": "account",
					"type": "address"
				}
			],
			"name": "TaxOn",
			"type": "event"
		},
		{
			"anonymous": false,
			"inputs": [
				{
					"indexed": true,
					"internalType": "uint256",
					"name": "newtax",
					"type": "uint256"
				}
			],
			"name": "TaxPercentageUpdated",
			"type": "event"
		},
		{
			"anonymous": false,
			"inputs": [
				{
					"indexed": true,
					"internalType": "bool",
					"name": "state",
					"type": "bool"
				}
			],
			"name": "TaxStateUpdated",
			"type": "event"
		},
		{
			"anonymous": false,
			"inputs": [
				{
					"indexed": true,
					"internalType": "address",
					"name": "trader",
					"type": "address"
				},
				{
					"indexed": false,
					"internalType": "uint256",
					"name": "timestamp",
					"type": "uint256"
				}
			],
			"name": "TradeTimestampUpdated",
			"type": "event"
		},
		{
			"anonymous": false,
			"inputs": [],
			"name": "TradingEnabled",
			"type": "event"
		},
		{
			"anonymous": false,
			"inputs": [
				{
					"indexed": true,
					"internalType": "address",
					"name": "from",
					"type": "address"
				},
				{
					"indexed": true,
					"internalType": "address",
					"name": "to",
					"type": "address"
				},
				{
					"indexed": false,
					"internalType": "uint256",
					"name": "value",
					"type": "uint256"
				}
			],
			"name": "Transfer",
			"type": "event"
		},
		{
			"stateMutability": "payable",
			"type": "fallback"
		},
		{
			"inputs": [],
			"name": "DEFAULT_ADMIN_ROLE",
			"outputs": [
				{
					"internalType": "bytes32",
					"name": "",
					"type": "bytes32"
				}
			],
			"stateMutability": "view",
			"type": "function"
		},
		{
			"inputs": [],
			"name": "EXCLUDED_ROLE",
			"outputs": [
				{
					"internalType": "bytes32",
					"name": "",
					"type": "bytes32"
				}
			],
			"stateMutability": "view",
			"type": "function"
		},
		{
			"inputs": [],
			"name": "GOVERNOR_ROLE",
			"outputs": [
				{
					"internalType": "bytes32",
					"name": "",
					"type": "bytes32"
				}
			],
			"stateMutability": "view",
			"type": "function"
		},
		{
			"inputs": [
				{
					"internalType": "address",
					"name": "owner",
					"type": "address"
				},
				{
					"internalType": "address",
					"name": "spender",
					"type": "address"
				}
			],
			"name": "allowance",
			"outputs": [
				{
					"internalType": "uint256",
					"name": "",
					"type": "uint256"
				}
			],
			"stateMutability": "view",
			"type": "function"
		},
		{
			"inputs": [
				{
					"internalType": "address",
					"name": "spender",
					"type": "address"
				},
				{
					"internalType": "uint256",
					"name": "amount",
					"type": "uint256"
				}
			],
			"name": "approve",
			"outputs": [
				{
					"internalType": "bool",
					"name": "",
					"type": "bool"
				}
			],
			"stateMutability": "nonpayable",
			"type": "function"
		},
		{
			"inputs": [
				{
					"internalType": "address",
					"name": "account",
					"type": "address"
				}
			],
			"name": "balanceOf",
			"outputs": [
				{
					"internalType": "uint256",
					"name": "",
					"type": "uint256"
				}
			],
			"stateMutability": "view",
			"type": "function"
		},
		{
			"inputs": [
				{
					"internalType": "address",
					"name": "",
					"type": "address"
				}
			],
			"name": "blacklist",
			"outputs": [
				{
					"internalType": "bool",
					"name": "",
					"type": "bool"
				}
			],
			"stateMutability": "view",
			"type": "function"
		},
		{
			"inputs": [],
			"name": "botProtectionEnabled",
			"outputs": [
				{
					"internalType": "bool",
					"name": "",
					"type": "bool"
				}
			],
			"stateMutability": "view",
			"type": "function"
		},
		{
			"inputs": [
				{
					"internalType": "uint256",
					"name": "amount",
					"type": "uint256"
				}
			],
			"name": "burn",
			"outputs": [],
			"stateMutability": "nonpayable",
			"type": "function"
		},
		{
			"inputs": [
				{
					"internalType": "address",
					"name": "account",
					"type": "address"
				},
				{
					"internalType": "uint256",
					"name": "amount",
					"type": "uint256"
				}
			],
			"name": "burnFrom",
			"outputs": [],
			"stateMutability": "nonpayable",
			"type": "function"
		},
		{
			"inputs": [],
			"name": "decimals",
			"outputs": [
				{
					"internalType": "uint8",
					"name": "",
					"type": "uint8"
				}
			],
			"stateMutability": "view",
			"type": "function"
		},
		{
			"inputs": [
				{
					"internalType": "address",
					"name": "spender",
					"type": "address"
				},
				{
					"internalType": "uint256",
					"name": "subtractedValue",
					"type": "uint256"
				}
			],
			"name": "decreaseAllowance",
			"outputs": [
				{
					"internalType": "bool",
					"name": "",
					"type": "bool"
				}
			],
			"stateMutability": "nonpayable",
			"type": "function"
		},
		{
			"inputs": [],
			"name": "deploymentTimestamp",
			"outputs": [
				{
					"internalType": "uint256",
					"name": "",
					"type": "uint256"
				}
			],
			"stateMutability": "view",
			"type": "function"
		},
		{
			"inputs": [],
			"name": "enableTrading",
			"outputs": [],
			"stateMutability": "nonpayable",
			"type": "function"
		},
		{
			"inputs": [
				{
					"internalType": "bytes32",
					"name": "role",
					"type": "bytes32"
				}
			],
			"name": "getRoleAdmin",
			"outputs": [
				{
					"internalType": "bytes32",
					"name": "",
					"type": "bytes32"
				}
			],
			"stateMutability": "view",
			"type": "function"
		},
		{
			"inputs": [
				{
					"internalType": "bytes32",
					"name": "role",
					"type": "bytes32"
				},
				{
					"internalType": "address",
					"name": "account",
					"type": "address"
				}
			],
			"name": "grantRole",
			"outputs": [],
			"stateMutability": "nonpayable",
			"type": "function"
		},
		{
			"inputs": [
				{
					"internalType": "bytes32",
					"name": "role",
					"type": "bytes32"
				},
				{
					"internalType": "address",
					"name": "account",
					"type": "address"
				}
			],
			"name": "hasRole",
			"outputs": [
				{
					"internalType": "bool",
					"name": "",
					"type": "bool"
				}
			],
			"stateMutability": "view",
			"type": "function"
		},
		{
			"inputs": [
				{
					"internalType": "address",
					"name": "spender",
					"type": "address"
				},
				{
					"internalType": "uint256",
					"name": "addedValue",
					"type": "uint256"
				}
			],
			"name": "increaseAllowance",
			"outputs": [
				{
					"internalType": "bool",
					"name": "",
					"type": "bool"
				}
			],
			"stateMutability": "nonpayable",
			"type": "function"
		},
		{
			"inputs": [],
			"name": "initialLiquidityProvided",
			"outputs": [
				{
					"internalType": "bool",
					"name": "",
					"type": "bool"
				}
			],
			"stateMutability": "view",
			"type": "function"
		},
		{
			"inputs": [],
			"name": "lastExecutionGas",
			"outputs": [
				{
					"internalType": "uint256",
					"name": "",
					"type": "uint256"
				}
			],
			"stateMutability": "view",
			"type": "function"
		},
		{
			"inputs": [
				{
					"internalType": "address",
					"name": "",
					"type": "address"
				}
			],
			"name": "lastTradeTimestamp",
			"outputs": [
				{
					"internalType": "uint256",
					"name": "",
					"type": "uint256"
				}
			],
			"stateMutability": "view",
			"type": "function"
		},
		{
			"inputs": [],
			"name": "maxPercentageHolding",
			"outputs": [
				{
					"internalType": "uint256",
					"name": "",
					"type": "uint256"
				}
			],
			"stateMutability": "view",
			"type": "function"
		},
		{
			"inputs": [],
			"name": "maxPercentageHoldingEnabled",
			"outputs": [
				{
					"internalType": "bool",
					"name": "",
					"type": "bool"
				}
			],
			"stateMutability": "view",
			"type": "function"
		},
		{
			"inputs": [],
			"name": "maxTransferPercentage",
			"outputs": [
				{
					"internalType": "uint256",
					"name": "",
					"type": "uint256"
				}
			],
			"stateMutability": "view",
			"type": "function"
		},
		{
			"inputs": [],
			"name": "maxTransferPercentageEnabled",
			"outputs": [
				{
					"internalType": "bool",
					"name": "",
					"type": "bool"
				}
			],
			"stateMutability": "view",
			"type": "function"
		},
		{
			"inputs": [],
			"name": "name",
			"outputs": [
				{
					"internalType": "string",
					"name": "",
					"type": "string"
				}
			],
			"stateMutability": "view",
			"type": "function"
		},
		{
			"inputs": [
				{
					"internalType": "bytes32",
					"name": "role",
					"type": "bytes32"
				},
				{
					"internalType": "address",
					"name": "account",
					"type": "address"
				}
			],
			"name": "renounceRole",
			"outputs": [],
			"stateMutability": "nonpayable",
			"type": "function"
		},
		{
			"inputs": [
				{
					"internalType": "bytes32",
					"name": "role",
					"type": "bytes32"
				},
				{
					"internalType": "address",
					"name": "account",
					"type": "address"
				}
			],
			"name": "revokeRole",
			"outputs": [],
			"stateMutability": "nonpayable",
			"type": "function"
		},
		{
			"inputs": [
				{
					"internalType": "bytes4",
					"name": "interfaceId",
					"type": "bytes4"
				}
			],
			"name": "supportsInterface",
			"outputs": [
				{
					"internalType": "bool",
					"name": "",
					"type": "bool"
				}
			],
			"stateMutability": "view",
			"type": "function"
		},
		{
			"inputs": [],
			"name": "symbol",
			"outputs": [
				{
					"internalType": "string",
					"name": "",
					"type": "string"
				}
			],
			"stateMutability": "view",
			"type": "function"
		},
		{
			"inputs": [],
			"name": "taxdestination",
			"outputs": [
				{
					"internalType": "address",
					"name": "",
					"type": "address"
				}
			],
			"stateMutability": "view",
			"type": "function"
		},
		{
			"inputs": [],
			"name": "taxed",
			"outputs": [
				{
					"internalType": "bool",
					"name": "",
					"type": "bool"
				}
			],
			"stateMutability": "view",
			"type": "function"
		},
		{
			"inputs": [],
			"name": "thetax",
			"outputs": [
				{
					"internalType": "uint256",
					"name": "",
					"type": "uint256"
				}
			],
			"stateMutability": "view",
			"type": "function"
		},
		{
			"inputs": [
				{
					"internalType": "bool",
					"name": "_state",
					"type": "bool"
				}
			],
			"name": "toggleBotProtection",
			"outputs": [],
			"stateMutability": "nonpayable",
			"type": "function"
		},
		{
			"inputs": [
				{
					"internalType": "bool",
					"name": "_state",
					"type": "bool"
				}
			],
			"name": "toggleMaxPercentageHolding",
			"outputs": [],
			"stateMutability": "nonpayable",
			"type": "function"
		},
		{
			"inputs": [
				{
					"internalType": "bool",
					"name": "_state",
					"type": "bool"
				}
			],
			"name": "toggleMaxTransferEnabled",
			"outputs": [],
			"stateMutability": "nonpayable",
			"type": "function"
		},
		{
			"inputs": [
				{
					"internalType": "bool",
					"name": "_state",
					"type": "bool"
				}
			],
			"name": "toggleTax",
			"outputs": [],
			"stateMutability": "nonpayable",
			"type": "function"
		},
		{
			"inputs": [],
			"name": "totalSupply",
			"outputs": [
				{
					"internalType": "uint256",
					"name": "",
					"type": "uint256"
				}
			],
			"stateMutability": "view",
			"type": "function"
		},
		{
			"inputs": [],
			"name": "tradingEnabled",
			"outputs": [
				{
					"internalType": "bool",
					"name": "",
					"type": "bool"
				}
			],
			"stateMutability": "view",
			"type": "function"
		},
		{
			"inputs": [
				{
					"internalType": "address",
					"name": "to",
					"type": "address"
				},
				{
					"internalType": "uint256",
					"name": "amount",
					"type": "uint256"
				}
			],
			"name": "transfer",
			"outputs": [
				{
					"internalType": "bool",
					"name": "",
					"type": "bool"
				}
			],
			"stateMutability": "nonpayable",
			"type": "function"
		},
		{
			"inputs": [
				{
					"internalType": "address",
					"name": "from",
					"type": "address"
				},
				{
					"internalType": "address",
					"name": "to",
					"type": "address"
				},
				{
					"internalType": "uint256",
					"name": "amount",
					"type": "uint256"
				}
			],
			"name": "transferFrom",
			"outputs": [
				{
					"internalType": "bool",
					"name": "",
					"type": "bool"
				}
			],
			"stateMutability": "nonpayable",
			"type": "function"
		},
		{
			"inputs": [
				{
					"internalType": "address",
					"name": "",
					"type": "address"
				}
			],
			"name": "uniPairs",
			"outputs": [
				{
					"internalType": "bool",
					"name": "",
					"type": "bool"
				}
			],
			"stateMutability": "view",
			"type": "function"
		},
		{
			"inputs": [
				{
					"internalType": "address",
					"name": "_address",
					"type": "address"
				},
				{
					"internalType": "bool",
					"name": "_state",
					"type": "bool"
				}
			],
			"name": "updateBlacklist",
			"outputs": [],
			"stateMutability": "nonpayable",
			"type": "function"
		},
		{
			"inputs": [],
			"name": "updateInitiaLiquidityProvided",
			"outputs": [],
			"stateMutability": "nonpayable",
			"type": "function"
		},
		{
			"inputs": [
				{
					"internalType": "address",
					"name": "_address",
					"type": "address"
				},
				{
					"internalType": "bool",
					"name": "_state",
					"type": "bool"
				}
			],
			"name": "updateLPPair",
			"outputs": [],
			"stateMutability": "nonpayable",
			"type": "function"
		},
		{
			"inputs": [
				{
					"internalType": "uint256",
					"name": "newtax",
					"type": "uint256"
				}
			],
			"name": "updateTax",
			"outputs": [],
			"stateMutability": "nonpayable",
			"type": "function"
		},
		{
			"inputs": [
				{
					"internalType": "address",
					"name": "newDestination",
					"type": "address"
				}
			],
			"name": "updateTaxDestination",
			"outputs": [],
			"stateMutability": "nonpayable",
			"type": "function"
		},
		{
			"stateMutability": "payable",
			"type": "receive"
		}
	]
}